{
	"contracts/Projects/Voter.sol": {
		"Vote": {
			"abi": [
				{
					"inputs": [],
					"stateMutability": "nonpayable",
					"type": "constructor"
				},
				{
					"inputs": [],
					"name": "announceVotingResult",
					"outputs": [],
					"stateMutability": "nonpayable",
					"type": "function"
				},
				{
					"inputs": [
						{
							"internalType": "uint256",
							"name": "_voterId",
							"type": "uint256"
						},
						{
							"internalType": "uint256",
							"name": "_candidateId",
							"type": "uint256"
						}
					],
					"name": "castVote",
					"outputs": [],
					"stateMutability": "nonpayable",
					"type": "function"
				},
				{
					"inputs": [],
					"name": "electionCommission",
					"outputs": [
						{
							"internalType": "address",
							"name": "",
							"type": "address"
						}
					],
					"stateMutability": "view",
					"type": "function"
				},
				{
					"inputs": [],
					"name": "emergencyStopVoting",
					"outputs": [],
					"stateMutability": "nonpayable",
					"type": "function"
				},
				{
					"inputs": [],
					"name": "getCandidateList",
					"outputs": [
						{
							"components": [
								{
									"internalType": "string",
									"name": "name",
									"type": "string"
								},
								{
									"internalType": "string",
									"name": "party",
									"type": "string"
								},
								{
									"internalType": "uint256",
									"name": "age",
									"type": "uint256"
								},
								{
									"internalType": "enum Vote.Gender",
									"name": "gender",
									"type": "uint8"
								},
								{
									"internalType": "uint256",
									"name": "candidateId",
									"type": "uint256"
								},
								{
									"internalType": "address",
									"name": "candidateAddress",
									"type": "address"
								},
								{
									"internalType": "uint256",
									"name": "votes",
									"type": "uint256"
								}
							],
							"internalType": "struct Vote.Candidate[]",
							"name": "",
							"type": "tuple[]"
						}
					],
					"stateMutability": "view",
					"type": "function"
				},
				{
					"inputs": [],
					"name": "getVoterList",
					"outputs": [
						{
							"components": [
								{
									"internalType": "string",
									"name": "name",
									"type": "string"
								},
								{
									"internalType": "uint256",
									"name": "age",
									"type": "uint256"
								},
								{
									"internalType": "uint256",
									"name": "voterId",
									"type": "uint256"
								},
								{
									"internalType": "enum Vote.Gender",
									"name": "gender",
									"type": "uint8"
								},
								{
									"internalType": "uint256",
									"name": "voteCandidateId",
									"type": "uint256"
								},
								{
									"internalType": "address",
									"name": "voterAddress",
									"type": "address"
								}
							],
							"internalType": "struct Vote.Voter[]",
							"name": "",
							"type": "tuple[]"
						}
					],
					"stateMutability": "view",
					"type": "function"
				},
				{
					"inputs": [],
					"name": "getVotingStatus",
					"outputs": [
						{
							"internalType": "enum Vote.VotingStatus",
							"name": "",
							"type": "uint8"
						}
					],
					"stateMutability": "view",
					"type": "function"
				},
				{
					"inputs": [
						{
							"internalType": "string",
							"name": "_name",
							"type": "string"
						},
						{
							"internalType": "string",
							"name": "_party",
							"type": "string"
						},
						{
							"internalType": "uint256",
							"name": "_age",
							"type": "uint256"
						},
						{
							"internalType": "enum Vote.Gender",
							"name": "_gender",
							"type": "uint8"
						}
					],
					"name": "registerCandidate",
					"outputs": [],
					"stateMutability": "nonpayable",
					"type": "function"
				},
				{
					"inputs": [
						{
							"internalType": "string",
							"name": "_name",
							"type": "string"
						},
						{
							"internalType": "uint256",
							"name": "_age",
							"type": "uint256"
						},
						{
							"internalType": "enum Vote.Gender",
							"name": "_gender",
							"type": "uint8"
						}
					],
					"name": "registerVoter",
					"outputs": [],
					"stateMutability": "nonpayable",
					"type": "function"
				},
				{
					"inputs": [
						{
							"internalType": "uint256",
							"name": "_startTimeDuration",
							"type": "uint256"
						},
						{
							"internalType": "uint256",
							"name": "_endTimeDuration",
							"type": "uint256"
						}
					],
					"name": "setVotingPeriod",
					"outputs": [],
					"stateMutability": "nonpayable",
					"type": "function"
				},
				{
					"inputs": [],
					"name": "winner",
					"outputs": [
						{
							"internalType": "address",
							"name": "",
							"type": "address"
						}
					],
					"stateMutability": "view",
					"type": "function"
				}
			],
			"devdoc": {
				"kind": "dev",
				"methods": {},
				"version": 1
			},
			"evm": {
				"assembly": "    /* \"contracts/Projects/Voter.sol\":58:6354  contract Vote {... */\n  mstore(0x40, 0x80)\n    /* \"contracts/Projects/Voter.sol\":702:703  1 */\n  0x01\n    /* \"contracts/Projects/Voter.sol\":680:703  uint256 nextVoterId = 1 */\n  0x02\n  sstore\n    /* \"contracts/Projects/Voter.sol\":735:736  1 */\n  0x01\n    /* \"contracts/Projects/Voter.sol\":709:736  uint256 nextCandidateId = 1 */\n  0x03\n  sstore\n    /* \"contracts/Projects/Voter.sol\":1101:1197  constructor() {... */\n  callvalue\n  dup1\n  iszero\n  tag_1\n  jumpi\n  0x00\n  dup1\n  revert\ntag_1:\n  pop\n    /* \"contracts/Projects/Voter.sol\":1146:1156  msg.sender */\n  caller\n    /* \"contracts/Projects/Voter.sol\":1125:1143  electionCommission */\n  0x00\n  dup1\n    /* \"contracts/Projects/Voter.sol\":1125:1156  electionCommission = msg.sender */\n  0x0100\n  exp\n  dup2\n  sload\n  dup2\n  0xffffffffffffffffffffffffffffffffffffffff\n  mul\n  not\n  and\n  swap1\n  dup4\n  0xffffffffffffffffffffffffffffffffffffffff\n  and\n  mul\n  or\n  swap1\n  sstore\n  pop\n    /* \"contracts/Projects/Voter.sol\":58:6354  contract Vote {... */\n  dataSize(sub_0)\n  dup1\n  dataOffset(sub_0)\n  0x00\n  codecopy\n  0x00\n  return\nstop\n\nsub_0: assembly {\n        /* \"contracts/Projects/Voter.sol\":58:6354  contract Vote {... */\n      mstore(0x40, 0x80)\n      callvalue\n      dup1\n      iszero\n      tag_1\n      jumpi\n      0x00\n      dup1\n      revert\n    tag_1:\n      pop\n      jumpi(tag_2, lt(calldatasize, 0x04))\n      shr(0xe0, calldataload(0x00))\n      dup1\n      0x9fa4e440\n      gt\n      tag_14\n      jumpi\n      dup1\n      0x9fa4e440\n      eq\n      tag_8\n      jumpi\n      dup1\n      0xa15a36c7\n      eq\n      tag_9\n      jumpi\n      dup1\n      0xaab46b7f\n      eq\n      tag_10\n      jumpi\n      dup1\n      0xb28d92ae\n      eq\n      tag_11\n      jumpi\n      dup1\n      0xdfbf53ae\n      eq\n      tag_12\n      jumpi\n      dup1\n      0xfdbc4006\n      eq\n      tag_13\n      jumpi\n      jump(tag_2)\n    tag_14:\n      dup1\n      0x2c0a3f89\n      eq\n      tag_3\n      jumpi\n      dup1\n      0x581c281c\n      eq\n      tag_4\n      jumpi\n      dup1\n      0x6ce2ccc0\n      eq\n      tag_5\n      jumpi\n      dup1\n      0x81ba732f\n      eq\n      tag_6\n      jumpi\n      dup1\n      0x982c777d\n      eq\n      tag_7\n      jumpi\n    tag_2:\n      0x00\n      dup1\n      revert\n        /* \"contracts/Projects/Voter.sol\":4323:5046  function castVote(uint256 _voterId, uint256 _candidateId)... */\n    tag_3:\n      tag_15\n      0x04\n      dup1\n      calldatasize\n      sub\n      dup2\n      add\n      swap1\n      tag_16\n      swap2\n      swap1\n      tag_17\n      jump\t// in\n    tag_16:\n      tag_18\n      jump\t// in\n    tag_15:\n      stop\n        /* \"contracts/Projects/Voter.sol\":5477:5801  function getVotingStatus() public view returns (VotingStatus) {... */\n    tag_4:\n      tag_19\n      tag_20\n      jump\t// in\n    tag_19:\n      mload(0x40)\n      tag_21\n      swap2\n      swap1\n      tag_22\n      jump\t// in\n    tag_21:\n      mload(0x40)\n      dup1\n      swap2\n      sub\n      swap1\n      return\n        /* \"contracts/Projects/Voter.sol\":5807:6140  function announceVotingResult() external onlyCommissioner {... */\n    tag_5:\n      tag_23\n      tag_24\n      jump\t// in\n    tag_23:\n      stop\n        /* \"contracts/Projects/Voter.sol\":3518:3998  function registerVoter(... */\n    tag_6:\n      tag_25\n      0x04\n      dup1\n      calldatasize\n      sub\n      dup2\n      add\n      swap1\n      tag_26\n      swap2\n      swap1\n      tag_27\n      jump\t// in\n    tag_26:\n      tag_28\n      jump\t// in\n    tag_25:\n      stop\n        /* \"contracts/Projects/Voter.sol\":1739:2538  function registerCandidate(... */\n    tag_7:\n      tag_29\n      0x04\n      dup1\n      calldatasize\n      sub\n      dup2\n      add\n      swap1\n      tag_30\n      swap2\n      swap1\n      tag_31\n      jump\t// in\n    tag_30:\n      tag_32\n      jump\t// in\n    tag_29:\n      stop\n        /* \"contracts/Projects/Voter.sol\":6146:6235  function emergencyStopVoting() public onlyCommissioner {... */\n    tag_8:\n      tag_33\n      tag_34\n      jump\t// in\n    tag_33:\n      stop\n        /* \"contracts/Projects/Voter.sol\":5052:5471  function setVotingPeriod(... */\n    tag_9:\n      tag_35\n      0x04\n      dup1\n      calldatasize\n      sub\n      dup2\n      add\n      swap1\n      tag_36\n      swap2\n      swap1\n      tag_17\n      jump\t// in\n    tag_36:\n      tag_37\n      jump\t// in\n    tag_35:\n      stop\n        /* \"contracts/Projects/Voter.sol\":614:647  address public electionCommission */\n    tag_10:\n      tag_38\n      tag_39\n      jump\t// in\n    tag_38:\n      mload(0x40)\n      tag_40\n      swap2\n      swap1\n      tag_41\n      jump\t// in\n    tag_40:\n      mload(0x40)\n      dup1\n      swap2\n      sub\n      swap1\n      return\n        /* \"contracts/Projects/Voter.sol\":4004:4317  function getVoterList() public view returns (Voter[] memory) {... */\n    tag_11:\n      tag_42\n      tag_43\n      jump\t// in\n    tag_42:\n      mload(0x40)\n      tag_44\n      swap2\n      swap1\n      tag_45\n      jump\t// in\n    tag_44:\n      mload(0x40)\n      dup1\n      swap2\n      sub\n      swap1\n      return\n        /* \"contracts/Projects/Voter.sol\":653:674  address public winner */\n    tag_12:\n      tag_46\n      tag_47\n      jump\t// in\n    tag_46:\n      mload(0x40)\n      tag_48\n      swap2\n      swap1\n      tag_41\n      jump\t// in\n    tag_48:\n      mload(0x40)\n      dup1\n      swap2\n      sub\n      swap1\n      return\n        /* \"contracts/Projects/Voter.sol\":2862:3238  function getCandidateList() public view returns (Candidate[] memory) {... */\n    tag_13:\n      tag_49\n      tag_50\n      jump\t// in\n    tag_49:\n      mload(0x40)\n      tag_51\n      swap2\n      swap1\n      tag_52\n      jump\t// in\n    tag_51:\n      mload(0x40)\n      dup1\n      swap2\n      sub\n      swap1\n      return\n        /* \"contracts/Projects/Voter.sol\":4323:5046  function castVote(uint256 _voterId, uint256 _candidateId)... */\n    tag_18:\n        /* \"contracts/Projects/Voter.sol\":1277:1284  endTime */\n      sload(0x05)\n        /* \"contracts/Projects/Voter.sol\":1258:1273  block.timestamp */\n      timestamp\n        /* \"contracts/Projects/Voter.sol\":1258:1284  block.timestamp <= endTime */\n      gt\n      iszero\n        /* \"contracts/Projects/Voter.sol\":1258:1307  block.timestamp <= endTime && stopVoting == false */\n      dup1\n      iszero\n      tag_54\n      jumpi\n      pop\n        /* \"contracts/Projects/Voter.sol\":1302:1307  false */\n      0x00\n        /* \"contracts/Projects/Voter.sol\":1288:1307  stopVoting == false */\n      iszero\n      iszero\n        /* \"contracts/Projects/Voter.sol\":1288:1298  stopVoting */\n      0x06\n      0x00\n      swap1\n      sload\n      swap1\n      0x0100\n      exp\n      swap1\n      div\n      0xff\n      and\n        /* \"contracts/Projects/Voter.sol\":1288:1307  stopVoting == false */\n      iszero\n      iszero\n      eq\n        /* \"contracts/Projects/Voter.sol\":1258:1307  block.timestamp <= endTime && stopVoting == false */\n    tag_54:\n        /* \"contracts/Projects/Voter.sol\":1237:1352  require(... */\n      tag_55\n      jumpi\n      mload(0x40)\n      0x08c379a000000000000000000000000000000000000000000000000000000000\n      dup2\n      mstore\n      0x04\n      add\n      tag_56\n      swap1\n      tag_57\n      jump\t// in\n    tag_56:\n      mload(0x40)\n      dup1\n      swap2\n      sub\n      swap1\n      revert\n    tag_55:\n        /* \"contracts/Projects/Voter.sol\":4460:4469  startTime */\n      sload(0x04)\n        /* \"contracts/Projects/Voter.sol\":4441:4456  block.timestamp */\n      timestamp\n        /* \"contracts/Projects/Voter.sol\":4441:4469  block.timestamp >= startTime */\n      lt\n      iszero\n        /* \"contracts/Projects/Voter.sol\":4433:4500  require(block.timestamp >= startTime, \"Voting has not started yet\") */\n      tag_59\n      jumpi\n      mload(0x40)\n      0x08c379a000000000000000000000000000000000000000000000000000000000\n      dup2\n      mstore\n      0x04\n      add\n      tag_60\n      swap1\n      tag_61\n      jump\t// in\n    tag_60:\n      mload(0x40)\n      dup1\n      swap2\n      sub\n      swap1\n      revert\n    tag_59:\n        /* \"contracts/Projects/Voter.sol\":4573:4574  0 */\n      0x00\n        /* \"contracts/Projects/Voter.sol\":4531:4543  voterDetails */\n      0x07\n        /* \"contracts/Projects/Voter.sol\":4531:4553  voterDetails[_voterId] */\n      0x00\n        /* \"contracts/Projects/Voter.sol\":4544:4552  _voterId */\n      dup5\n        /* \"contracts/Projects/Voter.sol\":4531:4553  voterDetails[_voterId] */\n      dup2\n      mstore\n      0x20\n      add\n      swap1\n      dup2\n      mstore\n      0x20\n      add\n      0x00\n      keccak256\n        /* \"contracts/Projects/Voter.sol\":4531:4569  voterDetails[_voterId].voteCandidateId */\n      0x04\n      add\n      sload\n        /* \"contracts/Projects/Voter.sol\":4531:4574  voterDetails[_voterId].voteCandidateId == 0 */\n      eq\n        /* \"contracts/Projects/Voter.sol\":4510:4622  require(... */\n      tag_62\n      jumpi\n      mload(0x40)\n      0x08c379a000000000000000000000000000000000000000000000000000000000\n      dup2\n      mstore\n      0x04\n      add\n      tag_63\n      swap1\n      tag_64\n      jump\t// in\n    tag_63:\n      mload(0x40)\n      dup1\n      swap2\n      sub\n      swap1\n      revert\n    tag_62:\n        /* \"contracts/Projects/Voter.sol\":4692:4702  msg.sender */\n      caller\n        /* \"contracts/Projects/Voter.sol\":4653:4702  voterDetails[_voterId].voterAddress == msg.sender */\n      0xffffffffffffffffffffffffffffffffffffffff\n      and\n        /* \"contracts/Projects/Voter.sol\":4653:4665  voterDetails */\n      0x07\n        /* \"contracts/Projects/Voter.sol\":4653:4675  voterDetails[_voterId] */\n      0x00\n        /* \"contracts/Projects/Voter.sol\":4666:4674  _voterId */\n      dup5\n        /* \"contracts/Projects/Voter.sol\":4653:4675  voterDetails[_voterId] */\n      dup2\n      mstore\n      0x20\n      add\n      swap1\n      dup2\n      mstore\n      0x20\n      add\n      0x00\n      keccak256\n        /* \"contracts/Projects/Voter.sol\":4653:4688  voterDetails[_voterId].voterAddress */\n      0x05\n      add\n      0x00\n      swap1\n      sload\n      swap1\n      0x0100\n      exp\n      swap1\n      div\n      0xffffffffffffffffffffffffffffffffffffffff\n      and\n        /* \"contracts/Projects/Voter.sol\":4653:4702  voterDetails[_voterId].voterAddress == msg.sender */\n      0xffffffffffffffffffffffffffffffffffffffff\n      and\n      eq\n        /* \"contracts/Projects/Voter.sol\":4632:4751  require(... */\n      tag_65\n      jumpi\n      mload(0x40)\n      0x08c379a000000000000000000000000000000000000000000000000000000000\n      dup2\n      mstore\n      0x04\n      add\n      tag_66\n      swap1\n      tag_67\n      jump\t// in\n    tag_66:\n      mload(0x40)\n      dup1\n      swap2\n      sub\n      swap1\n      revert\n    tag_65:\n        /* \"contracts/Projects/Voter.sol\":4798:4799  1 */\n      0x01\n        /* \"contracts/Projects/Voter.sol\":4782:4794  _candidateId */\n      dup2\n        /* \"contracts/Projects/Voter.sol\":4782:4799  _candidateId >= 1 */\n      lt\n      iszero\n        /* \"contracts/Projects/Voter.sol\":4782:4819  _candidateId >= 1 && _candidateId < 3 */\n      dup1\n      iszero\n      tag_68\n      jumpi\n      pop\n        /* \"contracts/Projects/Voter.sol\":4818:4819  3 */\n      0x03\n        /* \"contracts/Projects/Voter.sol\":4803:4815  _candidateId */\n      dup2\n        /* \"contracts/Projects/Voter.sol\":4803:4819  _candidateId < 3 */\n      lt\n        /* \"contracts/Projects/Voter.sol\":4782:4819  _candidateId >= 1 && _candidateId < 3 */\n    tag_68:\n        /* \"contracts/Projects/Voter.sol\":4761:4872  require(... */\n      tag_69\n      jumpi\n      mload(0x40)\n      0x08c379a000000000000000000000000000000000000000000000000000000000\n      dup2\n      mstore\n      0x04\n      add\n      tag_70\n      swap1\n      tag_71\n      jump\t// in\n    tag_70:\n      mload(0x40)\n      dup1\n      swap2\n      sub\n      swap1\n      revert\n    tag_69:\n        /* \"contracts/Projects/Voter.sol\":4923:4935  _candidateId */\n      dup1\n        /* \"contracts/Projects/Voter.sol\":4882:4894  voterDetails */\n      0x07\n        /* \"contracts/Projects/Voter.sol\":4882:4904  voterDetails[_voterId] */\n      0x00\n        /* \"contracts/Projects/Voter.sol\":4895:4903  _voterId */\n      dup5\n        /* \"contracts/Projects/Voter.sol\":4882:4904  voterDetails[_voterId] */\n      dup2\n      mstore\n      0x20\n      add\n      swap1\n      dup2\n      mstore\n      0x20\n      add\n      0x00\n      keccak256\n        /* \"contracts/Projects/Voter.sol\":4882:4920  voterDetails[_voterId].voteCandidateId */\n      0x04\n      add\n        /* \"contracts/Projects/Voter.sol\":4882:4935  voterDetails[_voterId].voteCandidateId = _candidateId */\n      dup2\n      swap1\n      sstore\n      pop\n        /* \"contracts/Projects/Voter.sol\":4970:4986  candidateDetails */\n      0x08\n        /* \"contracts/Projects/Voter.sol\":4970:5000  candidateDetails[_candidateId] */\n      0x00\n        /* \"contracts/Projects/Voter.sol\":4987:4999  _candidateId */\n      dup3\n        /* \"contracts/Projects/Voter.sol\":4970:5000  candidateDetails[_candidateId] */\n      dup2\n      mstore\n      0x20\n      add\n      swap1\n      dup2\n      mstore\n      0x20\n      add\n      0x00\n      keccak256\n        /* \"contracts/Projects/Voter.sol\":4970:5006  candidateDetails[_candidateId].votes */\n      0x06\n      add\n      0x00\n        /* \"contracts/Projects/Voter.sol\":4970:5008  candidateDetails[_candidateId].votes++ */\n      dup2\n      sload\n      dup1\n      swap3\n      swap2\n      swap1\n      tag_72\n      swap1\n      tag_73\n      jump\t// in\n    tag_72:\n      swap2\n      swap1\n      pop\n      sstore\n      pop\n        /* \"contracts/Projects/Voter.sol\":4323:5046  function castVote(uint256 _voterId, uint256 _candidateId)... */\n      pop\n      pop\n      jump\t// out\n        /* \"contracts/Projects/Voter.sol\":5477:5801  function getVotingStatus() public view returns (VotingStatus) {... */\n    tag_20:\n        /* \"contracts/Projects/Voter.sol\":5525:5537  VotingStatus */\n      0x00\n        /* \"contracts/Projects/Voter.sol\":5566:5567  0 */\n      dup1\n        /* \"contracts/Projects/Voter.sol\":5553:5562  startTime */\n      sload(0x04)\n        /* \"contracts/Projects/Voter.sol\":5553:5567  startTime == 0 */\n      sub\n        /* \"contracts/Projects/Voter.sol\":5549:5795  if (startTime == 0) {... */\n      tag_75\n      jumpi\n        /* \"contracts/Projects/Voter.sol\":5590:5613  VotingStatus.NotStarted */\n      0x00\n        /* \"contracts/Projects/Voter.sol\":5583:5613  return VotingStatus.NotStarted */\n      swap1\n      pop\n      jump(tag_74)\n        /* \"contracts/Projects/Voter.sol\":5549:5795  if (startTime == 0) {... */\n    tag_75:\n        /* \"contracts/Projects/Voter.sol\":5644:5659  block.timestamp */\n      timestamp\n        /* \"contracts/Projects/Voter.sol\":5634:5641  endTime */\n      sload(0x05)\n        /* \"contracts/Projects/Voter.sol\":5634:5659  endTime > block.timestamp */\n      gt\n        /* \"contracts/Projects/Voter.sol\":5634:5682  endTime > block.timestamp && stopVoting == false */\n      dup1\n      iszero\n      tag_77\n      jumpi\n      pop\n        /* \"contracts/Projects/Voter.sol\":5677:5682  false */\n      0x00\n        /* \"contracts/Projects/Voter.sol\":5663:5682  stopVoting == false */\n      iszero\n      iszero\n        /* \"contracts/Projects/Voter.sol\":5663:5673  stopVoting */\n      0x06\n      0x00\n      swap1\n      sload\n      swap1\n      0x0100\n      exp\n      swap1\n      div\n      0xff\n      and\n        /* \"contracts/Projects/Voter.sol\":5663:5682  stopVoting == false */\n      iszero\n      iszero\n      eq\n        /* \"contracts/Projects/Voter.sol\":5634:5682  endTime > block.timestamp && stopVoting == false */\n    tag_77:\n        /* \"contracts/Projects/Voter.sol\":5630:5795  if (endTime > block.timestamp && stopVoting == false) {... */\n      iszero\n      tag_78\n      jumpi\n        /* \"contracts/Projects/Voter.sol\":5705:5728  VotingStatus.InProgress */\n      0x01\n        /* \"contracts/Projects/Voter.sol\":5698:5728  return VotingStatus.InProgress */\n      swap1\n      pop\n      jump(tag_74)\n        /* \"contracts/Projects/Voter.sol\":5630:5795  if (endTime > block.timestamp && stopVoting == false) {... */\n    tag_78:\n        /* \"contracts/Projects/Voter.sol\":5766:5784  VotingStatus.Ended */\n      0x02\n        /* \"contracts/Projects/Voter.sol\":5759:5784  return VotingStatus.Ended */\n      swap1\n      pop\n        /* \"contracts/Projects/Voter.sol\":5477:5801  function getVotingStatus() public view returns (VotingStatus) {... */\n    tag_74:\n      swap1\n      jump\t// out\n        /* \"contracts/Projects/Voter.sol\":5807:6140  function announceVotingResult() external onlyCommissioner {... */\n    tag_24:\n        /* \"contracts/Projects/Voter.sol\":1563:1581  electionCommission */\n      0x00\n      dup1\n      sload\n      swap1\n      0x0100\n      exp\n      swap1\n      div\n      0xffffffffffffffffffffffffffffffffffffffff\n      and\n        /* \"contracts/Projects/Voter.sol\":1549:1581  msg.sender == electionCommission */\n      0xffffffffffffffffffffffffffffffffffffffff\n      and\n        /* \"contracts/Projects/Voter.sol\":1549:1559  msg.sender */\n      caller\n        /* \"contracts/Projects/Voter.sol\":1549:1581  msg.sender == electionCommission */\n      0xffffffffffffffffffffffffffffffffffffffff\n      and\n      eq\n        /* \"contracts/Projects/Voter.sol\":1541:1601  require(msg.sender == electionCommission, \"Not authuorized\") */\n      tag_81\n      jumpi\n      mload(0x40)\n      0x08c379a000000000000000000000000000000000000000000000000000000000\n      dup2\n      mstore\n      0x04\n      add\n      tag_82\n      swap1\n      tag_83\n      jump\t// in\n    tag_82:\n      mload(0x40)\n      dup1\n      swap2\n      sub\n      swap1\n      revert\n    tag_81:\n        /* \"contracts/Projects/Voter.sol\":5875:5886  uint256 max */\n      0x00\n        /* \"contracts/Projects/Voter.sol\":5905:5914  uint256 i */\n      dup1\n        /* \"contracts/Projects/Voter.sol\":5917:5918  1 */\n      0x01\n        /* \"contracts/Projects/Voter.sol\":5905:5918  uint256 i = 1 */\n      swap1\n      pop\n        /* \"contracts/Projects/Voter.sol\":5900:6134  for (uint256 i = 1; i < nextCandidateId; i++) {... */\n    tag_85:\n        /* \"contracts/Projects/Voter.sol\":5924:5939  nextCandidateId */\n      sload(0x03)\n        /* \"contracts/Projects/Voter.sol\":5920:5921  i */\n      dup2\n        /* \"contracts/Projects/Voter.sol\":5920:5939  i < nextCandidateId */\n      lt\n        /* \"contracts/Projects/Voter.sol\":5900:6134  for (uint256 i = 1; i < nextCandidateId; i++) {... */\n      iszero\n      tag_86\n      jumpi\n        /* \"contracts/Projects/Voter.sol\":5992:5995  max */\n      dup2\n        /* \"contracts/Projects/Voter.sol\":5964:5980  candidateDetails */\n      0x08\n        /* \"contracts/Projects/Voter.sol\":5964:5983  candidateDetails[i] */\n      0x00\n        /* \"contracts/Projects/Voter.sol\":5981:5982  i */\n      dup4\n        /* \"contracts/Projects/Voter.sol\":5964:5983  candidateDetails[i] */\n      dup2\n      mstore\n      0x20\n      add\n      swap1\n      dup2\n      mstore\n      0x20\n      add\n      0x00\n      keccak256\n        /* \"contracts/Projects/Voter.sol\":5964:5989  candidateDetails[i].votes */\n      0x06\n      add\n      sload\n        /* \"contracts/Projects/Voter.sol\":5964:5995  candidateDetails[i].votes > max */\n      gt\n        /* \"contracts/Projects/Voter.sol\":5960:6124  if (candidateDetails[i].votes > max) {... */\n      iszero\n      tag_88\n      jumpi\n        /* \"contracts/Projects/Voter.sol\":6021:6037  candidateDetails */\n      0x08\n        /* \"contracts/Projects/Voter.sol\":6021:6040  candidateDetails[i] */\n      0x00\n        /* \"contracts/Projects/Voter.sol\":6038:6039  i */\n      dup3\n        /* \"contracts/Projects/Voter.sol\":6021:6040  candidateDetails[i] */\n      dup2\n      mstore\n      0x20\n      add\n      swap1\n      dup2\n      mstore\n      0x20\n      add\n      0x00\n      keccak256\n        /* \"contracts/Projects/Voter.sol\":6021:6046  candidateDetails[i].votes */\n      0x06\n      add\n      sload\n        /* \"contracts/Projects/Voter.sol\":6015:6046  max = candidateDetails[i].votes */\n      swap2\n      pop\n        /* \"contracts/Projects/Voter.sol\":6073:6089  candidateDetails */\n      0x08\n        /* \"contracts/Projects/Voter.sol\":6073:6092  candidateDetails[i] */\n      0x00\n        /* \"contracts/Projects/Voter.sol\":6090:6091  i */\n      dup3\n        /* \"contracts/Projects/Voter.sol\":6073:6092  candidateDetails[i] */\n      dup2\n      mstore\n      0x20\n      add\n      swap1\n      dup2\n      mstore\n      0x20\n      add\n      0x00\n      keccak256\n        /* \"contracts/Projects/Voter.sol\":6073:6109  candidateDetails[i].candidateAddress */\n      0x05\n      add\n      0x00\n      swap1\n      sload\n      swap1\n      0x0100\n      exp\n      swap1\n      div\n      0xffffffffffffffffffffffffffffffffffffffff\n      and\n        /* \"contracts/Projects/Voter.sol\":6064:6070  winner */\n      0x01\n      0x00\n        /* \"contracts/Projects/Voter.sol\":6064:6109  winner = candidateDetails[i].candidateAddress */\n      0x0100\n      exp\n      dup2\n      sload\n      dup2\n      0xffffffffffffffffffffffffffffffffffffffff\n      mul\n      not\n      and\n      swap1\n      dup4\n      0xffffffffffffffffffffffffffffffffffffffff\n      and\n      mul\n      or\n      swap1\n      sstore\n      pop\n        /* \"contracts/Projects/Voter.sol\":5960:6124  if (candidateDetails[i].votes > max) {... */\n    tag_88:\n        /* \"contracts/Projects/Voter.sol\":5941:5944  i++ */\n      dup1\n      dup1\n      0x01\n      add\n      swap2\n      pop\n      pop\n        /* \"contracts/Projects/Voter.sol\":5900:6134  for (uint256 i = 1; i < nextCandidateId; i++) {... */\n      jump(tag_85)\n    tag_86:\n      pop\n        /* \"contracts/Projects/Voter.sol\":5865:6140  {... */\n      pop\n        /* \"contracts/Projects/Voter.sol\":5807:6140  function announceVotingResult() external onlyCommissioner {... */\n      jump\t// out\n        /* \"contracts/Projects/Voter.sol\":3518:3998  function registerVoter(... */\n    tag_28:\n        /* \"contracts/Projects/Voter.sol\":3644:3648  _age */\n      dup2\n        /* \"contracts/Projects/Voter.sol\":1685:1687  18 */\n      0x12\n        /* \"contracts/Projects/Voter.sol\":1677:1681  _age */\n      dup2\n        /* \"contracts/Projects/Voter.sol\":1677:1687  _age >= 18 */\n      lt\n      iszero\n        /* \"contracts/Projects/Voter.sol\":1669:1715  require(_age >= 18, \"not eligible for voting\") */\n      tag_90\n      jumpi\n      mload(0x40)\n      0x08c379a000000000000000000000000000000000000000000000000000000000\n      dup2\n      mstore\n      0x04\n      add\n      tag_91\n      swap1\n      tag_92\n      jump\t// in\n    tag_91:\n      mload(0x40)\n      dup1\n      swap2\n      sub\n      swap1\n      revert\n    tag_90:\n        /* \"contracts/Projects/Voter.sol\":3668:3700  isVoterNotRegistered(msg.sender) */\n      tag_94\n        /* \"contracts/Projects/Voter.sol\":3689:3699  msg.sender */\n      caller\n        /* \"contracts/Projects/Voter.sol\":3668:3688  isVoterNotRegistered */\n      tag_95\n        /* \"contracts/Projects/Voter.sol\":3668:3700  isVoterNotRegistered(msg.sender) */\n      jump\t// in\n    tag_94:\n        /* \"contracts/Projects/Voter.sol\":3660:3731  require(isVoterNotRegistered(msg.sender), \"You are already registered\") */\n      tag_96\n      jumpi\n      mload(0x40)\n      0x08c379a000000000000000000000000000000000000000000000000000000000\n      dup2\n      mstore\n      0x04\n      add\n      tag_97\n      swap1\n      tag_98\n      jump\t// in\n    tag_97:\n      mload(0x40)\n      dup1\n      swap2\n      sub\n      swap1\n      revert\n    tag_96:\n        /* \"contracts/Projects/Voter.sol\":3770:3968  Voter({... */\n      mload(0x40)\n      dup1\n      0xc0\n      add\n      0x40\n      mstore\n      dup1\n        /* \"contracts/Projects/Voter.sol\":3796:3801  _name */\n      dup7\n      dup7\n        /* \"contracts/Projects/Voter.sol\":3770:3968  Voter({... */\n      dup1\n      dup1\n      0x1f\n      add\n      0x20\n      dup1\n      swap2\n      div\n      mul\n      0x20\n      add\n      mload(0x40)\n      swap1\n      dup2\n      add\n      0x40\n      mstore\n      dup1\n      swap4\n      swap3\n      swap2\n      swap1\n      dup2\n      dup2\n      mstore\n      0x20\n      add\n      dup4\n      dup4\n      dup1\n      dup3\n      dup5\n      calldatacopy\n      0x00\n      dup2\n      dup5\n      add\n      mstore\n      not(0x1f)\n      0x1f\n      dup3\n      add\n      and\n      swap1\n      pop\n      dup1\n      dup4\n      add\n      swap3\n      pop\n      pop\n      pop\n      pop\n      pop\n      pop\n      pop\n      dup2\n      mstore\n      0x20\n      add\n        /* \"contracts/Projects/Voter.sol\":3820:3824  _age */\n      dup5\n        /* \"contracts/Projects/Voter.sol\":3770:3968  Voter({... */\n      dup2\n      mstore\n      0x20\n      add\n        /* \"contracts/Projects/Voter.sol\":3847:3858  nextVoterId */\n      sload(0x02)\n        /* \"contracts/Projects/Voter.sol\":3770:3968  Voter({... */\n      dup2\n      mstore\n      0x20\n      add\n        /* \"contracts/Projects/Voter.sol\":3880:3887  _gender */\n      dup4\n        /* \"contracts/Projects/Voter.sol\":3770:3968  Voter({... */\n      0x03\n      dup2\n      gt\n      iszero\n      tag_99\n      jumpi\n      tag_100\n      tag_101\n      jump\t// in\n    tag_100:\n    tag_99:\n      dup2\n      mstore\n      0x20\n      add\n        /* \"contracts/Projects/Voter.sol\":3918:3919  0 */\n      0x00\n        /* \"contracts/Projects/Voter.sol\":3770:3968  Voter({... */\n      dup2\n      mstore\n      0x20\n      add\n        /* \"contracts/Projects/Voter.sol\":3947:3957  msg.sender */\n      caller\n        /* \"contracts/Projects/Voter.sol\":3770:3968  Voter({... */\n      0xffffffffffffffffffffffffffffffffffffffff\n      and\n      dup2\n      mstore\n      pop\n        /* \"contracts/Projects/Voter.sol\":3742:3754  voterDetails */\n      0x07\n        /* \"contracts/Projects/Voter.sol\":3742:3767  voterDetails[nextVoterId] */\n      0x00\n        /* \"contracts/Projects/Voter.sol\":3755:3766  nextVoterId */\n      sload(0x02)\n        /* \"contracts/Projects/Voter.sol\":3742:3767  voterDetails[nextVoterId] */\n      dup2\n      mstore\n      0x20\n      add\n      swap1\n      dup2\n      mstore\n      0x20\n      add\n      0x00\n      keccak256\n        /* \"contracts/Projects/Voter.sol\":3742:3968  voterDetails[nextVoterId] = Voter({... */\n      0x00\n      dup3\n      add\n      mload\n      dup2\n      0x00\n      add\n      swap1\n      dup2\n      tag_102\n      swap2\n      swap1\n      tag_103\n      jump\t// in\n    tag_102:\n      pop\n      0x20\n      dup3\n      add\n      mload\n      dup2\n      0x01\n      add\n      sstore\n      0x40\n      dup3\n      add\n      mload\n      dup2\n      0x02\n      add\n      sstore\n      0x60\n      dup3\n      add\n      mload\n      dup2\n      0x03\n      add\n      exp(0x0100, 0x00)\n      dup2\n      sload\n      dup2\n      0xff\n      mul\n      not\n      and\n      swap1\n      dup4\n      0x03\n      dup2\n      gt\n      iszero\n      tag_104\n      jumpi\n      tag_105\n      tag_101\n      jump\t// in\n    tag_105:\n    tag_104:\n      mul\n      or\n      swap1\n      sstore\n      pop\n      0x80\n      dup3\n      add\n      mload\n      dup2\n      0x04\n      add\n      sstore\n      0xa0\n      dup3\n      add\n      mload\n      dup2\n      0x05\n      add\n      exp(0x0100, 0x00)\n      dup2\n      sload\n      dup2\n      0xffffffffffffffffffffffffffffffffffffffff\n      mul\n      not\n      and\n      swap1\n      dup4\n      0xffffffffffffffffffffffffffffffffffffffff\n      and\n      mul\n      or\n      swap1\n      sstore\n      pop\n      swap1\n      pop\n      pop\n        /* \"contracts/Projects/Voter.sol\":3978:3989  nextVoterId */\n      0x02\n      0x00\n        /* \"contracts/Projects/Voter.sol\":3978:3991  nextVoterId++ */\n      dup2\n      sload\n      dup1\n      swap3\n      swap2\n      swap1\n      tag_106\n      swap1\n      tag_73\n      jump\t// in\n    tag_106:\n      swap2\n      swap1\n      pop\n      sstore\n      pop\n        /* \"contracts/Projects/Voter.sol\":3518:3998  function registerVoter(... */\n      pop\n      pop\n      pop\n      pop\n      pop\n      jump\t// out\n        /* \"contracts/Projects/Voter.sol\":1739:2538  function registerCandidate(... */\n    tag_32:\n        /* \"contracts/Projects/Voter.sol\":1901:1905  _age */\n      dup2\n        /* \"contracts/Projects/Voter.sol\":1685:1687  18 */\n      0x12\n        /* \"contracts/Projects/Voter.sol\":1677:1681  _age */\n      dup2\n        /* \"contracts/Projects/Voter.sol\":1677:1687  _age >= 18 */\n      lt\n      iszero\n        /* \"contracts/Projects/Voter.sol\":1669:1715  require(_age >= 18, \"not eligible for voting\") */\n      tag_108\n      jumpi\n      mload(0x40)\n      0x08c379a000000000000000000000000000000000000000000000000000000000\n      dup2\n      mstore\n      0x04\n      add\n      tag_109\n      swap1\n      tag_92\n      jump\t// in\n    tag_109:\n      mload(0x40)\n      dup1\n      swap2\n      sub\n      swap1\n      revert\n    tag_108:\n        /* \"contracts/Projects/Voter.sol\":1938:1974  isCandidateNotRegistered(msg.sender) */\n      tag_111\n        /* \"contracts/Projects/Voter.sol\":1963:1973  msg.sender */\n      caller\n        /* \"contracts/Projects/Voter.sol\":1938:1962  isCandidateNotRegistered */\n      tag_112\n        /* \"contracts/Projects/Voter.sol\":1938:1974  isCandidateNotRegistered(msg.sender) */\n      jump\t// in\n    tag_111:\n        /* \"contracts/Projects/Voter.sol\":1917:2026  require(... */\n      tag_113\n      jumpi\n      mload(0x40)\n      0x08c379a000000000000000000000000000000000000000000000000000000000\n      dup2\n      mstore\n      0x04\n      add\n      tag_114\n      swap1\n      tag_98\n      jump\t// in\n    tag_114:\n      mload(0x40)\n      dup1\n      swap2\n      sub\n      swap1\n      revert\n    tag_113:\n        /* \"contracts/Projects/Voter.sol\":2062:2063  3 */\n      0x03\n        /* \"contracts/Projects/Voter.sol\":2044:2059  nextCandidateId */\n      dup1\n      sload\n        /* \"contracts/Projects/Voter.sol\":2044:2063  nextCandidateId < 3 */\n      lt\n        /* \"contracts/Projects/Voter.sol\":2036:2095  require(nextCandidateId < 3, \"Candidate Registration Full\") */\n      tag_115\n      jumpi\n      mload(0x40)\n      0x08c379a000000000000000000000000000000000000000000000000000000000\n      dup2\n      mstore\n      0x04\n      add\n      tag_116\n      swap1\n      tag_117\n      jump\t// in\n    tag_116:\n      mload(0x40)\n      dup1\n      swap2\n      sub\n      swap1\n      revert\n    tag_115:\n        /* \"contracts/Projects/Voter.sol\":2140:2158  electionCommission */\n      0x00\n      dup1\n      sload\n      swap1\n      0x0100\n      exp\n      swap1\n      div\n      0xffffffffffffffffffffffffffffffffffffffff\n      and\n        /* \"contracts/Projects/Voter.sol\":2126:2158  msg.sender != electionCommission */\n      0xffffffffffffffffffffffffffffffffffffffff\n      and\n        /* \"contracts/Projects/Voter.sol\":2126:2136  msg.sender */\n      caller\n        /* \"contracts/Projects/Voter.sol\":2126:2158  msg.sender != electionCommission */\n      0xffffffffffffffffffffffffffffffffffffffff\n      and\n      sub\n        /* \"contracts/Projects/Voter.sol\":2105:2226  require(... */\n      tag_118\n      jumpi\n      mload(0x40)\n      0x08c379a000000000000000000000000000000000000000000000000000000000\n      dup2\n      mstore\n      0x04\n      add\n      tag_119\n      swap1\n      tag_120\n      jump\t// in\n    tag_119:\n      mload(0x40)\n      dup1\n      swap2\n      sub\n      swap1\n      revert\n    tag_118:\n        /* \"contracts/Projects/Voter.sol\":2273:2504  Candidate({... */\n      mload(0x40)\n      dup1\n      0xe0\n      add\n      0x40\n      mstore\n      dup1\n        /* \"contracts/Projects/Voter.sol\":2303:2308  _name */\n      dup9\n      dup9\n        /* \"contracts/Projects/Voter.sol\":2273:2504  Candidate({... */\n      dup1\n      dup1\n      0x1f\n      add\n      0x20\n      dup1\n      swap2\n      div\n      mul\n      0x20\n      add\n      mload(0x40)\n      swap1\n      dup2\n      add\n      0x40\n      mstore\n      dup1\n      swap4\n      swap3\n      swap2\n      swap1\n      dup2\n      dup2\n      mstore\n      0x20\n      add\n      dup4\n      dup4\n      dup1\n      dup3\n      dup5\n      calldatacopy\n      0x00\n      dup2\n      dup5\n      add\n      mstore\n      not(0x1f)\n      0x1f\n      dup3\n      add\n      and\n      swap1\n      pop\n      dup1\n      dup4\n      add\n      swap3\n      pop\n      pop\n      pop\n      pop\n      pop\n      pop\n      pop\n      dup2\n      mstore\n      0x20\n      add\n        /* \"contracts/Projects/Voter.sol\":2329:2335  _party */\n      dup7\n      dup7\n        /* \"contracts/Projects/Voter.sol\":2273:2504  Candidate({... */\n      dup1\n      dup1\n      0x1f\n      add\n      0x20\n      dup1\n      swap2\n      div\n      mul\n      0x20\n      add\n      mload(0x40)\n      swap1\n      dup2\n      add\n      0x40\n      mstore\n      dup1\n      swap4\n      swap3\n      swap2\n      swap1\n      dup2\n      dup2\n      mstore\n      0x20\n      add\n      dup4\n      dup4\n      dup1\n      dup3\n      dup5\n      calldatacopy\n      0x00\n      dup2\n      dup5\n      add\n      mstore\n      not(0x1f)\n      0x1f\n      dup3\n      add\n      and\n      swap1\n      pop\n      dup1\n      dup4\n      add\n      swap3\n      pop\n      pop\n      pop\n      pop\n      pop\n      pop\n      pop\n      dup2\n      mstore\n      0x20\n      add\n        /* \"contracts/Projects/Voter.sol\":2383:2387  _age */\n      dup5\n        /* \"contracts/Projects/Voter.sol\":2273:2504  Candidate({... */\n      dup2\n      mstore\n      0x20\n      add\n        /* \"contracts/Projects/Voter.sol\":2357:2364  _gender */\n      dup4\n        /* \"contracts/Projects/Voter.sol\":2273:2504  Candidate({... */\n      0x03\n      dup2\n      gt\n      iszero\n      tag_121\n      jumpi\n      tag_122\n      tag_101\n      jump\t// in\n    tag_122:\n    tag_121:\n      dup2\n      mstore\n      0x20\n      add\n        /* \"contracts/Projects/Voter.sol\":2414:2429  nextCandidateId */\n      sload(0x03)\n        /* \"contracts/Projects/Voter.sol\":2273:2504  Candidate({... */\n      dup2\n      mstore\n      0x20\n      add\n        /* \"contracts/Projects/Voter.sol\":2461:2471  msg.sender */\n      caller\n        /* \"contracts/Projects/Voter.sol\":2273:2504  Candidate({... */\n      0xffffffffffffffffffffffffffffffffffffffff\n      and\n      dup2\n      mstore\n      0x20\n      add\n        /* \"contracts/Projects/Voter.sol\":2492:2493  0 */\n      0x00\n        /* \"contracts/Projects/Voter.sol\":2273:2504  Candidate({... */\n      dup2\n      mstore\n      pop\n        /* \"contracts/Projects/Voter.sol\":2237:2253  candidateDetails */\n      0x08\n        /* \"contracts/Projects/Voter.sol\":2237:2270  candidateDetails[nextCandidateId] */\n      0x00\n        /* \"contracts/Projects/Voter.sol\":2254:2269  nextCandidateId */\n      sload(0x03)\n        /* \"contracts/Projects/Voter.sol\":2237:2270  candidateDetails[nextCandidateId] */\n      dup2\n      mstore\n      0x20\n      add\n      swap1\n      dup2\n      mstore\n      0x20\n      add\n      0x00\n      keccak256\n        /* \"contracts/Projects/Voter.sol\":2237:2504  candidateDetails[nextCandidateId] = Candidate({... */\n      0x00\n      dup3\n      add\n      mload\n      dup2\n      0x00\n      add\n      swap1\n      dup2\n      tag_123\n      swap2\n      swap1\n      tag_103\n      jump\t// in\n    tag_123:\n      pop\n      0x20\n      dup3\n      add\n      mload\n      dup2\n      0x01\n      add\n      swap1\n      dup2\n      tag_124\n      swap2\n      swap1\n      tag_103\n      jump\t// in\n    tag_124:\n      pop\n      0x40\n      dup3\n      add\n      mload\n      dup2\n      0x02\n      add\n      sstore\n      0x60\n      dup3\n      add\n      mload\n      dup2\n      0x03\n      add\n      exp(0x0100, 0x00)\n      dup2\n      sload\n      dup2\n      0xff\n      mul\n      not\n      and\n      swap1\n      dup4\n      0x03\n      dup2\n      gt\n      iszero\n      tag_125\n      jumpi\n      tag_126\n      tag_101\n      jump\t// in\n    tag_126:\n    tag_125:\n      mul\n      or\n      swap1\n      sstore\n      pop\n      0x80\n      dup3\n      add\n      mload\n      dup2\n      0x04\n      add\n      sstore\n      0xa0\n      dup3\n      add\n      mload\n      dup2\n      0x05\n      add\n      exp(0x0100, 0x00)\n      dup2\n      sload\n      dup2\n      0xffffffffffffffffffffffffffffffffffffffff\n      mul\n      not\n      and\n      swap1\n      dup4\n      0xffffffffffffffffffffffffffffffffffffffff\n      and\n      mul\n      or\n      swap1\n      sstore\n      pop\n      0xc0\n      dup3\n      add\n      mload\n      dup2\n      0x06\n      add\n      sstore\n      swap1\n      pop\n      pop\n        /* \"contracts/Projects/Voter.sol\":2514:2529  nextCandidateId */\n      0x03\n      0x00\n        /* \"contracts/Projects/Voter.sol\":2514:2531  nextCandidateId++ */\n      dup2\n      sload\n      dup1\n      swap3\n      swap2\n      swap1\n      tag_127\n      swap1\n      tag_73\n      jump\t// in\n    tag_127:\n      swap2\n      swap1\n      pop\n      sstore\n      pop\n        /* \"contracts/Projects/Voter.sol\":1739:2538  function registerCandidate(... */\n      pop\n      pop\n      pop\n      pop\n      pop\n      pop\n      pop\n      jump\t// out\n        /* \"contracts/Projects/Voter.sol\":6146:6235  function emergencyStopVoting() public onlyCommissioner {... */\n    tag_34:\n        /* \"contracts/Projects/Voter.sol\":1563:1581  electionCommission */\n      0x00\n      dup1\n      sload\n      swap1\n      0x0100\n      exp\n      swap1\n      div\n      0xffffffffffffffffffffffffffffffffffffffff\n      and\n        /* \"contracts/Projects/Voter.sol\":1549:1581  msg.sender == electionCommission */\n      0xffffffffffffffffffffffffffffffffffffffff\n      and\n        /* \"contracts/Projects/Voter.sol\":1549:1559  msg.sender */\n      caller\n        /* \"contracts/Projects/Voter.sol\":1549:1581  msg.sender == electionCommission */\n      0xffffffffffffffffffffffffffffffffffffffff\n      and\n      eq\n        /* \"contracts/Projects/Voter.sol\":1541:1601  require(msg.sender == electionCommission, \"Not authuorized\") */\n      tag_129\n      jumpi\n      mload(0x40)\n      0x08c379a000000000000000000000000000000000000000000000000000000000\n      dup2\n      mstore\n      0x04\n      add\n      tag_130\n      swap1\n      tag_83\n      jump\t// in\n    tag_130:\n      mload(0x40)\n      dup1\n      swap2\n      sub\n      swap1\n      revert\n    tag_129:\n        /* \"contracts/Projects/Voter.sol\":6224:6228  true */\n      0x01\n        /* \"contracts/Projects/Voter.sol\":6211:6221  stopVoting */\n      0x06\n      0x00\n        /* \"contracts/Projects/Voter.sol\":6211:6228  stopVoting = true */\n      0x0100\n      exp\n      dup2\n      sload\n      dup2\n      0xff\n      mul\n      not\n      and\n      swap1\n      dup4\n      iszero\n      iszero\n      mul\n      or\n      swap1\n      sstore\n      pop\n        /* \"contracts/Projects/Voter.sol\":6146:6235  function emergencyStopVoting() public onlyCommissioner {... */\n      jump\t// out\n        /* \"contracts/Projects/Voter.sol\":5052:5471  function setVotingPeriod(... */\n    tag_37:\n        /* \"contracts/Projects/Voter.sol\":1563:1581  electionCommission */\n      0x00\n      dup1\n      sload\n      swap1\n      0x0100\n      exp\n      swap1\n      div\n      0xffffffffffffffffffffffffffffffffffffffff\n      and\n        /* \"contracts/Projects/Voter.sol\":1549:1581  msg.sender == electionCommission */\n      0xffffffffffffffffffffffffffffffffffffffff\n      and\n        /* \"contracts/Projects/Voter.sol\":1549:1559  msg.sender */\n      caller\n        /* \"contracts/Projects/Voter.sol\":1549:1581  msg.sender == electionCommission */\n      0xffffffffffffffffffffffffffffffffffffffff\n      and\n      eq\n        /* \"contracts/Projects/Voter.sol\":1541:1601  require(msg.sender == electionCommission, \"Not authuorized\") */\n      tag_133\n      jumpi\n      mload(0x40)\n      0x08c379a000000000000000000000000000000000000000000000000000000000\n      dup2\n      mstore\n      0x04\n      add\n      tag_134\n      swap1\n      tag_83\n      jump\t// in\n    tag_134:\n      mload(0x40)\n      dup1\n      swap2\n      sub\n      swap1\n      revert\n    tag_133:\n        /* \"contracts/Projects/Voter.sol\":5230:5234  3600 */\n      0x0e10\n        /* \"contracts/Projects/Voter.sol\":5210:5226  _endTimeDuration */\n      dup2\n        /* \"contracts/Projects/Voter.sol\":5210:5234  _endTimeDuration >= 3600 */\n      lt\n      iszero\n        /* \"contracts/Projects/Voter.sol\":5189:5304  require(... */\n      tag_136\n      jumpi\n      mload(0x40)\n      0x08c379a000000000000000000000000000000000000000000000000000000000\n      dup2\n      mstore\n      0x04\n      add\n      tag_137\n      swap1\n      tag_138\n      jump\t// in\n    tag_137:\n      mload(0x40)\n      dup1\n      swap2\n      sub\n      swap1\n      revert\n    tag_136:\n        /* \"contracts/Projects/Voter.sol\":5344:5362  _startTimeDuration */\n      dup2\n        /* \"contracts/Projects/Voter.sol\":5326:5341  block.timestamp */\n      timestamp\n        /* \"contracts/Projects/Voter.sol\":5326:5362  block.timestamp + _startTimeDuration */\n      tag_139\n      swap2\n      swap1\n      tag_140\n      jump\t// in\n    tag_139:\n        /* \"contracts/Projects/Voter.sol\":5314:5323  startTime */\n      0x04\n        /* \"contracts/Projects/Voter.sol\":5314:5362  startTime = block.timestamp + _startTimeDuration */\n      dup2\n      swap1\n      sstore\n      pop\n        /* \"contracts/Projects/Voter.sol\":5448:5464  _endTimeDuration */\n      dup1\n        /* \"contracts/Projects/Voter.sol\":5436:5445  startTime */\n      sload(0x04)\n        /* \"contracts/Projects/Voter.sol\":5436:5464  startTime + _endTimeDuration */\n      tag_141\n      swap2\n      swap1\n      tag_140\n      jump\t// in\n    tag_141:\n        /* \"contracts/Projects/Voter.sol\":5426:5433  endTime */\n      0x05\n        /* \"contracts/Projects/Voter.sol\":5426:5464  endTime = startTime + _endTimeDuration */\n      dup2\n      swap1\n      sstore\n      pop\n        /* \"contracts/Projects/Voter.sol\":5052:5471  function setVotingPeriod(... */\n      pop\n      pop\n      jump\t// out\n        /* \"contracts/Projects/Voter.sol\":614:647  address public electionCommission */\n    tag_39:\n      0x00\n      dup1\n      sload\n      swap1\n      0x0100\n      exp\n      swap1\n      div\n      0xffffffffffffffffffffffffffffffffffffffff\n      and\n      dup2\n      jump\t// out\n        /* \"contracts/Projects/Voter.sol\":4004:4317  function getVoterList() public view returns (Voter[] memory) {... */\n    tag_43:\n        /* \"contracts/Projects/Voter.sol\":4049:4063  Voter[] memory */\n      0x60\n        /* \"contracts/Projects/Voter.sol\":4075:4092  uint256 lengthArr */\n      0x00\n        /* \"contracts/Projects/Voter.sol\":4109:4110  1 */\n      0x01\n        /* \"contracts/Projects/Voter.sol\":4095:4106  nextVoterId */\n      sload(0x02)\n        /* \"contracts/Projects/Voter.sol\":4095:4110  nextVoterId - 1 */\n      tag_143\n      swap2\n      swap1\n      tag_144\n      jump\t// in\n    tag_143:\n        /* \"contracts/Projects/Voter.sol\":4075:4110  uint256 lengthArr = nextVoterId - 1 */\n      swap1\n      pop\n        /* \"contracts/Projects/Voter.sol\":4120:4144  Voter[] memory voterList */\n      0x00\n        /* \"contracts/Projects/Voter.sol\":4159:4168  lengthArr */\n      dup2\n        /* \"contracts/Projects/Voter.sol\":4147:4169  new Voter[](lengthArr) */\n      0xffffffffffffffff\n      dup2\n      gt\n      iszero\n      tag_145\n      jumpi\n      tag_146\n      tag_147\n      jump\t// in\n    tag_146:\n    tag_145:\n      mload(0x40)\n      swap1\n      dup1\n      dup3\n      mstore\n      dup1\n      0x20\n      mul\n      0x20\n      add\n      dup3\n      add\n      0x40\n      mstore\n      dup1\n      iszero\n      tag_148\n      jumpi\n      dup2\n      0x20\n      add\n    tag_149:\n      tag_150\n      tag_151\n      jump\t// in\n    tag_150:\n      dup2\n      mstore\n      0x20\n      add\n      swap1\n      0x01\n      swap1\n      sub\n      swap1\n      dup2\n      tag_149\n      jumpi\n      swap1\n      pop\n    tag_148:\n      pop\n        /* \"contracts/Projects/Voter.sol\":4120:4169  Voter[] memory voterList = new Voter[](lengthArr) */\n      swap1\n      pop\n        /* \"contracts/Projects/Voter.sol\":4184:4193  uint256 i */\n      0x00\n        /* \"contracts/Projects/Voter.sol\":4179:4285  for (uint256 i = 0; i < voterList.length; i++) {... */\n    tag_152:\n        /* \"contracts/Projects/Voter.sol\":4203:4212  voterList */\n      dup2\n        /* \"contracts/Projects/Voter.sol\":4203:4219  voterList.length */\n      mload\n        /* \"contracts/Projects/Voter.sol\":4199:4200  i */\n      dup2\n        /* \"contracts/Projects/Voter.sol\":4199:4219  i < voterList.length */\n      lt\n        /* \"contracts/Projects/Voter.sol\":4179:4285  for (uint256 i = 0; i < voterList.length; i++) {... */\n      iszero\n      tag_153\n      jumpi\n        /* \"contracts/Projects/Voter.sol\":4255:4267  voterDetails */\n      0x07\n        /* \"contracts/Projects/Voter.sol\":4255:4274  voterDetails[i + 1] */\n      0x00\n        /* \"contracts/Projects/Voter.sol\":4272:4273  1 */\n      0x01\n        /* \"contracts/Projects/Voter.sol\":4268:4269  i */\n      dup4\n        /* \"contracts/Projects/Voter.sol\":4268:4273  i + 1 */\n      tag_155\n      swap2\n      swap1\n      tag_140\n      jump\t// in\n    tag_155:\n        /* \"contracts/Projects/Voter.sol\":4255:4274  voterDetails[i + 1] */\n      dup2\n      mstore\n      0x20\n      add\n      swap1\n      dup2\n      mstore\n      0x20\n      add\n      0x00\n      keccak256\n        /* \"contracts/Projects/Voter.sol\":4240:4274  voterList[i] = voterDetails[i + 1] */\n      mload(0x40)\n      dup1\n      0xc0\n      add\n      0x40\n      mstore\n      swap1\n      dup2\n      0x00\n      dup3\n      add\n      dup1\n      sload\n      tag_156\n      swap1\n      tag_157\n      jump\t// in\n    tag_156:\n      dup1\n      0x1f\n      add\n      0x20\n      dup1\n      swap2\n      div\n      mul\n      0x20\n      add\n      mload(0x40)\n      swap1\n      dup2\n      add\n      0x40\n      mstore\n      dup1\n      swap3\n      swap2\n      swap1\n      dup2\n      dup2\n      mstore\n      0x20\n      add\n      dup3\n      dup1\n      sload\n      tag_158\n      swap1\n      tag_157\n      jump\t// in\n    tag_158:\n      dup1\n      iszero\n      tag_159\n      jumpi\n      dup1\n      0x1f\n      lt\n      tag_160\n      jumpi\n      0x0100\n      dup1\n      dup4\n      sload\n      div\n      mul\n      dup4\n      mstore\n      swap2\n      0x20\n      add\n      swap2\n      jump(tag_159)\n    tag_160:\n      dup3\n      add\n      swap2\n      swap1\n      0x00\n      mstore\n      keccak256(0x00, 0x20)\n      swap1\n    tag_161:\n      dup2\n      sload\n      dup2\n      mstore\n      swap1\n      0x01\n      add\n      swap1\n      0x20\n      add\n      dup1\n      dup4\n      gt\n      tag_161\n      jumpi\n      dup3\n      swap1\n      sub\n      0x1f\n      and\n      dup3\n      add\n      swap2\n    tag_159:\n      pop\n      pop\n      pop\n      pop\n      pop\n      dup2\n      mstore\n      0x20\n      add\n      0x01\n      dup3\n      add\n      sload\n      dup2\n      mstore\n      0x20\n      add\n      0x02\n      dup3\n      add\n      sload\n      dup2\n      mstore\n      0x20\n      add\n      0x03\n      dup3\n      add\n      0x00\n      swap1\n      sload\n      swap1\n      0x0100\n      exp\n      swap1\n      div\n      0xff\n      and\n      0x03\n      dup2\n      gt\n      iszero\n      tag_162\n      jumpi\n      tag_163\n      tag_101\n      jump\t// in\n    tag_163:\n    tag_162:\n      0x03\n      dup2\n      gt\n      iszero\n      tag_164\n      jumpi\n      tag_165\n      tag_101\n      jump\t// in\n    tag_165:\n    tag_164:\n      dup2\n      mstore\n      0x20\n      add\n      0x04\n      dup3\n      add\n      sload\n      dup2\n      mstore\n      0x20\n      add\n      0x05\n      dup3\n      add\n      0x00\n      swap1\n      sload\n      swap1\n      0x0100\n      exp\n      swap1\n      div\n      0xffffffffffffffffffffffffffffffffffffffff\n      and\n      0xffffffffffffffffffffffffffffffffffffffff\n      and\n      0xffffffffffffffffffffffffffffffffffffffff\n      and\n      dup2\n      mstore\n      pop\n      pop\n        /* \"contracts/Projects/Voter.sol\":4240:4249  voterList */\n      dup3\n        /* \"contracts/Projects/Voter.sol\":4250:4251  i */\n      dup3\n        /* \"contracts/Projects/Voter.sol\":4240:4252  voterList[i] */\n      dup2\n      mload\n      dup2\n      lt\n      tag_166\n      jumpi\n      tag_167\n      tag_168\n      jump\t// in\n    tag_167:\n    tag_166:\n      0x20\n      mul\n      0x20\n      add\n      add\n        /* \"contracts/Projects/Voter.sol\":4240:4274  voterList[i] = voterDetails[i + 1] */\n      dup2\n      swap1\n      mstore\n      pop\n        /* \"contracts/Projects/Voter.sol\":4221:4224  i++ */\n      dup1\n      dup1\n      0x01\n      add\n      swap2\n      pop\n      pop\n        /* \"contracts/Projects/Voter.sol\":4179:4285  for (uint256 i = 0; i < voterList.length; i++) {... */\n      jump(tag_152)\n    tag_153:\n      pop\n        /* \"contracts/Projects/Voter.sol\":4301:4310  voterList */\n      dup1\n        /* \"contracts/Projects/Voter.sol\":4294:4310  return voterList */\n      swap3\n      pop\n      pop\n      pop\n        /* \"contracts/Projects/Voter.sol\":4004:4317  function getVoterList() public view returns (Voter[] memory) {... */\n      swap1\n      jump\t// out\n        /* \"contracts/Projects/Voter.sol\":653:674  address public winner */\n    tag_47:\n      0x01\n      0x00\n      swap1\n      sload\n      swap1\n      0x0100\n      exp\n      swap1\n      div\n      0xffffffffffffffffffffffffffffffffffffffff\n      and\n      dup2\n      jump\t// out\n        /* \"contracts/Projects/Voter.sol\":2862:3238  function getCandidateList() public view returns (Candidate[] memory) {... */\n    tag_50:\n        /* \"contracts/Projects/Voter.sol\":2911:2929  Candidate[] memory */\n      0x60\n        /* \"contracts/Projects/Voter.sol\":2941:2973  Candidate[] memory candidateList */\n      0x00\n        /* \"contracts/Projects/Voter.sol\":3010:3011  1 */\n      0x01\n        /* \"contracts/Projects/Voter.sol\":2992:3007  nextCandidateId */\n      sload(0x03)\n        /* \"contracts/Projects/Voter.sol\":2992:3011  nextCandidateId - 1 */\n      tag_170\n      swap2\n      swap1\n      tag_144\n      jump\t// in\n    tag_170:\n        /* \"contracts/Projects/Voter.sol\":2976:3012  new Candidate[](nextCandidateId - 1) */\n      0xffffffffffffffff\n      dup2\n      gt\n      iszero\n      tag_171\n      jumpi\n      tag_172\n      tag_147\n      jump\t// in\n    tag_172:\n    tag_171:\n      mload(0x40)\n      swap1\n      dup1\n      dup3\n      mstore\n      dup1\n      0x20\n      mul\n      0x20\n      add\n      dup3\n      add\n      0x40\n      mstore\n      dup1\n      iszero\n      tag_173\n      jumpi\n      dup2\n      0x20\n      add\n    tag_174:\n      tag_175\n      tag_176\n      jump\t// in\n    tag_175:\n      dup2\n      mstore\n      0x20\n      add\n      swap1\n      0x01\n      swap1\n      sub\n      swap1\n      dup2\n      tag_174\n      jumpi\n      swap1\n      pop\n    tag_173:\n      pop\n        /* \"contracts/Projects/Voter.sol\":2941:3012  Candidate[] memory candidateList = new Candidate[](nextCandidateId - 1) */\n      swap1\n      pop\n        /* \"contracts/Projects/Voter.sol\":3089:3098  uint256 i */\n      0x00\n        /* \"contracts/Projects/Voter.sol\":3084:3202  for (uint256 i = 0; i < candidateList.length; i++) {... */\n    tag_177:\n        /* \"contracts/Projects/Voter.sol\":3108:3121  candidateList */\n      dup2\n        /* \"contracts/Projects/Voter.sol\":3108:3128  candidateList.length */\n      mload\n        /* \"contracts/Projects/Voter.sol\":3104:3105  i */\n      dup2\n        /* \"contracts/Projects/Voter.sol\":3104:3128  i < candidateList.length */\n      lt\n        /* \"contracts/Projects/Voter.sol\":3084:3202  for (uint256 i = 0; i < candidateList.length; i++) {... */\n      iszero\n      tag_178\n      jumpi\n        /* \"contracts/Projects/Voter.sol\":3168:3184  candidateDetails */\n      0x08\n        /* \"contracts/Projects/Voter.sol\":3168:3191  candidateDetails[i + 1] */\n      0x00\n        /* \"contracts/Projects/Voter.sol\":3189:3190  1 */\n      0x01\n        /* \"contracts/Projects/Voter.sol\":3185:3186  i */\n      dup4\n        /* \"contracts/Projects/Voter.sol\":3185:3190  i + 1 */\n      tag_180\n      swap2\n      swap1\n      tag_140\n      jump\t// in\n    tag_180:\n        /* \"contracts/Projects/Voter.sol\":3168:3191  candidateDetails[i + 1] */\n      dup2\n      mstore\n      0x20\n      add\n      swap1\n      dup2\n      mstore\n      0x20\n      add\n      0x00\n      keccak256\n        /* \"contracts/Projects/Voter.sol\":3149:3191  candidateList[i] = candidateDetails[i + 1] */\n      mload(0x40)\n      dup1\n      0xe0\n      add\n      0x40\n      mstore\n      swap1\n      dup2\n      0x00\n      dup3\n      add\n      dup1\n      sload\n      tag_181\n      swap1\n      tag_157\n      jump\t// in\n    tag_181:\n      dup1\n      0x1f\n      add\n      0x20\n      dup1\n      swap2\n      div\n      mul\n      0x20\n      add\n      mload(0x40)\n      swap1\n      dup2\n      add\n      0x40\n      mstore\n      dup1\n      swap3\n      swap2\n      swap1\n      dup2\n      dup2\n      mstore\n      0x20\n      add\n      dup3\n      dup1\n      sload\n      tag_182\n      swap1\n      tag_157\n      jump\t// in\n    tag_182:\n      dup1\n      iszero\n      tag_183\n      jumpi\n      dup1\n      0x1f\n      lt\n      tag_184\n      jumpi\n      0x0100\n      dup1\n      dup4\n      sload\n      div\n      mul\n      dup4\n      mstore\n      swap2\n      0x20\n      add\n      swap2\n      jump(tag_183)\n    tag_184:\n      dup3\n      add\n      swap2\n      swap1\n      0x00\n      mstore\n      keccak256(0x00, 0x20)\n      swap1\n    tag_185:\n      dup2\n      sload\n      dup2\n      mstore\n      swap1\n      0x01\n      add\n      swap1\n      0x20\n      add\n      dup1\n      dup4\n      gt\n      tag_185\n      jumpi\n      dup3\n      swap1\n      sub\n      0x1f\n      and\n      dup3\n      add\n      swap2\n    tag_183:\n      pop\n      pop\n      pop\n      pop\n      pop\n      dup2\n      mstore\n      0x20\n      add\n      0x01\n      dup3\n      add\n      dup1\n      sload\n      tag_186\n      swap1\n      tag_157\n      jump\t// in\n    tag_186:\n      dup1\n      0x1f\n      add\n      0x20\n      dup1\n      swap2\n      div\n      mul\n      0x20\n      add\n      mload(0x40)\n      swap1\n      dup2\n      add\n      0x40\n      mstore\n      dup1\n      swap3\n      swap2\n      swap1\n      dup2\n      dup2\n      mstore\n      0x20\n      add\n      dup3\n      dup1\n      sload\n      tag_187\n      swap1\n      tag_157\n      jump\t// in\n    tag_187:\n      dup1\n      iszero\n      tag_188\n      jumpi\n      dup1\n      0x1f\n      lt\n      tag_189\n      jumpi\n      0x0100\n      dup1\n      dup4\n      sload\n      div\n      mul\n      dup4\n      mstore\n      swap2\n      0x20\n      add\n      swap2\n      jump(tag_188)\n    tag_189:\n      dup3\n      add\n      swap2\n      swap1\n      0x00\n      mstore\n      keccak256(0x00, 0x20)\n      swap1\n    tag_190:\n      dup2\n      sload\n      dup2\n      mstore\n      swap1\n      0x01\n      add\n      swap1\n      0x20\n      add\n      dup1\n      dup4\n      gt\n      tag_190\n      jumpi\n      dup3\n      swap1\n      sub\n      0x1f\n      and\n      dup3\n      add\n      swap2\n    tag_188:\n      pop\n      pop\n      pop\n      pop\n      pop\n      dup2\n      mstore\n      0x20\n      add\n      0x02\n      dup3\n      add\n      sload\n      dup2\n      mstore\n      0x20\n      add\n      0x03\n      dup3\n      add\n      0x00\n      swap1\n      sload\n      swap1\n      0x0100\n      exp\n      swap1\n      div\n      0xff\n      and\n      0x03\n      dup2\n      gt\n      iszero\n      tag_191\n      jumpi\n      tag_192\n      tag_101\n      jump\t// in\n    tag_192:\n    tag_191:\n      0x03\n      dup2\n      gt\n      iszero\n      tag_193\n      jumpi\n      tag_194\n      tag_101\n      jump\t// in\n    tag_194:\n    tag_193:\n      dup2\n      mstore\n      0x20\n      add\n      0x04\n      dup3\n      add\n      sload\n      dup2\n      mstore\n      0x20\n      add\n      0x05\n      dup3\n      add\n      0x00\n      swap1\n      sload\n      swap1\n      0x0100\n      exp\n      swap1\n      div\n      0xffffffffffffffffffffffffffffffffffffffff\n      and\n      0xffffffffffffffffffffffffffffffffffffffff\n      and\n      0xffffffffffffffffffffffffffffffffffffffff\n      and\n      dup2\n      mstore\n      0x20\n      add\n      0x06\n      dup3\n      add\n      sload\n      dup2\n      mstore\n      pop\n      pop\n        /* \"contracts/Projects/Voter.sol\":3149:3162  candidateList */\n      dup3\n        /* \"contracts/Projects/Voter.sol\":3163:3164  i */\n      dup3\n        /* \"contracts/Projects/Voter.sol\":3149:3165  candidateList[i] */\n      dup2\n      mload\n      dup2\n      lt\n      tag_195\n      jumpi\n      tag_196\n      tag_168\n      jump\t// in\n    tag_196:\n    tag_195:\n      0x20\n      mul\n      0x20\n      add\n      add\n        /* \"contracts/Projects/Voter.sol\":3149:3191  candidateList[i] = candidateDetails[i + 1] */\n      dup2\n      swap1\n      mstore\n      pop\n        /* \"contracts/Projects/Voter.sol\":3130:3133  i++ */\n      dup1\n      dup1\n      0x01\n      add\n      swap2\n      pop\n      pop\n        /* \"contracts/Projects/Voter.sol\":3084:3202  for (uint256 i = 0; i < candidateList.length; i++) {... */\n      jump(tag_177)\n    tag_178:\n      pop\n        /* \"contracts/Projects/Voter.sol\":3218:3231  candidateList */\n      dup1\n        /* \"contracts/Projects/Voter.sol\":3211:3231  return candidateList */\n      swap2\n      pop\n      pop\n        /* \"contracts/Projects/Voter.sol\":2862:3238  function getCandidateList() public view returns (Candidate[] memory) {... */\n      swap1\n      jump\t// out\n        /* \"contracts/Projects/Voter.sol\":3244:3512  function isVoterNotRegistered(address _person) private view returns (bool) {... */\n    tag_95:\n        /* \"contracts/Projects/Voter.sol\":3313:3317  bool */\n      0x00\n        /* \"contracts/Projects/Voter.sol\":3334:3343  uint256 i */\n      dup1\n        /* \"contracts/Projects/Voter.sol\":3346:3347  1 */\n      0x01\n        /* \"contracts/Projects/Voter.sol\":3334:3347  uint256 i = 1 */\n      swap1\n      pop\n        /* \"contracts/Projects/Voter.sol\":3329:3485  for (uint256 i = 1; i < nextVoterId; i++) {... */\n    tag_198:\n        /* \"contracts/Projects/Voter.sol\":3353:3364  nextVoterId */\n      sload(0x02)\n        /* \"contracts/Projects/Voter.sol\":3349:3350  i */\n      dup2\n        /* \"contracts/Projects/Voter.sol\":3349:3364  i < nextVoterId */\n      lt\n        /* \"contracts/Projects/Voter.sol\":3329:3485  for (uint256 i = 1; i < nextVoterId; i++) {... */\n      iszero\n      tag_199\n      jumpi\n        /* \"contracts/Projects/Voter.sol\":3421:3428  _person */\n      dup3\n        /* \"contracts/Projects/Voter.sol\":3389:3428  voterDetails[i].voterAddress == _person */\n      0xffffffffffffffffffffffffffffffffffffffff\n      and\n        /* \"contracts/Projects/Voter.sol\":3389:3401  voterDetails */\n      0x07\n        /* \"contracts/Projects/Voter.sol\":3389:3404  voterDetails[i] */\n      0x00\n        /* \"contracts/Projects/Voter.sol\":3402:3403  i */\n      dup4\n        /* \"contracts/Projects/Voter.sol\":3389:3404  voterDetails[i] */\n      dup2\n      mstore\n      0x20\n      add\n      swap1\n      dup2\n      mstore\n      0x20\n      add\n      0x00\n      keccak256\n        /* \"contracts/Projects/Voter.sol\":3389:3417  voterDetails[i].voterAddress */\n      0x05\n      add\n      0x00\n      swap1\n      sload\n      swap1\n      0x0100\n      exp\n      swap1\n      div\n      0xffffffffffffffffffffffffffffffffffffffff\n      and\n        /* \"contracts/Projects/Voter.sol\":3389:3428  voterDetails[i].voterAddress == _person */\n      0xffffffffffffffffffffffffffffffffffffffff\n      and\n      sub\n        /* \"contracts/Projects/Voter.sol\":3385:3475  if (voterDetails[i].voterAddress == _person) {... */\n      tag_201\n      jumpi\n        /* \"contracts/Projects/Voter.sol\":3455:3460  false */\n      0x00\n        /* \"contracts/Projects/Voter.sol\":3448:3460  return false */\n      swap2\n      pop\n      pop\n      jump(tag_197)\n        /* \"contracts/Projects/Voter.sol\":3385:3475  if (voterDetails[i].voterAddress == _person) {... */\n    tag_201:\n        /* \"contracts/Projects/Voter.sol\":3366:3369  i++ */\n      dup1\n      dup1\n      0x01\n      add\n      swap2\n      pop\n      pop\n        /* \"contracts/Projects/Voter.sol\":3329:3485  for (uint256 i = 1; i < nextVoterId; i++) {... */\n      jump(tag_198)\n    tag_199:\n      pop\n        /* \"contracts/Projects/Voter.sol\":3501:3505  true */\n      0x01\n        /* \"contracts/Projects/Voter.sol\":3494:3505  return true */\n      swap1\n      pop\n        /* \"contracts/Projects/Voter.sol\":3244:3512  function isVoterNotRegistered(address _person) private view returns (bool) {... */\n    tag_197:\n      swap2\n      swap1\n      pop\n      jump\t// out\n        /* \"contracts/Projects/Voter.sol\":2544:2856  function isCandidateNotRegistered(address _person)... */\n    tag_112:\n        /* \"contracts/Projects/Voter.sol\":2641:2645  bool */\n      0x00\n        /* \"contracts/Projects/Voter.sol\":2666:2675  uint256 i */\n      dup1\n        /* \"contracts/Projects/Voter.sol\":2678:2679  1 */\n      0x01\n        /* \"contracts/Projects/Voter.sol\":2666:2679  uint256 i = 1 */\n      swap1\n      pop\n        /* \"contracts/Projects/Voter.sol\":2661:2829  for (uint256 i = 1; i < nextCandidateId; i++) {... */\n    tag_203:\n        /* \"contracts/Projects/Voter.sol\":2685:2700  nextCandidateId */\n      sload(0x03)\n        /* \"contracts/Projects/Voter.sol\":2681:2682  i */\n      dup2\n        /* \"contracts/Projects/Voter.sol\":2681:2700  i < nextCandidateId */\n      lt\n        /* \"contracts/Projects/Voter.sol\":2661:2829  for (uint256 i = 1; i < nextCandidateId; i++) {... */\n      iszero\n      tag_204\n      jumpi\n        /* \"contracts/Projects/Voter.sol\":2765:2772  _person */\n      dup3\n        /* \"contracts/Projects/Voter.sol\":2725:2772  candidateDetails[i].candidateAddress == _person */\n      0xffffffffffffffffffffffffffffffffffffffff\n      and\n        /* \"contracts/Projects/Voter.sol\":2725:2741  candidateDetails */\n      0x08\n        /* \"contracts/Projects/Voter.sol\":2725:2744  candidateDetails[i] */\n      0x00\n        /* \"contracts/Projects/Voter.sol\":2742:2743  i */\n      dup4\n        /* \"contracts/Projects/Voter.sol\":2725:2744  candidateDetails[i] */\n      dup2\n      mstore\n      0x20\n      add\n      swap1\n      dup2\n      mstore\n      0x20\n      add\n      0x00\n      keccak256\n        /* \"contracts/Projects/Voter.sol\":2725:2761  candidateDetails[i].candidateAddress */\n      0x05\n      add\n      0x00\n      swap1\n      sload\n      swap1\n      0x0100\n      exp\n      swap1\n      div\n      0xffffffffffffffffffffffffffffffffffffffff\n      and\n        /* \"contracts/Projects/Voter.sol\":2725:2772  candidateDetails[i].candidateAddress == _person */\n      0xffffffffffffffffffffffffffffffffffffffff\n      and\n      sub\n        /* \"contracts/Projects/Voter.sol\":2721:2819  if (candidateDetails[i].candidateAddress == _person) {... */\n      tag_206\n      jumpi\n        /* \"contracts/Projects/Voter.sol\":2799:2804  false */\n      0x00\n        /* \"contracts/Projects/Voter.sol\":2792:2804  return false */\n      swap2\n      pop\n      pop\n      jump(tag_202)\n        /* \"contracts/Projects/Voter.sol\":2721:2819  if (candidateDetails[i].candidateAddress == _person) {... */\n    tag_206:\n        /* \"contracts/Projects/Voter.sol\":2702:2705  i++ */\n      dup1\n      dup1\n      0x01\n      add\n      swap2\n      pop\n      pop\n        /* \"contracts/Projects/Voter.sol\":2661:2829  for (uint256 i = 1; i < nextCandidateId; i++) {... */\n      jump(tag_203)\n    tag_204:\n      pop\n        /* \"contracts/Projects/Voter.sol\":2845:2849  true */\n      0x01\n        /* \"contracts/Projects/Voter.sol\":2838:2849  return true */\n      swap1\n      pop\n        /* \"contracts/Projects/Voter.sol\":2544:2856  function isCandidateNotRegistered(address _person)... */\n    tag_202:\n      swap2\n      swap1\n      pop\n      jump\t// out\n    tag_151:\n      mload(0x40)\n      dup1\n      0xc0\n      add\n      0x40\n      mstore\n      dup1\n      0x60\n      dup2\n      mstore\n      0x20\n      add\n      0x00\n      dup2\n      mstore\n      0x20\n      add\n      0x00\n      dup2\n      mstore\n      0x20\n      add\n      0x00\n      0x03\n      dup2\n      gt\n      iszero\n      tag_207\n      jumpi\n      tag_208\n      tag_101\n      jump\t// in\n    tag_208:\n    tag_207:\n      dup2\n      mstore\n      0x20\n      add\n      0x00\n      dup2\n      mstore\n      0x20\n      add\n      and(0xffffffffffffffffffffffffffffffffffffffff, 0x00)\n      dup2\n      mstore\n      pop\n      swap1\n      jump\t// out\n    tag_176:\n      mload(0x40)\n      dup1\n      0xe0\n      add\n      0x40\n      mstore\n      dup1\n      0x60\n      dup2\n      mstore\n      0x20\n      add\n      0x60\n      dup2\n      mstore\n      0x20\n      add\n      0x00\n      dup2\n      mstore\n      0x20\n      add\n      0x00\n      0x03\n      dup2\n      gt\n      iszero\n      tag_209\n      jumpi\n      tag_210\n      tag_101\n      jump\t// in\n    tag_210:\n    tag_209:\n      dup2\n      mstore\n      0x20\n      add\n      0x00\n      dup2\n      mstore\n      0x20\n      add\n      and(0xffffffffffffffffffffffffffffffffffffffff, 0x00)\n      dup2\n      mstore\n      0x20\n      add\n      0x00\n      dup2\n      mstore\n      pop\n      swap1\n      jump\t// out\n        /* \"#utility.yul\":88:205   */\n    tag_212:\n        /* \"#utility.yul\":197:198   */\n      0x00\n        /* \"#utility.yul\":194:195   */\n      dup1\n        /* \"#utility.yul\":187:199   */\n      revert\n        /* \"#utility.yul\":211:328   */\n    tag_213:\n        /* \"#utility.yul\":320:321   */\n      0x00\n        /* \"#utility.yul\":317:318   */\n      dup1\n        /* \"#utility.yul\":310:322   */\n      revert\n        /* \"#utility.yul\":334:411   */\n    tag_214:\n        /* \"#utility.yul\":371:378   */\n      0x00\n        /* \"#utility.yul\":400:405   */\n      dup2\n        /* \"#utility.yul\":389:405   */\n      swap1\n      pop\n        /* \"#utility.yul\":334:411   */\n      swap2\n      swap1\n      pop\n      jump\t// out\n        /* \"#utility.yul\":417:539   */\n    tag_215:\n        /* \"#utility.yul\":490:514   */\n      tag_301\n        /* \"#utility.yul\":508:513   */\n      dup2\n        /* \"#utility.yul\":490:514   */\n      tag_214\n      jump\t// in\n    tag_301:\n        /* \"#utility.yul\":483:488   */\n      dup2\n        /* \"#utility.yul\":480:515   */\n      eq\n        /* \"#utility.yul\":470:533   */\n      tag_302\n      jumpi\n        /* \"#utility.yul\":529:530   */\n      0x00\n        /* \"#utility.yul\":526:527   */\n      dup1\n        /* \"#utility.yul\":519:531   */\n      revert\n        /* \"#utility.yul\":470:533   */\n    tag_302:\n        /* \"#utility.yul\":417:539   */\n      pop\n      jump\t// out\n        /* \"#utility.yul\":545:684   */\n    tag_216:\n        /* \"#utility.yul\":591:596   */\n      0x00\n        /* \"#utility.yul\":629:635   */\n      dup2\n        /* \"#utility.yul\":616:636   */\n      calldataload\n        /* \"#utility.yul\":607:636   */\n      swap1\n      pop\n        /* \"#utility.yul\":645:678   */\n      tag_304\n        /* \"#utility.yul\":672:677   */\n      dup2\n        /* \"#utility.yul\":645:678   */\n      tag_215\n      jump\t// in\n    tag_304:\n        /* \"#utility.yul\":545:684   */\n      swap3\n      swap2\n      pop\n      pop\n      jump\t// out\n        /* \"#utility.yul\":690:1164   */\n    tag_17:\n        /* \"#utility.yul\":758:764   */\n      0x00\n        /* \"#utility.yul\":766:772   */\n      dup1\n        /* \"#utility.yul\":815:817   */\n      0x40\n        /* \"#utility.yul\":803:812   */\n      dup4\n        /* \"#utility.yul\":794:801   */\n      dup6\n        /* \"#utility.yul\":790:813   */\n      sub\n        /* \"#utility.yul\":786:818   */\n      slt\n        /* \"#utility.yul\":783:902   */\n      iszero\n      tag_306\n      jumpi\n        /* \"#utility.yul\":821:900   */\n      tag_307\n      tag_212\n      jump\t// in\n    tag_307:\n        /* \"#utility.yul\":783:902   */\n    tag_306:\n        /* \"#utility.yul\":941:942   */\n      0x00\n        /* \"#utility.yul\":966:1019   */\n      tag_308\n        /* \"#utility.yul\":1011:1018   */\n      dup6\n        /* \"#utility.yul\":1002:1008   */\n      dup3\n        /* \"#utility.yul\":991:1000   */\n      dup7\n        /* \"#utility.yul\":987:1009   */\n      add\n        /* \"#utility.yul\":966:1019   */\n      tag_216\n      jump\t// in\n    tag_308:\n        /* \"#utility.yul\":956:1019   */\n      swap3\n      pop\n        /* \"#utility.yul\":912:1029   */\n      pop\n        /* \"#utility.yul\":1068:1070   */\n      0x20\n        /* \"#utility.yul\":1094:1147   */\n      tag_309\n        /* \"#utility.yul\":1139:1146   */\n      dup6\n        /* \"#utility.yul\":1130:1136   */\n      dup3\n        /* \"#utility.yul\":1119:1128   */\n      dup7\n        /* \"#utility.yul\":1115:1137   */\n      add\n        /* \"#utility.yul\":1094:1147   */\n      tag_216\n      jump\t// in\n    tag_309:\n        /* \"#utility.yul\":1084:1147   */\n      swap2\n      pop\n        /* \"#utility.yul\":1039:1157   */\n      pop\n        /* \"#utility.yul\":690:1164   */\n      swap3\n      pop\n      swap3\n      swap1\n      pop\n      jump\t// out\n        /* \"#utility.yul\":1170:1350   */\n    tag_101:\n        /* \"#utility.yul\":1218:1295   */\n      0x4e487b7100000000000000000000000000000000000000000000000000000000\n        /* \"#utility.yul\":1215:1216   */\n      0x00\n        /* \"#utility.yul\":1208:1296   */\n      mstore\n        /* \"#utility.yul\":1315:1319   */\n      0x21\n        /* \"#utility.yul\":1312:1313   */\n      0x04\n        /* \"#utility.yul\":1305:1320   */\n      mstore\n        /* \"#utility.yul\":1339:1343   */\n      0x24\n        /* \"#utility.yul\":1336:1337   */\n      0x00\n        /* \"#utility.yul\":1329:1344   */\n      revert\n        /* \"#utility.yul\":1356:1476   */\n    tag_217:\n        /* \"#utility.yul\":1444:1445   */\n      0x03\n        /* \"#utility.yul\":1437:1442   */\n      dup2\n        /* \"#utility.yul\":1434:1446   */\n      lt\n        /* \"#utility.yul\":1424:1470   */\n      tag_312\n      jumpi\n        /* \"#utility.yul\":1450:1468   */\n      tag_313\n      tag_101\n      jump\t// in\n    tag_313:\n        /* \"#utility.yul\":1424:1470   */\n    tag_312:\n        /* \"#utility.yul\":1356:1476   */\n      pop\n      jump\t// out\n        /* \"#utility.yul\":1482:1623   */\n    tag_218:\n        /* \"#utility.yul\":1534:1541   */\n      0x00\n        /* \"#utility.yul\":1563:1568   */\n      dup2\n        /* \"#utility.yul\":1552:1568   */\n      swap1\n      pop\n        /* \"#utility.yul\":1569:1617   */\n      tag_315\n        /* \"#utility.yul\":1611:1616   */\n      dup3\n        /* \"#utility.yul\":1569:1617   */\n      tag_217\n      jump\t// in\n    tag_315:\n        /* \"#utility.yul\":1482:1623   */\n      swap2\n      swap1\n      pop\n      jump\t// out\n        /* \"#utility.yul\":1629:1770   */\n    tag_219:\n        /* \"#utility.yul\":1692:1701   */\n      0x00\n        /* \"#utility.yul\":1725:1764   */\n      tag_317\n        /* \"#utility.yul\":1758:1763   */\n      dup3\n        /* \"#utility.yul\":1725:1764   */\n      tag_218\n      jump\t// in\n    tag_317:\n        /* \"#utility.yul\":1712:1764   */\n      swap1\n      pop\n        /* \"#utility.yul\":1629:1770   */\n      swap2\n      swap1\n      pop\n      jump\t// out\n        /* \"#utility.yul\":1776:1933   */\n    tag_220:\n        /* \"#utility.yul\":1876:1926   */\n      tag_319\n        /* \"#utility.yul\":1920:1925   */\n      dup2\n        /* \"#utility.yul\":1876:1926   */\n      tag_219\n      jump\t// in\n    tag_319:\n        /* \"#utility.yul\":1871:1874   */\n      dup3\n        /* \"#utility.yul\":1864:1927   */\n      mstore\n        /* \"#utility.yul\":1776:1933   */\n      pop\n      pop\n      jump\t// out\n        /* \"#utility.yul\":1939:2187   */\n    tag_22:\n        /* \"#utility.yul\":2045:2049   */\n      0x00\n        /* \"#utility.yul\":2083:2085   */\n      0x20\n        /* \"#utility.yul\":2072:2081   */\n      dup3\n        /* \"#utility.yul\":2068:2086   */\n      add\n        /* \"#utility.yul\":2060:2086   */\n      swap1\n      pop\n        /* \"#utility.yul\":2096:2180   */\n      tag_321\n        /* \"#utility.yul\":2177:2178   */\n      0x00\n        /* \"#utility.yul\":2166:2175   */\n      dup4\n        /* \"#utility.yul\":2162:2179   */\n      add\n        /* \"#utility.yul\":2153:2159   */\n      dup5\n        /* \"#utility.yul\":2096:2180   */\n      tag_220\n      jump\t// in\n    tag_321:\n        /* \"#utility.yul\":1939:2187   */\n      swap3\n      swap2\n      pop\n      pop\n      jump\t// out\n        /* \"#utility.yul\":2193:2310   */\n    tag_221:\n        /* \"#utility.yul\":2302:2303   */\n      0x00\n        /* \"#utility.yul\":2299:2300   */\n      dup1\n        /* \"#utility.yul\":2292:2304   */\n      revert\n        /* \"#utility.yul\":2316:2433   */\n    tag_222:\n        /* \"#utility.yul\":2425:2426   */\n      0x00\n        /* \"#utility.yul\":2422:2423   */\n      dup1\n        /* \"#utility.yul\":2415:2427   */\n      revert\n        /* \"#utility.yul\":2439:2556   */\n    tag_223:\n        /* \"#utility.yul\":2548:2549   */\n      0x00\n        /* \"#utility.yul\":2545:2546   */\n      dup1\n        /* \"#utility.yul\":2538:2550   */\n      revert\n        /* \"#utility.yul\":2576:3129   */\n    tag_224:\n        /* \"#utility.yul\":2634:2642   */\n      0x00\n        /* \"#utility.yul\":2644:2650   */\n      dup1\n        /* \"#utility.yul\":2694:2697   */\n      dup4\n        /* \"#utility.yul\":2687:2691   */\n      0x1f\n        /* \"#utility.yul\":2679:2685   */\n      dup5\n        /* \"#utility.yul\":2675:2692   */\n      add\n        /* \"#utility.yul\":2671:2698   */\n      slt\n        /* \"#utility.yul\":2661:2783   */\n      tag_326\n      jumpi\n        /* \"#utility.yul\":2702:2781   */\n      tag_327\n      tag_221\n      jump\t// in\n    tag_327:\n        /* \"#utility.yul\":2661:2783   */\n    tag_326:\n        /* \"#utility.yul\":2815:2821   */\n      dup3\n        /* \"#utility.yul\":2802:2822   */\n      calldataload\n        /* \"#utility.yul\":2792:2822   */\n      swap1\n      pop\n        /* \"#utility.yul\":2845:2863   */\n      0xffffffffffffffff\n        /* \"#utility.yul\":2837:2843   */\n      dup2\n        /* \"#utility.yul\":2834:2864   */\n      gt\n        /* \"#utility.yul\":2831:2948   */\n      iszero\n      tag_328\n      jumpi\n        /* \"#utility.yul\":2867:2946   */\n      tag_329\n      tag_222\n      jump\t// in\n    tag_329:\n        /* \"#utility.yul\":2831:2948   */\n    tag_328:\n        /* \"#utility.yul\":2981:2985   */\n      0x20\n        /* \"#utility.yul\":2973:2979   */\n      dup4\n        /* \"#utility.yul\":2969:2986   */\n      add\n        /* \"#utility.yul\":2957:2986   */\n      swap2\n      pop\n        /* \"#utility.yul\":3035:3038   */\n      dup4\n        /* \"#utility.yul\":3027:3031   */\n      0x01\n        /* \"#utility.yul\":3019:3025   */\n      dup3\n        /* \"#utility.yul\":3015:3032   */\n      mul\n        /* \"#utility.yul\":3005:3013   */\n      dup4\n        /* \"#utility.yul\":3001:3033   */\n      add\n        /* \"#utility.yul\":2998:3039   */\n      gt\n        /* \"#utility.yul\":2995:3123   */\n      iszero\n      tag_330\n      jumpi\n        /* \"#utility.yul\":3042:3121   */\n      tag_331\n      tag_223\n      jump\t// in\n    tag_331:\n        /* \"#utility.yul\":2995:3123   */\n    tag_330:\n        /* \"#utility.yul\":2576:3129   */\n      swap3\n      pop\n      swap3\n      swap1\n      pop\n      jump\t// out\n        /* \"#utility.yul\":3135:3243   */\n    tag_225:\n        /* \"#utility.yul\":3217:3218   */\n      0x04\n        /* \"#utility.yul\":3210:3215   */\n      dup2\n        /* \"#utility.yul\":3207:3219   */\n      lt\n        /* \"#utility.yul\":3197:3237   */\n      tag_333\n      jumpi\n        /* \"#utility.yul\":3233:3234   */\n      0x00\n        /* \"#utility.yul\":3230:3231   */\n      dup1\n        /* \"#utility.yul\":3223:3235   */\n      revert\n        /* \"#utility.yul\":3197:3237   */\n    tag_333:\n        /* \"#utility.yul\":3135:3243   */\n      pop\n      jump\t// out\n        /* \"#utility.yul\":3249:3406   */\n    tag_226:\n        /* \"#utility.yul\":3304:3309   */\n      0x00\n        /* \"#utility.yul\":3342:3348   */\n      dup2\n        /* \"#utility.yul\":3329:3349   */\n      calldataload\n        /* \"#utility.yul\":3320:3349   */\n      swap1\n      pop\n        /* \"#utility.yul\":3358:3400   */\n      tag_335\n        /* \"#utility.yul\":3394:3399   */\n      dup2\n        /* \"#utility.yul\":3358:3400   */\n      tag_225\n      jump\t// in\n    tag_335:\n        /* \"#utility.yul\":3249:3406   */\n      swap3\n      swap2\n      pop\n      pop\n      jump\t// out\n        /* \"#utility.yul\":3412:4249   */\n    tag_27:\n        /* \"#utility.yul\":3510:3516   */\n      0x00\n        /* \"#utility.yul\":3518:3524   */\n      dup1\n        /* \"#utility.yul\":3526:3532   */\n      0x00\n        /* \"#utility.yul\":3534:3540   */\n      dup1\n        /* \"#utility.yul\":3583:3585   */\n      0x60\n        /* \"#utility.yul\":3571:3580   */\n      dup6\n        /* \"#utility.yul\":3562:3569   */\n      dup8\n        /* \"#utility.yul\":3558:3581   */\n      sub\n        /* \"#utility.yul\":3554:3586   */\n      slt\n        /* \"#utility.yul\":3551:3670   */\n      iszero\n      tag_337\n      jumpi\n        /* \"#utility.yul\":3589:3668   */\n      tag_338\n      tag_212\n      jump\t// in\n    tag_338:\n        /* \"#utility.yul\":3551:3670   */\n    tag_337:\n        /* \"#utility.yul\":3737:3738   */\n      0x00\n        /* \"#utility.yul\":3726:3735   */\n      dup6\n        /* \"#utility.yul\":3722:3739   */\n      add\n        /* \"#utility.yul\":3709:3740   */\n      calldataload\n        /* \"#utility.yul\":3767:3785   */\n      0xffffffffffffffff\n        /* \"#utility.yul\":3759:3765   */\n      dup2\n        /* \"#utility.yul\":3756:3786   */\n      gt\n        /* \"#utility.yul\":3753:3870   */\n      iszero\n      tag_339\n      jumpi\n        /* \"#utility.yul\":3789:3868   */\n      tag_340\n      tag_213\n      jump\t// in\n    tag_340:\n        /* \"#utility.yul\":3753:3870   */\n    tag_339:\n        /* \"#utility.yul\":3902:3967   */\n      tag_341\n        /* \"#utility.yul\":3959:3966   */\n      dup8\n        /* \"#utility.yul\":3950:3956   */\n      dup3\n        /* \"#utility.yul\":3939:3948   */\n      dup9\n        /* \"#utility.yul\":3935:3957   */\n      add\n        /* \"#utility.yul\":3902:3967   */\n      tag_224\n      jump\t// in\n    tag_341:\n        /* \"#utility.yul\":3884:3967   */\n      swap5\n      pop\n      swap5\n      pop\n        /* \"#utility.yul\":3680:3977   */\n      pop\n        /* \"#utility.yul\":4016:4018   */\n      0x20\n        /* \"#utility.yul\":4042:4095   */\n      tag_342\n        /* \"#utility.yul\":4087:4094   */\n      dup8\n        /* \"#utility.yul\":4078:4084   */\n      dup3\n        /* \"#utility.yul\":4067:4076   */\n      dup9\n        /* \"#utility.yul\":4063:4085   */\n      add\n        /* \"#utility.yul\":4042:4095   */\n      tag_216\n      jump\t// in\n    tag_342:\n        /* \"#utility.yul\":4032:4095   */\n      swap3\n      pop\n        /* \"#utility.yul\":3987:4105   */\n      pop\n        /* \"#utility.yul\":4144:4146   */\n      0x40\n        /* \"#utility.yul\":4170:4232   */\n      tag_343\n        /* \"#utility.yul\":4224:4231   */\n      dup8\n        /* \"#utility.yul\":4215:4221   */\n      dup3\n        /* \"#utility.yul\":4204:4213   */\n      dup9\n        /* \"#utility.yul\":4200:4222   */\n      add\n        /* \"#utility.yul\":4170:4232   */\n      tag_226\n      jump\t// in\n    tag_343:\n        /* \"#utility.yul\":4160:4232   */\n      swap2\n      pop\n        /* \"#utility.yul\":4115:4242   */\n      pop\n        /* \"#utility.yul\":3412:4249   */\n      swap3\n      swap6\n      swap2\n      swap5\n      pop\n      swap3\n      pop\n      jump\t// out\n        /* \"#utility.yul\":4255:5438   */\n    tag_31:\n        /* \"#utility.yul\":4374:4380   */\n      0x00\n        /* \"#utility.yul\":4382:4388   */\n      dup1\n        /* \"#utility.yul\":4390:4396   */\n      0x00\n        /* \"#utility.yul\":4398:4404   */\n      dup1\n        /* \"#utility.yul\":4406:4412   */\n      0x00\n        /* \"#utility.yul\":4414:4420   */\n      dup1\n        /* \"#utility.yul\":4463:4466   */\n      0x80\n        /* \"#utility.yul\":4451:4460   */\n      dup8\n        /* \"#utility.yul\":4442:4449   */\n      dup10\n        /* \"#utility.yul\":4438:4461   */\n      sub\n        /* \"#utility.yul\":4434:4467   */\n      slt\n        /* \"#utility.yul\":4431:4551   */\n      iszero\n      tag_345\n      jumpi\n        /* \"#utility.yul\":4470:4549   */\n      tag_346\n      tag_212\n      jump\t// in\n    tag_346:\n        /* \"#utility.yul\":4431:4551   */\n    tag_345:\n        /* \"#utility.yul\":4618:4619   */\n      0x00\n        /* \"#utility.yul\":4607:4616   */\n      dup8\n        /* \"#utility.yul\":4603:4620   */\n      add\n        /* \"#utility.yul\":4590:4621   */\n      calldataload\n        /* \"#utility.yul\":4648:4666   */\n      0xffffffffffffffff\n        /* \"#utility.yul\":4640:4646   */\n      dup2\n        /* \"#utility.yul\":4637:4667   */\n      gt\n        /* \"#utility.yul\":4634:4751   */\n      iszero\n      tag_347\n      jumpi\n        /* \"#utility.yul\":4670:4749   */\n      tag_348\n      tag_213\n      jump\t// in\n    tag_348:\n        /* \"#utility.yul\":4634:4751   */\n    tag_347:\n        /* \"#utility.yul\":4783:4848   */\n      tag_349\n        /* \"#utility.yul\":4840:4847   */\n      dup10\n        /* \"#utility.yul\":4831:4837   */\n      dup3\n        /* \"#utility.yul\":4820:4829   */\n      dup11\n        /* \"#utility.yul\":4816:4838   */\n      add\n        /* \"#utility.yul\":4783:4848   */\n      tag_224\n      jump\t// in\n    tag_349:\n        /* \"#utility.yul\":4765:4848   */\n      swap7\n      pop\n      swap7\n      pop\n        /* \"#utility.yul\":4561:4858   */\n      pop\n        /* \"#utility.yul\":4925:4927   */\n      0x20\n        /* \"#utility.yul\":4914:4923   */\n      dup8\n        /* \"#utility.yul\":4910:4928   */\n      add\n        /* \"#utility.yul\":4897:4929   */\n      calldataload\n        /* \"#utility.yul\":4956:4974   */\n      0xffffffffffffffff\n        /* \"#utility.yul\":4948:4954   */\n      dup2\n        /* \"#utility.yul\":4945:4975   */\n      gt\n        /* \"#utility.yul\":4942:5059   */\n      iszero\n      tag_350\n      jumpi\n        /* \"#utility.yul\":4978:5057   */\n      tag_351\n      tag_213\n      jump\t// in\n    tag_351:\n        /* \"#utility.yul\":4942:5059   */\n    tag_350:\n        /* \"#utility.yul\":5091:5156   */\n      tag_352\n        /* \"#utility.yul\":5148:5155   */\n      dup10\n        /* \"#utility.yul\":5139:5145   */\n      dup3\n        /* \"#utility.yul\":5128:5137   */\n      dup11\n        /* \"#utility.yul\":5124:5146   */\n      add\n        /* \"#utility.yul\":5091:5156   */\n      tag_224\n      jump\t// in\n    tag_352:\n        /* \"#utility.yul\":5073:5156   */\n      swap5\n      pop\n      swap5\n      pop\n        /* \"#utility.yul\":4868:5166   */\n      pop\n        /* \"#utility.yul\":5205:5207   */\n      0x40\n        /* \"#utility.yul\":5231:5284   */\n      tag_353\n        /* \"#utility.yul\":5276:5283   */\n      dup10\n        /* \"#utility.yul\":5267:5273   */\n      dup3\n        /* \"#utility.yul\":5256:5265   */\n      dup11\n        /* \"#utility.yul\":5252:5274   */\n      add\n        /* \"#utility.yul\":5231:5284   */\n      tag_216\n      jump\t// in\n    tag_353:\n        /* \"#utility.yul\":5221:5284   */\n      swap3\n      pop\n        /* \"#utility.yul\":5176:5294   */\n      pop\n        /* \"#utility.yul\":5333:5335   */\n      0x60\n        /* \"#utility.yul\":5359:5421   */\n      tag_354\n        /* \"#utility.yul\":5413:5420   */\n      dup10\n        /* \"#utility.yul\":5404:5410   */\n      dup3\n        /* \"#utility.yul\":5393:5402   */\n      dup11\n        /* \"#utility.yul\":5389:5411   */\n      add\n        /* \"#utility.yul\":5359:5421   */\n      tag_226\n      jump\t// in\n    tag_354:\n        /* \"#utility.yul\":5349:5421   */\n      swap2\n      pop\n        /* \"#utility.yul\":5304:5431   */\n      pop\n        /* \"#utility.yul\":4255:5438   */\n      swap3\n      swap6\n      pop\n      swap3\n      swap6\n      pop\n      swap3\n      swap6\n      jump\t// out\n        /* \"#utility.yul\":5444:5570   */\n    tag_227:\n        /* \"#utility.yul\":5481:5488   */\n      0x00\n        /* \"#utility.yul\":5521:5563   */\n      0xffffffffffffffffffffffffffffffffffffffff\n        /* \"#utility.yul\":5514:5519   */\n      dup3\n        /* \"#utility.yul\":5510:5564   */\n      and\n        /* \"#utility.yul\":5499:5564   */\n      swap1\n      pop\n        /* \"#utility.yul\":5444:5570   */\n      swap2\n      swap1\n      pop\n      jump\t// out\n        /* \"#utility.yul\":5576:5672   */\n    tag_228:\n        /* \"#utility.yul\":5613:5620   */\n      0x00\n        /* \"#utility.yul\":5642:5666   */\n      tag_357\n        /* \"#utility.yul\":5660:5665   */\n      dup3\n        /* \"#utility.yul\":5642:5666   */\n      tag_227\n      jump\t// in\n    tag_357:\n        /* \"#utility.yul\":5631:5666   */\n      swap1\n      pop\n        /* \"#utility.yul\":5576:5672   */\n      swap2\n      swap1\n      pop\n      jump\t// out\n        /* \"#utility.yul\":5678:5796   */\n    tag_229:\n        /* \"#utility.yul\":5765:5789   */\n      tag_359\n        /* \"#utility.yul\":5783:5788   */\n      dup2\n        /* \"#utility.yul\":5765:5789   */\n      tag_228\n      jump\t// in\n    tag_359:\n        /* \"#utility.yul\":5760:5763   */\n      dup3\n        /* \"#utility.yul\":5753:5790   */\n      mstore\n        /* \"#utility.yul\":5678:5796   */\n      pop\n      pop\n      jump\t// out\n        /* \"#utility.yul\":5802:6024   */\n    tag_41:\n        /* \"#utility.yul\":5895:5899   */\n      0x00\n        /* \"#utility.yul\":5933:5935   */\n      0x20\n        /* \"#utility.yul\":5922:5931   */\n      dup3\n        /* \"#utility.yul\":5918:5936   */\n      add\n        /* \"#utility.yul\":5910:5936   */\n      swap1\n      pop\n        /* \"#utility.yul\":5946:6017   */\n      tag_361\n        /* \"#utility.yul\":6014:6015   */\n      0x00\n        /* \"#utility.yul\":6003:6012   */\n      dup4\n        /* \"#utility.yul\":5999:6016   */\n      add\n        /* \"#utility.yul\":5990:5996   */\n      dup5\n        /* \"#utility.yul\":5946:6017   */\n      tag_229\n      jump\t// in\n    tag_361:\n        /* \"#utility.yul\":5802:6024   */\n      swap3\n      swap2\n      pop\n      pop\n      jump\t// out\n        /* \"#utility.yul\":6030:6165   */\n    tag_230:\n        /* \"#utility.yul\":6118:6124   */\n      0x00\n        /* \"#utility.yul\":6152:6157   */\n      dup2\n        /* \"#utility.yul\":6146:6158   */\n      mload\n        /* \"#utility.yul\":6136:6158   */\n      swap1\n      pop\n        /* \"#utility.yul\":6030:6165   */\n      swap2\n      swap1\n      pop\n      jump\t// out\n        /* \"#utility.yul\":6171:6376   */\n    tag_231:\n        /* \"#utility.yul\":6291:6302   */\n      0x00\n        /* \"#utility.yul\":6325:6331   */\n      dup3\n        /* \"#utility.yul\":6320:6323   */\n      dup3\n        /* \"#utility.yul\":6313:6332   */\n      mstore\n        /* \"#utility.yul\":6365:6369   */\n      0x20\n        /* \"#utility.yul\":6360:6363   */\n      dup3\n        /* \"#utility.yul\":6356:6370   */\n      add\n        /* \"#utility.yul\":6341:6370   */\n      swap1\n      pop\n        /* \"#utility.yul\":6171:6376   */\n      swap3\n      swap2\n      pop\n      pop\n      jump\t// out\n        /* \"#utility.yul\":6382:6535   */\n    tag_232:\n        /* \"#utility.yul\":6470:6474   */\n      0x00\n        /* \"#utility.yul\":6493:6496   */\n      dup2\n        /* \"#utility.yul\":6485:6496   */\n      swap1\n      pop\n        /* \"#utility.yul\":6523:6527   */\n      0x20\n        /* \"#utility.yul\":6518:6521   */\n      dup3\n        /* \"#utility.yul\":6514:6528   */\n      add\n        /* \"#utility.yul\":6506:6528   */\n      swap1\n      pop\n        /* \"#utility.yul\":6382:6535   */\n      swap2\n      swap1\n      pop\n      jump\t// out\n        /* \"#utility.yul\":6541:6640   */\n    tag_233:\n        /* \"#utility.yul\":6593:6599   */\n      0x00\n        /* \"#utility.yul\":6627:6632   */\n      dup2\n        /* \"#utility.yul\":6621:6633   */\n      mload\n        /* \"#utility.yul\":6611:6633   */\n      swap1\n      pop\n        /* \"#utility.yul\":6541:6640   */\n      swap2\n      swap1\n      pop\n      jump\t// out\n        /* \"#utility.yul\":6646:6805   */\n    tag_234:\n        /* \"#utility.yul\":6720:6731   */\n      0x00\n        /* \"#utility.yul\":6754:6760   */\n      dup3\n        /* \"#utility.yul\":6749:6752   */\n      dup3\n        /* \"#utility.yul\":6742:6761   */\n      mstore\n        /* \"#utility.yul\":6794:6798   */\n      0x20\n        /* \"#utility.yul\":6789:6792   */\n      dup3\n        /* \"#utility.yul\":6785:6799   */\n      add\n        /* \"#utility.yul\":6770:6799   */\n      swap1\n      pop\n        /* \"#utility.yul\":6646:6805   */\n      swap3\n      swap2\n      pop\n      pop\n      jump\t// out\n        /* \"#utility.yul\":6811:6950   */\n    tag_235:\n        /* \"#utility.yul\":6900:6906   */\n      dup3\n        /* \"#utility.yul\":6895:6898   */\n      dup2\n        /* \"#utility.yul\":6890:6893   */\n      dup4\n        /* \"#utility.yul\":6884:6907   */\n      mcopy\n        /* \"#utility.yul\":6941:6942   */\n      0x00\n        /* \"#utility.yul\":6932:6938   */\n      dup4\n        /* \"#utility.yul\":6927:6930   */\n      dup4\n        /* \"#utility.yul\":6923:6939   */\n      add\n        /* \"#utility.yul\":6916:6943   */\n      mstore\n        /* \"#utility.yul\":6811:6950   */\n      pop\n      pop\n      pop\n      jump\t// out\n        /* \"#utility.yul\":6956:7058   */\n    tag_236:\n        /* \"#utility.yul\":6997:7003   */\n      0x00\n        /* \"#utility.yul\":7048:7050   */\n      0x1f\n        /* \"#utility.yul\":7044:7051   */\n      not\n        /* \"#utility.yul\":7039:7041   */\n      0x1f\n        /* \"#utility.yul\":7032:7037   */\n      dup4\n        /* \"#utility.yul\":7028:7042   */\n      add\n        /* \"#utility.yul\":7024:7052   */\n      and\n        /* \"#utility.yul\":7014:7052   */\n      swap1\n      pop\n        /* \"#utility.yul\":6956:7058   */\n      swap2\n      swap1\n      pop\n      jump\t// out\n        /* \"#utility.yul\":7064:7421   */\n    tag_237:\n        /* \"#utility.yul\":7142:7145   */\n      0x00\n        /* \"#utility.yul\":7170:7209   */\n      tag_370\n        /* \"#utility.yul\":7203:7208   */\n      dup3\n        /* \"#utility.yul\":7170:7209   */\n      tag_233\n      jump\t// in\n    tag_370:\n        /* \"#utility.yul\":7225:7286   */\n      tag_371\n        /* \"#utility.yul\":7279:7285   */\n      dup2\n        /* \"#utility.yul\":7274:7277   */\n      dup6\n        /* \"#utility.yul\":7225:7286   */\n      tag_234\n      jump\t// in\n    tag_371:\n        /* \"#utility.yul\":7218:7286   */\n      swap4\n      pop\n        /* \"#utility.yul\":7295:7360   */\n      tag_372\n        /* \"#utility.yul\":7353:7359   */\n      dup2\n        /* \"#utility.yul\":7348:7351   */\n      dup6\n        /* \"#utility.yul\":7341:7345   */\n      0x20\n        /* \"#utility.yul\":7334:7339   */\n      dup7\n        /* \"#utility.yul\":7330:7346   */\n      add\n        /* \"#utility.yul\":7295:7360   */\n      tag_235\n      jump\t// in\n    tag_372:\n        /* \"#utility.yul\":7385:7414   */\n      tag_373\n        /* \"#utility.yul\":7407:7413   */\n      dup2\n        /* \"#utility.yul\":7385:7414   */\n      tag_236\n      jump\t// in\n    tag_373:\n        /* \"#utility.yul\":7380:7383   */\n      dup5\n        /* \"#utility.yul\":7376:7415   */\n      add\n        /* \"#utility.yul\":7369:7415   */\n      swap2\n      pop\n        /* \"#utility.yul\":7146:7421   */\n      pop\n        /* \"#utility.yul\":7064:7421   */\n      swap3\n      swap2\n      pop\n      pop\n      jump\t// out\n        /* \"#utility.yul\":7427:7535   */\n    tag_238:\n        /* \"#utility.yul\":7504:7528   */\n      tag_375\n        /* \"#utility.yul\":7522:7527   */\n      dup2\n        /* \"#utility.yul\":7504:7528   */\n      tag_214\n      jump\t// in\n    tag_375:\n        /* \"#utility.yul\":7499:7502   */\n      dup3\n        /* \"#utility.yul\":7492:7529   */\n      mstore\n        /* \"#utility.yul\":7427:7535   */\n      pop\n      pop\n      jump\t// out\n        /* \"#utility.yul\":7541:7655   */\n    tag_239:\n        /* \"#utility.yul\":7623:7624   */\n      0x04\n        /* \"#utility.yul\":7616:7621   */\n      dup2\n        /* \"#utility.yul\":7613:7625   */\n      lt\n        /* \"#utility.yul\":7603:7649   */\n      tag_377\n      jumpi\n        /* \"#utility.yul\":7629:7647   */\n      tag_378\n      tag_101\n      jump\t// in\n    tag_378:\n        /* \"#utility.yul\":7603:7649   */\n    tag_377:\n        /* \"#utility.yul\":7541:7655   */\n      pop\n      jump\t// out\n        /* \"#utility.yul\":7661:7790   */\n    tag_240:\n        /* \"#utility.yul\":7707:7714   */\n      0x00\n        /* \"#utility.yul\":7736:7741   */\n      dup2\n        /* \"#utility.yul\":7725:7741   */\n      swap1\n      pop\n        /* \"#utility.yul\":7742:7784   */\n      tag_380\n        /* \"#utility.yul\":7778:7783   */\n      dup3\n        /* \"#utility.yul\":7742:7784   */\n      tag_239\n      jump\t// in\n    tag_380:\n        /* \"#utility.yul\":7661:7790   */\n      swap2\n      swap1\n      pop\n      jump\t// out\n        /* \"#utility.yul\":7796:7925   */\n    tag_241:\n        /* \"#utility.yul\":7853:7862   */\n      0x00\n        /* \"#utility.yul\":7886:7919   */\n      tag_382\n        /* \"#utility.yul\":7913:7918   */\n      dup3\n        /* \"#utility.yul\":7886:7919   */\n      tag_240\n      jump\t// in\n    tag_382:\n        /* \"#utility.yul\":7873:7919   */\n      swap1\n      pop\n        /* \"#utility.yul\":7796:7925   */\n      swap2\n      swap1\n      pop\n      jump\t// out\n        /* \"#utility.yul\":7931:8066   */\n    tag_242:\n        /* \"#utility.yul\":8015:8059   */\n      tag_384\n        /* \"#utility.yul\":8053:8058   */\n      dup2\n        /* \"#utility.yul\":8015:8059   */\n      tag_241\n      jump\t// in\n    tag_384:\n        /* \"#utility.yul\":8010:8013   */\n      dup3\n        /* \"#utility.yul\":8003:8060   */\n      mstore\n        /* \"#utility.yul\":7931:8066   */\n      pop\n      pop\n      jump\t// out\n        /* \"#utility.yul\":8072:8180   */\n    tag_243:\n        /* \"#utility.yul\":8149:8173   */\n      tag_386\n        /* \"#utility.yul\":8167:8172   */\n      dup2\n        /* \"#utility.yul\":8149:8173   */\n      tag_228\n      jump\t// in\n    tag_386:\n        /* \"#utility.yul\":8144:8147   */\n      dup3\n        /* \"#utility.yul\":8137:8174   */\n      mstore\n        /* \"#utility.yul\":8072:8180   */\n      pop\n      pop\n      jump\t// out\n        /* \"#utility.yul\":8232:9546   */\n    tag_244:\n        /* \"#utility.yul\":8333:8336   */\n      0x00\n        /* \"#utility.yul\":8369:8373   */\n      0xc0\n        /* \"#utility.yul\":8364:8367   */\n      dup4\n        /* \"#utility.yul\":8360:8374   */\n      add\n        /* \"#utility.yul\":8456:8460   */\n      0x00\n        /* \"#utility.yul\":8449:8454   */\n      dup4\n        /* \"#utility.yul\":8445:8461   */\n      add\n        /* \"#utility.yul\":8439:8462   */\n      mload\n        /* \"#utility.yul\":8509:8512   */\n      dup5\n        /* \"#utility.yul\":8503:8507   */\n      dup3\n        /* \"#utility.yul\":8499:8513   */\n      sub\n        /* \"#utility.yul\":8492:8496   */\n      0x00\n        /* \"#utility.yul\":8487:8490   */\n      dup7\n        /* \"#utility.yul\":8483:8497   */\n      add\n        /* \"#utility.yul\":8476:8514   */\n      mstore\n        /* \"#utility.yul\":8535:8608   */\n      tag_388\n        /* \"#utility.yul\":8603:8607   */\n      dup3\n        /* \"#utility.yul\":8589:8601   */\n      dup3\n        /* \"#utility.yul\":8535:8608   */\n      tag_237\n      jump\t// in\n    tag_388:\n        /* \"#utility.yul\":8527:8608   */\n      swap2\n      pop\n        /* \"#utility.yul\":8384:8619   */\n      pop\n        /* \"#utility.yul\":8700:8704   */\n      0x20\n        /* \"#utility.yul\":8693:8698   */\n      dup4\n        /* \"#utility.yul\":8689:8705   */\n      add\n        /* \"#utility.yul\":8683:8706   */\n      mload\n        /* \"#utility.yul\":8719:8782   */\n      tag_389\n        /* \"#utility.yul\":8776:8780   */\n      0x20\n        /* \"#utility.yul\":8771:8774   */\n      dup7\n        /* \"#utility.yul\":8767:8781   */\n      add\n        /* \"#utility.yul\":8753:8765   */\n      dup3\n        /* \"#utility.yul\":8719:8782   */\n      tag_238\n      jump\t// in\n    tag_389:\n        /* \"#utility.yul\":8629:8792   */\n      pop\n        /* \"#utility.yul\":8877:8881   */\n      0x40\n        /* \"#utility.yul\":8870:8875   */\n      dup4\n        /* \"#utility.yul\":8866:8882   */\n      add\n        /* \"#utility.yul\":8860:8883   */\n      mload\n        /* \"#utility.yul\":8896:8959   */\n      tag_390\n        /* \"#utility.yul\":8953:8957   */\n      0x40\n        /* \"#utility.yul\":8948:8951   */\n      dup7\n        /* \"#utility.yul\":8944:8958   */\n      add\n        /* \"#utility.yul\":8930:8942   */\n      dup3\n        /* \"#utility.yul\":8896:8959   */\n      tag_238\n      jump\t// in\n    tag_390:\n        /* \"#utility.yul\":8802:8969   */\n      pop\n        /* \"#utility.yul\":9053:9057   */\n      0x60\n        /* \"#utility.yul\":9046:9051   */\n      dup4\n        /* \"#utility.yul\":9042:9058   */\n      add\n        /* \"#utility.yul\":9036:9059   */\n      mload\n        /* \"#utility.yul\":9072:9142   */\n      tag_391\n        /* \"#utility.yul\":9136:9140   */\n      0x60\n        /* \"#utility.yul\":9131:9134   */\n      dup7\n        /* \"#utility.yul\":9127:9141   */\n      add\n        /* \"#utility.yul\":9113:9125   */\n      dup3\n        /* \"#utility.yul\":9072:9142   */\n      tag_242\n      jump\t// in\n    tag_391:\n        /* \"#utility.yul\":8979:9152   */\n      pop\n        /* \"#utility.yul\":9245:9249   */\n      0x80\n        /* \"#utility.yul\":9238:9243   */\n      dup4\n        /* \"#utility.yul\":9234:9250   */\n      add\n        /* \"#utility.yul\":9228:9251   */\n      mload\n        /* \"#utility.yul\":9264:9327   */\n      tag_392\n        /* \"#utility.yul\":9321:9325   */\n      0x80\n        /* \"#utility.yul\":9316:9319   */\n      dup7\n        /* \"#utility.yul\":9312:9326   */\n      add\n        /* \"#utility.yul\":9298:9310   */\n      dup3\n        /* \"#utility.yul\":9264:9327   */\n      tag_238\n      jump\t// in\n    tag_392:\n        /* \"#utility.yul\":9162:9337   */\n      pop\n        /* \"#utility.yul\":9427:9431   */\n      0xa0\n        /* \"#utility.yul\":9420:9425   */\n      dup4\n        /* \"#utility.yul\":9416:9432   */\n      add\n        /* \"#utility.yul\":9410:9433   */\n      mload\n        /* \"#utility.yul\":9446:9509   */\n      tag_393\n        /* \"#utility.yul\":9503:9507   */\n      0xa0\n        /* \"#utility.yul\":9498:9501   */\n      dup7\n        /* \"#utility.yul\":9494:9508   */\n      add\n        /* \"#utility.yul\":9480:9492   */\n      dup3\n        /* \"#utility.yul\":9446:9509   */\n      tag_243\n      jump\t// in\n    tag_393:\n        /* \"#utility.yul\":9347:9519   */\n      pop\n        /* \"#utility.yul\":9536:9540   */\n      dup1\n        /* \"#utility.yul\":9529:9540   */\n      swap2\n      pop\n        /* \"#utility.yul\":8338:9546   */\n      pop\n        /* \"#utility.yul\":8232:9546   */\n      swap3\n      swap2\n      pop\n      pop\n      jump\t// out\n        /* \"#utility.yul\":9552:9792   */\n    tag_245:\n        /* \"#utility.yul\":9663:9673   */\n      0x00\n        /* \"#utility.yul\":9698:9786   */\n      tag_395\n        /* \"#utility.yul\":9782:9785   */\n      dup4\n        /* \"#utility.yul\":9774:9780   */\n      dup4\n        /* \"#utility.yul\":9698:9786   */\n      tag_244\n      jump\t// in\n    tag_395:\n        /* \"#utility.yul\":9684:9786   */\n      swap1\n      pop\n        /* \"#utility.yul\":9552:9792   */\n      swap3\n      swap2\n      pop\n      pop\n      jump\t// out\n        /* \"#utility.yul\":9798:9932   */\n    tag_246:\n        /* \"#utility.yul\":9889:9893   */\n      0x00\n        /* \"#utility.yul\":9921:9925   */\n      0x20\n        /* \"#utility.yul\":9916:9919   */\n      dup3\n        /* \"#utility.yul\":9912:9926   */\n      add\n        /* \"#utility.yul\":9904:9926   */\n      swap1\n      pop\n        /* \"#utility.yul\":9798:9932   */\n      swap2\n      swap1\n      pop\n      jump\t// out\n        /* \"#utility.yul\":9988:11067   */\n    tag_247:\n        /* \"#utility.yul\":10149:10152   */\n      0x00\n        /* \"#utility.yul\":10178:10253   */\n      tag_398\n        /* \"#utility.yul\":10247:10252   */\n      dup3\n        /* \"#utility.yul\":10178:10253   */\n      tag_230\n      jump\t// in\n    tag_398:\n        /* \"#utility.yul\":10269:10376   */\n      tag_399\n        /* \"#utility.yul\":10369:10375   */\n      dup2\n        /* \"#utility.yul\":10364:10367   */\n      dup6\n        /* \"#utility.yul\":10269:10376   */\n      tag_231\n      jump\t// in\n    tag_399:\n        /* \"#utility.yul\":10262:10376   */\n      swap4\n      pop\n        /* \"#utility.yul\":10402:10405   */\n      dup4\n        /* \"#utility.yul\":10447:10451   */\n      0x20\n        /* \"#utility.yul\":10439:10445   */\n      dup3\n        /* \"#utility.yul\":10435:10452   */\n      mul\n        /* \"#utility.yul\":10430:10433   */\n      dup6\n        /* \"#utility.yul\":10426:10453   */\n      add\n        /* \"#utility.yul\":10477:10554   */\n      tag_400\n        /* \"#utility.yul\":10548:10553   */\n      dup6\n        /* \"#utility.yul\":10477:10554   */\n      tag_232\n      jump\t// in\n    tag_400:\n        /* \"#utility.yul\":10577:10584   */\n      dup1\n        /* \"#utility.yul\":10608:10609   */\n      0x00\n        /* \"#utility.yul\":10593:11022   */\n    tag_401:\n        /* \"#utility.yul\":10618:10624   */\n      dup6\n        /* \"#utility.yul\":10615:10616   */\n      dup2\n        /* \"#utility.yul\":10612:10625   */\n      lt\n        /* \"#utility.yul\":10593:11022   */\n      iszero\n      tag_403\n      jumpi\n        /* \"#utility.yul\":10689:10698   */\n      dup5\n        /* \"#utility.yul\":10683:10687   */\n      dup5\n        /* \"#utility.yul\":10679:10699   */\n      sub\n        /* \"#utility.yul\":10674:10677   */\n      dup10\n        /* \"#utility.yul\":10667:10700   */\n      mstore\n        /* \"#utility.yul\":10740:10746   */\n      dup2\n        /* \"#utility.yul\":10734:10747   */\n      mload\n        /* \"#utility.yul\":10768:10874   */\n      tag_404\n        /* \"#utility.yul\":10869:10873   */\n      dup6\n        /* \"#utility.yul\":10854:10867   */\n      dup3\n        /* \"#utility.yul\":10768:10874   */\n      tag_245\n      jump\t// in\n    tag_404:\n        /* \"#utility.yul\":10760:10874   */\n      swap5\n      pop\n        /* \"#utility.yul\":10897:10978   */\n      tag_405\n        /* \"#utility.yul\":10971:10977   */\n      dup4\n        /* \"#utility.yul\":10897:10978   */\n      tag_246\n      jump\t// in\n    tag_405:\n        /* \"#utility.yul\":10887:10978   */\n      swap3\n      pop\n        /* \"#utility.yul\":11007:11011   */\n      0x20\n        /* \"#utility.yul\":11002:11005   */\n      dup11\n        /* \"#utility.yul\":10998:11012   */\n      add\n        /* \"#utility.yul\":10991:11012   */\n      swap10\n      pop\n        /* \"#utility.yul\":10653:11022   */\n      pop\n        /* \"#utility.yul\":10640:10641   */\n      0x01\n        /* \"#utility.yul\":10637:10638   */\n      dup2\n        /* \"#utility.yul\":10633:10642   */\n      add\n        /* \"#utility.yul\":10628:10642   */\n      swap1\n      pop\n        /* \"#utility.yul\":10593:11022   */\n      jump(tag_401)\n    tag_403:\n        /* \"#utility.yul\":10597:10611   */\n      pop\n        /* \"#utility.yul\":11038:11042   */\n      dup3\n        /* \"#utility.yul\":11031:11042   */\n      swap8\n      pop\n        /* \"#utility.yul\":11058:11061   */\n      dup8\n        /* \"#utility.yul\":11051:11061   */\n      swap6\n      pop\n        /* \"#utility.yul\":10154:11067   */\n      pop\n      pop\n      pop\n      pop\n      pop\n        /* \"#utility.yul\":9988:11067   */\n      swap3\n      swap2\n      pop\n      pop\n      jump\t// out\n        /* \"#utility.yul\":11073:11530   */\n    tag_45:\n        /* \"#utility.yul\":11258:11262   */\n      0x00\n        /* \"#utility.yul\":11296:11298   */\n      0x20\n        /* \"#utility.yul\":11285:11294   */\n      dup3\n        /* \"#utility.yul\":11281:11299   */\n      add\n        /* \"#utility.yul\":11273:11299   */\n      swap1\n      pop\n        /* \"#utility.yul\":11345:11354   */\n      dup2\n        /* \"#utility.yul\":11339:11343   */\n      dup2\n        /* \"#utility.yul\":11335:11355   */\n      sub\n        /* \"#utility.yul\":11331:11332   */\n      0x00\n        /* \"#utility.yul\":11320:11329   */\n      dup4\n        /* \"#utility.yul\":11316:11333   */\n      add\n        /* \"#utility.yul\":11309:11356   */\n      mstore\n        /* \"#utility.yul\":11373:11523   */\n      tag_407\n        /* \"#utility.yul\":11518:11522   */\n      dup2\n        /* \"#utility.yul\":11509:11515   */\n      dup5\n        /* \"#utility.yul\":11373:11523   */\n      tag_247\n      jump\t// in\n    tag_407:\n        /* \"#utility.yul\":11365:11523   */\n      swap1\n      pop\n        /* \"#utility.yul\":11073:11530   */\n      swap3\n      swap2\n      pop\n      pop\n      jump\t// out\n        /* \"#utility.yul\":11536:11675   */\n    tag_248:\n        /* \"#utility.yul\":11628:11634   */\n      0x00\n        /* \"#utility.yul\":11662:11667   */\n      dup2\n        /* \"#utility.yul\":11656:11668   */\n      mload\n        /* \"#utility.yul\":11646:11668   */\n      swap1\n      pop\n        /* \"#utility.yul\":11536:11675   */\n      swap2\n      swap1\n      pop\n      jump\t// out\n        /* \"#utility.yul\":11681:11890   */\n    tag_249:\n        /* \"#utility.yul\":11805:11816   */\n      0x00\n        /* \"#utility.yul\":11839:11845   */\n      dup3\n        /* \"#utility.yul\":11834:11837   */\n      dup3\n        /* \"#utility.yul\":11827:11846   */\n      mstore\n        /* \"#utility.yul\":11879:11883   */\n      0x20\n        /* \"#utility.yul\":11874:11877   */\n      dup3\n        /* \"#utility.yul\":11870:11884   */\n      add\n        /* \"#utility.yul\":11855:11884   */\n      swap1\n      pop\n        /* \"#utility.yul\":11681:11890   */\n      swap3\n      swap2\n      pop\n      pop\n      jump\t// out\n        /* \"#utility.yul\":11896:12053   */\n    tag_250:\n        /* \"#utility.yul\":11988:11992   */\n      0x00\n        /* \"#utility.yul\":12011:12014   */\n      dup2\n        /* \"#utility.yul\":12003:12014   */\n      swap1\n      pop\n        /* \"#utility.yul\":12041:12045   */\n      0x20\n        /* \"#utility.yul\":12036:12039   */\n      dup3\n        /* \"#utility.yul\":12032:12046   */\n      add\n        /* \"#utility.yul\":12024:12046   */\n      swap1\n      pop\n        /* \"#utility.yul\":11896:12053   */\n      swap2\n      swap1\n      pop\n      jump\t// out\n        /* \"#utility.yul\":12113:13679   */\n    tag_251:\n        /* \"#utility.yul\":12222:12225   */\n      0x00\n        /* \"#utility.yul\":12258:12262   */\n      0xe0\n        /* \"#utility.yul\":12253:12256   */\n      dup4\n        /* \"#utility.yul\":12249:12263   */\n      add\n        /* \"#utility.yul\":12345:12349   */\n      0x00\n        /* \"#utility.yul\":12338:12343   */\n      dup4\n        /* \"#utility.yul\":12334:12350   */\n      add\n        /* \"#utility.yul\":12328:12351   */\n      mload\n        /* \"#utility.yul\":12398:12401   */\n      dup5\n        /* \"#utility.yul\":12392:12396   */\n      dup3\n        /* \"#utility.yul\":12388:12402   */\n      sub\n        /* \"#utility.yul\":12381:12385   */\n      0x00\n        /* \"#utility.yul\":12376:12379   */\n      dup7\n        /* \"#utility.yul\":12372:12386   */\n      add\n        /* \"#utility.yul\":12365:12403   */\n      mstore\n        /* \"#utility.yul\":12424:12497   */\n      tag_412\n        /* \"#utility.yul\":12492:12496   */\n      dup3\n        /* \"#utility.yul\":12478:12490   */\n      dup3\n        /* \"#utility.yul\":12424:12497   */\n      tag_237\n      jump\t// in\n    tag_412:\n        /* \"#utility.yul\":12416:12497   */\n      swap2\n      pop\n        /* \"#utility.yul\":12273:12508   */\n      pop\n        /* \"#utility.yul\":12591:12595   */\n      0x20\n        /* \"#utility.yul\":12584:12589   */\n      dup4\n        /* \"#utility.yul\":12580:12596   */\n      add\n        /* \"#utility.yul\":12574:12597   */\n      mload\n        /* \"#utility.yul\":12644:12647   */\n      dup5\n        /* \"#utility.yul\":12638:12642   */\n      dup3\n        /* \"#utility.yul\":12634:12648   */\n      sub\n        /* \"#utility.yul\":12627:12631   */\n      0x20\n        /* \"#utility.yul\":12622:12625   */\n      dup7\n        /* \"#utility.yul\":12618:12632   */\n      add\n        /* \"#utility.yul\":12611:12649   */\n      mstore\n        /* \"#utility.yul\":12670:12743   */\n      tag_413\n        /* \"#utility.yul\":12738:12742   */\n      dup3\n        /* \"#utility.yul\":12724:12736   */\n      dup3\n        /* \"#utility.yul\":12670:12743   */\n      tag_237\n      jump\t// in\n    tag_413:\n        /* \"#utility.yul\":12662:12743   */\n      swap2\n      pop\n        /* \"#utility.yul\":12518:12754   */\n      pop\n        /* \"#utility.yul\":12835:12839   */\n      0x40\n        /* \"#utility.yul\":12828:12833   */\n      dup4\n        /* \"#utility.yul\":12824:12840   */\n      add\n        /* \"#utility.yul\":12818:12841   */\n      mload\n        /* \"#utility.yul\":12854:12917   */\n      tag_414\n        /* \"#utility.yul\":12911:12915   */\n      0x40\n        /* \"#utility.yul\":12906:12909   */\n      dup7\n        /* \"#utility.yul\":12902:12916   */\n      add\n        /* \"#utility.yul\":12888:12900   */\n      dup3\n        /* \"#utility.yul\":12854:12917   */\n      tag_238\n      jump\t// in\n    tag_414:\n        /* \"#utility.yul\":12764:12927   */\n      pop\n        /* \"#utility.yul\":13011:13015   */\n      0x60\n        /* \"#utility.yul\":13004:13009   */\n      dup4\n        /* \"#utility.yul\":13000:13016   */\n      add\n        /* \"#utility.yul\":12994:13017   */\n      mload\n        /* \"#utility.yul\":13030:13100   */\n      tag_415\n        /* \"#utility.yul\":13094:13098   */\n      0x60\n        /* \"#utility.yul\":13089:13092   */\n      dup7\n        /* \"#utility.yul\":13085:13099   */\n      add\n        /* \"#utility.yul\":13071:13083   */\n      dup3\n        /* \"#utility.yul\":13030:13100   */\n      tag_242\n      jump\t// in\n    tag_415:\n        /* \"#utility.yul\":12937:13110   */\n      pop\n        /* \"#utility.yul\":13199:13203   */\n      0x80\n        /* \"#utility.yul\":13192:13197   */\n      dup4\n        /* \"#utility.yul\":13188:13204   */\n      add\n        /* \"#utility.yul\":13182:13205   */\n      mload\n        /* \"#utility.yul\":13218:13281   */\n      tag_416\n        /* \"#utility.yul\":13275:13279   */\n      0x80\n        /* \"#utility.yul\":13270:13273   */\n      dup7\n        /* \"#utility.yul\":13266:13280   */\n      add\n        /* \"#utility.yul\":13252:13264   */\n      dup3\n        /* \"#utility.yul\":13218:13281   */\n      tag_238\n      jump\t// in\n    tag_416:\n        /* \"#utility.yul\":13120:13291   */\n      pop\n        /* \"#utility.yul\":13385:13389   */\n      0xa0\n        /* \"#utility.yul\":13378:13383   */\n      dup4\n        /* \"#utility.yul\":13374:13390   */\n      add\n        /* \"#utility.yul\":13368:13391   */\n      mload\n        /* \"#utility.yul\":13404:13467   */\n      tag_417\n        /* \"#utility.yul\":13461:13465   */\n      0xa0\n        /* \"#utility.yul\":13456:13459   */\n      dup7\n        /* \"#utility.yul\":13452:13466   */\n      add\n        /* \"#utility.yul\":13438:13450   */\n      dup3\n        /* \"#utility.yul\":13404:13467   */\n      tag_243\n      jump\t// in\n    tag_417:\n        /* \"#utility.yul\":13301:13477   */\n      pop\n        /* \"#utility.yul\":13560:13564   */\n      0xc0\n        /* \"#utility.yul\":13553:13558   */\n      dup4\n        /* \"#utility.yul\":13549:13565   */\n      add\n        /* \"#utility.yul\":13543:13566   */\n      mload\n        /* \"#utility.yul\":13579:13642   */\n      tag_418\n        /* \"#utility.yul\":13636:13640   */\n      0xc0\n        /* \"#utility.yul\":13631:13634   */\n      dup7\n        /* \"#utility.yul\":13627:13641   */\n      add\n        /* \"#utility.yul\":13613:13625   */\n      dup3\n        /* \"#utility.yul\":13579:13642   */\n      tag_238\n      jump\t// in\n    tag_418:\n        /* \"#utility.yul\":13487:13652   */\n      pop\n        /* \"#utility.yul\":13669:13673   */\n      dup1\n        /* \"#utility.yul\":13662:13673   */\n      swap2\n      pop\n        /* \"#utility.yul\":12227:13679   */\n      pop\n        /* \"#utility.yul\":12113:13679   */\n      swap3\n      swap2\n      pop\n      pop\n      jump\t// out\n        /* \"#utility.yul\":13685:13941   */\n    tag_252:\n        /* \"#utility.yul\":13804:13814   */\n      0x00\n        /* \"#utility.yul\":13839:13935   */\n      tag_420\n        /* \"#utility.yul\":13931:13934   */\n      dup4\n        /* \"#utility.yul\":13923:13929   */\n      dup4\n        /* \"#utility.yul\":13839:13935   */\n      tag_251\n      jump\t// in\n    tag_420:\n        /* \"#utility.yul\":13825:13935   */\n      swap1\n      pop\n        /* \"#utility.yul\":13685:13941   */\n      swap3\n      swap2\n      pop\n      pop\n      jump\t// out\n        /* \"#utility.yul\":13947:14085   */\n    tag_253:\n        /* \"#utility.yul\":14042:14046   */\n      0x00\n        /* \"#utility.yul\":14074:14078   */\n      0x20\n        /* \"#utility.yul\":14069:14072   */\n      dup3\n        /* \"#utility.yul\":14065:14079   */\n      add\n        /* \"#utility.yul\":14057:14079   */\n      swap1\n      pop\n        /* \"#utility.yul\":13947:14085   */\n      swap2\n      swap1\n      pop\n      jump\t// out\n        /* \"#utility.yul\":14149:15260   */\n    tag_254:\n        /* \"#utility.yul\":14318:14321   */\n      0x00\n        /* \"#utility.yul\":14347:14426   */\n      tag_423\n        /* \"#utility.yul\":14420:14425   */\n      dup3\n        /* \"#utility.yul\":14347:14426   */\n      tag_248\n      jump\t// in\n    tag_423:\n        /* \"#utility.yul\":14442:14553   */\n      tag_424\n        /* \"#utility.yul\":14546:14552   */\n      dup2\n        /* \"#utility.yul\":14541:14544   */\n      dup6\n        /* \"#utility.yul\":14442:14553   */\n      tag_249\n      jump\t// in\n    tag_424:\n        /* \"#utility.yul\":14435:14553   */\n      swap4\n      pop\n        /* \"#utility.yul\":14579:14582   */\n      dup4\n        /* \"#utility.yul\":14624:14628   */\n      0x20\n        /* \"#utility.yul\":14616:14622   */\n      dup3\n        /* \"#utility.yul\":14612:14629   */\n      mul\n        /* \"#utility.yul\":14607:14610   */\n      dup6\n        /* \"#utility.yul\":14603:14630   */\n      add\n        /* \"#utility.yul\":14654:14735   */\n      tag_425\n        /* \"#utility.yul\":14729:14734   */\n      dup6\n        /* \"#utility.yul\":14654:14735   */\n      tag_250\n      jump\t// in\n    tag_425:\n        /* \"#utility.yul\":14758:14765   */\n      dup1\n        /* \"#utility.yul\":14789:14790   */\n      0x00\n        /* \"#utility.yul\":14774:15215   */\n    tag_426:\n        /* \"#utility.yul\":14799:14805   */\n      dup6\n        /* \"#utility.yul\":14796:14797   */\n      dup2\n        /* \"#utility.yul\":14793:14806   */\n      lt\n        /* \"#utility.yul\":14774:15215   */\n      iszero\n      tag_428\n      jumpi\n        /* \"#utility.yul\":14870:14879   */\n      dup5\n        /* \"#utility.yul\":14864:14868   */\n      dup5\n        /* \"#utility.yul\":14860:14880   */\n      sub\n        /* \"#utility.yul\":14855:14858   */\n      dup10\n        /* \"#utility.yul\":14848:14881   */\n      mstore\n        /* \"#utility.yul\":14921:14927   */\n      dup2\n        /* \"#utility.yul\":14915:14928   */\n      mload\n        /* \"#utility.yul\":14949:15063   */\n      tag_429\n        /* \"#utility.yul\":15058:15062   */\n      dup6\n        /* \"#utility.yul\":15043:15056   */\n      dup3\n        /* \"#utility.yul\":14949:15063   */\n      tag_252\n      jump\t// in\n    tag_429:\n        /* \"#utility.yul\":14941:15063   */\n      swap5\n      pop\n        /* \"#utility.yul\":15086:15171   */\n      tag_430\n        /* \"#utility.yul\":15164:15170   */\n      dup4\n        /* \"#utility.yul\":15086:15171   */\n      tag_253\n      jump\t// in\n    tag_430:\n        /* \"#utility.yul\":15076:15171   */\n      swap3\n      pop\n        /* \"#utility.yul\":15200:15204   */\n      0x20\n        /* \"#utility.yul\":15195:15198   */\n      dup11\n        /* \"#utility.yul\":15191:15205   */\n      add\n        /* \"#utility.yul\":15184:15205   */\n      swap10\n      pop\n        /* \"#utility.yul\":14834:15215   */\n      pop\n        /* \"#utility.yul\":14821:14822   */\n      0x01\n        /* \"#utility.yul\":14818:14819   */\n      dup2\n        /* \"#utility.yul\":14814:14823   */\n      add\n        /* \"#utility.yul\":14809:14823   */\n      swap1\n      pop\n        /* \"#utility.yul\":14774:15215   */\n      jump(tag_426)\n    tag_428:\n        /* \"#utility.yul\":14778:14792   */\n      pop\n        /* \"#utility.yul\":15231:15235   */\n      dup3\n        /* \"#utility.yul\":15224:15235   */\n      swap8\n      pop\n        /* \"#utility.yul\":15251:15254   */\n      dup8\n        /* \"#utility.yul\":15244:15254   */\n      swap6\n      pop\n        /* \"#utility.yul\":14323:15260   */\n      pop\n      pop\n      pop\n      pop\n      pop\n        /* \"#utility.yul\":14149:15260   */\n      swap3\n      swap2\n      pop\n      pop\n      jump\t// out\n        /* \"#utility.yul\":15266:15739   */\n    tag_52:\n        /* \"#utility.yul\":15459:15463   */\n      0x00\n        /* \"#utility.yul\":15497:15499   */\n      0x20\n        /* \"#utility.yul\":15486:15495   */\n      dup3\n        /* \"#utility.yul\":15482:15500   */\n      add\n        /* \"#utility.yul\":15474:15500   */\n      swap1\n      pop\n        /* \"#utility.yul\":15546:15555   */\n      dup2\n        /* \"#utility.yul\":15540:15544   */\n      dup2\n        /* \"#utility.yul\":15536:15556   */\n      sub\n        /* \"#utility.yul\":15532:15533   */\n      0x00\n        /* \"#utility.yul\":15521:15530   */\n      dup4\n        /* \"#utility.yul\":15517:15534   */\n      add\n        /* \"#utility.yul\":15510:15557   */\n      mstore\n        /* \"#utility.yul\":15574:15732   */\n      tag_432\n        /* \"#utility.yul\":15727:15731   */\n      dup2\n        /* \"#utility.yul\":15718:15724   */\n      dup5\n        /* \"#utility.yul\":15574:15732   */\n      tag_254\n      jump\t// in\n    tag_432:\n        /* \"#utility.yul\":15566:15732   */\n      swap1\n      pop\n        /* \"#utility.yul\":15266:15739   */\n      swap3\n      swap2\n      pop\n      pop\n      jump\t// out\n        /* \"#utility.yul\":15745:15914   */\n    tag_255:\n        /* \"#utility.yul\":15829:15840   */\n      0x00\n        /* \"#utility.yul\":15863:15869   */\n      dup3\n        /* \"#utility.yul\":15858:15861   */\n      dup3\n        /* \"#utility.yul\":15851:15870   */\n      mstore\n        /* \"#utility.yul\":15903:15907   */\n      0x20\n        /* \"#utility.yul\":15898:15901   */\n      dup3\n        /* \"#utility.yul\":15894:15908   */\n      add\n        /* \"#utility.yul\":15879:15908   */\n      swap1\n      pop\n        /* \"#utility.yul\":15745:15914   */\n      swap3\n      swap2\n      pop\n      pop\n      jump\t// out\n        /* \"#utility.yul\":15920:16089   */\n    tag_256:\n        /* \"#utility.yul\":16060:16081   */\n      0x566f74696e672074696d65206973206f76657200000000000000000000000000\n        /* \"#utility.yul\":16056:16057   */\n      0x00\n        /* \"#utility.yul\":16048:16054   */\n      dup3\n        /* \"#utility.yul\":16044:16058   */\n      add\n        /* \"#utility.yul\":16037:16082   */\n      mstore\n        /* \"#utility.yul\":15920:16089   */\n      pop\n      jump\t// out\n        /* \"#utility.yul\":16095:16461   */\n    tag_257:\n        /* \"#utility.yul\":16237:16240   */\n      0x00\n        /* \"#utility.yul\":16258:16325   */\n      tag_436\n        /* \"#utility.yul\":16322:16324   */\n      0x13\n        /* \"#utility.yul\":16317:16320   */\n      dup4\n        /* \"#utility.yul\":16258:16325   */\n      tag_255\n      jump\t// in\n    tag_436:\n        /* \"#utility.yul\":16251:16325   */\n      swap2\n      pop\n        /* \"#utility.yul\":16334:16427   */\n      tag_437\n        /* \"#utility.yul\":16423:16426   */\n      dup3\n        /* \"#utility.yul\":16334:16427   */\n      tag_256\n      jump\t// in\n    tag_437:\n        /* \"#utility.yul\":16452:16454   */\n      0x20\n        /* \"#utility.yul\":16447:16450   */\n      dup3\n        /* \"#utility.yul\":16443:16455   */\n      add\n        /* \"#utility.yul\":16436:16455   */\n      swap1\n      pop\n        /* \"#utility.yul\":16095:16461   */\n      swap2\n      swap1\n      pop\n      jump\t// out\n        /* \"#utility.yul\":16467:16886   */\n    tag_57:\n        /* \"#utility.yul\":16633:16637   */\n      0x00\n        /* \"#utility.yul\":16671:16673   */\n      0x20\n        /* \"#utility.yul\":16660:16669   */\n      dup3\n        /* \"#utility.yul\":16656:16674   */\n      add\n        /* \"#utility.yul\":16648:16674   */\n      swap1\n      pop\n        /* \"#utility.yul\":16720:16729   */\n      dup2\n        /* \"#utility.yul\":16714:16718   */\n      dup2\n        /* \"#utility.yul\":16710:16730   */\n      sub\n        /* \"#utility.yul\":16706:16707   */\n      0x00\n        /* \"#utility.yul\":16695:16704   */\n      dup4\n        /* \"#utility.yul\":16691:16708   */\n      add\n        /* \"#utility.yul\":16684:16731   */\n      mstore\n        /* \"#utility.yul\":16748:16879   */\n      tag_439\n        /* \"#utility.yul\":16874:16878   */\n      dup2\n        /* \"#utility.yul\":16748:16879   */\n      tag_257\n      jump\t// in\n    tag_439:\n        /* \"#utility.yul\":16740:16879   */\n      swap1\n      pop\n        /* \"#utility.yul\":16467:16886   */\n      swap2\n      swap1\n      pop\n      jump\t// out\n        /* \"#utility.yul\":16892:17068   */\n    tag_258:\n        /* \"#utility.yul\":17032:17060   */\n      0x566f74696e6720686173206e6f74207374617274656420796574000000000000\n        /* \"#utility.yul\":17028:17029   */\n      0x00\n        /* \"#utility.yul\":17020:17026   */\n      dup3\n        /* \"#utility.yul\":17016:17030   */\n      add\n        /* \"#utility.yul\":17009:17061   */\n      mstore\n        /* \"#utility.yul\":16892:17068   */\n      pop\n      jump\t// out\n        /* \"#utility.yul\":17074:17440   */\n    tag_259:\n        /* \"#utility.yul\":17216:17219   */\n      0x00\n        /* \"#utility.yul\":17237:17304   */\n      tag_442\n        /* \"#utility.yul\":17301:17303   */\n      0x1a\n        /* \"#utility.yul\":17296:17299   */\n      dup4\n        /* \"#utility.yul\":17237:17304   */\n      tag_255\n      jump\t// in\n    tag_442:\n        /* \"#utility.yul\":17230:17304   */\n      swap2\n      pop\n        /* \"#utility.yul\":17313:17406   */\n      tag_443\n        /* \"#utility.yul\":17402:17405   */\n      dup3\n        /* \"#utility.yul\":17313:17406   */\n      tag_258\n      jump\t// in\n    tag_443:\n        /* \"#utility.yul\":17431:17433   */\n      0x20\n        /* \"#utility.yul\":17426:17429   */\n      dup3\n        /* \"#utility.yul\":17422:17434   */\n      add\n        /* \"#utility.yul\":17415:17434   */\n      swap1\n      pop\n        /* \"#utility.yul\":17074:17440   */\n      swap2\n      swap1\n      pop\n      jump\t// out\n        /* \"#utility.yul\":17446:17865   */\n    tag_61:\n        /* \"#utility.yul\":17612:17616   */\n      0x00\n        /* \"#utility.yul\":17650:17652   */\n      0x20\n        /* \"#utility.yul\":17639:17648   */\n      dup3\n        /* \"#utility.yul\":17635:17653   */\n      add\n        /* \"#utility.yul\":17627:17653   */\n      swap1\n      pop\n        /* \"#utility.yul\":17699:17708   */\n      dup2\n        /* \"#utility.yul\":17693:17697   */\n      dup2\n        /* \"#utility.yul\":17689:17709   */\n      sub\n        /* \"#utility.yul\":17685:17686   */\n      0x00\n        /* \"#utility.yul\":17674:17683   */\n      dup4\n        /* \"#utility.yul\":17670:17687   */\n      add\n        /* \"#utility.yul\":17663:17710   */\n      mstore\n        /* \"#utility.yul\":17727:17858   */\n      tag_445\n        /* \"#utility.yul\":17853:17857   */\n      dup2\n        /* \"#utility.yul\":17727:17858   */\n      tag_259\n      jump\t// in\n    tag_445:\n        /* \"#utility.yul\":17719:17858   */\n      swap1\n      pop\n        /* \"#utility.yul\":17446:17865   */\n      swap2\n      swap1\n      pop\n      jump\t// out\n        /* \"#utility.yul\":17871:18043   */\n    tag_260:\n        /* \"#utility.yul\":18011:18035   */\n      0x596f75206861766520616c726561647920766f74656400000000000000000000\n        /* \"#utility.yul\":18007:18008   */\n      0x00\n        /* \"#utility.yul\":17999:18005   */\n      dup3\n        /* \"#utility.yul\":17995:18009   */\n      add\n        /* \"#utility.yul\":17988:18036   */\n      mstore\n        /* \"#utility.yul\":17871:18043   */\n      pop\n      jump\t// out\n        /* \"#utility.yul\":18049:18415   */\n    tag_261:\n        /* \"#utility.yul\":18191:18194   */\n      0x00\n        /* \"#utility.yul\":18212:18279   */\n      tag_448\n        /* \"#utility.yul\":18276:18278   */\n      0x16\n        /* \"#utility.yul\":18271:18274   */\n      dup4\n        /* \"#utility.yul\":18212:18279   */\n      tag_255\n      jump\t// in\n    tag_448:\n        /* \"#utility.yul\":18205:18279   */\n      swap2\n      pop\n        /* \"#utility.yul\":18288:18381   */\n      tag_449\n        /* \"#utility.yul\":18377:18380   */\n      dup3\n        /* \"#utility.yul\":18288:18381   */\n      tag_260\n      jump\t// in\n    tag_449:\n        /* \"#utility.yul\":18406:18408   */\n      0x20\n        /* \"#utility.yul\":18401:18404   */\n      dup3\n        /* \"#utility.yul\":18397:18409   */\n      add\n        /* \"#utility.yul\":18390:18409   */\n      swap1\n      pop\n        /* \"#utility.yul\":18049:18415   */\n      swap2\n      swap1\n      pop\n      jump\t// out\n        /* \"#utility.yul\":18421:18840   */\n    tag_64:\n        /* \"#utility.yul\":18587:18591   */\n      0x00\n        /* \"#utility.yul\":18625:18627   */\n      0x20\n        /* \"#utility.yul\":18614:18623   */\n      dup3\n        /* \"#utility.yul\":18610:18628   */\n      add\n        /* \"#utility.yul\":18602:18628   */\n      swap1\n      pop\n        /* \"#utility.yul\":18674:18683   */\n      dup2\n        /* \"#utility.yul\":18668:18672   */\n      dup2\n        /* \"#utility.yul\":18664:18684   */\n      sub\n        /* \"#utility.yul\":18660:18661   */\n      0x00\n        /* \"#utility.yul\":18649:18658   */\n      dup4\n        /* \"#utility.yul\":18645:18662   */\n      add\n        /* \"#utility.yul\":18638:18685   */\n      mstore\n        /* \"#utility.yul\":18702:18833   */\n      tag_451\n        /* \"#utility.yul\":18828:18832   */\n      dup2\n        /* \"#utility.yul\":18702:18833   */\n      tag_261\n      jump\t// in\n    tag_451:\n        /* \"#utility.yul\":18694:18833   */\n      swap1\n      pop\n        /* \"#utility.yul\":18421:18840   */\n      swap2\n      swap1\n      pop\n      jump\t// out\n        /* \"#utility.yul\":18846:19019   */\n    tag_262:\n        /* \"#utility.yul\":18986:19011   */\n      0x596f7520617265206e6f7420617574686f7572697a6564000000000000000000\n        /* \"#utility.yul\":18982:18983   */\n      0x00\n        /* \"#utility.yul\":18974:18980   */\n      dup3\n        /* \"#utility.yul\":18970:18984   */\n      add\n        /* \"#utility.yul\":18963:19012   */\n      mstore\n        /* \"#utility.yul\":18846:19019   */\n      pop\n      jump\t// out\n        /* \"#utility.yul\":19025:19391   */\n    tag_263:\n        /* \"#utility.yul\":19167:19170   */\n      0x00\n        /* \"#utility.yul\":19188:19255   */\n      tag_454\n        /* \"#utility.yul\":19252:19254   */\n      0x17\n        /* \"#utility.yul\":19247:19250   */\n      dup4\n        /* \"#utility.yul\":19188:19255   */\n      tag_255\n      jump\t// in\n    tag_454:\n        /* \"#utility.yul\":19181:19255   */\n      swap2\n      pop\n        /* \"#utility.yul\":19264:19357   */\n      tag_455\n        /* \"#utility.yul\":19353:19356   */\n      dup3\n        /* \"#utility.yul\":19264:19357   */\n      tag_262\n      jump\t// in\n    tag_455:\n        /* \"#utility.yul\":19382:19384   */\n      0x20\n        /* \"#utility.yul\":19377:19380   */\n      dup3\n        /* \"#utility.yul\":19373:19385   */\n      add\n        /* \"#utility.yul\":19366:19385   */\n      swap1\n      pop\n        /* \"#utility.yul\":19025:19391   */\n      swap2\n      swap1\n      pop\n      jump\t// out\n        /* \"#utility.yul\":19397:19816   */\n    tag_67:\n        /* \"#utility.yul\":19563:19567   */\n      0x00\n        /* \"#utility.yul\":19601:19603   */\n      0x20\n        /* \"#utility.yul\":19590:19599   */\n      dup3\n        /* \"#utility.yul\":19586:19604   */\n      add\n        /* \"#utility.yul\":19578:19604   */\n      swap1\n      pop\n        /* \"#utility.yul\":19650:19659   */\n      dup2\n        /* \"#utility.yul\":19644:19648   */\n      dup2\n        /* \"#utility.yul\":19640:19660   */\n      sub\n        /* \"#utility.yul\":19636:19637   */\n      0x00\n        /* \"#utility.yul\":19625:19634   */\n      dup4\n        /* \"#utility.yul\":19621:19638   */\n      add\n        /* \"#utility.yul\":19614:19661   */\n      mstore\n        /* \"#utility.yul\":19678:19809   */\n      tag_457\n        /* \"#utility.yul\":19804:19808   */\n      dup2\n        /* \"#utility.yul\":19678:19809   */\n      tag_263\n      jump\t// in\n    tag_457:\n        /* \"#utility.yul\":19670:19809   */\n      swap1\n      pop\n        /* \"#utility.yul\":19397:19816   */\n      swap2\n      swap1\n      pop\n      jump\t// out\n        /* \"#utility.yul\":19822:19999   */\n    tag_264:\n        /* \"#utility.yul\":19962:19991   */\n      0x43616e646964617465204964206973206e6f7420636f72726563740000000000\n        /* \"#utility.yul\":19958:19959   */\n      0x00\n        /* \"#utility.yul\":19950:19956   */\n      dup3\n        /* \"#utility.yul\":19946:19960   */\n      add\n        /* \"#utility.yul\":19939:19992   */\n      mstore\n        /* \"#utility.yul\":19822:19999   */\n      pop\n      jump\t// out\n        /* \"#utility.yul\":20005:20371   */\n    tag_265:\n        /* \"#utility.yul\":20147:20150   */\n      0x00\n        /* \"#utility.yul\":20168:20235   */\n      tag_460\n        /* \"#utility.yul\":20232:20234   */\n      0x1b\n        /* \"#utility.yul\":20227:20230   */\n      dup4\n        /* \"#utility.yul\":20168:20235   */\n      tag_255\n      jump\t// in\n    tag_460:\n        /* \"#utility.yul\":20161:20235   */\n      swap2\n      pop\n        /* \"#utility.yul\":20244:20337   */\n      tag_461\n        /* \"#utility.yul\":20333:20336   */\n      dup3\n        /* \"#utility.yul\":20244:20337   */\n      tag_264\n      jump\t// in\n    tag_461:\n        /* \"#utility.yul\":20362:20364   */\n      0x20\n        /* \"#utility.yul\":20357:20360   */\n      dup3\n        /* \"#utility.yul\":20353:20365   */\n      add\n        /* \"#utility.yul\":20346:20365   */\n      swap1\n      pop\n        /* \"#utility.yul\":20005:20371   */\n      swap2\n      swap1\n      pop\n      jump\t// out\n        /* \"#utility.yul\":20377:20796   */\n    tag_71:\n        /* \"#utility.yul\":20543:20547   */\n      0x00\n        /* \"#utility.yul\":20581:20583   */\n      0x20\n        /* \"#utility.yul\":20570:20579   */\n      dup3\n        /* \"#utility.yul\":20566:20584   */\n      add\n        /* \"#utility.yul\":20558:20584   */\n      swap1\n      pop\n        /* \"#utility.yul\":20630:20639   */\n      dup2\n        /* \"#utility.yul\":20624:20628   */\n      dup2\n        /* \"#utility.yul\":20620:20640   */\n      sub\n        /* \"#utility.yul\":20616:20617   */\n      0x00\n        /* \"#utility.yul\":20605:20614   */\n      dup4\n        /* \"#utility.yul\":20601:20618   */\n      add\n        /* \"#utility.yul\":20594:20641   */\n      mstore\n        /* \"#utility.yul\":20658:20789   */\n      tag_463\n        /* \"#utility.yul\":20784:20788   */\n      dup2\n        /* \"#utility.yul\":20658:20789   */\n      tag_265\n      jump\t// in\n    tag_463:\n        /* \"#utility.yul\":20650:20789   */\n      swap1\n      pop\n        /* \"#utility.yul\":20377:20796   */\n      swap2\n      swap1\n      pop\n      jump\t// out\n        /* \"#utility.yul\":20802:20982   */\n    tag_266:\n        /* \"#utility.yul\":20850:20927   */\n      0x4e487b7100000000000000000000000000000000000000000000000000000000\n        /* \"#utility.yul\":20847:20848   */\n      0x00\n        /* \"#utility.yul\":20840:20928   */\n      mstore\n        /* \"#utility.yul\":20947:20951   */\n      0x11\n        /* \"#utility.yul\":20944:20945   */\n      0x04\n        /* \"#utility.yul\":20937:20952   */\n      mstore\n        /* \"#utility.yul\":20971:20975   */\n      0x24\n        /* \"#utility.yul\":20968:20969   */\n      0x00\n        /* \"#utility.yul\":20961:20976   */\n      revert\n        /* \"#utility.yul\":20988:21221   */\n    tag_73:\n        /* \"#utility.yul\":21027:21030   */\n      0x00\n        /* \"#utility.yul\":21050:21074   */\n      tag_466\n        /* \"#utility.yul\":21068:21073   */\n      dup3\n        /* \"#utility.yul\":21050:21074   */\n      tag_214\n      jump\t// in\n    tag_466:\n        /* \"#utility.yul\":21041:21074   */\n      swap2\n      pop\n        /* \"#utility.yul\":21096:21162   */\n      0xffffffffffffffffffffffffffffffffffffffffffffffffffffffffffffffff\n        /* \"#utility.yul\":21089:21094   */\n      dup3\n        /* \"#utility.yul\":21086:21163   */\n      sub\n        /* \"#utility.yul\":21083:21186   */\n      tag_467\n      jumpi\n        /* \"#utility.yul\":21166:21184   */\n      tag_468\n      tag_266\n      jump\t// in\n    tag_468:\n        /* \"#utility.yul\":21083:21186   */\n    tag_467:\n        /* \"#utility.yul\":21213:21214   */\n      0x01\n        /* \"#utility.yul\":21206:21211   */\n      dup3\n        /* \"#utility.yul\":21202:21215   */\n      add\n        /* \"#utility.yul\":21195:21215   */\n      swap1\n      pop\n        /* \"#utility.yul\":20988:21221   */\n      swap2\n      swap1\n      pop\n      jump\t// out\n        /* \"#utility.yul\":21227:21392   */\n    tag_267:\n        /* \"#utility.yul\":21367:21384   */\n      0x4e6f742061757468756f72697a65640000000000000000000000000000000000\n        /* \"#utility.yul\":21363:21364   */\n      0x00\n        /* \"#utility.yul\":21355:21361   */\n      dup3\n        /* \"#utility.yul\":21351:21365   */\n      add\n        /* \"#utility.yul\":21344:21385   */\n      mstore\n        /* \"#utility.yul\":21227:21392   */\n      pop\n      jump\t// out\n        /* \"#utility.yul\":21398:21764   */\n    tag_268:\n        /* \"#utility.yul\":21540:21543   */\n      0x00\n        /* \"#utility.yul\":21561:21628   */\n      tag_471\n        /* \"#utility.yul\":21625:21627   */\n      0x0f\n        /* \"#utility.yul\":21620:21623   */\n      dup4\n        /* \"#utility.yul\":21561:21628   */\n      tag_255\n      jump\t// in\n    tag_471:\n        /* \"#utility.yul\":21554:21628   */\n      swap2\n      pop\n        /* \"#utility.yul\":21637:21730   */\n      tag_472\n        /* \"#utility.yul\":21726:21729   */\n      dup3\n        /* \"#utility.yul\":21637:21730   */\n      tag_267\n      jump\t// in\n    tag_472:\n        /* \"#utility.yul\":21755:21757   */\n      0x20\n        /* \"#utility.yul\":21750:21753   */\n      dup3\n        /* \"#utility.yul\":21746:21758   */\n      add\n        /* \"#utility.yul\":21739:21758   */\n      swap1\n      pop\n        /* \"#utility.yul\":21398:21764   */\n      swap2\n      swap1\n      pop\n      jump\t// out\n        /* \"#utility.yul\":21770:22189   */\n    tag_83:\n        /* \"#utility.yul\":21936:21940   */\n      0x00\n        /* \"#utility.yul\":21974:21976   */\n      0x20\n        /* \"#utility.yul\":21963:21972   */\n      dup3\n        /* \"#utility.yul\":21959:21977   */\n      add\n        /* \"#utility.yul\":21951:21977   */\n      swap1\n      pop\n        /* \"#utility.yul\":22023:22032   */\n      dup2\n        /* \"#utility.yul\":22017:22021   */\n      dup2\n        /* \"#utility.yul\":22013:22033   */\n      sub\n        /* \"#utility.yul\":22009:22010   */\n      0x00\n        /* \"#utility.yul\":21998:22007   */\n      dup4\n        /* \"#utility.yul\":21994:22011   */\n      add\n        /* \"#utility.yul\":21987:22034   */\n      mstore\n        /* \"#utility.yul\":22051:22182   */\n      tag_474\n        /* \"#utility.yul\":22177:22181   */\n      dup2\n        /* \"#utility.yul\":22051:22182   */\n      tag_268\n      jump\t// in\n    tag_474:\n        /* \"#utility.yul\":22043:22182   */\n      swap1\n      pop\n        /* \"#utility.yul\":21770:22189   */\n      swap2\n      swap1\n      pop\n      jump\t// out\n        /* \"#utility.yul\":22195:22368   */\n    tag_269:\n        /* \"#utility.yul\":22335:22360   */\n      0x6e6f7420656c696769626c6520666f7220766f74696e67000000000000000000\n        /* \"#utility.yul\":22331:22332   */\n      0x00\n        /* \"#utility.yul\":22323:22329   */\n      dup3\n        /* \"#utility.yul\":22319:22333   */\n      add\n        /* \"#utility.yul\":22312:22361   */\n      mstore\n        /* \"#utility.yul\":22195:22368   */\n      pop\n      jump\t// out\n        /* \"#utility.yul\":22374:22740   */\n    tag_270:\n        /* \"#utility.yul\":22516:22519   */\n      0x00\n        /* \"#utility.yul\":22537:22604   */\n      tag_477\n        /* \"#utility.yul\":22601:22603   */\n      0x17\n        /* \"#utility.yul\":22596:22599   */\n      dup4\n        /* \"#utility.yul\":22537:22604   */\n      tag_255\n      jump\t// in\n    tag_477:\n        /* \"#utility.yul\":22530:22604   */\n      swap2\n      pop\n        /* \"#utility.yul\":22613:22706   */\n      tag_478\n        /* \"#utility.yul\":22702:22705   */\n      dup3\n        /* \"#utility.yul\":22613:22706   */\n      tag_269\n      jump\t// in\n    tag_478:\n        /* \"#utility.yul\":22731:22733   */\n      0x20\n        /* \"#utility.yul\":22726:22729   */\n      dup3\n        /* \"#utility.yul\":22722:22734   */\n      add\n        /* \"#utility.yul\":22715:22734   */\n      swap1\n      pop\n        /* \"#utility.yul\":22374:22740   */\n      swap2\n      swap1\n      pop\n      jump\t// out\n        /* \"#utility.yul\":22746:23165   */\n    tag_92:\n        /* \"#utility.yul\":22912:22916   */\n      0x00\n        /* \"#utility.yul\":22950:22952   */\n      0x20\n        /* \"#utility.yul\":22939:22948   */\n      dup3\n        /* \"#utility.yul\":22935:22953   */\n      add\n        /* \"#utility.yul\":22927:22953   */\n      swap1\n      pop\n        /* \"#utility.yul\":22999:23008   */\n      dup2\n        /* \"#utility.yul\":22993:22997   */\n      dup2\n        /* \"#utility.yul\":22989:23009   */\n      sub\n        /* \"#utility.yul\":22985:22986   */\n      0x00\n        /* \"#utility.yul\":22974:22983   */\n      dup4\n        /* \"#utility.yul\":22970:22987   */\n      add\n        /* \"#utility.yul\":22963:23010   */\n      mstore\n        /* \"#utility.yul\":23027:23158   */\n      tag_480\n        /* \"#utility.yul\":23153:23157   */\n      dup2\n        /* \"#utility.yul\":23027:23158   */\n      tag_270\n      jump\t// in\n    tag_480:\n        /* \"#utility.yul\":23019:23158   */\n      swap1\n      pop\n        /* \"#utility.yul\":22746:23165   */\n      swap2\n      swap1\n      pop\n      jump\t// out\n        /* \"#utility.yul\":23171:23347   */\n    tag_271:\n        /* \"#utility.yul\":23311:23339   */\n      0x596f752061726520616c72656164792072656769737465726564000000000000\n        /* \"#utility.yul\":23307:23308   */\n      0x00\n        /* \"#utility.yul\":23299:23305   */\n      dup3\n        /* \"#utility.yul\":23295:23309   */\n      add\n        /* \"#utility.yul\":23288:23340   */\n      mstore\n        /* \"#utility.yul\":23171:23347   */\n      pop\n      jump\t// out\n        /* \"#utility.yul\":23353:23719   */\n    tag_272:\n        /* \"#utility.yul\":23495:23498   */\n      0x00\n        /* \"#utility.yul\":23516:23583   */\n      tag_483\n        /* \"#utility.yul\":23580:23582   */\n      0x1a\n        /* \"#utility.yul\":23575:23578   */\n      dup4\n        /* \"#utility.yul\":23516:23583   */\n      tag_255\n      jump\t// in\n    tag_483:\n        /* \"#utility.yul\":23509:23583   */\n      swap2\n      pop\n        /* \"#utility.yul\":23592:23685   */\n      tag_484\n        /* \"#utility.yul\":23681:23684   */\n      dup3\n        /* \"#utility.yul\":23592:23685   */\n      tag_271\n      jump\t// in\n    tag_484:\n        /* \"#utility.yul\":23710:23712   */\n      0x20\n        /* \"#utility.yul\":23705:23708   */\n      dup3\n        /* \"#utility.yul\":23701:23713   */\n      add\n        /* \"#utility.yul\":23694:23713   */\n      swap1\n      pop\n        /* \"#utility.yul\":23353:23719   */\n      swap2\n      swap1\n      pop\n      jump\t// out\n        /* \"#utility.yul\":23725:24144   */\n    tag_98:\n        /* \"#utility.yul\":23891:23895   */\n      0x00\n        /* \"#utility.yul\":23929:23931   */\n      0x20\n        /* \"#utility.yul\":23918:23927   */\n      dup3\n        /* \"#utility.yul\":23914:23932   */\n      add\n        /* \"#utility.yul\":23906:23932   */\n      swap1\n      pop\n        /* \"#utility.yul\":23978:23987   */\n      dup2\n        /* \"#utility.yul\":23972:23976   */\n      dup2\n        /* \"#utility.yul\":23968:23988   */\n      sub\n        /* \"#utility.yul\":23964:23965   */\n      0x00\n        /* \"#utility.yul\":23953:23962   */\n      dup4\n        /* \"#utility.yul\":23949:23966   */\n      add\n        /* \"#utility.yul\":23942:23989   */\n      mstore\n        /* \"#utility.yul\":24006:24137   */\n      tag_486\n        /* \"#utility.yul\":24132:24136   */\n      dup2\n        /* \"#utility.yul\":24006:24137   */\n      tag_272\n      jump\t// in\n    tag_486:\n        /* \"#utility.yul\":23998:24137   */\n      swap1\n      pop\n        /* \"#utility.yul\":23725:24144   */\n      swap2\n      swap1\n      pop\n      jump\t// out\n        /* \"#utility.yul\":24150:24330   */\n    tag_147:\n        /* \"#utility.yul\":24198:24275   */\n      0x4e487b7100000000000000000000000000000000000000000000000000000000\n        /* \"#utility.yul\":24195:24196   */\n      0x00\n        /* \"#utility.yul\":24188:24276   */\n      mstore\n        /* \"#utility.yul\":24295:24299   */\n      0x41\n        /* \"#utility.yul\":24292:24293   */\n      0x04\n        /* \"#utility.yul\":24285:24300   */\n      mstore\n        /* \"#utility.yul\":24319:24323   */\n      0x24\n        /* \"#utility.yul\":24316:24317   */\n      0x00\n        /* \"#utility.yul\":24309:24324   */\n      revert\n        /* \"#utility.yul\":24336:24516   */\n    tag_273:\n        /* \"#utility.yul\":24384:24461   */\n      0x4e487b7100000000000000000000000000000000000000000000000000000000\n        /* \"#utility.yul\":24381:24382   */\n      0x00\n        /* \"#utility.yul\":24374:24462   */\n      mstore\n        /* \"#utility.yul\":24481:24485   */\n      0x22\n        /* \"#utility.yul\":24478:24479   */\n      0x04\n        /* \"#utility.yul\":24471:24486   */\n      mstore\n        /* \"#utility.yul\":24505:24509   */\n      0x24\n        /* \"#utility.yul\":24502:24503   */\n      0x00\n        /* \"#utility.yul\":24495:24510   */\n      revert\n        /* \"#utility.yul\":24522:24842   */\n    tag_157:\n        /* \"#utility.yul\":24566:24572   */\n      0x00\n        /* \"#utility.yul\":24603:24604   */\n      0x02\n        /* \"#utility.yul\":24597:24601   */\n      dup3\n        /* \"#utility.yul\":24593:24605   */\n      div\n        /* \"#utility.yul\":24583:24605   */\n      swap1\n      pop\n        /* \"#utility.yul\":24650:24651   */\n      0x01\n        /* \"#utility.yul\":24644:24648   */\n      dup3\n        /* \"#utility.yul\":24640:24652   */\n      and\n        /* \"#utility.yul\":24671:24689   */\n      dup1\n        /* \"#utility.yul\":24661:24742   */\n      tag_490\n      jumpi\n        /* \"#utility.yul\":24727:24731   */\n      0x7f\n        /* \"#utility.yul\":24719:24725   */\n      dup3\n        /* \"#utility.yul\":24715:24732   */\n      and\n        /* \"#utility.yul\":24705:24732   */\n      swap2\n      pop\n        /* \"#utility.yul\":24661:24742   */\n    tag_490:\n        /* \"#utility.yul\":24789:24791   */\n      0x20\n        /* \"#utility.yul\":24781:24787   */\n      dup3\n        /* \"#utility.yul\":24778:24792   */\n      lt\n        /* \"#utility.yul\":24758:24776   */\n      dup2\n        /* \"#utility.yul\":24755:24793   */\n      sub\n        /* \"#utility.yul\":24752:24836   */\n      tag_491\n      jumpi\n        /* \"#utility.yul\":24808:24826   */\n      tag_492\n      tag_273\n      jump\t// in\n    tag_492:\n        /* \"#utility.yul\":24752:24836   */\n    tag_491:\n        /* \"#utility.yul\":24573:24842   */\n      pop\n        /* \"#utility.yul\":24522:24842   */\n      swap2\n      swap1\n      pop\n      jump\t// out\n        /* \"#utility.yul\":24848:24989   */\n    tag_274:\n        /* \"#utility.yul\":24897:24901   */\n      0x00\n        /* \"#utility.yul\":24920:24923   */\n      dup2\n        /* \"#utility.yul\":24912:24923   */\n      swap1\n      pop\n        /* \"#utility.yul\":24943:24946   */\n      dup2\n        /* \"#utility.yul\":24940:24941   */\n      0x00\n        /* \"#utility.yul\":24933:24947   */\n      mstore\n        /* \"#utility.yul\":24977:24981   */\n      0x20\n        /* \"#utility.yul\":24974:24975   */\n      0x00\n        /* \"#utility.yul\":24964:24982   */\n      keccak256\n        /* \"#utility.yul\":24956:24982   */\n      swap1\n      pop\n        /* \"#utility.yul\":24848:24989   */\n      swap2\n      swap1\n      pop\n      jump\t// out\n        /* \"#utility.yul\":24995:25088   */\n    tag_275:\n        /* \"#utility.yul\":25032:25038   */\n      0x00\n        /* \"#utility.yul\":25079:25081   */\n      0x20\n        /* \"#utility.yul\":25074:25076   */\n      0x1f\n        /* \"#utility.yul\":25067:25072   */\n      dup4\n        /* \"#utility.yul\":25063:25077   */\n      add\n        /* \"#utility.yul\":25059:25082   */\n      div\n        /* \"#utility.yul\":25049:25082   */\n      swap1\n      pop\n        /* \"#utility.yul\":24995:25088   */\n      swap2\n      swap1\n      pop\n      jump\t// out\n        /* \"#utility.yul\":25094:25201   */\n    tag_276:\n        /* \"#utility.yul\":25138:25146   */\n      0x00\n        /* \"#utility.yul\":25188:25193   */\n      dup3\n        /* \"#utility.yul\":25182:25186   */\n      dup3\n        /* \"#utility.yul\":25178:25194   */\n      shl\n        /* \"#utility.yul\":25157:25194   */\n      swap1\n      pop\n        /* \"#utility.yul\":25094:25201   */\n      swap3\n      swap2\n      pop\n      pop\n      jump\t// out\n        /* \"#utility.yul\":25207:25600   */\n    tag_277:\n        /* \"#utility.yul\":25276:25282   */\n      0x00\n        /* \"#utility.yul\":25326:25327   */\n      0x08\n        /* \"#utility.yul\":25314:25324   */\n      dup4\n        /* \"#utility.yul\":25310:25328   */\n      mul\n        /* \"#utility.yul\":25349:25446   */\n      tag_497\n        /* \"#utility.yul\":25379:25445   */\n      0xffffffffffffffffffffffffffffffffffffffffffffffffffffffffffffffff\n        /* \"#utility.yul\":25368:25377   */\n      dup3\n        /* \"#utility.yul\":25349:25446   */\n      tag_276\n      jump\t// in\n    tag_497:\n        /* \"#utility.yul\":25467:25506   */\n      tag_498\n        /* \"#utility.yul\":25497:25505   */\n      dup7\n        /* \"#utility.yul\":25486:25495   */\n      dup4\n        /* \"#utility.yul\":25467:25506   */\n      tag_276\n      jump\t// in\n    tag_498:\n        /* \"#utility.yul\":25455:25506   */\n      swap6\n      pop\n        /* \"#utility.yul\":25539:25543   */\n      dup1\n        /* \"#utility.yul\":25535:25544   */\n      not\n        /* \"#utility.yul\":25528:25533   */\n      dup5\n        /* \"#utility.yul\":25524:25545   */\n      and\n        /* \"#utility.yul\":25515:25545   */\n      swap4\n      pop\n        /* \"#utility.yul\":25588:25592   */\n      dup1\n        /* \"#utility.yul\":25578:25586   */\n      dup7\n        /* \"#utility.yul\":25574:25593   */\n      and\n        /* \"#utility.yul\":25567:25572   */\n      dup5\n        /* \"#utility.yul\":25564:25594   */\n      or\n        /* \"#utility.yul\":25554:25594   */\n      swap3\n      pop\n        /* \"#utility.yul\":25283:25600   */\n      pop\n      pop\n        /* \"#utility.yul\":25207:25600   */\n      swap4\n      swap3\n      pop\n      pop\n      pop\n      jump\t// out\n        /* \"#utility.yul\":25606:25666   */\n    tag_278:\n        /* \"#utility.yul\":25634:25637   */\n      0x00\n        /* \"#utility.yul\":25655:25660   */\n      dup2\n        /* \"#utility.yul\":25648:25660   */\n      swap1\n      pop\n        /* \"#utility.yul\":25606:25666   */\n      swap2\n      swap1\n      pop\n      jump\t// out\n        /* \"#utility.yul\":25672:25814   */\n    tag_279:\n        /* \"#utility.yul\":25722:25731   */\n      0x00\n        /* \"#utility.yul\":25755:25808   */\n      tag_501\n        /* \"#utility.yul\":25773:25807   */\n      tag_502\n        /* \"#utility.yul\":25782:25806   */\n      tag_503\n        /* \"#utility.yul\":25800:25805   */\n      dup5\n        /* \"#utility.yul\":25782:25806   */\n      tag_214\n      jump\t// in\n    tag_503:\n        /* \"#utility.yul\":25773:25807   */\n      tag_278\n      jump\t// in\n    tag_502:\n        /* \"#utility.yul\":25755:25808   */\n      tag_214\n      jump\t// in\n    tag_501:\n        /* \"#utility.yul\":25742:25808   */\n      swap1\n      pop\n        /* \"#utility.yul\":25672:25814   */\n      swap2\n      swap1\n      pop\n      jump\t// out\n        /* \"#utility.yul\":25820:25895   */\n    tag_280:\n        /* \"#utility.yul\":25863:25866   */\n      0x00\n        /* \"#utility.yul\":25884:25889   */\n      dup2\n        /* \"#utility.yul\":25877:25889   */\n      swap1\n      pop\n        /* \"#utility.yul\":25820:25895   */\n      swap2\n      swap1\n      pop\n      jump\t// out\n        /* \"#utility.yul\":25901:26170   */\n    tag_281:\n        /* \"#utility.yul\":26011:26050   */\n      tag_506\n        /* \"#utility.yul\":26042:26049   */\n      dup4\n        /* \"#utility.yul\":26011:26050   */\n      tag_279\n      jump\t// in\n    tag_506:\n        /* \"#utility.yul\":26072:26163   */\n      tag_507\n        /* \"#utility.yul\":26121:26162   */\n      tag_508\n        /* \"#utility.yul\":26145:26161   */\n      dup3\n        /* \"#utility.yul\":26121:26162   */\n      tag_280\n      jump\t// in\n    tag_508:\n        /* \"#utility.yul\":26113:26119   */\n      dup5\n        /* \"#utility.yul\":26106:26110   */\n      dup5\n        /* \"#utility.yul\":26100:26111   */\n      sload\n        /* \"#utility.yul\":26072:26163   */\n      tag_277\n      jump\t// in\n    tag_507:\n        /* \"#utility.yul\":26066:26070   */\n      dup3\n        /* \"#utility.yul\":26059:26164   */\n      sstore\n        /* \"#utility.yul\":25977:26170   */\n      pop\n        /* \"#utility.yul\":25901:26170   */\n      pop\n      pop\n      pop\n      jump\t// out\n        /* \"#utility.yul\":26176:26249   */\n    tag_282:\n        /* \"#utility.yul\":26221:26224   */\n      0x00\n        /* \"#utility.yul\":26176:26249   */\n      swap1\n      jump\t// out\n        /* \"#utility.yul\":26255:26444   */\n    tag_283:\n        /* \"#utility.yul\":26332:26364   */\n      tag_511\n      tag_282\n      jump\t// in\n    tag_511:\n        /* \"#utility.yul\":26373:26438   */\n      tag_512\n        /* \"#utility.yul\":26431:26437   */\n      dup2\n        /* \"#utility.yul\":26423:26429   */\n      dup5\n        /* \"#utility.yul\":26417:26421   */\n      dup5\n        /* \"#utility.yul\":26373:26438   */\n      tag_281\n      jump\t// in\n    tag_512:\n        /* \"#utility.yul\":26308:26444   */\n      pop\n        /* \"#utility.yul\":26255:26444   */\n      pop\n      pop\n      jump\t// out\n        /* \"#utility.yul\":26450:26636   */\n    tag_284:\n        /* \"#utility.yul\":26510:26630   */\n    tag_514:\n        /* \"#utility.yul\":26527:26530   */\n      dup2\n        /* \"#utility.yul\":26520:26525   */\n      dup2\n        /* \"#utility.yul\":26517:26531   */\n      lt\n        /* \"#utility.yul\":26510:26630   */\n      iszero\n      tag_516\n      jumpi\n        /* \"#utility.yul\":26581:26620   */\n      tag_517\n        /* \"#utility.yul\":26618:26619   */\n      0x00\n        /* \"#utility.yul\":26611:26616   */\n      dup3\n        /* \"#utility.yul\":26581:26620   */\n      tag_283\n      jump\t// in\n    tag_517:\n        /* \"#utility.yul\":26554:26555   */\n      0x01\n        /* \"#utility.yul\":26547:26552   */\n      dup2\n        /* \"#utility.yul\":26543:26556   */\n      add\n        /* \"#utility.yul\":26534:26556   */\n      swap1\n      pop\n        /* \"#utility.yul\":26510:26630   */\n      jump(tag_514)\n    tag_516:\n        /* \"#utility.yul\":26450:26636   */\n      pop\n      pop\n      jump\t// out\n        /* \"#utility.yul\":26642:27185   */\n    tag_285:\n        /* \"#utility.yul\":26743:26745   */\n      0x1f\n        /* \"#utility.yul\":26738:26741   */\n      dup3\n        /* \"#utility.yul\":26735:26746   */\n      gt\n        /* \"#utility.yul\":26732:27178   */\n      iszero\n      tag_519\n      jumpi\n        /* \"#utility.yul\":26777:26815   */\n      tag_520\n        /* \"#utility.yul\":26809:26814   */\n      dup2\n        /* \"#utility.yul\":26777:26815   */\n      tag_274\n      jump\t// in\n    tag_520:\n        /* \"#utility.yul\":26861:26890   */\n      tag_521\n        /* \"#utility.yul\":26879:26889   */\n      dup5\n        /* \"#utility.yul\":26861:26890   */\n      tag_275\n      jump\t// in\n    tag_521:\n        /* \"#utility.yul\":26851:26859   */\n      dup2\n        /* \"#utility.yul\":26847:26891   */\n      add\n        /* \"#utility.yul\":27044:27046   */\n      0x20\n        /* \"#utility.yul\":27032:27042   */\n      dup6\n        /* \"#utility.yul\":27029:27047   */\n      lt\n        /* \"#utility.yul\":27026:27075   */\n      iszero\n      tag_522\n      jumpi\n        /* \"#utility.yul\":27065:27073   */\n      dup2\n        /* \"#utility.yul\":27050:27073   */\n      swap1\n      pop\n        /* \"#utility.yul\":27026:27075   */\n    tag_522:\n        /* \"#utility.yul\":27088:27168   */\n      tag_523\n        /* \"#utility.yul\":27144:27166   */\n      tag_524\n        /* \"#utility.yul\":27162:27165   */\n      dup6\n        /* \"#utility.yul\":27144:27166   */\n      tag_275\n      jump\t// in\n    tag_524:\n        /* \"#utility.yul\":27134:27142   */\n      dup4\n        /* \"#utility.yul\":27130:27167   */\n      add\n        /* \"#utility.yul\":27117:27128   */\n      dup3\n        /* \"#utility.yul\":27088:27168   */\n      tag_284\n      jump\t// in\n    tag_523:\n        /* \"#utility.yul\":26747:27178   */\n      pop\n      pop\n        /* \"#utility.yul\":26732:27178   */\n    tag_519:\n        /* \"#utility.yul\":26642:27185   */\n      pop\n      pop\n      pop\n      jump\t// out\n        /* \"#utility.yul\":27191:27308   */\n    tag_286:\n        /* \"#utility.yul\":27245:27253   */\n      0x00\n        /* \"#utility.yul\":27295:27300   */\n      dup3\n        /* \"#utility.yul\":27289:27293   */\n      dup3\n        /* \"#utility.yul\":27285:27301   */\n      shr\n        /* \"#utility.yul\":27264:27301   */\n      swap1\n      pop\n        /* \"#utility.yul\":27191:27308   */\n      swap3\n      swap2\n      pop\n      pop\n      jump\t// out\n        /* \"#utility.yul\":27314:27483   */\n    tag_287:\n        /* \"#utility.yul\":27358:27364   */\n      0x00\n        /* \"#utility.yul\":27391:27442   */\n      tag_527\n        /* \"#utility.yul\":27439:27440   */\n      0x00\n        /* \"#utility.yul\":27435:27441   */\n      not\n        /* \"#utility.yul\":27427:27432   */\n      dup5\n        /* \"#utility.yul\":27424:27425   */\n      0x08\n        /* \"#utility.yul\":27420:27433   */\n      mul\n        /* \"#utility.yul\":27391:27442   */\n      tag_286\n      jump\t// in\n    tag_527:\n        /* \"#utility.yul\":27387:27443   */\n      not\n        /* \"#utility.yul\":27472:27476   */\n      dup1\n        /* \"#utility.yul\":27466:27470   */\n      dup4\n        /* \"#utility.yul\":27462:27477   */\n      and\n        /* \"#utility.yul\":27452:27477   */\n      swap2\n      pop\n        /* \"#utility.yul\":27365:27483   */\n      pop\n        /* \"#utility.yul\":27314:27483   */\n      swap3\n      swap2\n      pop\n      pop\n      jump\t// out\n        /* \"#utility.yul\":27488:27783   */\n    tag_288:\n        /* \"#utility.yul\":27564:27568   */\n      0x00\n        /* \"#utility.yul\":27710:27739   */\n      tag_529\n        /* \"#utility.yul\":27735:27738   */\n      dup4\n        /* \"#utility.yul\":27729:27733   */\n      dup4\n        /* \"#utility.yul\":27710:27739   */\n      tag_287\n      jump\t// in\n    tag_529:\n        /* \"#utility.yul\":27702:27739   */\n      swap2\n      pop\n        /* \"#utility.yul\":27772:27775   */\n      dup3\n        /* \"#utility.yul\":27769:27770   */\n      0x02\n        /* \"#utility.yul\":27765:27776   */\n      mul\n        /* \"#utility.yul\":27759:27763   */\n      dup3\n        /* \"#utility.yul\":27756:27777   */\n      or\n        /* \"#utility.yul\":27748:27777   */\n      swap1\n      pop\n        /* \"#utility.yul\":27488:27783   */\n      swap3\n      swap2\n      pop\n      pop\n      jump\t// out\n        /* \"#utility.yul\":27788:29183   */\n    tag_103:\n        /* \"#utility.yul\":27905:27942   */\n      tag_531\n        /* \"#utility.yul\":27938:27941   */\n      dup3\n        /* \"#utility.yul\":27905:27942   */\n      tag_233\n      jump\t// in\n    tag_531:\n        /* \"#utility.yul\":28007:28025   */\n      0xffffffffffffffff\n        /* \"#utility.yul\":27999:28005   */\n      dup2\n        /* \"#utility.yul\":27996:28026   */\n      gt\n        /* \"#utility.yul\":27993:28049   */\n      iszero\n      tag_532\n      jumpi\n        /* \"#utility.yul\":28029:28047   */\n      tag_533\n      tag_147\n      jump\t// in\n    tag_533:\n        /* \"#utility.yul\":27993:28049   */\n    tag_532:\n        /* \"#utility.yul\":28073:28111   */\n      tag_534\n        /* \"#utility.yul\":28105:28109   */\n      dup3\n        /* \"#utility.yul\":28099:28110   */\n      sload\n        /* \"#utility.yul\":28073:28111   */\n      tag_157\n      jump\t// in\n    tag_534:\n        /* \"#utility.yul\":28158:28225   */\n      tag_535\n        /* \"#utility.yul\":28218:28224   */\n      dup3\n        /* \"#utility.yul\":28210:28216   */\n      dup3\n        /* \"#utility.yul\":28204:28208   */\n      dup6\n        /* \"#utility.yul\":28158:28225   */\n      tag_285\n      jump\t// in\n    tag_535:\n        /* \"#utility.yul\":28252:28253   */\n      0x00\n        /* \"#utility.yul\":28276:28280   */\n      0x20\n        /* \"#utility.yul\":28263:28280   */\n      swap1\n      pop\n        /* \"#utility.yul\":28308:28310   */\n      0x1f\n        /* \"#utility.yul\":28300:28306   */\n      dup4\n        /* \"#utility.yul\":28297:28311   */\n      gt\n        /* \"#utility.yul\":28325:28326   */\n      0x01\n        /* \"#utility.yul\":28320:28938   */\n      dup2\n      eq\n      tag_537\n      jumpi\n        /* \"#utility.yul\":28982:28983   */\n      0x00\n        /* \"#utility.yul\":28999:29005   */\n      dup5\n        /* \"#utility.yul\":28996:29073   */\n      iszero\n      tag_538\n      jumpi\n        /* \"#utility.yul\":29048:29057   */\n      dup3\n        /* \"#utility.yul\":29043:29046   */\n      dup8\n        /* \"#utility.yul\":29039:29058   */\n      add\n        /* \"#utility.yul\":29033:29059   */\n      mload\n        /* \"#utility.yul\":29024:29059   */\n      swap1\n      pop\n        /* \"#utility.yul\":28996:29073   */\n    tag_538:\n        /* \"#utility.yul\":29099:29166   */\n      tag_539\n        /* \"#utility.yul\":29159:29165   */\n      dup6\n        /* \"#utility.yul\":29152:29157   */\n      dup3\n        /* \"#utility.yul\":29099:29166   */\n      tag_288\n      jump\t// in\n    tag_539:\n        /* \"#utility.yul\":29093:29097   */\n      dup7\n        /* \"#utility.yul\":29086:29167   */\n      sstore\n        /* \"#utility.yul\":28955:29177   */\n      pop\n        /* \"#utility.yul\":28290:29177   */\n      jump(tag_536)\n        /* \"#utility.yul\":28320:28938   */\n    tag_537:\n        /* \"#utility.yul\":28372:28376   */\n      0x1f\n        /* \"#utility.yul\":28368:28377   */\n      not\n        /* \"#utility.yul\":28360:28366   */\n      dup5\n        /* \"#utility.yul\":28356:28378   */\n      and\n        /* \"#utility.yul\":28406:28443   */\n      tag_540\n        /* \"#utility.yul\":28438:28442   */\n      dup7\n        /* \"#utility.yul\":28406:28443   */\n      tag_274\n      jump\t// in\n    tag_540:\n        /* \"#utility.yul\":28465:28466   */\n      0x00\n        /* \"#utility.yul\":28479:28687   */\n    tag_541:\n        /* \"#utility.yul\":28493:28500   */\n      dup3\n        /* \"#utility.yul\":28490:28491   */\n      dup2\n        /* \"#utility.yul\":28487:28501   */\n      lt\n        /* \"#utility.yul\":28479:28687   */\n      iszero\n      tag_543\n      jumpi\n        /* \"#utility.yul\":28572:28581   */\n      dup5\n        /* \"#utility.yul\":28567:28570   */\n      dup10\n        /* \"#utility.yul\":28563:28582   */\n      add\n        /* \"#utility.yul\":28557:28583   */\n      mload\n        /* \"#utility.yul\":28549:28555   */\n      dup3\n        /* \"#utility.yul\":28542:28584   */\n      sstore\n        /* \"#utility.yul\":28623:28624   */\n      0x01\n        /* \"#utility.yul\":28615:28621   */\n      dup3\n        /* \"#utility.yul\":28611:28625   */\n      add\n        /* \"#utility.yul\":28601:28625   */\n      swap2\n      pop\n        /* \"#utility.yul\":28670:28672   */\n      0x20\n        /* \"#utility.yul\":28659:28668   */\n      dup6\n        /* \"#utility.yul\":28655:28673   */\n      add\n        /* \"#utility.yul\":28642:28673   */\n      swap5\n      pop\n        /* \"#utility.yul\":28516:28520   */\n      0x20\n        /* \"#utility.yul\":28513:28514   */\n      dup2\n        /* \"#utility.yul\":28509:28521   */\n      add\n        /* \"#utility.yul\":28504:28521   */\n      swap1\n      pop\n        /* \"#utility.yul\":28479:28687   */\n      jump(tag_541)\n    tag_543:\n        /* \"#utility.yul\":28715:28721   */\n      dup7\n        /* \"#utility.yul\":28706:28713   */\n      dup4\n        /* \"#utility.yul\":28703:28722   */\n      lt\n        /* \"#utility.yul\":28700:28879   */\n      iszero\n      tag_544\n      jumpi\n        /* \"#utility.yul\":28773:28782   */\n      dup5\n        /* \"#utility.yul\":28768:28771   */\n      dup10\n        /* \"#utility.yul\":28764:28783   */\n      add\n        /* \"#utility.yul\":28758:28784   */\n      mload\n        /* \"#utility.yul\":28816:28864   */\n      tag_545\n        /* \"#utility.yul\":28858:28862   */\n      0x1f\n        /* \"#utility.yul\":28850:28856   */\n      dup10\n        /* \"#utility.yul\":28846:28863   */\n      and\n        /* \"#utility.yul\":28835:28844   */\n      dup3\n        /* \"#utility.yul\":28816:28864   */\n      tag_287\n      jump\t// in\n    tag_545:\n        /* \"#utility.yul\":28808:28814   */\n      dup4\n        /* \"#utility.yul\":28801:28865   */\n      sstore\n        /* \"#utility.yul\":28723:28879   */\n      pop\n        /* \"#utility.yul\":28700:28879   */\n    tag_544:\n        /* \"#utility.yul\":28925:28926   */\n      0x01\n        /* \"#utility.yul\":28921:28922   */\n      0x02\n        /* \"#utility.yul\":28913:28919   */\n      dup9\n        /* \"#utility.yul\":28909:28923   */\n      mul\n        /* \"#utility.yul\":28905:28927   */\n      add\n        /* \"#utility.yul\":28899:28903   */\n      dup9\n        /* \"#utility.yul\":28892:28928   */\n      sstore\n        /* \"#utility.yul\":28327:28938   */\n      pop\n      pop\n      pop\n        /* \"#utility.yul\":28290:29177   */\n    tag_536:\n      pop\n        /* \"#utility.yul\":27880:29183   */\n      pop\n      pop\n      pop\n        /* \"#utility.yul\":27788:29183   */\n      pop\n      pop\n      jump\t// out\n        /* \"#utility.yul\":29189:29366   */\n    tag_289:\n        /* \"#utility.yul\":29329:29358   */\n      0x43616e64696461746520526567697374726174696f6e2046756c6c0000000000\n        /* \"#utility.yul\":29325:29326   */\n      0x00\n        /* \"#utility.yul\":29317:29323   */\n      dup3\n        /* \"#utility.yul\":29313:29327   */\n      add\n        /* \"#utility.yul\":29306:29359   */\n      mstore\n        /* \"#utility.yul\":29189:29366   */\n      pop\n      jump\t// out\n        /* \"#utility.yul\":29372:29738   */\n    tag_290:\n        /* \"#utility.yul\":29514:29517   */\n      0x00\n        /* \"#utility.yul\":29535:29602   */\n      tag_548\n        /* \"#utility.yul\":29599:29601   */\n      0x1b\n        /* \"#utility.yul\":29594:29597   */\n      dup4\n        /* \"#utility.yul\":29535:29602   */\n      tag_255\n      jump\t// in\n    tag_548:\n        /* \"#utility.yul\":29528:29602   */\n      swap2\n      pop\n        /* \"#utility.yul\":29611:29704   */\n      tag_549\n        /* \"#utility.yul\":29700:29703   */\n      dup3\n        /* \"#utility.yul\":29611:29704   */\n      tag_289\n      jump\t// in\n    tag_549:\n        /* \"#utility.yul\":29729:29731   */\n      0x20\n        /* \"#utility.yul\":29724:29727   */\n      dup3\n        /* \"#utility.yul\":29720:29732   */\n      add\n        /* \"#utility.yul\":29713:29732   */\n      swap1\n      pop\n        /* \"#utility.yul\":29372:29738   */\n      swap2\n      swap1\n      pop\n      jump\t// out\n        /* \"#utility.yul\":29744:30163   */\n    tag_117:\n        /* \"#utility.yul\":29910:29914   */\n      0x00\n        /* \"#utility.yul\":29948:29950   */\n      0x20\n        /* \"#utility.yul\":29937:29946   */\n      dup3\n        /* \"#utility.yul\":29933:29951   */\n      add\n        /* \"#utility.yul\":29925:29951   */\n      swap1\n      pop\n        /* \"#utility.yul\":29997:30006   */\n      dup2\n        /* \"#utility.yul\":29991:29995   */\n      dup2\n        /* \"#utility.yul\":29987:30007   */\n      sub\n        /* \"#utility.yul\":29983:29984   */\n      0x00\n        /* \"#utility.yul\":29972:29981   */\n      dup4\n        /* \"#utility.yul\":29968:29985   */\n      add\n        /* \"#utility.yul\":29961:30008   */\n      mstore\n        /* \"#utility.yul\":30025:30156   */\n      tag_551\n        /* \"#utility.yul\":30151:30155   */\n      dup2\n        /* \"#utility.yul\":30025:30156   */\n      tag_290\n      jump\t// in\n    tag_551:\n        /* \"#utility.yul\":30017:30156   */\n      swap1\n      pop\n        /* \"#utility.yul\":29744:30163   */\n      swap2\n      swap1\n      pop\n      jump\t// out\n        /* \"#utility.yul\":30169:30398   */\n    tag_291:\n        /* \"#utility.yul\":30309:30343   */\n      0x456c656374696f6e20436f6d6d6973696f6e206e6f7420616c6c6f7765642074\n        /* \"#utility.yul\":30305:30306   */\n      0x00\n        /* \"#utility.yul\":30297:30303   */\n      dup3\n        /* \"#utility.yul\":30293:30307   */\n      add\n        /* \"#utility.yul\":30286:30344   */\n      mstore\n        /* \"#utility.yul\":30378:30390   */\n      0x6f20726567697374657200000000000000000000000000000000000000000000\n        /* \"#utility.yul\":30373:30375   */\n      0x20\n        /* \"#utility.yul\":30365:30371   */\n      dup3\n        /* \"#utility.yul\":30361:30376   */\n      add\n        /* \"#utility.yul\":30354:30391   */\n      mstore\n        /* \"#utility.yul\":30169:30398   */\n      pop\n      jump\t// out\n        /* \"#utility.yul\":30404:30770   */\n    tag_292:\n        /* \"#utility.yul\":30546:30549   */\n      0x00\n        /* \"#utility.yul\":30567:30634   */\n      tag_554\n        /* \"#utility.yul\":30631:30633   */\n      0x2a\n        /* \"#utility.yul\":30626:30629   */\n      dup4\n        /* \"#utility.yul\":30567:30634   */\n      tag_255\n      jump\t// in\n    tag_554:\n        /* \"#utility.yul\":30560:30634   */\n      swap2\n      pop\n        /* \"#utility.yul\":30643:30736   */\n      tag_555\n        /* \"#utility.yul\":30732:30735   */\n      dup3\n        /* \"#utility.yul\":30643:30736   */\n      tag_291\n      jump\t// in\n    tag_555:\n        /* \"#utility.yul\":30761:30763   */\n      0x40\n        /* \"#utility.yul\":30756:30759   */\n      dup3\n        /* \"#utility.yul\":30752:30764   */\n      add\n        /* \"#utility.yul\":30745:30764   */\n      swap1\n      pop\n        /* \"#utility.yul\":30404:30770   */\n      swap2\n      swap1\n      pop\n      jump\t// out\n        /* \"#utility.yul\":30776:31195   */\n    tag_120:\n        /* \"#utility.yul\":30942:30946   */\n      0x00\n        /* \"#utility.yul\":30980:30982   */\n      0x20\n        /* \"#utility.yul\":30969:30978   */\n      dup3\n        /* \"#utility.yul\":30965:30983   */\n      add\n        /* \"#utility.yul\":30957:30983   */\n      swap1\n      pop\n        /* \"#utility.yul\":31029:31038   */\n      dup2\n        /* \"#utility.yul\":31023:31027   */\n      dup2\n        /* \"#utility.yul\":31019:31039   */\n      sub\n        /* \"#utility.yul\":31015:31016   */\n      0x00\n        /* \"#utility.yul\":31004:31013   */\n      dup4\n        /* \"#utility.yul\":31000:31017   */\n      add\n        /* \"#utility.yul\":30993:31040   */\n      mstore\n        /* \"#utility.yul\":31057:31188   */\n      tag_557\n        /* \"#utility.yul\":31183:31187   */\n      dup2\n        /* \"#utility.yul\":31057:31188   */\n      tag_292\n      jump\t// in\n    tag_557:\n        /* \"#utility.yul\":31049:31188   */\n      swap1\n      pop\n        /* \"#utility.yul\":30776:31195   */\n      swap2\n      swap1\n      pop\n      jump\t// out\n        /* \"#utility.yul\":31201:31432   */\n    tag_293:\n        /* \"#utility.yul\":31341:31375   */\n      0x5f656e6454696d654475726174696f6e206d7573742062652067726561746572\n        /* \"#utility.yul\":31337:31338   */\n      0x00\n        /* \"#utility.yul\":31329:31335   */\n      dup3\n        /* \"#utility.yul\":31325:31339   */\n      add\n        /* \"#utility.yul\":31318:31376   */\n      mstore\n        /* \"#utility.yul\":31410:31424   */\n      0x207468616e203120686f75720000000000000000000000000000000000000000\n        /* \"#utility.yul\":31405:31407   */\n      0x20\n        /* \"#utility.yul\":31397:31403   */\n      dup3\n        /* \"#utility.yul\":31393:31408   */\n      add\n        /* \"#utility.yul\":31386:31425   */\n      mstore\n        /* \"#utility.yul\":31201:31432   */\n      pop\n      jump\t// out\n        /* \"#utility.yul\":31438:31804   */\n    tag_294:\n        /* \"#utility.yul\":31580:31583   */\n      0x00\n        /* \"#utility.yul\":31601:31668   */\n      tag_560\n        /* \"#utility.yul\":31665:31667   */\n      0x2c\n        /* \"#utility.yul\":31660:31663   */\n      dup4\n        /* \"#utility.yul\":31601:31668   */\n      tag_255\n      jump\t// in\n    tag_560:\n        /* \"#utility.yul\":31594:31668   */\n      swap2\n      pop\n        /* \"#utility.yul\":31677:31770   */\n      tag_561\n        /* \"#utility.yul\":31766:31769   */\n      dup3\n        /* \"#utility.yul\":31677:31770   */\n      tag_293\n      jump\t// in\n    tag_561:\n        /* \"#utility.yul\":31795:31797   */\n      0x40\n        /* \"#utility.yul\":31790:31793   */\n      dup3\n        /* \"#utility.yul\":31786:31798   */\n      add\n        /* \"#utility.yul\":31779:31798   */\n      swap1\n      pop\n        /* \"#utility.yul\":31438:31804   */\n      swap2\n      swap1\n      pop\n      jump\t// out\n        /* \"#utility.yul\":31810:32229   */\n    tag_138:\n        /* \"#utility.yul\":31976:31980   */\n      0x00\n        /* \"#utility.yul\":32014:32016   */\n      0x20\n        /* \"#utility.yul\":32003:32012   */\n      dup3\n        /* \"#utility.yul\":31999:32017   */\n      add\n        /* \"#utility.yul\":31991:32017   */\n      swap1\n      pop\n        /* \"#utility.yul\":32063:32072   */\n      dup2\n        /* \"#utility.yul\":32057:32061   */\n      dup2\n        /* \"#utility.yul\":32053:32073   */\n      sub\n        /* \"#utility.yul\":32049:32050   */\n      0x00\n        /* \"#utility.yul\":32038:32047   */\n      dup4\n        /* \"#utility.yul\":32034:32051   */\n      add\n        /* \"#utility.yul\":32027:32074   */\n      mstore\n        /* \"#utility.yul\":32091:32222   */\n      tag_563\n        /* \"#utility.yul\":32217:32221   */\n      dup2\n        /* \"#utility.yul\":32091:32222   */\n      tag_294\n      jump\t// in\n    tag_563:\n        /* \"#utility.yul\":32083:32222   */\n      swap1\n      pop\n        /* \"#utility.yul\":31810:32229   */\n      swap2\n      swap1\n      pop\n      jump\t// out\n        /* \"#utility.yul\":32235:32426   */\n    tag_140:\n        /* \"#utility.yul\":32275:32278   */\n      0x00\n        /* \"#utility.yul\":32294:32314   */\n      tag_565\n        /* \"#utility.yul\":32312:32313   */\n      dup3\n        /* \"#utility.yul\":32294:32314   */\n      tag_214\n      jump\t// in\n    tag_565:\n        /* \"#utility.yul\":32289:32314   */\n      swap2\n      pop\n        /* \"#utility.yul\":32328:32348   */\n      tag_566\n        /* \"#utility.yul\":32346:32347   */\n      dup4\n        /* \"#utility.yul\":32328:32348   */\n      tag_214\n      jump\t// in\n    tag_566:\n        /* \"#utility.yul\":32323:32348   */\n      swap3\n      pop\n        /* \"#utility.yul\":32371:32372   */\n      dup3\n        /* \"#utility.yul\":32368:32369   */\n      dup3\n        /* \"#utility.yul\":32364:32373   */\n      add\n        /* \"#utility.yul\":32357:32373   */\n      swap1\n      pop\n        /* \"#utility.yul\":32392:32395   */\n      dup1\n        /* \"#utility.yul\":32389:32390   */\n      dup3\n        /* \"#utility.yul\":32386:32396   */\n      gt\n        /* \"#utility.yul\":32383:32419   */\n      iszero\n      tag_567\n      jumpi\n        /* \"#utility.yul\":32399:32417   */\n      tag_568\n      tag_266\n      jump\t// in\n    tag_568:\n        /* \"#utility.yul\":32383:32419   */\n    tag_567:\n        /* \"#utility.yul\":32235:32426   */\n      swap3\n      swap2\n      pop\n      pop\n      jump\t// out\n        /* \"#utility.yul\":32432:32626   */\n    tag_144:\n        /* \"#utility.yul\":32472:32476   */\n      0x00\n        /* \"#utility.yul\":32492:32512   */\n      tag_570\n        /* \"#utility.yul\":32510:32511   */\n      dup3\n        /* \"#utility.yul\":32492:32512   */\n      tag_214\n      jump\t// in\n    tag_570:\n        /* \"#utility.yul\":32487:32512   */\n      swap2\n      pop\n        /* \"#utility.yul\":32526:32546   */\n      tag_571\n        /* \"#utility.yul\":32544:32545   */\n      dup4\n        /* \"#utility.yul\":32526:32546   */\n      tag_214\n      jump\t// in\n    tag_571:\n        /* \"#utility.yul\":32521:32546   */\n      swap3\n      pop\n        /* \"#utility.yul\":32570:32571   */\n      dup3\n        /* \"#utility.yul\":32567:32568   */\n      dup3\n        /* \"#utility.yul\":32563:32572   */\n      sub\n        /* \"#utility.yul\":32555:32572   */\n      swap1\n      pop\n        /* \"#utility.yul\":32594:32595   */\n      dup2\n        /* \"#utility.yul\":32588:32592   */\n      dup2\n        /* \"#utility.yul\":32585:32596   */\n      gt\n        /* \"#utility.yul\":32582:32619   */\n      iszero\n      tag_572\n      jumpi\n        /* \"#utility.yul\":32599:32617   */\n      tag_573\n      tag_266\n      jump\t// in\n    tag_573:\n        /* \"#utility.yul\":32582:32619   */\n    tag_572:\n        /* \"#utility.yul\":32432:32626   */\n      swap3\n      swap2\n      pop\n      pop\n      jump\t// out\n        /* \"#utility.yul\":32632:32812   */\n    tag_168:\n        /* \"#utility.yul\":32680:32757   */\n      0x4e487b7100000000000000000000000000000000000000000000000000000000\n        /* \"#utility.yul\":32677:32678   */\n      0x00\n        /* \"#utility.yul\":32670:32758   */\n      mstore\n        /* \"#utility.yul\":32777:32781   */\n      0x32\n        /* \"#utility.yul\":32774:32775   */\n      0x04\n        /* \"#utility.yul\":32767:32782   */\n      mstore\n        /* \"#utility.yul\":32801:32805   */\n      0x24\n        /* \"#utility.yul\":32798:32799   */\n      0x00\n        /* \"#utility.yul\":32791:32806   */\n      revert\n\n    auxdata: 0xa26469706673582212200830622344c5dc0b6e06bbb65ffb8f236940b0b453611872d024dfeb12679d3a64736f6c634300081a0033\n}\n",
				"bytecode": {
					"linkReferences": {},
					"object": "6080604052600160025560016003553480156018575f80fd5b50335f806101000a81548173ffffffffffffffffffffffffffffffffffffffff021916908373ffffffffffffffffffffffffffffffffffffffff1602179055506122f8806100655f395ff3fe608060405234801561000f575f80fd5b50600436106100a7575f3560e01c80639fa4e4401161006f5780639fa4e44014610127578063a15a36c714610131578063aab46b7f1461014d578063b28d92ae1461016b578063dfbf53ae14610189578063fdbc4006146101a7576100a7565b80632c0a3f89146100ab578063581c281c146100c75780636ce2ccc0146100e557806381ba732f146100ef578063982c777d1461010b575b5f80fd5b6100c560048036038101906100c09190611387565b6101c5565b005b6100cf6103f9565b6040516100dc9190611438565b60405180910390f35b6100ed610443565b005b610109600480360381019061010491906114d5565b610599565b005b61012560048036038101906101209190611546565b61079b565b005b61012f610acf565b005b61014b60048036038101906101469190611387565b610b78565b005b610155610c74565b6040516101629190611628565b60405180910390f35b610173610c97565b6040516101809190611856565b60405180910390f35b610191610ea5565b60405161019e9190611628565b60405180910390f35b6101af610eca565b6040516101bc91906119d1565b60405180910390f35b60055442111580156101e857505f151560065f9054906101000a900460ff161515145b610227576040517f08c379a000000000000000000000000000000000000000000000000000000000815260040161021e90611a4b565b60405180910390fd5b60045442101561026c576040517f08c379a000000000000000000000000000000000000000000000000000000000815260040161026390611ab3565b60405180910390fd5b5f60075f8481526020019081526020015f2060040154146102c2576040517f08c379a00000000000000000000000000000000000000000000000000000000081526004016102b990611b1b565b60405180910390fd5b3373ffffffffffffffffffffffffffffffffffffffff1660075f8481526020019081526020015f206005015f9054906101000a900473ffffffffffffffffffffffffffffffffffffffff1673ffffffffffffffffffffffffffffffffffffffff1614610363576040517f08c379a000000000000000000000000000000000000000000000000000000000815260040161035a90611b83565b60405180910390fd5b600181101580156103745750600381105b6103b3576040517f08c379a00000000000000000000000000000000000000000000000000000000081526004016103aa90611beb565b60405180910390fd5b8060075f8481526020019081526020015f206004018190555060085f8281526020019081526020015f206006015f8154809291906103f090611c36565b91905055505050565b5f806004540361040b575f9050610440565b4260055411801561042d57505f151560065f9054906101000a900460ff161515145b1561043b5760019050610440565b600290505b90565b5f8054906101000a900473ffffffffffffffffffffffffffffffffffffffff1673ffffffffffffffffffffffffffffffffffffffff163373ffffffffffffffffffffffffffffffffffffffff16146104d0576040517f08c379a00000000000000000000000000000000000000000000000000000000081526004016104c790611cc7565b60405180910390fd5b5f80600190505b600354811015610595578160085f8381526020019081526020015f206006015411156105885760085f8281526020019081526020015f2060060154915060085f8281526020019081526020015f206005015f9054906101000a900473ffffffffffffffffffffffffffffffffffffffff1660015f6101000a81548173ffffffffffffffffffffffffffffffffffffffff021916908373ffffffffffffffffffffffffffffffffffffffff1602179055505b80806001019150506104d7565b5050565b8160128110156105de576040517f08c379a00000000000000000000000000000000000000000000000000000000081526004016105d590611d2f565b60405180910390fd5b6105e733611163565b610626576040517f08c379a000000000000000000000000000000000000000000000000000000000815260040161061d90611d97565b60405180910390fd5b6040518060c0016040528086868080601f0160208091040260200160405190810160405280939291908181526020018383808284375f81840152601f19601f820116905080830192505050505050508152602001848152602001600254815260200183600381111561069b5761069a6113c5565b5b81526020015f81526020013373ffffffffffffffffffffffffffffffffffffffff1681525060075f60025481526020019081526020015f205f820151815f0190816106e69190611fdc565b5060208201518160010155604082015181600201556060820151816003015f6101000a81548160ff02191690836003811115610725576107246113c5565b5b02179055506080820151816004015560a0820151816005015f6101000a81548173ffffffffffffffffffffffffffffffffffffffff021916908373ffffffffffffffffffffffffffffffffffffffff16021790555090505060025f81548092919061078f90611c36565b91905055505050505050565b8160128110156107e0576040517f08c379a00000000000000000000000000000000000000000000000000000000081526004016107d790611d2f565b60405180910390fd5b6107e9336111fb565b610828576040517f08c379a000000000000000000000000000000000000000000000000000000000815260040161081f90611d97565b60405180910390fd5b600380541061086c576040517f08c379a0000000000000000000000000000000000000000000000000000000008152600401610863906120f5565b60405180910390fd5b5f8054906101000a900473ffffffffffffffffffffffffffffffffffffffff1673ffffffffffffffffffffffffffffffffffffffff163373ffffffffffffffffffffffffffffffffffffffff16036108f9576040517f08c379a00000000000000000000000000000000000000000000000000000000081526004016108f090612183565b60405180910390fd5b6040518060e0016040528088888080601f0160208091040260200160405190810160405280939291908181526020018383808284375f81840152601f19601f82011690508083019250505050505050815260200186868080601f0160208091040260200160405190810160405280939291908181526020018383808284375f81840152601f19601f8201169050808301925050505050505081526020018481526020018360038111156109af576109ae6113c5565b5b815260200160035481526020013373ffffffffffffffffffffffffffffffffffffffff1681526020015f81525060085f60035481526020019081526020015f205f820151815f019081610a029190611fdc565b506020820151816001019081610a189190611fdc565b50604082015181600201556060820151816003015f6101000a81548160ff02191690836003811115610a4d57610a4c6113c5565b5b02179055506080820151816004015560a0820151816005015f6101000a81548173ffffffffffffffffffffffffffffffffffffffff021916908373ffffffffffffffffffffffffffffffffffffffff16021790555060c0820151816006015590505060035f815480929190610ac190611c36565b919050555050505050505050565b5f8054906101000a900473ffffffffffffffffffffffffffffffffffffffff1673ffffffffffffffffffffffffffffffffffffffff163373ffffffffffffffffffffffffffffffffffffffff1614610b5c576040517f08c379a0000000000000000000000000000000000000000000000000000000008152600401610b5390611cc7565b60405180910390fd5b600160065f6101000a81548160ff021916908315150217905550565b5f8054906101000a900473ffffffffffffffffffffffffffffffffffffffff1673ffffffffffffffffffffffffffffffffffffffff163373ffffffffffffffffffffffffffffffffffffffff1614610c05576040517f08c379a0000000000000000000000000000000000000000000000000000000008152600401610bfc90611cc7565b60405180910390fd5b610e10811015610c4a576040517f08c379a0000000000000000000000000000000000000000000000000000000008152600401610c4190612211565b60405180910390fd5b8142610c56919061222f565b60048190555080600454610c6a919061222f565b6005819055505050565b5f8054906101000a900473ffffffffffffffffffffffffffffffffffffffff1681565b60605f6001600254610ca99190612262565b90505f8167ffffffffffffffff811115610cc657610cc5611db5565b5b604051908082528060200260200182016040528015610cff57816020015b610cec611293565b815260200190600190039081610ce45790505b5090505f5b8151811015610e9c5760075f600183610d1d919061222f565b81526020019081526020015f206040518060c00160405290815f82018054610d4490611e0f565b80601f0160208091040260200160405190810160405280929190818152602001828054610d7090611e0f565b8015610dbb5780601f10610d9257610100808354040283529160200191610dbb565b820191905f5260205f20905b815481529060010190602001808311610d9e57829003601f168201915b505050505081526020016001820154815260200160028201548152602001600382015f9054906101000a900460ff166003811115610dfc57610dfb6113c5565b5b6003811115610e0e57610e0d6113c5565b5b815260200160048201548152602001600582015f9054906101000a900473ffffffffffffffffffffffffffffffffffffffff1673ffffffffffffffffffffffffffffffffffffffff1673ffffffffffffffffffffffffffffffffffffffff1681525050828281518110610e8457610e83612295565b5b60200260200101819052508080600101915050610d04565b50809250505090565b60015f9054906101000a900473ffffffffffffffffffffffffffffffffffffffff1681565b60605f6001600354610edc9190612262565b67ffffffffffffffff811115610ef557610ef4611db5565b5b604051908082528060200260200182016040528015610f2e57816020015b610f1b6112ec565b815260200190600190039081610f135790505b5090505f5b815181101561115b5760085f600183610f4c919061222f565b81526020019081526020015f206040518060e00160405290815f82018054610f7390611e0f565b80601f0160208091040260200160405190810160405280929190818152602001828054610f9f90611e0f565b8015610fea5780601f10610fc157610100808354040283529160200191610fea565b820191905f5260205f20905b815481529060010190602001808311610fcd57829003601f168201915b5050505050815260200160018201805461100390611e0f565b80601f016020809104026020016040519081016040528092919081815260200182805461102f90611e0f565b801561107a5780601f106110515761010080835404028352916020019161107a565b820191905f5260205f20905b81548152906001019060200180831161105d57829003601f168201915b5050505050815260200160028201548152602001600382015f9054906101000a900460ff1660038111156110b1576110b06113c5565b5b60038111156110c3576110c26113c5565b5b815260200160048201548152602001600582015f9054906101000a900473ffffffffffffffffffffffffffffffffffffffff1673ffffffffffffffffffffffffffffffffffffffff1673ffffffffffffffffffffffffffffffffffffffff16815260200160068201548152505082828151811061114357611142612295565b5b60200260200101819052508080600101915050610f33565b508091505090565b5f80600190505b6002548110156111f0578273ffffffffffffffffffffffffffffffffffffffff1660075f8381526020019081526020015f206005015f9054906101000a900473ffffffffffffffffffffffffffffffffffffffff1673ffffffffffffffffffffffffffffffffffffffff16036111e3575f9150506111f6565b808060010191505061116a565b50600190505b919050565b5f80600190505b600354811015611288578273ffffffffffffffffffffffffffffffffffffffff1660085f8381526020019081526020015f206005015f9054906101000a900473ffffffffffffffffffffffffffffffffffffffff1673ffffffffffffffffffffffffffffffffffffffff160361127b575f91505061128e565b8080600101915050611202565b50600190505b919050565b6040518060c00160405280606081526020015f81526020015f81526020015f60038111156112c4576112c36113c5565b5b81526020015f81526020015f73ffffffffffffffffffffffffffffffffffffffff1681525090565b6040518060e0016040528060608152602001606081526020015f81526020015f600381111561131e5761131d6113c5565b5b81526020015f81526020015f73ffffffffffffffffffffffffffffffffffffffff1681526020015f81525090565b5f80fd5b5f80fd5b5f819050919050565b61136681611354565b8114611370575f80fd5b50565b5f813590506113818161135d565b92915050565b5f806040838503121561139d5761139c61134c565b5b5f6113aa85828601611373565b92505060206113bb85828601611373565b9150509250929050565b7f4e487b71000000000000000000000000000000000000000000000000000000005f52602160045260245ffd5b60038110611403576114026113c5565b5b50565b5f819050611413826113f2565b919050565b5f61142282611406565b9050919050565b61143281611418565b82525050565b5f60208201905061144b5f830184611429565b92915050565b5f80fd5b5f80fd5b5f80fd5b5f8083601f84011261147257611471611451565b5b8235905067ffffffffffffffff81111561148f5761148e611455565b5b6020830191508360018202830111156114ab576114aa611459565b5b9250929050565b600481106114be575f80fd5b50565b5f813590506114cf816114b2565b92915050565b5f805f80606085870312156114ed576114ec61134c565b5b5f85013567ffffffffffffffff81111561150a57611509611350565b5b6115168782880161145d565b9450945050602061152987828801611373565b925050604061153a878288016114c1565b91505092959194509250565b5f805f805f80608087890312156115605761155f61134c565b5b5f87013567ffffffffffffffff81111561157d5761157c611350565b5b61158989828a0161145d565b9650965050602087013567ffffffffffffffff8111156115ac576115ab611350565b5b6115b889828a0161145d565b945094505060406115cb89828a01611373565b92505060606115dc89828a016114c1565b9150509295509295509295565b5f73ffffffffffffffffffffffffffffffffffffffff82169050919050565b5f611612826115e9565b9050919050565b61162281611608565b82525050565b5f60208201905061163b5f830184611619565b92915050565b5f81519050919050565b5f82825260208201905092915050565b5f819050602082019050919050565b5f81519050919050565b5f82825260208201905092915050565b8281835e5f83830152505050565b5f601f19601f8301169050919050565b5f6116ac8261166a565b6116b68185611674565b93506116c6818560208601611684565b6116cf81611692565b840191505092915050565b6116e381611354565b82525050565b600481106116fa576116f96113c5565b5b50565b5f81905061170a826116e9565b919050565b5f611719826116fd565b9050919050565b6117298161170f565b82525050565b61173881611608565b82525050565b5f60c083015f8301518482035f86015261175882826116a2565b915050602083015161176d60208601826116da565b50604083015161178060408601826116da565b5060608301516117936060860182611720565b5060808301516117a660808601826116da565b5060a08301516117b960a086018261172f565b508091505092915050565b5f6117cf838361173e565b905092915050565b5f602082019050919050565b5f6117ed82611641565b6117f7818561164b565b9350836020820285016118098561165b565b805f5b85811015611844578484038952815161182585826117c4565b9450611830836117d7565b925060208a0199505060018101905061180c565b50829750879550505050505092915050565b5f6020820190508181035f83015261186e81846117e3565b905092915050565b5f81519050919050565b5f82825260208201905092915050565b5f819050602082019050919050565b5f60e083015f8301518482035f8601526118b982826116a2565b915050602083015184820360208601526118d382826116a2565b91505060408301516118e860408601826116da565b5060608301516118fb6060860182611720565b50608083015161190e60808601826116da565b5060a083015161192160a086018261172f565b5060c083015161193460c08601826116da565b508091505092915050565b5f61194a838361189f565b905092915050565b5f602082019050919050565b5f61196882611876565b6119728185611880565b93508360208202850161198485611890565b805f5b858110156119bf57848403895281516119a0858261193f565b94506119ab83611952565b925060208a01995050600181019050611987565b50829750879550505050505092915050565b5f6020820190508181035f8301526119e9818461195e565b905092915050565b5f82825260208201905092915050565b7f566f74696e672074696d65206973206f766572000000000000000000000000005f82015250565b5f611a356013836119f1565b9150611a4082611a01565b602082019050919050565b5f6020820190508181035f830152611a6281611a29565b9050919050565b7f566f74696e6720686173206e6f742073746172746564207965740000000000005f82015250565b5f611a9d601a836119f1565b9150611aa882611a69565b602082019050919050565b5f6020820190508181035f830152611aca81611a91565b9050919050565b7f596f75206861766520616c726561647920766f746564000000000000000000005f82015250565b5f611b056016836119f1565b9150611b1082611ad1565b602082019050919050565b5f6020820190508181035f830152611b3281611af9565b9050919050565b7f596f7520617265206e6f7420617574686f7572697a65640000000000000000005f82015250565b5f611b6d6017836119f1565b9150611b7882611b39565b602082019050919050565b5f6020820190508181035f830152611b9a81611b61565b9050919050565b7f43616e646964617465204964206973206e6f7420636f727265637400000000005f82015250565b5f611bd5601b836119f1565b9150611be082611ba1565b602082019050919050565b5f6020820190508181035f830152611c0281611bc9565b9050919050565b7f4e487b71000000000000000000000000000000000000000000000000000000005f52601160045260245ffd5b5f611c4082611354565b91507fffffffffffffffffffffffffffffffffffffffffffffffffffffffffffffffff8203611c7257611c71611c09565b5b600182019050919050565b7f4e6f742061757468756f72697a656400000000000000000000000000000000005f82015250565b5f611cb1600f836119f1565b9150611cbc82611c7d565b602082019050919050565b5f6020820190508181035f830152611cde81611ca5565b9050919050565b7f6e6f7420656c696769626c6520666f7220766f74696e670000000000000000005f82015250565b5f611d196017836119f1565b9150611d2482611ce5565b602082019050919050565b5f6020820190508181035f830152611d4681611d0d565b9050919050565b7f596f752061726520616c726561647920726567697374657265640000000000005f82015250565b5f611d81601a836119f1565b9150611d8c82611d4d565b602082019050919050565b5f6020820190508181035f830152611dae81611d75565b9050919050565b7f4e487b71000000000000000000000000000000000000000000000000000000005f52604160045260245ffd5b7f4e487b71000000000000000000000000000000000000000000000000000000005f52602260045260245ffd5b5f6002820490506001821680611e2657607f821691505b602082108103611e3957611e38611de2565b5b50919050565b5f819050815f5260205f209050919050565b5f6020601f8301049050919050565b5f82821b905092915050565b5f60088302611e9b7fffffffffffffffffffffffffffffffffffffffffffffffffffffffffffffffff82611e60565b611ea58683611e60565b95508019841693508086168417925050509392505050565b5f819050919050565b5f611ee0611edb611ed684611354565b611ebd565b611354565b9050919050565b5f819050919050565b611ef983611ec6565b611f0d611f0582611ee7565b848454611e6c565b825550505050565b5f90565b611f21611f15565b611f2c818484611ef0565b505050565b5b81811015611f4f57611f445f82611f19565b600181019050611f32565b5050565b601f821115611f9457611f6581611e3f565b611f6e84611e51565b81016020851015611f7d578190505b611f91611f8985611e51565b830182611f31565b50505b505050565b5f82821c905092915050565b5f611fb45f1984600802611f99565b1980831691505092915050565b5f611fcc8383611fa5565b9150826002028217905092915050565b611fe58261166a565b67ffffffffffffffff811115611ffe57611ffd611db5565b5b6120088254611e0f565b612013828285611f53565b5f60209050601f831160018114612044575f8415612032578287015190505b61203c8582611fc1565b8655506120a3565b601f19841661205286611e3f565b5f5b8281101561207957848901518255600182019150602085019450602081019050612054565b868310156120965784890151612092601f891682611fa5565b8355505b6001600288020188555050505b505050505050565b7f43616e64696461746520526567697374726174696f6e2046756c6c00000000005f82015250565b5f6120df601b836119f1565b91506120ea826120ab565b602082019050919050565b5f6020820190508181035f83015261210c816120d3565b9050919050565b7f456c656374696f6e20436f6d6d6973696f6e206e6f7420616c6c6f77656420745f8201527f6f20726567697374657200000000000000000000000000000000000000000000602082015250565b5f61216d602a836119f1565b915061217882612113565b604082019050919050565b5f6020820190508181035f83015261219a81612161565b9050919050565b7f5f656e6454696d654475726174696f6e206d75737420626520677265617465725f8201527f207468616e203120686f75720000000000000000000000000000000000000000602082015250565b5f6121fb602c836119f1565b9150612206826121a1565b604082019050919050565b5f6020820190508181035f830152612228816121ef565b9050919050565b5f61223982611354565b915061224483611354565b925082820190508082111561225c5761225b611c09565b5b92915050565b5f61226c82611354565b915061227783611354565b925082820390508181111561228f5761228e611c09565b5b92915050565b7f4e487b71000000000000000000000000000000000000000000000000000000005f52603260045260245ffdfea26469706673582212200830622344c5dc0b6e06bbb65ffb8f236940b0b453611872d024dfeb12679d3a64736f6c634300081a0033",
					"opcodes": "PUSH1 0x80 PUSH1 0x40 MSTORE PUSH1 0x1 PUSH1 0x2 SSTORE PUSH1 0x1 PUSH1 0x3 SSTORE CALLVALUE DUP1 ISZERO PUSH1 0x18 JUMPI PUSH0 DUP1 REVERT JUMPDEST POP CALLER PUSH0 DUP1 PUSH2 0x100 EXP DUP2 SLOAD DUP2 PUSH20 0xFFFFFFFFFFFFFFFFFFFFFFFFFFFFFFFFFFFFFFFF MUL NOT AND SWAP1 DUP4 PUSH20 0xFFFFFFFFFFFFFFFFFFFFFFFFFFFFFFFFFFFFFFFF AND MUL OR SWAP1 SSTORE POP PUSH2 0x22F8 DUP1 PUSH2 0x65 PUSH0 CODECOPY PUSH0 RETURN INVALID PUSH1 0x80 PUSH1 0x40 MSTORE CALLVALUE DUP1 ISZERO PUSH2 0xF JUMPI PUSH0 DUP1 REVERT JUMPDEST POP PUSH1 0x4 CALLDATASIZE LT PUSH2 0xA7 JUMPI PUSH0 CALLDATALOAD PUSH1 0xE0 SHR DUP1 PUSH4 0x9FA4E440 GT PUSH2 0x6F JUMPI DUP1 PUSH4 0x9FA4E440 EQ PUSH2 0x127 JUMPI DUP1 PUSH4 0xA15A36C7 EQ PUSH2 0x131 JUMPI DUP1 PUSH4 0xAAB46B7F EQ PUSH2 0x14D JUMPI DUP1 PUSH4 0xB28D92AE EQ PUSH2 0x16B JUMPI DUP1 PUSH4 0xDFBF53AE EQ PUSH2 0x189 JUMPI DUP1 PUSH4 0xFDBC4006 EQ PUSH2 0x1A7 JUMPI PUSH2 0xA7 JUMP JUMPDEST DUP1 PUSH4 0x2C0A3F89 EQ PUSH2 0xAB JUMPI DUP1 PUSH4 0x581C281C EQ PUSH2 0xC7 JUMPI DUP1 PUSH4 0x6CE2CCC0 EQ PUSH2 0xE5 JUMPI DUP1 PUSH4 0x81BA732F EQ PUSH2 0xEF JUMPI DUP1 PUSH4 0x982C777D EQ PUSH2 0x10B JUMPI JUMPDEST PUSH0 DUP1 REVERT JUMPDEST PUSH2 0xC5 PUSH1 0x4 DUP1 CALLDATASIZE SUB DUP2 ADD SWAP1 PUSH2 0xC0 SWAP2 SWAP1 PUSH2 0x1387 JUMP JUMPDEST PUSH2 0x1C5 JUMP JUMPDEST STOP JUMPDEST PUSH2 0xCF PUSH2 0x3F9 JUMP JUMPDEST PUSH1 0x40 MLOAD PUSH2 0xDC SWAP2 SWAP1 PUSH2 0x1438 JUMP JUMPDEST PUSH1 0x40 MLOAD DUP1 SWAP2 SUB SWAP1 RETURN JUMPDEST PUSH2 0xED PUSH2 0x443 JUMP JUMPDEST STOP JUMPDEST PUSH2 0x109 PUSH1 0x4 DUP1 CALLDATASIZE SUB DUP2 ADD SWAP1 PUSH2 0x104 SWAP2 SWAP1 PUSH2 0x14D5 JUMP JUMPDEST PUSH2 0x599 JUMP JUMPDEST STOP JUMPDEST PUSH2 0x125 PUSH1 0x4 DUP1 CALLDATASIZE SUB DUP2 ADD SWAP1 PUSH2 0x120 SWAP2 SWAP1 PUSH2 0x1546 JUMP JUMPDEST PUSH2 0x79B JUMP JUMPDEST STOP JUMPDEST PUSH2 0x12F PUSH2 0xACF JUMP JUMPDEST STOP JUMPDEST PUSH2 0x14B PUSH1 0x4 DUP1 CALLDATASIZE SUB DUP2 ADD SWAP1 PUSH2 0x146 SWAP2 SWAP1 PUSH2 0x1387 JUMP JUMPDEST PUSH2 0xB78 JUMP JUMPDEST STOP JUMPDEST PUSH2 0x155 PUSH2 0xC74 JUMP JUMPDEST PUSH1 0x40 MLOAD PUSH2 0x162 SWAP2 SWAP1 PUSH2 0x1628 JUMP JUMPDEST PUSH1 0x40 MLOAD DUP1 SWAP2 SUB SWAP1 RETURN JUMPDEST PUSH2 0x173 PUSH2 0xC97 JUMP JUMPDEST PUSH1 0x40 MLOAD PUSH2 0x180 SWAP2 SWAP1 PUSH2 0x1856 JUMP JUMPDEST PUSH1 0x40 MLOAD DUP1 SWAP2 SUB SWAP1 RETURN JUMPDEST PUSH2 0x191 PUSH2 0xEA5 JUMP JUMPDEST PUSH1 0x40 MLOAD PUSH2 0x19E SWAP2 SWAP1 PUSH2 0x1628 JUMP JUMPDEST PUSH1 0x40 MLOAD DUP1 SWAP2 SUB SWAP1 RETURN JUMPDEST PUSH2 0x1AF PUSH2 0xECA JUMP JUMPDEST PUSH1 0x40 MLOAD PUSH2 0x1BC SWAP2 SWAP1 PUSH2 0x19D1 JUMP JUMPDEST PUSH1 0x40 MLOAD DUP1 SWAP2 SUB SWAP1 RETURN JUMPDEST PUSH1 0x5 SLOAD TIMESTAMP GT ISZERO DUP1 ISZERO PUSH2 0x1E8 JUMPI POP PUSH0 ISZERO ISZERO PUSH1 0x6 PUSH0 SWAP1 SLOAD SWAP1 PUSH2 0x100 EXP SWAP1 DIV PUSH1 0xFF AND ISZERO ISZERO EQ JUMPDEST PUSH2 0x227 JUMPI PUSH1 0x40 MLOAD PUSH32 0x8C379A000000000000000000000000000000000000000000000000000000000 DUP2 MSTORE PUSH1 0x4 ADD PUSH2 0x21E SWAP1 PUSH2 0x1A4B JUMP JUMPDEST PUSH1 0x40 MLOAD DUP1 SWAP2 SUB SWAP1 REVERT JUMPDEST PUSH1 0x4 SLOAD TIMESTAMP LT ISZERO PUSH2 0x26C JUMPI PUSH1 0x40 MLOAD PUSH32 0x8C379A000000000000000000000000000000000000000000000000000000000 DUP2 MSTORE PUSH1 0x4 ADD PUSH2 0x263 SWAP1 PUSH2 0x1AB3 JUMP JUMPDEST PUSH1 0x40 MLOAD DUP1 SWAP2 SUB SWAP1 REVERT JUMPDEST PUSH0 PUSH1 0x7 PUSH0 DUP5 DUP2 MSTORE PUSH1 0x20 ADD SWAP1 DUP2 MSTORE PUSH1 0x20 ADD PUSH0 KECCAK256 PUSH1 0x4 ADD SLOAD EQ PUSH2 0x2C2 JUMPI PUSH1 0x40 MLOAD PUSH32 0x8C379A000000000000000000000000000000000000000000000000000000000 DUP2 MSTORE PUSH1 0x4 ADD PUSH2 0x2B9 SWAP1 PUSH2 0x1B1B JUMP JUMPDEST PUSH1 0x40 MLOAD DUP1 SWAP2 SUB SWAP1 REVERT JUMPDEST CALLER PUSH20 0xFFFFFFFFFFFFFFFFFFFFFFFFFFFFFFFFFFFFFFFF AND PUSH1 0x7 PUSH0 DUP5 DUP2 MSTORE PUSH1 0x20 ADD SWAP1 DUP2 MSTORE PUSH1 0x20 ADD PUSH0 KECCAK256 PUSH1 0x5 ADD PUSH0 SWAP1 SLOAD SWAP1 PUSH2 0x100 EXP SWAP1 DIV PUSH20 0xFFFFFFFFFFFFFFFFFFFFFFFFFFFFFFFFFFFFFFFF AND PUSH20 0xFFFFFFFFFFFFFFFFFFFFFFFFFFFFFFFFFFFFFFFF AND EQ PUSH2 0x363 JUMPI PUSH1 0x40 MLOAD PUSH32 0x8C379A000000000000000000000000000000000000000000000000000000000 DUP2 MSTORE PUSH1 0x4 ADD PUSH2 0x35A SWAP1 PUSH2 0x1B83 JUMP JUMPDEST PUSH1 0x40 MLOAD DUP1 SWAP2 SUB SWAP1 REVERT JUMPDEST PUSH1 0x1 DUP2 LT ISZERO DUP1 ISZERO PUSH2 0x374 JUMPI POP PUSH1 0x3 DUP2 LT JUMPDEST PUSH2 0x3B3 JUMPI PUSH1 0x40 MLOAD PUSH32 0x8C379A000000000000000000000000000000000000000000000000000000000 DUP2 MSTORE PUSH1 0x4 ADD PUSH2 0x3AA SWAP1 PUSH2 0x1BEB JUMP JUMPDEST PUSH1 0x40 MLOAD DUP1 SWAP2 SUB SWAP1 REVERT JUMPDEST DUP1 PUSH1 0x7 PUSH0 DUP5 DUP2 MSTORE PUSH1 0x20 ADD SWAP1 DUP2 MSTORE PUSH1 0x20 ADD PUSH0 KECCAK256 PUSH1 0x4 ADD DUP2 SWAP1 SSTORE POP PUSH1 0x8 PUSH0 DUP3 DUP2 MSTORE PUSH1 0x20 ADD SWAP1 DUP2 MSTORE PUSH1 0x20 ADD PUSH0 KECCAK256 PUSH1 0x6 ADD PUSH0 DUP2 SLOAD DUP1 SWAP3 SWAP2 SWAP1 PUSH2 0x3F0 SWAP1 PUSH2 0x1C36 JUMP JUMPDEST SWAP2 SWAP1 POP SSTORE POP POP POP JUMP JUMPDEST PUSH0 DUP1 PUSH1 0x4 SLOAD SUB PUSH2 0x40B JUMPI PUSH0 SWAP1 POP PUSH2 0x440 JUMP JUMPDEST TIMESTAMP PUSH1 0x5 SLOAD GT DUP1 ISZERO PUSH2 0x42D JUMPI POP PUSH0 ISZERO ISZERO PUSH1 0x6 PUSH0 SWAP1 SLOAD SWAP1 PUSH2 0x100 EXP SWAP1 DIV PUSH1 0xFF AND ISZERO ISZERO EQ JUMPDEST ISZERO PUSH2 0x43B JUMPI PUSH1 0x1 SWAP1 POP PUSH2 0x440 JUMP JUMPDEST PUSH1 0x2 SWAP1 POP JUMPDEST SWAP1 JUMP JUMPDEST PUSH0 DUP1 SLOAD SWAP1 PUSH2 0x100 EXP SWAP1 DIV PUSH20 0xFFFFFFFFFFFFFFFFFFFFFFFFFFFFFFFFFFFFFFFF AND PUSH20 0xFFFFFFFFFFFFFFFFFFFFFFFFFFFFFFFFFFFFFFFF AND CALLER PUSH20 0xFFFFFFFFFFFFFFFFFFFFFFFFFFFFFFFFFFFFFFFF AND EQ PUSH2 0x4D0 JUMPI PUSH1 0x40 MLOAD PUSH32 0x8C379A000000000000000000000000000000000000000000000000000000000 DUP2 MSTORE PUSH1 0x4 ADD PUSH2 0x4C7 SWAP1 PUSH2 0x1CC7 JUMP JUMPDEST PUSH1 0x40 MLOAD DUP1 SWAP2 SUB SWAP1 REVERT JUMPDEST PUSH0 DUP1 PUSH1 0x1 SWAP1 POP JUMPDEST PUSH1 0x3 SLOAD DUP2 LT ISZERO PUSH2 0x595 JUMPI DUP2 PUSH1 0x8 PUSH0 DUP4 DUP2 MSTORE PUSH1 0x20 ADD SWAP1 DUP2 MSTORE PUSH1 0x20 ADD PUSH0 KECCAK256 PUSH1 0x6 ADD SLOAD GT ISZERO PUSH2 0x588 JUMPI PUSH1 0x8 PUSH0 DUP3 DUP2 MSTORE PUSH1 0x20 ADD SWAP1 DUP2 MSTORE PUSH1 0x20 ADD PUSH0 KECCAK256 PUSH1 0x6 ADD SLOAD SWAP2 POP PUSH1 0x8 PUSH0 DUP3 DUP2 MSTORE PUSH1 0x20 ADD SWAP1 DUP2 MSTORE PUSH1 0x20 ADD PUSH0 KECCAK256 PUSH1 0x5 ADD PUSH0 SWAP1 SLOAD SWAP1 PUSH2 0x100 EXP SWAP1 DIV PUSH20 0xFFFFFFFFFFFFFFFFFFFFFFFFFFFFFFFFFFFFFFFF AND PUSH1 0x1 PUSH0 PUSH2 0x100 EXP DUP2 SLOAD DUP2 PUSH20 0xFFFFFFFFFFFFFFFFFFFFFFFFFFFFFFFFFFFFFFFF MUL NOT AND SWAP1 DUP4 PUSH20 0xFFFFFFFFFFFFFFFFFFFFFFFFFFFFFFFFFFFFFFFF AND MUL OR SWAP1 SSTORE POP JUMPDEST DUP1 DUP1 PUSH1 0x1 ADD SWAP2 POP POP PUSH2 0x4D7 JUMP JUMPDEST POP POP JUMP JUMPDEST DUP2 PUSH1 0x12 DUP2 LT ISZERO PUSH2 0x5DE JUMPI PUSH1 0x40 MLOAD PUSH32 0x8C379A000000000000000000000000000000000000000000000000000000000 DUP2 MSTORE PUSH1 0x4 ADD PUSH2 0x5D5 SWAP1 PUSH2 0x1D2F JUMP JUMPDEST PUSH1 0x40 MLOAD DUP1 SWAP2 SUB SWAP1 REVERT JUMPDEST PUSH2 0x5E7 CALLER PUSH2 0x1163 JUMP JUMPDEST PUSH2 0x626 JUMPI PUSH1 0x40 MLOAD PUSH32 0x8C379A000000000000000000000000000000000000000000000000000000000 DUP2 MSTORE PUSH1 0x4 ADD PUSH2 0x61D SWAP1 PUSH2 0x1D97 JUMP JUMPDEST PUSH1 0x40 MLOAD DUP1 SWAP2 SUB SWAP1 REVERT JUMPDEST PUSH1 0x40 MLOAD DUP1 PUSH1 0xC0 ADD PUSH1 0x40 MSTORE DUP1 DUP7 DUP7 DUP1 DUP1 PUSH1 0x1F ADD PUSH1 0x20 DUP1 SWAP2 DIV MUL PUSH1 0x20 ADD PUSH1 0x40 MLOAD SWAP1 DUP2 ADD PUSH1 0x40 MSTORE DUP1 SWAP4 SWAP3 SWAP2 SWAP1 DUP2 DUP2 MSTORE PUSH1 0x20 ADD DUP4 DUP4 DUP1 DUP3 DUP5 CALLDATACOPY PUSH0 DUP2 DUP5 ADD MSTORE PUSH1 0x1F NOT PUSH1 0x1F DUP3 ADD AND SWAP1 POP DUP1 DUP4 ADD SWAP3 POP POP POP POP POP POP POP DUP2 MSTORE PUSH1 0x20 ADD DUP5 DUP2 MSTORE PUSH1 0x20 ADD PUSH1 0x2 SLOAD DUP2 MSTORE PUSH1 0x20 ADD DUP4 PUSH1 0x3 DUP2 GT ISZERO PUSH2 0x69B JUMPI PUSH2 0x69A PUSH2 0x13C5 JUMP JUMPDEST JUMPDEST DUP2 MSTORE PUSH1 0x20 ADD PUSH0 DUP2 MSTORE PUSH1 0x20 ADD CALLER PUSH20 0xFFFFFFFFFFFFFFFFFFFFFFFFFFFFFFFFFFFFFFFF AND DUP2 MSTORE POP PUSH1 0x7 PUSH0 PUSH1 0x2 SLOAD DUP2 MSTORE PUSH1 0x20 ADD SWAP1 DUP2 MSTORE PUSH1 0x20 ADD PUSH0 KECCAK256 PUSH0 DUP3 ADD MLOAD DUP2 PUSH0 ADD SWAP1 DUP2 PUSH2 0x6E6 SWAP2 SWAP1 PUSH2 0x1FDC JUMP JUMPDEST POP PUSH1 0x20 DUP3 ADD MLOAD DUP2 PUSH1 0x1 ADD SSTORE PUSH1 0x40 DUP3 ADD MLOAD DUP2 PUSH1 0x2 ADD SSTORE PUSH1 0x60 DUP3 ADD MLOAD DUP2 PUSH1 0x3 ADD PUSH0 PUSH2 0x100 EXP DUP2 SLOAD DUP2 PUSH1 0xFF MUL NOT AND SWAP1 DUP4 PUSH1 0x3 DUP2 GT ISZERO PUSH2 0x725 JUMPI PUSH2 0x724 PUSH2 0x13C5 JUMP JUMPDEST JUMPDEST MUL OR SWAP1 SSTORE POP PUSH1 0x80 DUP3 ADD MLOAD DUP2 PUSH1 0x4 ADD SSTORE PUSH1 0xA0 DUP3 ADD MLOAD DUP2 PUSH1 0x5 ADD PUSH0 PUSH2 0x100 EXP DUP2 SLOAD DUP2 PUSH20 0xFFFFFFFFFFFFFFFFFFFFFFFFFFFFFFFFFFFFFFFF MUL NOT AND SWAP1 DUP4 PUSH20 0xFFFFFFFFFFFFFFFFFFFFFFFFFFFFFFFFFFFFFFFF AND MUL OR SWAP1 SSTORE POP SWAP1 POP POP PUSH1 0x2 PUSH0 DUP2 SLOAD DUP1 SWAP3 SWAP2 SWAP1 PUSH2 0x78F SWAP1 PUSH2 0x1C36 JUMP JUMPDEST SWAP2 SWAP1 POP SSTORE POP POP POP POP POP POP JUMP JUMPDEST DUP2 PUSH1 0x12 DUP2 LT ISZERO PUSH2 0x7E0 JUMPI PUSH1 0x40 MLOAD PUSH32 0x8C379A000000000000000000000000000000000000000000000000000000000 DUP2 MSTORE PUSH1 0x4 ADD PUSH2 0x7D7 SWAP1 PUSH2 0x1D2F JUMP JUMPDEST PUSH1 0x40 MLOAD DUP1 SWAP2 SUB SWAP1 REVERT JUMPDEST PUSH2 0x7E9 CALLER PUSH2 0x11FB JUMP JUMPDEST PUSH2 0x828 JUMPI PUSH1 0x40 MLOAD PUSH32 0x8C379A000000000000000000000000000000000000000000000000000000000 DUP2 MSTORE PUSH1 0x4 ADD PUSH2 0x81F SWAP1 PUSH2 0x1D97 JUMP JUMPDEST PUSH1 0x40 MLOAD DUP1 SWAP2 SUB SWAP1 REVERT JUMPDEST PUSH1 0x3 DUP1 SLOAD LT PUSH2 0x86C JUMPI PUSH1 0x40 MLOAD PUSH32 0x8C379A000000000000000000000000000000000000000000000000000000000 DUP2 MSTORE PUSH1 0x4 ADD PUSH2 0x863 SWAP1 PUSH2 0x20F5 JUMP JUMPDEST PUSH1 0x40 MLOAD DUP1 SWAP2 SUB SWAP1 REVERT JUMPDEST PUSH0 DUP1 SLOAD SWAP1 PUSH2 0x100 EXP SWAP1 DIV PUSH20 0xFFFFFFFFFFFFFFFFFFFFFFFFFFFFFFFFFFFFFFFF AND PUSH20 0xFFFFFFFFFFFFFFFFFFFFFFFFFFFFFFFFFFFFFFFF AND CALLER PUSH20 0xFFFFFFFFFFFFFFFFFFFFFFFFFFFFFFFFFFFFFFFF AND SUB PUSH2 0x8F9 JUMPI PUSH1 0x40 MLOAD PUSH32 0x8C379A000000000000000000000000000000000000000000000000000000000 DUP2 MSTORE PUSH1 0x4 ADD PUSH2 0x8F0 SWAP1 PUSH2 0x2183 JUMP JUMPDEST PUSH1 0x40 MLOAD DUP1 SWAP2 SUB SWAP1 REVERT JUMPDEST PUSH1 0x40 MLOAD DUP1 PUSH1 0xE0 ADD PUSH1 0x40 MSTORE DUP1 DUP9 DUP9 DUP1 DUP1 PUSH1 0x1F ADD PUSH1 0x20 DUP1 SWAP2 DIV MUL PUSH1 0x20 ADD PUSH1 0x40 MLOAD SWAP1 DUP2 ADD PUSH1 0x40 MSTORE DUP1 SWAP4 SWAP3 SWAP2 SWAP1 DUP2 DUP2 MSTORE PUSH1 0x20 ADD DUP4 DUP4 DUP1 DUP3 DUP5 CALLDATACOPY PUSH0 DUP2 DUP5 ADD MSTORE PUSH1 0x1F NOT PUSH1 0x1F DUP3 ADD AND SWAP1 POP DUP1 DUP4 ADD SWAP3 POP POP POP POP POP POP POP DUP2 MSTORE PUSH1 0x20 ADD DUP7 DUP7 DUP1 DUP1 PUSH1 0x1F ADD PUSH1 0x20 DUP1 SWAP2 DIV MUL PUSH1 0x20 ADD PUSH1 0x40 MLOAD SWAP1 DUP2 ADD PUSH1 0x40 MSTORE DUP1 SWAP4 SWAP3 SWAP2 SWAP1 DUP2 DUP2 MSTORE PUSH1 0x20 ADD DUP4 DUP4 DUP1 DUP3 DUP5 CALLDATACOPY PUSH0 DUP2 DUP5 ADD MSTORE PUSH1 0x1F NOT PUSH1 0x1F DUP3 ADD AND SWAP1 POP DUP1 DUP4 ADD SWAP3 POP POP POP POP POP POP POP DUP2 MSTORE PUSH1 0x20 ADD DUP5 DUP2 MSTORE PUSH1 0x20 ADD DUP4 PUSH1 0x3 DUP2 GT ISZERO PUSH2 0x9AF JUMPI PUSH2 0x9AE PUSH2 0x13C5 JUMP JUMPDEST JUMPDEST DUP2 MSTORE PUSH1 0x20 ADD PUSH1 0x3 SLOAD DUP2 MSTORE PUSH1 0x20 ADD CALLER PUSH20 0xFFFFFFFFFFFFFFFFFFFFFFFFFFFFFFFFFFFFFFFF AND DUP2 MSTORE PUSH1 0x20 ADD PUSH0 DUP2 MSTORE POP PUSH1 0x8 PUSH0 PUSH1 0x3 SLOAD DUP2 MSTORE PUSH1 0x20 ADD SWAP1 DUP2 MSTORE PUSH1 0x20 ADD PUSH0 KECCAK256 PUSH0 DUP3 ADD MLOAD DUP2 PUSH0 ADD SWAP1 DUP2 PUSH2 0xA02 SWAP2 SWAP1 PUSH2 0x1FDC JUMP JUMPDEST POP PUSH1 0x20 DUP3 ADD MLOAD DUP2 PUSH1 0x1 ADD SWAP1 DUP2 PUSH2 0xA18 SWAP2 SWAP1 PUSH2 0x1FDC JUMP JUMPDEST POP PUSH1 0x40 DUP3 ADD MLOAD DUP2 PUSH1 0x2 ADD SSTORE PUSH1 0x60 DUP3 ADD MLOAD DUP2 PUSH1 0x3 ADD PUSH0 PUSH2 0x100 EXP DUP2 SLOAD DUP2 PUSH1 0xFF MUL NOT AND SWAP1 DUP4 PUSH1 0x3 DUP2 GT ISZERO PUSH2 0xA4D JUMPI PUSH2 0xA4C PUSH2 0x13C5 JUMP JUMPDEST JUMPDEST MUL OR SWAP1 SSTORE POP PUSH1 0x80 DUP3 ADD MLOAD DUP2 PUSH1 0x4 ADD SSTORE PUSH1 0xA0 DUP3 ADD MLOAD DUP2 PUSH1 0x5 ADD PUSH0 PUSH2 0x100 EXP DUP2 SLOAD DUP2 PUSH20 0xFFFFFFFFFFFFFFFFFFFFFFFFFFFFFFFFFFFFFFFF MUL NOT AND SWAP1 DUP4 PUSH20 0xFFFFFFFFFFFFFFFFFFFFFFFFFFFFFFFFFFFFFFFF AND MUL OR SWAP1 SSTORE POP PUSH1 0xC0 DUP3 ADD MLOAD DUP2 PUSH1 0x6 ADD SSTORE SWAP1 POP POP PUSH1 0x3 PUSH0 DUP2 SLOAD DUP1 SWAP3 SWAP2 SWAP1 PUSH2 0xAC1 SWAP1 PUSH2 0x1C36 JUMP JUMPDEST SWAP2 SWAP1 POP SSTORE POP POP POP POP POP POP POP POP JUMP JUMPDEST PUSH0 DUP1 SLOAD SWAP1 PUSH2 0x100 EXP SWAP1 DIV PUSH20 0xFFFFFFFFFFFFFFFFFFFFFFFFFFFFFFFFFFFFFFFF AND PUSH20 0xFFFFFFFFFFFFFFFFFFFFFFFFFFFFFFFFFFFFFFFF AND CALLER PUSH20 0xFFFFFFFFFFFFFFFFFFFFFFFFFFFFFFFFFFFFFFFF AND EQ PUSH2 0xB5C JUMPI PUSH1 0x40 MLOAD PUSH32 0x8C379A000000000000000000000000000000000000000000000000000000000 DUP2 MSTORE PUSH1 0x4 ADD PUSH2 0xB53 SWAP1 PUSH2 0x1CC7 JUMP JUMPDEST PUSH1 0x40 MLOAD DUP1 SWAP2 SUB SWAP1 REVERT JUMPDEST PUSH1 0x1 PUSH1 0x6 PUSH0 PUSH2 0x100 EXP DUP2 SLOAD DUP2 PUSH1 0xFF MUL NOT AND SWAP1 DUP4 ISZERO ISZERO MUL OR SWAP1 SSTORE POP JUMP JUMPDEST PUSH0 DUP1 SLOAD SWAP1 PUSH2 0x100 EXP SWAP1 DIV PUSH20 0xFFFFFFFFFFFFFFFFFFFFFFFFFFFFFFFFFFFFFFFF AND PUSH20 0xFFFFFFFFFFFFFFFFFFFFFFFFFFFFFFFFFFFFFFFF AND CALLER PUSH20 0xFFFFFFFFFFFFFFFFFFFFFFFFFFFFFFFFFFFFFFFF AND EQ PUSH2 0xC05 JUMPI PUSH1 0x40 MLOAD PUSH32 0x8C379A000000000000000000000000000000000000000000000000000000000 DUP2 MSTORE PUSH1 0x4 ADD PUSH2 0xBFC SWAP1 PUSH2 0x1CC7 JUMP JUMPDEST PUSH1 0x40 MLOAD DUP1 SWAP2 SUB SWAP1 REVERT JUMPDEST PUSH2 0xE10 DUP2 LT ISZERO PUSH2 0xC4A JUMPI PUSH1 0x40 MLOAD PUSH32 0x8C379A000000000000000000000000000000000000000000000000000000000 DUP2 MSTORE PUSH1 0x4 ADD PUSH2 0xC41 SWAP1 PUSH2 0x2211 JUMP JUMPDEST PUSH1 0x40 MLOAD DUP1 SWAP2 SUB SWAP1 REVERT JUMPDEST DUP2 TIMESTAMP PUSH2 0xC56 SWAP2 SWAP1 PUSH2 0x222F JUMP JUMPDEST PUSH1 0x4 DUP2 SWAP1 SSTORE POP DUP1 PUSH1 0x4 SLOAD PUSH2 0xC6A SWAP2 SWAP1 PUSH2 0x222F JUMP JUMPDEST PUSH1 0x5 DUP2 SWAP1 SSTORE POP POP POP JUMP JUMPDEST PUSH0 DUP1 SLOAD SWAP1 PUSH2 0x100 EXP SWAP1 DIV PUSH20 0xFFFFFFFFFFFFFFFFFFFFFFFFFFFFFFFFFFFFFFFF AND DUP2 JUMP JUMPDEST PUSH1 0x60 PUSH0 PUSH1 0x1 PUSH1 0x2 SLOAD PUSH2 0xCA9 SWAP2 SWAP1 PUSH2 0x2262 JUMP JUMPDEST SWAP1 POP PUSH0 DUP2 PUSH8 0xFFFFFFFFFFFFFFFF DUP2 GT ISZERO PUSH2 0xCC6 JUMPI PUSH2 0xCC5 PUSH2 0x1DB5 JUMP JUMPDEST JUMPDEST PUSH1 0x40 MLOAD SWAP1 DUP1 DUP3 MSTORE DUP1 PUSH1 0x20 MUL PUSH1 0x20 ADD DUP3 ADD PUSH1 0x40 MSTORE DUP1 ISZERO PUSH2 0xCFF JUMPI DUP2 PUSH1 0x20 ADD JUMPDEST PUSH2 0xCEC PUSH2 0x1293 JUMP JUMPDEST DUP2 MSTORE PUSH1 0x20 ADD SWAP1 PUSH1 0x1 SWAP1 SUB SWAP1 DUP2 PUSH2 0xCE4 JUMPI SWAP1 POP JUMPDEST POP SWAP1 POP PUSH0 JUMPDEST DUP2 MLOAD DUP2 LT ISZERO PUSH2 0xE9C JUMPI PUSH1 0x7 PUSH0 PUSH1 0x1 DUP4 PUSH2 0xD1D SWAP2 SWAP1 PUSH2 0x222F JUMP JUMPDEST DUP2 MSTORE PUSH1 0x20 ADD SWAP1 DUP2 MSTORE PUSH1 0x20 ADD PUSH0 KECCAK256 PUSH1 0x40 MLOAD DUP1 PUSH1 0xC0 ADD PUSH1 0x40 MSTORE SWAP1 DUP2 PUSH0 DUP3 ADD DUP1 SLOAD PUSH2 0xD44 SWAP1 PUSH2 0x1E0F JUMP JUMPDEST DUP1 PUSH1 0x1F ADD PUSH1 0x20 DUP1 SWAP2 DIV MUL PUSH1 0x20 ADD PUSH1 0x40 MLOAD SWAP1 DUP2 ADD PUSH1 0x40 MSTORE DUP1 SWAP3 SWAP2 SWAP1 DUP2 DUP2 MSTORE PUSH1 0x20 ADD DUP3 DUP1 SLOAD PUSH2 0xD70 SWAP1 PUSH2 0x1E0F JUMP JUMPDEST DUP1 ISZERO PUSH2 0xDBB JUMPI DUP1 PUSH1 0x1F LT PUSH2 0xD92 JUMPI PUSH2 0x100 DUP1 DUP4 SLOAD DIV MUL DUP4 MSTORE SWAP2 PUSH1 0x20 ADD SWAP2 PUSH2 0xDBB JUMP JUMPDEST DUP3 ADD SWAP2 SWAP1 PUSH0 MSTORE PUSH1 0x20 PUSH0 KECCAK256 SWAP1 JUMPDEST DUP2 SLOAD DUP2 MSTORE SWAP1 PUSH1 0x1 ADD SWAP1 PUSH1 0x20 ADD DUP1 DUP4 GT PUSH2 0xD9E JUMPI DUP3 SWAP1 SUB PUSH1 0x1F AND DUP3 ADD SWAP2 JUMPDEST POP POP POP POP POP DUP2 MSTORE PUSH1 0x20 ADD PUSH1 0x1 DUP3 ADD SLOAD DUP2 MSTORE PUSH1 0x20 ADD PUSH1 0x2 DUP3 ADD SLOAD DUP2 MSTORE PUSH1 0x20 ADD PUSH1 0x3 DUP3 ADD PUSH0 SWAP1 SLOAD SWAP1 PUSH2 0x100 EXP SWAP1 DIV PUSH1 0xFF AND PUSH1 0x3 DUP2 GT ISZERO PUSH2 0xDFC JUMPI PUSH2 0xDFB PUSH2 0x13C5 JUMP JUMPDEST JUMPDEST PUSH1 0x3 DUP2 GT ISZERO PUSH2 0xE0E JUMPI PUSH2 0xE0D PUSH2 0x13C5 JUMP JUMPDEST JUMPDEST DUP2 MSTORE PUSH1 0x20 ADD PUSH1 0x4 DUP3 ADD SLOAD DUP2 MSTORE PUSH1 0x20 ADD PUSH1 0x5 DUP3 ADD PUSH0 SWAP1 SLOAD SWAP1 PUSH2 0x100 EXP SWAP1 DIV PUSH20 0xFFFFFFFFFFFFFFFFFFFFFFFFFFFFFFFFFFFFFFFF AND PUSH20 0xFFFFFFFFFFFFFFFFFFFFFFFFFFFFFFFFFFFFFFFF AND PUSH20 0xFFFFFFFFFFFFFFFFFFFFFFFFFFFFFFFFFFFFFFFF AND DUP2 MSTORE POP POP DUP3 DUP3 DUP2 MLOAD DUP2 LT PUSH2 0xE84 JUMPI PUSH2 0xE83 PUSH2 0x2295 JUMP JUMPDEST JUMPDEST PUSH1 0x20 MUL PUSH1 0x20 ADD ADD DUP2 SWAP1 MSTORE POP DUP1 DUP1 PUSH1 0x1 ADD SWAP2 POP POP PUSH2 0xD04 JUMP JUMPDEST POP DUP1 SWAP3 POP POP POP SWAP1 JUMP JUMPDEST PUSH1 0x1 PUSH0 SWAP1 SLOAD SWAP1 PUSH2 0x100 EXP SWAP1 DIV PUSH20 0xFFFFFFFFFFFFFFFFFFFFFFFFFFFFFFFFFFFFFFFF AND DUP2 JUMP JUMPDEST PUSH1 0x60 PUSH0 PUSH1 0x1 PUSH1 0x3 SLOAD PUSH2 0xEDC SWAP2 SWAP1 PUSH2 0x2262 JUMP JUMPDEST PUSH8 0xFFFFFFFFFFFFFFFF DUP2 GT ISZERO PUSH2 0xEF5 JUMPI PUSH2 0xEF4 PUSH2 0x1DB5 JUMP JUMPDEST JUMPDEST PUSH1 0x40 MLOAD SWAP1 DUP1 DUP3 MSTORE DUP1 PUSH1 0x20 MUL PUSH1 0x20 ADD DUP3 ADD PUSH1 0x40 MSTORE DUP1 ISZERO PUSH2 0xF2E JUMPI DUP2 PUSH1 0x20 ADD JUMPDEST PUSH2 0xF1B PUSH2 0x12EC JUMP JUMPDEST DUP2 MSTORE PUSH1 0x20 ADD SWAP1 PUSH1 0x1 SWAP1 SUB SWAP1 DUP2 PUSH2 0xF13 JUMPI SWAP1 POP JUMPDEST POP SWAP1 POP PUSH0 JUMPDEST DUP2 MLOAD DUP2 LT ISZERO PUSH2 0x115B JUMPI PUSH1 0x8 PUSH0 PUSH1 0x1 DUP4 PUSH2 0xF4C SWAP2 SWAP1 PUSH2 0x222F JUMP JUMPDEST DUP2 MSTORE PUSH1 0x20 ADD SWAP1 DUP2 MSTORE PUSH1 0x20 ADD PUSH0 KECCAK256 PUSH1 0x40 MLOAD DUP1 PUSH1 0xE0 ADD PUSH1 0x40 MSTORE SWAP1 DUP2 PUSH0 DUP3 ADD DUP1 SLOAD PUSH2 0xF73 SWAP1 PUSH2 0x1E0F JUMP JUMPDEST DUP1 PUSH1 0x1F ADD PUSH1 0x20 DUP1 SWAP2 DIV MUL PUSH1 0x20 ADD PUSH1 0x40 MLOAD SWAP1 DUP2 ADD PUSH1 0x40 MSTORE DUP1 SWAP3 SWAP2 SWAP1 DUP2 DUP2 MSTORE PUSH1 0x20 ADD DUP3 DUP1 SLOAD PUSH2 0xF9F SWAP1 PUSH2 0x1E0F JUMP JUMPDEST DUP1 ISZERO PUSH2 0xFEA JUMPI DUP1 PUSH1 0x1F LT PUSH2 0xFC1 JUMPI PUSH2 0x100 DUP1 DUP4 SLOAD DIV MUL DUP4 MSTORE SWAP2 PUSH1 0x20 ADD SWAP2 PUSH2 0xFEA JUMP JUMPDEST DUP3 ADD SWAP2 SWAP1 PUSH0 MSTORE PUSH1 0x20 PUSH0 KECCAK256 SWAP1 JUMPDEST DUP2 SLOAD DUP2 MSTORE SWAP1 PUSH1 0x1 ADD SWAP1 PUSH1 0x20 ADD DUP1 DUP4 GT PUSH2 0xFCD JUMPI DUP3 SWAP1 SUB PUSH1 0x1F AND DUP3 ADD SWAP2 JUMPDEST POP POP POP POP POP DUP2 MSTORE PUSH1 0x20 ADD PUSH1 0x1 DUP3 ADD DUP1 SLOAD PUSH2 0x1003 SWAP1 PUSH2 0x1E0F JUMP JUMPDEST DUP1 PUSH1 0x1F ADD PUSH1 0x20 DUP1 SWAP2 DIV MUL PUSH1 0x20 ADD PUSH1 0x40 MLOAD SWAP1 DUP2 ADD PUSH1 0x40 MSTORE DUP1 SWAP3 SWAP2 SWAP1 DUP2 DUP2 MSTORE PUSH1 0x20 ADD DUP3 DUP1 SLOAD PUSH2 0x102F SWAP1 PUSH2 0x1E0F JUMP JUMPDEST DUP1 ISZERO PUSH2 0x107A JUMPI DUP1 PUSH1 0x1F LT PUSH2 0x1051 JUMPI PUSH2 0x100 DUP1 DUP4 SLOAD DIV MUL DUP4 MSTORE SWAP2 PUSH1 0x20 ADD SWAP2 PUSH2 0x107A JUMP JUMPDEST DUP3 ADD SWAP2 SWAP1 PUSH0 MSTORE PUSH1 0x20 PUSH0 KECCAK256 SWAP1 JUMPDEST DUP2 SLOAD DUP2 MSTORE SWAP1 PUSH1 0x1 ADD SWAP1 PUSH1 0x20 ADD DUP1 DUP4 GT PUSH2 0x105D JUMPI DUP3 SWAP1 SUB PUSH1 0x1F AND DUP3 ADD SWAP2 JUMPDEST POP POP POP POP POP DUP2 MSTORE PUSH1 0x20 ADD PUSH1 0x2 DUP3 ADD SLOAD DUP2 MSTORE PUSH1 0x20 ADD PUSH1 0x3 DUP3 ADD PUSH0 SWAP1 SLOAD SWAP1 PUSH2 0x100 EXP SWAP1 DIV PUSH1 0xFF AND PUSH1 0x3 DUP2 GT ISZERO PUSH2 0x10B1 JUMPI PUSH2 0x10B0 PUSH2 0x13C5 JUMP JUMPDEST JUMPDEST PUSH1 0x3 DUP2 GT ISZERO PUSH2 0x10C3 JUMPI PUSH2 0x10C2 PUSH2 0x13C5 JUMP JUMPDEST JUMPDEST DUP2 MSTORE PUSH1 0x20 ADD PUSH1 0x4 DUP3 ADD SLOAD DUP2 MSTORE PUSH1 0x20 ADD PUSH1 0x5 DUP3 ADD PUSH0 SWAP1 SLOAD SWAP1 PUSH2 0x100 EXP SWAP1 DIV PUSH20 0xFFFFFFFFFFFFFFFFFFFFFFFFFFFFFFFFFFFFFFFF AND PUSH20 0xFFFFFFFFFFFFFFFFFFFFFFFFFFFFFFFFFFFFFFFF AND PUSH20 0xFFFFFFFFFFFFFFFFFFFFFFFFFFFFFFFFFFFFFFFF AND DUP2 MSTORE PUSH1 0x20 ADD PUSH1 0x6 DUP3 ADD SLOAD DUP2 MSTORE POP POP DUP3 DUP3 DUP2 MLOAD DUP2 LT PUSH2 0x1143 JUMPI PUSH2 0x1142 PUSH2 0x2295 JUMP JUMPDEST JUMPDEST PUSH1 0x20 MUL PUSH1 0x20 ADD ADD DUP2 SWAP1 MSTORE POP DUP1 DUP1 PUSH1 0x1 ADD SWAP2 POP POP PUSH2 0xF33 JUMP JUMPDEST POP DUP1 SWAP2 POP POP SWAP1 JUMP JUMPDEST PUSH0 DUP1 PUSH1 0x1 SWAP1 POP JUMPDEST PUSH1 0x2 SLOAD DUP2 LT ISZERO PUSH2 0x11F0 JUMPI DUP3 PUSH20 0xFFFFFFFFFFFFFFFFFFFFFFFFFFFFFFFFFFFFFFFF AND PUSH1 0x7 PUSH0 DUP4 DUP2 MSTORE PUSH1 0x20 ADD SWAP1 DUP2 MSTORE PUSH1 0x20 ADD PUSH0 KECCAK256 PUSH1 0x5 ADD PUSH0 SWAP1 SLOAD SWAP1 PUSH2 0x100 EXP SWAP1 DIV PUSH20 0xFFFFFFFFFFFFFFFFFFFFFFFFFFFFFFFFFFFFFFFF AND PUSH20 0xFFFFFFFFFFFFFFFFFFFFFFFFFFFFFFFFFFFFFFFF AND SUB PUSH2 0x11E3 JUMPI PUSH0 SWAP2 POP POP PUSH2 0x11F6 JUMP JUMPDEST DUP1 DUP1 PUSH1 0x1 ADD SWAP2 POP POP PUSH2 0x116A JUMP JUMPDEST POP PUSH1 0x1 SWAP1 POP JUMPDEST SWAP2 SWAP1 POP JUMP JUMPDEST PUSH0 DUP1 PUSH1 0x1 SWAP1 POP JUMPDEST PUSH1 0x3 SLOAD DUP2 LT ISZERO PUSH2 0x1288 JUMPI DUP3 PUSH20 0xFFFFFFFFFFFFFFFFFFFFFFFFFFFFFFFFFFFFFFFF AND PUSH1 0x8 PUSH0 DUP4 DUP2 MSTORE PUSH1 0x20 ADD SWAP1 DUP2 MSTORE PUSH1 0x20 ADD PUSH0 KECCAK256 PUSH1 0x5 ADD PUSH0 SWAP1 SLOAD SWAP1 PUSH2 0x100 EXP SWAP1 DIV PUSH20 0xFFFFFFFFFFFFFFFFFFFFFFFFFFFFFFFFFFFFFFFF AND PUSH20 0xFFFFFFFFFFFFFFFFFFFFFFFFFFFFFFFFFFFFFFFF AND SUB PUSH2 0x127B JUMPI PUSH0 SWAP2 POP POP PUSH2 0x128E JUMP JUMPDEST DUP1 DUP1 PUSH1 0x1 ADD SWAP2 POP POP PUSH2 0x1202 JUMP JUMPDEST POP PUSH1 0x1 SWAP1 POP JUMPDEST SWAP2 SWAP1 POP JUMP JUMPDEST PUSH1 0x40 MLOAD DUP1 PUSH1 0xC0 ADD PUSH1 0x40 MSTORE DUP1 PUSH1 0x60 DUP2 MSTORE PUSH1 0x20 ADD PUSH0 DUP2 MSTORE PUSH1 0x20 ADD PUSH0 DUP2 MSTORE PUSH1 0x20 ADD PUSH0 PUSH1 0x3 DUP2 GT ISZERO PUSH2 0x12C4 JUMPI PUSH2 0x12C3 PUSH2 0x13C5 JUMP JUMPDEST JUMPDEST DUP2 MSTORE PUSH1 0x20 ADD PUSH0 DUP2 MSTORE PUSH1 0x20 ADD PUSH0 PUSH20 0xFFFFFFFFFFFFFFFFFFFFFFFFFFFFFFFFFFFFFFFF AND DUP2 MSTORE POP SWAP1 JUMP JUMPDEST PUSH1 0x40 MLOAD DUP1 PUSH1 0xE0 ADD PUSH1 0x40 MSTORE DUP1 PUSH1 0x60 DUP2 MSTORE PUSH1 0x20 ADD PUSH1 0x60 DUP2 MSTORE PUSH1 0x20 ADD PUSH0 DUP2 MSTORE PUSH1 0x20 ADD PUSH0 PUSH1 0x3 DUP2 GT ISZERO PUSH2 0x131E JUMPI PUSH2 0x131D PUSH2 0x13C5 JUMP JUMPDEST JUMPDEST DUP2 MSTORE PUSH1 0x20 ADD PUSH0 DUP2 MSTORE PUSH1 0x20 ADD PUSH0 PUSH20 0xFFFFFFFFFFFFFFFFFFFFFFFFFFFFFFFFFFFFFFFF AND DUP2 MSTORE PUSH1 0x20 ADD PUSH0 DUP2 MSTORE POP SWAP1 JUMP JUMPDEST PUSH0 DUP1 REVERT JUMPDEST PUSH0 DUP1 REVERT JUMPDEST PUSH0 DUP2 SWAP1 POP SWAP2 SWAP1 POP JUMP JUMPDEST PUSH2 0x1366 DUP2 PUSH2 0x1354 JUMP JUMPDEST DUP2 EQ PUSH2 0x1370 JUMPI PUSH0 DUP1 REVERT JUMPDEST POP JUMP JUMPDEST PUSH0 DUP2 CALLDATALOAD SWAP1 POP PUSH2 0x1381 DUP2 PUSH2 0x135D JUMP JUMPDEST SWAP3 SWAP2 POP POP JUMP JUMPDEST PUSH0 DUP1 PUSH1 0x40 DUP4 DUP6 SUB SLT ISZERO PUSH2 0x139D JUMPI PUSH2 0x139C PUSH2 0x134C JUMP JUMPDEST JUMPDEST PUSH0 PUSH2 0x13AA DUP6 DUP3 DUP7 ADD PUSH2 0x1373 JUMP JUMPDEST SWAP3 POP POP PUSH1 0x20 PUSH2 0x13BB DUP6 DUP3 DUP7 ADD PUSH2 0x1373 JUMP JUMPDEST SWAP2 POP POP SWAP3 POP SWAP3 SWAP1 POP JUMP JUMPDEST PUSH32 0x4E487B7100000000000000000000000000000000000000000000000000000000 PUSH0 MSTORE PUSH1 0x21 PUSH1 0x4 MSTORE PUSH1 0x24 PUSH0 REVERT JUMPDEST PUSH1 0x3 DUP2 LT PUSH2 0x1403 JUMPI PUSH2 0x1402 PUSH2 0x13C5 JUMP JUMPDEST JUMPDEST POP JUMP JUMPDEST PUSH0 DUP2 SWAP1 POP PUSH2 0x1413 DUP3 PUSH2 0x13F2 JUMP JUMPDEST SWAP2 SWAP1 POP JUMP JUMPDEST PUSH0 PUSH2 0x1422 DUP3 PUSH2 0x1406 JUMP JUMPDEST SWAP1 POP SWAP2 SWAP1 POP JUMP JUMPDEST PUSH2 0x1432 DUP2 PUSH2 0x1418 JUMP JUMPDEST DUP3 MSTORE POP POP JUMP JUMPDEST PUSH0 PUSH1 0x20 DUP3 ADD SWAP1 POP PUSH2 0x144B PUSH0 DUP4 ADD DUP5 PUSH2 0x1429 JUMP JUMPDEST SWAP3 SWAP2 POP POP JUMP JUMPDEST PUSH0 DUP1 REVERT JUMPDEST PUSH0 DUP1 REVERT JUMPDEST PUSH0 DUP1 REVERT JUMPDEST PUSH0 DUP1 DUP4 PUSH1 0x1F DUP5 ADD SLT PUSH2 0x1472 JUMPI PUSH2 0x1471 PUSH2 0x1451 JUMP JUMPDEST JUMPDEST DUP3 CALLDATALOAD SWAP1 POP PUSH8 0xFFFFFFFFFFFFFFFF DUP2 GT ISZERO PUSH2 0x148F JUMPI PUSH2 0x148E PUSH2 0x1455 JUMP JUMPDEST JUMPDEST PUSH1 0x20 DUP4 ADD SWAP2 POP DUP4 PUSH1 0x1 DUP3 MUL DUP4 ADD GT ISZERO PUSH2 0x14AB JUMPI PUSH2 0x14AA PUSH2 0x1459 JUMP JUMPDEST JUMPDEST SWAP3 POP SWAP3 SWAP1 POP JUMP JUMPDEST PUSH1 0x4 DUP2 LT PUSH2 0x14BE JUMPI PUSH0 DUP1 REVERT JUMPDEST POP JUMP JUMPDEST PUSH0 DUP2 CALLDATALOAD SWAP1 POP PUSH2 0x14CF DUP2 PUSH2 0x14B2 JUMP JUMPDEST SWAP3 SWAP2 POP POP JUMP JUMPDEST PUSH0 DUP1 PUSH0 DUP1 PUSH1 0x60 DUP6 DUP8 SUB SLT ISZERO PUSH2 0x14ED JUMPI PUSH2 0x14EC PUSH2 0x134C JUMP JUMPDEST JUMPDEST PUSH0 DUP6 ADD CALLDATALOAD PUSH8 0xFFFFFFFFFFFFFFFF DUP2 GT ISZERO PUSH2 0x150A JUMPI PUSH2 0x1509 PUSH2 0x1350 JUMP JUMPDEST JUMPDEST PUSH2 0x1516 DUP8 DUP3 DUP9 ADD PUSH2 0x145D JUMP JUMPDEST SWAP5 POP SWAP5 POP POP PUSH1 0x20 PUSH2 0x1529 DUP8 DUP3 DUP9 ADD PUSH2 0x1373 JUMP JUMPDEST SWAP3 POP POP PUSH1 0x40 PUSH2 0x153A DUP8 DUP3 DUP9 ADD PUSH2 0x14C1 JUMP JUMPDEST SWAP2 POP POP SWAP3 SWAP6 SWAP2 SWAP5 POP SWAP3 POP JUMP JUMPDEST PUSH0 DUP1 PUSH0 DUP1 PUSH0 DUP1 PUSH1 0x80 DUP8 DUP10 SUB SLT ISZERO PUSH2 0x1560 JUMPI PUSH2 0x155F PUSH2 0x134C JUMP JUMPDEST JUMPDEST PUSH0 DUP8 ADD CALLDATALOAD PUSH8 0xFFFFFFFFFFFFFFFF DUP2 GT ISZERO PUSH2 0x157D JUMPI PUSH2 0x157C PUSH2 0x1350 JUMP JUMPDEST JUMPDEST PUSH2 0x1589 DUP10 DUP3 DUP11 ADD PUSH2 0x145D JUMP JUMPDEST SWAP7 POP SWAP7 POP POP PUSH1 0x20 DUP8 ADD CALLDATALOAD PUSH8 0xFFFFFFFFFFFFFFFF DUP2 GT ISZERO PUSH2 0x15AC JUMPI PUSH2 0x15AB PUSH2 0x1350 JUMP JUMPDEST JUMPDEST PUSH2 0x15B8 DUP10 DUP3 DUP11 ADD PUSH2 0x145D JUMP JUMPDEST SWAP5 POP SWAP5 POP POP PUSH1 0x40 PUSH2 0x15CB DUP10 DUP3 DUP11 ADD PUSH2 0x1373 JUMP JUMPDEST SWAP3 POP POP PUSH1 0x60 PUSH2 0x15DC DUP10 DUP3 DUP11 ADD PUSH2 0x14C1 JUMP JUMPDEST SWAP2 POP POP SWAP3 SWAP6 POP SWAP3 SWAP6 POP SWAP3 SWAP6 JUMP JUMPDEST PUSH0 PUSH20 0xFFFFFFFFFFFFFFFFFFFFFFFFFFFFFFFFFFFFFFFF DUP3 AND SWAP1 POP SWAP2 SWAP1 POP JUMP JUMPDEST PUSH0 PUSH2 0x1612 DUP3 PUSH2 0x15E9 JUMP JUMPDEST SWAP1 POP SWAP2 SWAP1 POP JUMP JUMPDEST PUSH2 0x1622 DUP2 PUSH2 0x1608 JUMP JUMPDEST DUP3 MSTORE POP POP JUMP JUMPDEST PUSH0 PUSH1 0x20 DUP3 ADD SWAP1 POP PUSH2 0x163B PUSH0 DUP4 ADD DUP5 PUSH2 0x1619 JUMP JUMPDEST SWAP3 SWAP2 POP POP JUMP JUMPDEST PUSH0 DUP2 MLOAD SWAP1 POP SWAP2 SWAP1 POP JUMP JUMPDEST PUSH0 DUP3 DUP3 MSTORE PUSH1 0x20 DUP3 ADD SWAP1 POP SWAP3 SWAP2 POP POP JUMP JUMPDEST PUSH0 DUP2 SWAP1 POP PUSH1 0x20 DUP3 ADD SWAP1 POP SWAP2 SWAP1 POP JUMP JUMPDEST PUSH0 DUP2 MLOAD SWAP1 POP SWAP2 SWAP1 POP JUMP JUMPDEST PUSH0 DUP3 DUP3 MSTORE PUSH1 0x20 DUP3 ADD SWAP1 POP SWAP3 SWAP2 POP POP JUMP JUMPDEST DUP3 DUP2 DUP4 MCOPY PUSH0 DUP4 DUP4 ADD MSTORE POP POP POP JUMP JUMPDEST PUSH0 PUSH1 0x1F NOT PUSH1 0x1F DUP4 ADD AND SWAP1 POP SWAP2 SWAP1 POP JUMP JUMPDEST PUSH0 PUSH2 0x16AC DUP3 PUSH2 0x166A JUMP JUMPDEST PUSH2 0x16B6 DUP2 DUP6 PUSH2 0x1674 JUMP JUMPDEST SWAP4 POP PUSH2 0x16C6 DUP2 DUP6 PUSH1 0x20 DUP7 ADD PUSH2 0x1684 JUMP JUMPDEST PUSH2 0x16CF DUP2 PUSH2 0x1692 JUMP JUMPDEST DUP5 ADD SWAP2 POP POP SWAP3 SWAP2 POP POP JUMP JUMPDEST PUSH2 0x16E3 DUP2 PUSH2 0x1354 JUMP JUMPDEST DUP3 MSTORE POP POP JUMP JUMPDEST PUSH1 0x4 DUP2 LT PUSH2 0x16FA JUMPI PUSH2 0x16F9 PUSH2 0x13C5 JUMP JUMPDEST JUMPDEST POP JUMP JUMPDEST PUSH0 DUP2 SWAP1 POP PUSH2 0x170A DUP3 PUSH2 0x16E9 JUMP JUMPDEST SWAP2 SWAP1 POP JUMP JUMPDEST PUSH0 PUSH2 0x1719 DUP3 PUSH2 0x16FD JUMP JUMPDEST SWAP1 POP SWAP2 SWAP1 POP JUMP JUMPDEST PUSH2 0x1729 DUP2 PUSH2 0x170F JUMP JUMPDEST DUP3 MSTORE POP POP JUMP JUMPDEST PUSH2 0x1738 DUP2 PUSH2 0x1608 JUMP JUMPDEST DUP3 MSTORE POP POP JUMP JUMPDEST PUSH0 PUSH1 0xC0 DUP4 ADD PUSH0 DUP4 ADD MLOAD DUP5 DUP3 SUB PUSH0 DUP7 ADD MSTORE PUSH2 0x1758 DUP3 DUP3 PUSH2 0x16A2 JUMP JUMPDEST SWAP2 POP POP PUSH1 0x20 DUP4 ADD MLOAD PUSH2 0x176D PUSH1 0x20 DUP7 ADD DUP3 PUSH2 0x16DA JUMP JUMPDEST POP PUSH1 0x40 DUP4 ADD MLOAD PUSH2 0x1780 PUSH1 0x40 DUP7 ADD DUP3 PUSH2 0x16DA JUMP JUMPDEST POP PUSH1 0x60 DUP4 ADD MLOAD PUSH2 0x1793 PUSH1 0x60 DUP7 ADD DUP3 PUSH2 0x1720 JUMP JUMPDEST POP PUSH1 0x80 DUP4 ADD MLOAD PUSH2 0x17A6 PUSH1 0x80 DUP7 ADD DUP3 PUSH2 0x16DA JUMP JUMPDEST POP PUSH1 0xA0 DUP4 ADD MLOAD PUSH2 0x17B9 PUSH1 0xA0 DUP7 ADD DUP3 PUSH2 0x172F JUMP JUMPDEST POP DUP1 SWAP2 POP POP SWAP3 SWAP2 POP POP JUMP JUMPDEST PUSH0 PUSH2 0x17CF DUP4 DUP4 PUSH2 0x173E JUMP JUMPDEST SWAP1 POP SWAP3 SWAP2 POP POP JUMP JUMPDEST PUSH0 PUSH1 0x20 DUP3 ADD SWAP1 POP SWAP2 SWAP1 POP JUMP JUMPDEST PUSH0 PUSH2 0x17ED DUP3 PUSH2 0x1641 JUMP JUMPDEST PUSH2 0x17F7 DUP2 DUP6 PUSH2 0x164B JUMP JUMPDEST SWAP4 POP DUP4 PUSH1 0x20 DUP3 MUL DUP6 ADD PUSH2 0x1809 DUP6 PUSH2 0x165B JUMP JUMPDEST DUP1 PUSH0 JUMPDEST DUP6 DUP2 LT ISZERO PUSH2 0x1844 JUMPI DUP5 DUP5 SUB DUP10 MSTORE DUP2 MLOAD PUSH2 0x1825 DUP6 DUP3 PUSH2 0x17C4 JUMP JUMPDEST SWAP5 POP PUSH2 0x1830 DUP4 PUSH2 0x17D7 JUMP JUMPDEST SWAP3 POP PUSH1 0x20 DUP11 ADD SWAP10 POP POP PUSH1 0x1 DUP2 ADD SWAP1 POP PUSH2 0x180C JUMP JUMPDEST POP DUP3 SWAP8 POP DUP8 SWAP6 POP POP POP POP POP POP SWAP3 SWAP2 POP POP JUMP JUMPDEST PUSH0 PUSH1 0x20 DUP3 ADD SWAP1 POP DUP2 DUP2 SUB PUSH0 DUP4 ADD MSTORE PUSH2 0x186E DUP2 DUP5 PUSH2 0x17E3 JUMP JUMPDEST SWAP1 POP SWAP3 SWAP2 POP POP JUMP JUMPDEST PUSH0 DUP2 MLOAD SWAP1 POP SWAP2 SWAP1 POP JUMP JUMPDEST PUSH0 DUP3 DUP3 MSTORE PUSH1 0x20 DUP3 ADD SWAP1 POP SWAP3 SWAP2 POP POP JUMP JUMPDEST PUSH0 DUP2 SWAP1 POP PUSH1 0x20 DUP3 ADD SWAP1 POP SWAP2 SWAP1 POP JUMP JUMPDEST PUSH0 PUSH1 0xE0 DUP4 ADD PUSH0 DUP4 ADD MLOAD DUP5 DUP3 SUB PUSH0 DUP7 ADD MSTORE PUSH2 0x18B9 DUP3 DUP3 PUSH2 0x16A2 JUMP JUMPDEST SWAP2 POP POP PUSH1 0x20 DUP4 ADD MLOAD DUP5 DUP3 SUB PUSH1 0x20 DUP7 ADD MSTORE PUSH2 0x18D3 DUP3 DUP3 PUSH2 0x16A2 JUMP JUMPDEST SWAP2 POP POP PUSH1 0x40 DUP4 ADD MLOAD PUSH2 0x18E8 PUSH1 0x40 DUP7 ADD DUP3 PUSH2 0x16DA JUMP JUMPDEST POP PUSH1 0x60 DUP4 ADD MLOAD PUSH2 0x18FB PUSH1 0x60 DUP7 ADD DUP3 PUSH2 0x1720 JUMP JUMPDEST POP PUSH1 0x80 DUP4 ADD MLOAD PUSH2 0x190E PUSH1 0x80 DUP7 ADD DUP3 PUSH2 0x16DA JUMP JUMPDEST POP PUSH1 0xA0 DUP4 ADD MLOAD PUSH2 0x1921 PUSH1 0xA0 DUP7 ADD DUP3 PUSH2 0x172F JUMP JUMPDEST POP PUSH1 0xC0 DUP4 ADD MLOAD PUSH2 0x1934 PUSH1 0xC0 DUP7 ADD DUP3 PUSH2 0x16DA JUMP JUMPDEST POP DUP1 SWAP2 POP POP SWAP3 SWAP2 POP POP JUMP JUMPDEST PUSH0 PUSH2 0x194A DUP4 DUP4 PUSH2 0x189F JUMP JUMPDEST SWAP1 POP SWAP3 SWAP2 POP POP JUMP JUMPDEST PUSH0 PUSH1 0x20 DUP3 ADD SWAP1 POP SWAP2 SWAP1 POP JUMP JUMPDEST PUSH0 PUSH2 0x1968 DUP3 PUSH2 0x1876 JUMP JUMPDEST PUSH2 0x1972 DUP2 DUP6 PUSH2 0x1880 JUMP JUMPDEST SWAP4 POP DUP4 PUSH1 0x20 DUP3 MUL DUP6 ADD PUSH2 0x1984 DUP6 PUSH2 0x1890 JUMP JUMPDEST DUP1 PUSH0 JUMPDEST DUP6 DUP2 LT ISZERO PUSH2 0x19BF JUMPI DUP5 DUP5 SUB DUP10 MSTORE DUP2 MLOAD PUSH2 0x19A0 DUP6 DUP3 PUSH2 0x193F JUMP JUMPDEST SWAP5 POP PUSH2 0x19AB DUP4 PUSH2 0x1952 JUMP JUMPDEST SWAP3 POP PUSH1 0x20 DUP11 ADD SWAP10 POP POP PUSH1 0x1 DUP2 ADD SWAP1 POP PUSH2 0x1987 JUMP JUMPDEST POP DUP3 SWAP8 POP DUP8 SWAP6 POP POP POP POP POP POP SWAP3 SWAP2 POP POP JUMP JUMPDEST PUSH0 PUSH1 0x20 DUP3 ADD SWAP1 POP DUP2 DUP2 SUB PUSH0 DUP4 ADD MSTORE PUSH2 0x19E9 DUP2 DUP5 PUSH2 0x195E JUMP JUMPDEST SWAP1 POP SWAP3 SWAP2 POP POP JUMP JUMPDEST PUSH0 DUP3 DUP3 MSTORE PUSH1 0x20 DUP3 ADD SWAP1 POP SWAP3 SWAP2 POP POP JUMP JUMPDEST PUSH32 0x566F74696E672074696D65206973206F76657200000000000000000000000000 PUSH0 DUP3 ADD MSTORE POP JUMP JUMPDEST PUSH0 PUSH2 0x1A35 PUSH1 0x13 DUP4 PUSH2 0x19F1 JUMP JUMPDEST SWAP2 POP PUSH2 0x1A40 DUP3 PUSH2 0x1A01 JUMP JUMPDEST PUSH1 0x20 DUP3 ADD SWAP1 POP SWAP2 SWAP1 POP JUMP JUMPDEST PUSH0 PUSH1 0x20 DUP3 ADD SWAP1 POP DUP2 DUP2 SUB PUSH0 DUP4 ADD MSTORE PUSH2 0x1A62 DUP2 PUSH2 0x1A29 JUMP JUMPDEST SWAP1 POP SWAP2 SWAP1 POP JUMP JUMPDEST PUSH32 0x566F74696E6720686173206E6F74207374617274656420796574000000000000 PUSH0 DUP3 ADD MSTORE POP JUMP JUMPDEST PUSH0 PUSH2 0x1A9D PUSH1 0x1A DUP4 PUSH2 0x19F1 JUMP JUMPDEST SWAP2 POP PUSH2 0x1AA8 DUP3 PUSH2 0x1A69 JUMP JUMPDEST PUSH1 0x20 DUP3 ADD SWAP1 POP SWAP2 SWAP1 POP JUMP JUMPDEST PUSH0 PUSH1 0x20 DUP3 ADD SWAP1 POP DUP2 DUP2 SUB PUSH0 DUP4 ADD MSTORE PUSH2 0x1ACA DUP2 PUSH2 0x1A91 JUMP JUMPDEST SWAP1 POP SWAP2 SWAP1 POP JUMP JUMPDEST PUSH32 0x596F75206861766520616C726561647920766F74656400000000000000000000 PUSH0 DUP3 ADD MSTORE POP JUMP JUMPDEST PUSH0 PUSH2 0x1B05 PUSH1 0x16 DUP4 PUSH2 0x19F1 JUMP JUMPDEST SWAP2 POP PUSH2 0x1B10 DUP3 PUSH2 0x1AD1 JUMP JUMPDEST PUSH1 0x20 DUP3 ADD SWAP1 POP SWAP2 SWAP1 POP JUMP JUMPDEST PUSH0 PUSH1 0x20 DUP3 ADD SWAP1 POP DUP2 DUP2 SUB PUSH0 DUP4 ADD MSTORE PUSH2 0x1B32 DUP2 PUSH2 0x1AF9 JUMP JUMPDEST SWAP1 POP SWAP2 SWAP1 POP JUMP JUMPDEST PUSH32 0x596F7520617265206E6F7420617574686F7572697A6564000000000000000000 PUSH0 DUP3 ADD MSTORE POP JUMP JUMPDEST PUSH0 PUSH2 0x1B6D PUSH1 0x17 DUP4 PUSH2 0x19F1 JUMP JUMPDEST SWAP2 POP PUSH2 0x1B78 DUP3 PUSH2 0x1B39 JUMP JUMPDEST PUSH1 0x20 DUP3 ADD SWAP1 POP SWAP2 SWAP1 POP JUMP JUMPDEST PUSH0 PUSH1 0x20 DUP3 ADD SWAP1 POP DUP2 DUP2 SUB PUSH0 DUP4 ADD MSTORE PUSH2 0x1B9A DUP2 PUSH2 0x1B61 JUMP JUMPDEST SWAP1 POP SWAP2 SWAP1 POP JUMP JUMPDEST PUSH32 0x43616E646964617465204964206973206E6F7420636F72726563740000000000 PUSH0 DUP3 ADD MSTORE POP JUMP JUMPDEST PUSH0 PUSH2 0x1BD5 PUSH1 0x1B DUP4 PUSH2 0x19F1 JUMP JUMPDEST SWAP2 POP PUSH2 0x1BE0 DUP3 PUSH2 0x1BA1 JUMP JUMPDEST PUSH1 0x20 DUP3 ADD SWAP1 POP SWAP2 SWAP1 POP JUMP JUMPDEST PUSH0 PUSH1 0x20 DUP3 ADD SWAP1 POP DUP2 DUP2 SUB PUSH0 DUP4 ADD MSTORE PUSH2 0x1C02 DUP2 PUSH2 0x1BC9 JUMP JUMPDEST SWAP1 POP SWAP2 SWAP1 POP JUMP JUMPDEST PUSH32 0x4E487B7100000000000000000000000000000000000000000000000000000000 PUSH0 MSTORE PUSH1 0x11 PUSH1 0x4 MSTORE PUSH1 0x24 PUSH0 REVERT JUMPDEST PUSH0 PUSH2 0x1C40 DUP3 PUSH2 0x1354 JUMP JUMPDEST SWAP2 POP PUSH32 0xFFFFFFFFFFFFFFFFFFFFFFFFFFFFFFFFFFFFFFFFFFFFFFFFFFFFFFFFFFFFFFFF DUP3 SUB PUSH2 0x1C72 JUMPI PUSH2 0x1C71 PUSH2 0x1C09 JUMP JUMPDEST JUMPDEST PUSH1 0x1 DUP3 ADD SWAP1 POP SWAP2 SWAP1 POP JUMP JUMPDEST PUSH32 0x4E6F742061757468756F72697A65640000000000000000000000000000000000 PUSH0 DUP3 ADD MSTORE POP JUMP JUMPDEST PUSH0 PUSH2 0x1CB1 PUSH1 0xF DUP4 PUSH2 0x19F1 JUMP JUMPDEST SWAP2 POP PUSH2 0x1CBC DUP3 PUSH2 0x1C7D JUMP JUMPDEST PUSH1 0x20 DUP3 ADD SWAP1 POP SWAP2 SWAP1 POP JUMP JUMPDEST PUSH0 PUSH1 0x20 DUP3 ADD SWAP1 POP DUP2 DUP2 SUB PUSH0 DUP4 ADD MSTORE PUSH2 0x1CDE DUP2 PUSH2 0x1CA5 JUMP JUMPDEST SWAP1 POP SWAP2 SWAP1 POP JUMP JUMPDEST PUSH32 0x6E6F7420656C696769626C6520666F7220766F74696E67000000000000000000 PUSH0 DUP3 ADD MSTORE POP JUMP JUMPDEST PUSH0 PUSH2 0x1D19 PUSH1 0x17 DUP4 PUSH2 0x19F1 JUMP JUMPDEST SWAP2 POP PUSH2 0x1D24 DUP3 PUSH2 0x1CE5 JUMP JUMPDEST PUSH1 0x20 DUP3 ADD SWAP1 POP SWAP2 SWAP1 POP JUMP JUMPDEST PUSH0 PUSH1 0x20 DUP3 ADD SWAP1 POP DUP2 DUP2 SUB PUSH0 DUP4 ADD MSTORE PUSH2 0x1D46 DUP2 PUSH2 0x1D0D JUMP JUMPDEST SWAP1 POP SWAP2 SWAP1 POP JUMP JUMPDEST PUSH32 0x596F752061726520616C72656164792072656769737465726564000000000000 PUSH0 DUP3 ADD MSTORE POP JUMP JUMPDEST PUSH0 PUSH2 0x1D81 PUSH1 0x1A DUP4 PUSH2 0x19F1 JUMP JUMPDEST SWAP2 POP PUSH2 0x1D8C DUP3 PUSH2 0x1D4D JUMP JUMPDEST PUSH1 0x20 DUP3 ADD SWAP1 POP SWAP2 SWAP1 POP JUMP JUMPDEST PUSH0 PUSH1 0x20 DUP3 ADD SWAP1 POP DUP2 DUP2 SUB PUSH0 DUP4 ADD MSTORE PUSH2 0x1DAE DUP2 PUSH2 0x1D75 JUMP JUMPDEST SWAP1 POP SWAP2 SWAP1 POP JUMP JUMPDEST PUSH32 0x4E487B7100000000000000000000000000000000000000000000000000000000 PUSH0 MSTORE PUSH1 0x41 PUSH1 0x4 MSTORE PUSH1 0x24 PUSH0 REVERT JUMPDEST PUSH32 0x4E487B7100000000000000000000000000000000000000000000000000000000 PUSH0 MSTORE PUSH1 0x22 PUSH1 0x4 MSTORE PUSH1 0x24 PUSH0 REVERT JUMPDEST PUSH0 PUSH1 0x2 DUP3 DIV SWAP1 POP PUSH1 0x1 DUP3 AND DUP1 PUSH2 0x1E26 JUMPI PUSH1 0x7F DUP3 AND SWAP2 POP JUMPDEST PUSH1 0x20 DUP3 LT DUP2 SUB PUSH2 0x1E39 JUMPI PUSH2 0x1E38 PUSH2 0x1DE2 JUMP JUMPDEST JUMPDEST POP SWAP2 SWAP1 POP JUMP JUMPDEST PUSH0 DUP2 SWAP1 POP DUP2 PUSH0 MSTORE PUSH1 0x20 PUSH0 KECCAK256 SWAP1 POP SWAP2 SWAP1 POP JUMP JUMPDEST PUSH0 PUSH1 0x20 PUSH1 0x1F DUP4 ADD DIV SWAP1 POP SWAP2 SWAP1 POP JUMP JUMPDEST PUSH0 DUP3 DUP3 SHL SWAP1 POP SWAP3 SWAP2 POP POP JUMP JUMPDEST PUSH0 PUSH1 0x8 DUP4 MUL PUSH2 0x1E9B PUSH32 0xFFFFFFFFFFFFFFFFFFFFFFFFFFFFFFFFFFFFFFFFFFFFFFFFFFFFFFFFFFFFFFFF DUP3 PUSH2 0x1E60 JUMP JUMPDEST PUSH2 0x1EA5 DUP7 DUP4 PUSH2 0x1E60 JUMP JUMPDEST SWAP6 POP DUP1 NOT DUP5 AND SWAP4 POP DUP1 DUP7 AND DUP5 OR SWAP3 POP POP POP SWAP4 SWAP3 POP POP POP JUMP JUMPDEST PUSH0 DUP2 SWAP1 POP SWAP2 SWAP1 POP JUMP JUMPDEST PUSH0 PUSH2 0x1EE0 PUSH2 0x1EDB PUSH2 0x1ED6 DUP5 PUSH2 0x1354 JUMP JUMPDEST PUSH2 0x1EBD JUMP JUMPDEST PUSH2 0x1354 JUMP JUMPDEST SWAP1 POP SWAP2 SWAP1 POP JUMP JUMPDEST PUSH0 DUP2 SWAP1 POP SWAP2 SWAP1 POP JUMP JUMPDEST PUSH2 0x1EF9 DUP4 PUSH2 0x1EC6 JUMP JUMPDEST PUSH2 0x1F0D PUSH2 0x1F05 DUP3 PUSH2 0x1EE7 JUMP JUMPDEST DUP5 DUP5 SLOAD PUSH2 0x1E6C JUMP JUMPDEST DUP3 SSTORE POP POP POP POP JUMP JUMPDEST PUSH0 SWAP1 JUMP JUMPDEST PUSH2 0x1F21 PUSH2 0x1F15 JUMP JUMPDEST PUSH2 0x1F2C DUP2 DUP5 DUP5 PUSH2 0x1EF0 JUMP JUMPDEST POP POP POP JUMP JUMPDEST JUMPDEST DUP2 DUP2 LT ISZERO PUSH2 0x1F4F JUMPI PUSH2 0x1F44 PUSH0 DUP3 PUSH2 0x1F19 JUMP JUMPDEST PUSH1 0x1 DUP2 ADD SWAP1 POP PUSH2 0x1F32 JUMP JUMPDEST POP POP JUMP JUMPDEST PUSH1 0x1F DUP3 GT ISZERO PUSH2 0x1F94 JUMPI PUSH2 0x1F65 DUP2 PUSH2 0x1E3F JUMP JUMPDEST PUSH2 0x1F6E DUP5 PUSH2 0x1E51 JUMP JUMPDEST DUP2 ADD PUSH1 0x20 DUP6 LT ISZERO PUSH2 0x1F7D JUMPI DUP2 SWAP1 POP JUMPDEST PUSH2 0x1F91 PUSH2 0x1F89 DUP6 PUSH2 0x1E51 JUMP JUMPDEST DUP4 ADD DUP3 PUSH2 0x1F31 JUMP JUMPDEST POP POP JUMPDEST POP POP POP JUMP JUMPDEST PUSH0 DUP3 DUP3 SHR SWAP1 POP SWAP3 SWAP2 POP POP JUMP JUMPDEST PUSH0 PUSH2 0x1FB4 PUSH0 NOT DUP5 PUSH1 0x8 MUL PUSH2 0x1F99 JUMP JUMPDEST NOT DUP1 DUP4 AND SWAP2 POP POP SWAP3 SWAP2 POP POP JUMP JUMPDEST PUSH0 PUSH2 0x1FCC DUP4 DUP4 PUSH2 0x1FA5 JUMP JUMPDEST SWAP2 POP DUP3 PUSH1 0x2 MUL DUP3 OR SWAP1 POP SWAP3 SWAP2 POP POP JUMP JUMPDEST PUSH2 0x1FE5 DUP3 PUSH2 0x166A JUMP JUMPDEST PUSH8 0xFFFFFFFFFFFFFFFF DUP2 GT ISZERO PUSH2 0x1FFE JUMPI PUSH2 0x1FFD PUSH2 0x1DB5 JUMP JUMPDEST JUMPDEST PUSH2 0x2008 DUP3 SLOAD PUSH2 0x1E0F JUMP JUMPDEST PUSH2 0x2013 DUP3 DUP3 DUP6 PUSH2 0x1F53 JUMP JUMPDEST PUSH0 PUSH1 0x20 SWAP1 POP PUSH1 0x1F DUP4 GT PUSH1 0x1 DUP2 EQ PUSH2 0x2044 JUMPI PUSH0 DUP5 ISZERO PUSH2 0x2032 JUMPI DUP3 DUP8 ADD MLOAD SWAP1 POP JUMPDEST PUSH2 0x203C DUP6 DUP3 PUSH2 0x1FC1 JUMP JUMPDEST DUP7 SSTORE POP PUSH2 0x20A3 JUMP JUMPDEST PUSH1 0x1F NOT DUP5 AND PUSH2 0x2052 DUP7 PUSH2 0x1E3F JUMP JUMPDEST PUSH0 JUMPDEST DUP3 DUP2 LT ISZERO PUSH2 0x2079 JUMPI DUP5 DUP10 ADD MLOAD DUP3 SSTORE PUSH1 0x1 DUP3 ADD SWAP2 POP PUSH1 0x20 DUP6 ADD SWAP5 POP PUSH1 0x20 DUP2 ADD SWAP1 POP PUSH2 0x2054 JUMP JUMPDEST DUP7 DUP4 LT ISZERO PUSH2 0x2096 JUMPI DUP5 DUP10 ADD MLOAD PUSH2 0x2092 PUSH1 0x1F DUP10 AND DUP3 PUSH2 0x1FA5 JUMP JUMPDEST DUP4 SSTORE POP JUMPDEST PUSH1 0x1 PUSH1 0x2 DUP9 MUL ADD DUP9 SSTORE POP POP POP JUMPDEST POP POP POP POP POP POP JUMP JUMPDEST PUSH32 0x43616E64696461746520526567697374726174696F6E2046756C6C0000000000 PUSH0 DUP3 ADD MSTORE POP JUMP JUMPDEST PUSH0 PUSH2 0x20DF PUSH1 0x1B DUP4 PUSH2 0x19F1 JUMP JUMPDEST SWAP2 POP PUSH2 0x20EA DUP3 PUSH2 0x20AB JUMP JUMPDEST PUSH1 0x20 DUP3 ADD SWAP1 POP SWAP2 SWAP1 POP JUMP JUMPDEST PUSH0 PUSH1 0x20 DUP3 ADD SWAP1 POP DUP2 DUP2 SUB PUSH0 DUP4 ADD MSTORE PUSH2 0x210C DUP2 PUSH2 0x20D3 JUMP JUMPDEST SWAP1 POP SWAP2 SWAP1 POP JUMP JUMPDEST PUSH32 0x456C656374696F6E20436F6D6D6973696F6E206E6F7420616C6C6F7765642074 PUSH0 DUP3 ADD MSTORE PUSH32 0x6F20726567697374657200000000000000000000000000000000000000000000 PUSH1 0x20 DUP3 ADD MSTORE POP JUMP JUMPDEST PUSH0 PUSH2 0x216D PUSH1 0x2A DUP4 PUSH2 0x19F1 JUMP JUMPDEST SWAP2 POP PUSH2 0x2178 DUP3 PUSH2 0x2113 JUMP JUMPDEST PUSH1 0x40 DUP3 ADD SWAP1 POP SWAP2 SWAP1 POP JUMP JUMPDEST PUSH0 PUSH1 0x20 DUP3 ADD SWAP1 POP DUP2 DUP2 SUB PUSH0 DUP4 ADD MSTORE PUSH2 0x219A DUP2 PUSH2 0x2161 JUMP JUMPDEST SWAP1 POP SWAP2 SWAP1 POP JUMP JUMPDEST PUSH32 0x5F656E6454696D654475726174696F6E206D7573742062652067726561746572 PUSH0 DUP3 ADD MSTORE PUSH32 0x207468616E203120686F75720000000000000000000000000000000000000000 PUSH1 0x20 DUP3 ADD MSTORE POP JUMP JUMPDEST PUSH0 PUSH2 0x21FB PUSH1 0x2C DUP4 PUSH2 0x19F1 JUMP JUMPDEST SWAP2 POP PUSH2 0x2206 DUP3 PUSH2 0x21A1 JUMP JUMPDEST PUSH1 0x40 DUP3 ADD SWAP1 POP SWAP2 SWAP1 POP JUMP JUMPDEST PUSH0 PUSH1 0x20 DUP3 ADD SWAP1 POP DUP2 DUP2 SUB PUSH0 DUP4 ADD MSTORE PUSH2 0x2228 DUP2 PUSH2 0x21EF JUMP JUMPDEST SWAP1 POP SWAP2 SWAP1 POP JUMP JUMPDEST PUSH0 PUSH2 0x2239 DUP3 PUSH2 0x1354 JUMP JUMPDEST SWAP2 POP PUSH2 0x2244 DUP4 PUSH2 0x1354 JUMP JUMPDEST SWAP3 POP DUP3 DUP3 ADD SWAP1 POP DUP1 DUP3 GT ISZERO PUSH2 0x225C JUMPI PUSH2 0x225B PUSH2 0x1C09 JUMP JUMPDEST JUMPDEST SWAP3 SWAP2 POP POP JUMP JUMPDEST PUSH0 PUSH2 0x226C DUP3 PUSH2 0x1354 JUMP JUMPDEST SWAP2 POP PUSH2 0x2277 DUP4 PUSH2 0x1354 JUMP JUMPDEST SWAP3 POP DUP3 DUP3 SUB SWAP1 POP DUP2 DUP2 GT ISZERO PUSH2 0x228F JUMPI PUSH2 0x228E PUSH2 0x1C09 JUMP JUMPDEST JUMPDEST SWAP3 SWAP2 POP POP JUMP JUMPDEST PUSH32 0x4E487B7100000000000000000000000000000000000000000000000000000000 PUSH0 MSTORE PUSH1 0x32 PUSH1 0x4 MSTORE PUSH1 0x24 PUSH0 REVERT INVALID LOG2 PUSH5 0x6970667358 0x22 SLT KECCAK256 ADDMOD ADDRESS PUSH3 0x2344C5 0xDC SIGNEXTEND PUSH15 0x6BBB65FFB8F236940B0B453611872 0xD0 0x24 0xDF 0xEB SLT PUSH8 0x9D3A64736F6C6343 STOP ADDMOD BYTE STOP CALLER "
				},
				"gasEstimates": {
					"creation": {
						"codeDepositCost": "1790400",
						"executionCost": "70359",
						"totalCost": "1860759"
					},
					"external": {
						"announceVotingResult()": "infinite",
						"castVote(uint256,uint256)": "infinite",
						"electionCommission()": "2549",
						"emergencyStopVoting()": "26575",
						"getCandidateList()": "infinite",
						"getVoterList()": "infinite",
						"getVotingStatus()": "6885",
						"registerCandidate(string,string,uint256,uint8)": "infinite",
						"registerVoter(string,uint256,uint8)": "infinite",
						"setVotingPeriod(uint256,uint256)": "infinite",
						"winner()": "2596"
					},
					"internal": {
						"isCandidateNotRegistered(address)": "infinite",
						"isVoterNotRegistered(address)": "infinite"
					}
				},
				"methodIdentifiers": {
					"announceVotingResult()": "6ce2ccc0",
					"castVote(uint256,uint256)": "2c0a3f89",
					"electionCommission()": "aab46b7f",
					"emergencyStopVoting()": "9fa4e440",
					"getCandidateList()": "fdbc4006",
					"getVoterList()": "b28d92ae",
					"getVotingStatus()": "581c281c",
					"registerCandidate(string,string,uint256,uint8)": "982c777d",
					"registerVoter(string,uint256,uint8)": "81ba732f",
					"setVotingPeriod(uint256,uint256)": "a15a36c7",
					"winner()": "dfbf53ae"
				}
			},
			"storageLayout": {
				"storage": [
					{
						"astId": 33,
						"contract": "contracts/Projects/Voter.sol:Vote",
						"label": "electionCommission",
						"offset": 0,
						"slot": "0",
						"type": "t_address"
					},
					{
						"astId": 35,
						"contract": "contracts/Projects/Voter.sol:Vote",
						"label": "winner",
						"offset": 0,
						"slot": "1",
						"type": "t_address"
					},
					{
						"astId": 38,
						"contract": "contracts/Projects/Voter.sol:Vote",
						"label": "nextVoterId",
						"offset": 0,
						"slot": "2",
						"type": "t_uint256"
					},
					{
						"astId": 41,
						"contract": "contracts/Projects/Voter.sol:Vote",
						"label": "nextCandidateId",
						"offset": 0,
						"slot": "3",
						"type": "t_uint256"
					},
					{
						"astId": 43,
						"contract": "contracts/Projects/Voter.sol:Vote",
						"label": "startTime",
						"offset": 0,
						"slot": "4",
						"type": "t_uint256"
					},
					{
						"astId": 45,
						"contract": "contracts/Projects/Voter.sol:Vote",
						"label": "endTime",
						"offset": 0,
						"slot": "5",
						"type": "t_uint256"
					},
					{
						"astId": 47,
						"contract": "contracts/Projects/Voter.sol:Vote",
						"label": "stopVoting",
						"offset": 0,
						"slot": "6",
						"type": "t_bool"
					},
					{
						"astId": 52,
						"contract": "contracts/Projects/Voter.sol:Vote",
						"label": "voterDetails",
						"offset": 0,
						"slot": "7",
						"type": "t_mapping(t_uint256,t_struct(Voter)15_storage)"
					},
					{
						"astId": 57,
						"contract": "contracts/Projects/Voter.sol:Vote",
						"label": "candidateDetails",
						"offset": 0,
						"slot": "8",
						"type": "t_mapping(t_uint256,t_struct(Candidate)31_storage)"
					}
				],
				"types": {
					"t_address": {
						"encoding": "inplace",
						"label": "address",
						"numberOfBytes": "20"
					},
					"t_bool": {
						"encoding": "inplace",
						"label": "bool",
						"numberOfBytes": "1"
					},
					"t_enum(Gender)66": {
						"encoding": "inplace",
						"label": "enum Vote.Gender",
						"numberOfBytes": "1"
					},
					"t_mapping(t_uint256,t_struct(Candidate)31_storage)": {
						"encoding": "mapping",
						"key": "t_uint256",
						"label": "mapping(uint256 => struct Vote.Candidate)",
						"numberOfBytes": "32",
						"value": "t_struct(Candidate)31_storage"
					},
					"t_mapping(t_uint256,t_struct(Voter)15_storage)": {
						"encoding": "mapping",
						"key": "t_uint256",
						"label": "mapping(uint256 => struct Vote.Voter)",
						"numberOfBytes": "32",
						"value": "t_struct(Voter)15_storage"
					},
					"t_string_storage": {
						"encoding": "bytes",
						"label": "string",
						"numberOfBytes": "32"
					},
					"t_struct(Candidate)31_storage": {
						"encoding": "inplace",
						"label": "struct Vote.Candidate",
						"members": [
							{
								"astId": 17,
								"contract": "contracts/Projects/Voter.sol:Vote",
								"label": "name",
								"offset": 0,
								"slot": "0",
								"type": "t_string_storage"
							},
							{
								"astId": 19,
								"contract": "contracts/Projects/Voter.sol:Vote",
								"label": "party",
								"offset": 0,
								"slot": "1",
								"type": "t_string_storage"
							},
							{
								"astId": 21,
								"contract": "contracts/Projects/Voter.sol:Vote",
								"label": "age",
								"offset": 0,
								"slot": "2",
								"type": "t_uint256"
							},
							{
								"astId": 24,
								"contract": "contracts/Projects/Voter.sol:Vote",
								"label": "gender",
								"offset": 0,
								"slot": "3",
								"type": "t_enum(Gender)66"
							},
							{
								"astId": 26,
								"contract": "contracts/Projects/Voter.sol:Vote",
								"label": "candidateId",
								"offset": 0,
								"slot": "4",
								"type": "t_uint256"
							},
							{
								"astId": 28,
								"contract": "contracts/Projects/Voter.sol:Vote",
								"label": "candidateAddress",
								"offset": 0,
								"slot": "5",
								"type": "t_address"
							},
							{
								"astId": 30,
								"contract": "contracts/Projects/Voter.sol:Vote",
								"label": "votes",
								"offset": 0,
								"slot": "6",
								"type": "t_uint256"
							}
						],
						"numberOfBytes": "224"
					},
					"t_struct(Voter)15_storage": {
						"encoding": "inplace",
						"label": "struct Vote.Voter",
						"members": [
							{
								"astId": 3,
								"contract": "contracts/Projects/Voter.sol:Vote",
								"label": "name",
								"offset": 0,
								"slot": "0",
								"type": "t_string_storage"
							},
							{
								"astId": 5,
								"contract": "contracts/Projects/Voter.sol:Vote",
								"label": "age",
								"offset": 0,
								"slot": "1",
								"type": "t_uint256"
							},
							{
								"astId": 7,
								"contract": "contracts/Projects/Voter.sol:Vote",
								"label": "voterId",
								"offset": 0,
								"slot": "2",
								"type": "t_uint256"
							},
							{
								"astId": 10,
								"contract": "contracts/Projects/Voter.sol:Vote",
								"label": "gender",
								"offset": 0,
								"slot": "3",
								"type": "t_enum(Gender)66"
							},
							{
								"astId": 12,
								"contract": "contracts/Projects/Voter.sol:Vote",
								"label": "voteCandidateId",
								"offset": 0,
								"slot": "4",
								"type": "t_uint256"
							},
							{
								"astId": 14,
								"contract": "contracts/Projects/Voter.sol:Vote",
								"label": "voterAddress",
								"offset": 0,
								"slot": "5",
								"type": "t_address"
							}
						],
						"numberOfBytes": "192"
					},
					"t_uint256": {
						"encoding": "inplace",
						"label": "uint256",
						"numberOfBytes": "32"
					}
				}
			},
			"userdoc": {
				"kind": "user",
				"methods": {},
				"version": 1
			}
		}
	}
}