{
	"contracts/Projects/Wallet.sol": {
		"SimpleWallet": {
			"abi": [
				{
					"inputs": [],
					"stateMutability": "nonpayable",
					"type": "constructor"
				},
				{
					"anonymous": false,
					"inputs": [
						{
							"indexed": false,
							"internalType": "address",
							"name": "sender",
							"type": "address"
						},
						{
							"indexed": false,
							"internalType": "uint256",
							"name": "amonut",
							"type": "uint256"
						}
					],
					"name": "Receive",
					"type": "event"
				},
				{
					"anonymous": false,
					"inputs": [
						{
							"indexed": false,
							"internalType": "address",
							"name": "sender",
							"type": "address"
						},
						{
							"indexed": false,
							"internalType": "address",
							"name": "receiver",
							"type": "address"
						},
						{
							"indexed": false,
							"internalType": "uint256",
							"name": "amount",
							"type": "uint256"
						}
					],
					"name": "ReceiveUser",
					"type": "event"
				},
				{
					"anonymous": false,
					"inputs": [
						{
							"indexed": false,
							"internalType": "address",
							"name": "receiver",
							"type": "address"
						},
						{
							"indexed": false,
							"internalType": "uint256",
							"name": "amount",
							"type": "uint256"
						}
					],
					"name": "Transfer",
					"type": "event"
				},
				{
					"stateMutability": "nonpayable",
					"type": "fallback"
				},
				{
					"inputs": [
						{
							"internalType": "address",
							"name": "newOwner",
							"type": "address"
						}
					],
					"name": "changOwner",
					"outputs": [],
					"stateMutability": "nonpayable",
					"type": "function"
				},
				{
					"inputs": [],
					"name": "emergencyWithdrawl",
					"outputs": [],
					"stateMutability": "nonpayable",
					"type": "function"
				},
				{
					"inputs": [],
					"name": "getContractBalanceInWei",
					"outputs": [
						{
							"internalType": "uint256",
							"name": "",
							"type": "uint256"
						}
					],
					"stateMutability": "view",
					"type": "function"
				},
				{
					"inputs": [],
					"name": "getOwnerBalanceInWei",
					"outputs": [
						{
							"internalType": "uint256",
							"name": "",
							"type": "uint256"
						}
					],
					"stateMutability": "view",
					"type": "function"
				},
				{
					"inputs": [],
					"name": "getTransactionHistory",
					"outputs": [
						{
							"components": [
								{
									"internalType": "address",
									"name": "from",
									"type": "address"
								},
								{
									"internalType": "address",
									"name": "to",
									"type": "address"
								},
								{
									"internalType": "uint256",
									"name": "timestamp",
									"type": "uint256"
								},
								{
									"internalType": "uint256",
									"name": "amount",
									"type": "uint256"
								}
							],
							"internalType": "struct SimpleWallet.Transaction[]",
							"name": "",
							"type": "tuple[]"
						}
					],
					"stateMutability": "view",
					"type": "function"
				},
				{
					"inputs": [],
					"name": "owner",
					"outputs": [
						{
							"internalType": "address",
							"name": "",
							"type": "address"
						}
					],
					"stateMutability": "view",
					"type": "function"
				},
				{
					"inputs": [],
					"name": "receiveFromUser",
					"outputs": [],
					"stateMutability": "payable",
					"type": "function"
				},
				{
					"inputs": [],
					"name": "stop",
					"outputs": [
						{
							"internalType": "bool",
							"name": "",
							"type": "bool"
						}
					],
					"stateMutability": "view",
					"type": "function"
				},
				{
					"inputs": [],
					"name": "str",
					"outputs": [
						{
							"internalType": "string",
							"name": "",
							"type": "string"
						}
					],
					"stateMutability": "view",
					"type": "function"
				},
				{
					"inputs": [
						{
							"internalType": "address",
							"name": "_sender",
							"type": "address"
						}
					],
					"name": "suspiciousActivity",
					"outputs": [],
					"stateMutability": "nonpayable",
					"type": "function"
				},
				{
					"inputs": [],
					"name": "toggleStop",
					"outputs": [],
					"stateMutability": "nonpayable",
					"type": "function"
				},
				{
					"inputs": [
						{
							"internalType": "uint256",
							"name": "",
							"type": "uint256"
						}
					],
					"name": "transactionHistory",
					"outputs": [
						{
							"internalType": "address",
							"name": "from",
							"type": "address"
						},
						{
							"internalType": "address",
							"name": "to",
							"type": "address"
						},
						{
							"internalType": "uint256",
							"name": "timestamp",
							"type": "uint256"
						},
						{
							"internalType": "uint256",
							"name": "amount",
							"type": "uint256"
						}
					],
					"stateMutability": "view",
					"type": "function"
				},
				{
					"inputs": [
						{
							"internalType": "uint256",
							"name": "_startTime",
							"type": "uint256"
						}
					],
					"name": "transferToContract",
					"outputs": [],
					"stateMutability": "payable",
					"type": "function"
				},
				{
					"inputs": [
						{
							"internalType": "address payable",
							"name": "_to",
							"type": "address"
						},
						{
							"internalType": "uint256",
							"name": "_weiAmount",
							"type": "uint256"
						}
					],
					"name": "transferToUserViaContract",
					"outputs": [],
					"stateMutability": "nonpayable",
					"type": "function"
				},
				{
					"inputs": [
						{
							"internalType": "address",
							"name": "_to",
							"type": "address"
						}
					],
					"name": "transferToUserViaMsgValue",
					"outputs": [],
					"stateMutability": "payable",
					"type": "function"
				},
				{
					"inputs": [
						{
							"internalType": "uint256",
							"name": "_weiAmount",
							"type": "uint256"
						}
					],
					"name": "withdrawFromContract",
					"outputs": [],
					"stateMutability": "nonpayable",
					"type": "function"
				},
				{
					"stateMutability": "payable",
					"type": "receive"
				}
			],
			"devdoc": {
				"kind": "dev",
				"methods": {},
				"version": 1
			},
			"evm": {
				"assembly": "    /* \"contracts/Projects/Wallet.sol\":97:4759  contract SimpleWallet {... */\n  mstore(0x40, 0x80)\n    /* \"contracts/Projects/Wallet.sol\":546:595  constructor() {... */\n  callvalue\n  dup1\n  iszero\n  tag_1\n  jumpi\n  0x00\n  dup1\n  revert\ntag_1:\n  pop\n    /* \"contracts/Projects/Wallet.sol\":578:588  msg.sender */\n  caller\n    /* \"contracts/Projects/Wallet.sol\":570:575  owner */\n  0x01\n  0x00\n    /* \"contracts/Projects/Wallet.sol\":570:588  owner = msg.sender */\n  0x0100\n  exp\n  dup2\n  sload\n  dup2\n  0xffffffffffffffffffffffffffffffffffffffff\n  mul\n  not\n  and\n  swap1\n  dup4\n  0xffffffffffffffffffffffffffffffffffffffff\n  and\n  mul\n  or\n  swap1\n  sstore\n  pop\n    /* \"contracts/Projects/Wallet.sol\":97:4759  contract SimpleWallet {... */\n  dataSize(sub_0)\n  dup1\n  dataOffset(sub_0)\n  0x00\n  codecopy\n  0x00\n  return\nstop\n\nsub_0: assembly {\n        /* \"contracts/Projects/Wallet.sol\":97:4759  contract SimpleWallet {... */\n      mstore(0x40, 0x80)\n      jumpi(tag_1, lt(calldatasize, 0x04))\n      shr(0xe0, calldataload(0x00))\n      dup1\n      0xaeae547d\n      gt\n      tag_19\n      jumpi\n      dup1\n      0xcf87f052\n      gt\n      tag_20\n      jumpi\n      dup1\n      0xcf87f052\n      eq\n      tag_15\n      jumpi\n      dup1\n      0xd2b53948\n      eq\n      tag_16\n      jumpi\n      dup1\n      0xd555d473\n      eq\n      tag_17\n      jumpi\n      dup1\n      0xeb2d9fd3\n      eq\n      tag_18\n      jumpi\n      jump(tag_2)\n    tag_20:\n      dup1\n      0xaeae547d\n      eq\n      tag_11\n      jumpi\n      dup1\n      0xb76d4fc3\n      eq\n      tag_12\n      jumpi\n      dup1\n      0xbfa698de\n      eq\n      tag_13\n      jumpi\n      dup1\n      0xc15bae84\n      eq\n      tag_14\n      jumpi\n      jump(tag_2)\n    tag_19:\n      dup1\n      0x6f3f42ac\n      gt\n      tag_21\n      jumpi\n      dup1\n      0x6f3f42ac\n      eq\n      tag_7\n      jumpi\n      dup1\n      0x7935e5a3\n      eq\n      tag_8\n      jumpi\n      dup1\n      0x8da5cb5b\n      eq\n      tag_9\n      jumpi\n      dup1\n      0x9a70eef1\n      eq\n      tag_10\n      jumpi\n      jump(tag_2)\n    tag_21:\n      dup1\n      0x07da68f5\n      eq\n      tag_3\n      jumpi\n      dup1\n      0x243e7a87\n      eq\n      tag_4\n      jumpi\n      dup1\n      0x47cdcc1f\n      eq\n      tag_5\n      jumpi\n      dup1\n      0x547fbe8e\n      eq\n      tag_6\n      jumpi\n      jump(tag_2)\n    tag_1:\n      jumpi(tag_2, calldatasize)\n        /* \"contracts/Projects/Wallet.sol\":3988:4006  transactionHistory */\n      0x00\n        /* \"contracts/Projects/Wallet.sol\":4025:4200  Transaction({... */\n      mload(0x40)\n      dup1\n      0x80\n      add\n      0x40\n      mstore\n      dup1\n        /* \"contracts/Projects/Wallet.sol\":4061:4071  msg.sender */\n      caller\n        /* \"contracts/Projects/Wallet.sol\":4025:4200  Transaction({... */\n      0xffffffffffffffffffffffffffffffffffffffff\n      and\n      dup2\n      mstore\n      0x20\n      add\n        /* \"contracts/Projects/Wallet.sol\":4101:4105  this */\n      address\n        /* \"contracts/Projects/Wallet.sol\":4025:4200  Transaction({... */\n      0xffffffffffffffffffffffffffffffffffffffff\n      and\n      dup2\n      mstore\n      0x20\n      add\n        /* \"contracts/Projects/Wallet.sol\":4135:4150  block.timestamp */\n      timestamp\n        /* \"contracts/Projects/Wallet.sol\":4025:4200  Transaction({... */\n      dup2\n      mstore\n      0x20\n      add\n        /* \"contracts/Projects/Wallet.sol\":4176:4185  msg.value */\n      callvalue\n        /* \"contracts/Projects/Wallet.sol\":4025:4200  Transaction({... */\n      dup2\n      mstore\n      pop\n        /* \"contracts/Projects/Wallet.sol\":3988:4210  transactionHistory.push(... */\n      swap1\n      dup1\n      0x01\n      dup2\n      sload\n      add\n      dup1\n      dup3\n      sstore\n      dup1\n      swap2\n      pop\n      pop\n      0x01\n      swap1\n      sub\n      swap1\n      0x00\n      mstore\n      keccak256(0x00, 0x20)\n      swap1\n      0x04\n      mul\n      add\n      0x00\n      swap1\n      swap2\n      swap1\n      swap2\n      swap1\n      swap2\n      pop\n      0x00\n      dup3\n      add\n      mload\n      dup2\n      0x00\n      add\n      exp(0x0100, 0x00)\n      dup2\n      sload\n      dup2\n      0xffffffffffffffffffffffffffffffffffffffff\n      mul\n      not\n      and\n      swap1\n      dup4\n      0xffffffffffffffffffffffffffffffffffffffff\n      and\n      mul\n      or\n      swap1\n      sstore\n      pop\n      0x20\n      dup3\n      add\n      mload\n      dup2\n      0x01\n      add\n      exp(0x0100, 0x00)\n      dup2\n      sload\n      dup2\n      0xffffffffffffffffffffffffffffffffffffffff\n      mul\n      not\n      and\n      swap1\n      dup4\n      0xffffffffffffffffffffffffffffffffffffffff\n      and\n      mul\n      or\n      swap1\n      sstore\n      pop\n      0x40\n      dup3\n      add\n      mload\n      dup2\n      0x02\n      add\n      sstore\n      0x60\n      dup3\n      add\n      mload\n      dup2\n      0x03\n      add\n      sstore\n      pop\n      pop\n        /* \"contracts/Projects/Wallet.sol\":4225:4255  Receive(msg.sender, msg.value) */\n      0xd6717f327e0cb88b4a97a7f67a453e9258252c34937ccbdd86de7cb840e7def3\n        /* \"contracts/Projects/Wallet.sol\":4233:4243  msg.sender */\n      caller\n        /* \"contracts/Projects/Wallet.sol\":4245:4254  msg.value */\n      callvalue\n        /* \"contracts/Projects/Wallet.sol\":4225:4255  Receive(msg.sender, msg.value) */\n      mload(0x40)\n      tag_25\n      swap3\n      swap2\n      swap1\n      tag_26\n      jump\t// in\n    tag_25:\n      mload(0x40)\n      dup1\n      swap2\n      sub\n      swap1\n      log1\n        /* \"contracts/Projects/Wallet.sol\":97:4759  contract SimpleWallet {... */\n      stop\n    tag_2:\n      callvalue\n      dup1\n      iszero\n      tag_27\n      jumpi\n      0x00\n      dup1\n      revert\n    tag_27:\n      pop\n        /* \"contracts/Projects/Wallet.sol\":4401:4431  suspiciousActivity(msg.sender) */\n      tag_30\n        /* \"contracts/Projects/Wallet.sol\":4420:4430  msg.sender */\n      caller\n        /* \"contracts/Projects/Wallet.sol\":4401:4419  suspiciousActivity */\n      tag_31\n        /* \"contracts/Projects/Wallet.sol\":4401:4431  suspiciousActivity(msg.sender) */\n      jump\t// in\n    tag_30:\n        /* \"contracts/Projects/Wallet.sol\":97:4759  contract SimpleWallet {... */\n      stop\n        /* \"contracts/Projects/Wallet.sol\":345:361  bool public stop */\n    tag_3:\n      callvalue\n      dup1\n      iszero\n      tag_32\n      jumpi\n      0x00\n      dup1\n      revert\n    tag_32:\n      pop\n      tag_33\n      tag_34\n      jump\t// in\n    tag_33:\n      mload(0x40)\n      tag_35\n      swap2\n      swap1\n      tag_36\n      jump\t// in\n    tag_35:\n      mload(0x40)\n      dup1\n      swap2\n      sub\n      swap1\n      return\n        /* \"contracts/Projects/Wallet.sol\":250:289  Transaction[] public transactionHistory */\n    tag_4:\n      callvalue\n      dup1\n      iszero\n      tag_37\n      jumpi\n      0x00\n      dup1\n      revert\n    tag_37:\n      pop\n      tag_38\n      0x04\n      dup1\n      calldatasize\n      sub\n      dup2\n      add\n      swap1\n      tag_39\n      swap2\n      swap1\n      tag_40\n      jump\t// in\n    tag_39:\n      tag_41\n      jump\t// in\n    tag_38:\n      mload(0x40)\n      tag_42\n      swap5\n      swap4\n      swap3\n      swap2\n      swap1\n      tag_43\n      jump\t// in\n    tag_42:\n      mload(0x40)\n      dup1\n      swap2\n      sub\n      swap1\n      return\n        /* \"contracts/Projects/Wallet.sol\":1721:2281  function transferToUserViaContract(address payable _to, uint256 _weiAmount)... */\n    tag_5:\n      callvalue\n      dup1\n      iszero\n      tag_44\n      jumpi\n      0x00\n      dup1\n      revert\n    tag_44:\n      pop\n      tag_45\n      0x04\n      dup1\n      calldatasize\n      sub\n      dup2\n      add\n      swap1\n      tag_46\n      swap2\n      swap1\n      tag_47\n      jump\t// in\n    tag_46:\n      tag_48\n      jump\t// in\n    tag_45:\n      stop\n        /* \"contracts/Projects/Wallet.sol\":3844:3945  function getOwnerBalanceInWei() external view returns (uint256) {... */\n    tag_6:\n      callvalue\n      dup1\n      iszero\n      tag_49\n      jumpi\n      0x00\n      dup1\n      revert\n    tag_49:\n      pop\n      tag_50\n      tag_51\n      jump\t// in\n    tag_50:\n      mload(0x40)\n      tag_52\n      swap2\n      swap1\n      tag_53\n      jump\t// in\n    tag_52:\n      mload(0x40)\n      dup1\n      swap2\n      sub\n      swap1\n      return\n        /* \"contracts/Projects/Wallet.sol\":2872:3348  function transferToUserViaMsgValue(address _to) external payable {... */\n    tag_7:\n      tag_54\n      0x04\n      dup1\n      calldatasize\n      sub\n      dup2\n      add\n      swap1\n      tag_55\n      swap2\n      swap1\n      tag_56\n      jump\t// in\n    tag_55:\n      tag_57\n      jump\t// in\n    tag_54:\n      stop\n        /* \"contracts/Projects/Wallet.sol\":4598:4757  function emergencyWithdrawl() external {... */\n    tag_8:\n      callvalue\n      dup1\n      iszero\n      tag_58\n      jumpi\n      0x00\n      dup1\n      revert\n    tag_58:\n      pop\n      tag_59\n      tag_60\n      jump\t// in\n    tag_59:\n      stop\n        /* \"contracts/Projects/Wallet.sol\":296:316  address public owner */\n    tag_9:\n      callvalue\n      dup1\n      iszero\n      tag_61\n      jumpi\n      0x00\n      dup1\n      revert\n    tag_61:\n      pop\n      tag_62\n      tag_63\n      jump\t// in\n    tag_62:\n      mload(0x40)\n      tag_64\n      swap2\n      swap1\n      tag_65\n      jump\t// in\n    tag_64:\n      mload(0x40)\n      dup1\n      swap2\n      sub\n      swap1\n      return\n        /* \"contracts/Projects/Wallet.sol\":1054:1124  function toggleStop() external onlyOwner {... */\n    tag_10:\n      callvalue\n      dup1\n      iszero\n      tag_66\n      jumpi\n      0x00\n      dup1\n      revert\n    tag_66:\n      pop\n      tag_67\n      tag_68\n      jump\t// in\n    tag_67:\n      stop\n        /* \"contracts/Projects/Wallet.sol\":2287:2715  function withdrawFromContract(uint256 _weiAmount) external onlyOwner {... */\n    tag_11:\n      callvalue\n      dup1\n      iszero\n      tag_69\n      jumpi\n      0x00\n      dup1\n      revert\n    tag_69:\n      pop\n      tag_70\n      0x04\n      dup1\n      calldatasize\n      sub\n      dup2\n      add\n      swap1\n      tag_71\n      swap2\n      swap1\n      tag_40\n      jump\t// in\n    tag_71:\n      tag_72\n      jump\t// in\n    tag_70:\n      stop\n        /* \"contracts/Projects/Wallet.sol\":4444:4592  function getTransactionHistory()... */\n    tag_12:\n      callvalue\n      dup1\n      iszero\n      tag_73\n      jumpi\n      0x00\n      dup1\n      revert\n    tag_73:\n      pop\n      tag_74\n      tag_75\n      jump\t// in\n    tag_74:\n      mload(0x40)\n      tag_76\n      swap2\n      swap1\n      tag_77\n      jump\t// in\n    tag_76:\n      mload(0x40)\n      dup1\n      swap2\n      sub\n      swap1\n      return\n        /* \"contracts/Projects/Wallet.sol\":2721:2833  function getContractBalanceInWei() external view returns (uint256) {... */\n    tag_13:\n      callvalue\n      dup1\n      iszero\n      tag_78\n      jumpi\n      0x00\n      dup1\n      revert\n    tag_78:\n      pop\n      tag_79\n      tag_80\n      jump\t// in\n    tag_79:\n      mload(0x40)\n      tag_81\n      swap2\n      swap1\n      tag_53\n      jump\t// in\n    tag_81:\n      mload(0x40)\n      dup1\n      swap2\n      sub\n      swap1\n      return\n        /* \"contracts/Projects/Wallet.sol\":322:339  string public str */\n    tag_14:\n      callvalue\n      dup1\n      iszero\n      tag_82\n      jumpi\n      0x00\n      dup1\n      revert\n    tag_82:\n      pop\n      tag_83\n      tag_84\n      jump\t// in\n    tag_83:\n      mload(0x40)\n      tag_85\n      swap2\n      swap1\n      tag_86\n      jump\t// in\n    tag_85:\n      mload(0x40)\n      dup1\n      swap2\n      sub\n      swap1\n      return\n        /* \"contracts/Projects/Wallet.sol\":4268:4365  function suspiciousActivity(address _sender) public {... */\n    tag_15:\n      callvalue\n      dup1\n      iszero\n      tag_87\n      jumpi\n      0x00\n      dup1\n      revert\n    tag_87:\n      pop\n      tag_88\n      0x04\n      dup1\n      calldatasize\n      sub\n      dup2\n      add\n      swap1\n      tag_89\n      swap2\n      swap1\n      tag_56\n      jump\t// in\n    tag_89:\n      tag_31\n      jump\t// in\n    tag_88:\n      stop\n        /* \"contracts/Projects/Wallet.sol\":3392:3838  function receiveFromUser() external payable {... */\n    tag_16:\n      tag_90\n      tag_91\n      jump\t// in\n    tag_90:\n      stop\n        /* \"contracts/Projects/Wallet.sol\":1281:1715  function transferToContract(uint256 _startTime)... */\n    tag_17:\n      tag_92\n      0x04\n      dup1\n      calldatasize\n      sub\n      dup2\n      add\n      swap1\n      tag_93\n      swap2\n      swap1\n      tag_40\n      jump\t// in\n    tag_93:\n      tag_94\n      jump\t// in\n    tag_92:\n      stop\n        /* \"contracts/Projects/Wallet.sol\":1130:1238  function changOwner(address newOwner) public onlyOwner isEmergencyDeclared {... */\n    tag_18:\n      callvalue\n      dup1\n      iszero\n      tag_95\n      jumpi\n      0x00\n      dup1\n      revert\n    tag_95:\n      pop\n      tag_96\n      0x04\n      dup1\n      calldatasize\n      sub\n      dup2\n      add\n      swap1\n      tag_97\n      swap2\n      swap1\n      tag_56\n      jump\t// in\n    tag_97:\n      tag_98\n      jump\t// in\n    tag_96:\n      stop\n        /* \"contracts/Projects/Wallet.sol\":4268:4365  function suspiciousActivity(address _sender) public {... */\n    tag_31:\n        /* \"contracts/Projects/Wallet.sol\":4357:4358  1 */\n      0x01\n        /* \"contracts/Projects/Wallet.sol\":4330:4344  suspiciousUser */\n      0x04\n        /* \"contracts/Projects/Wallet.sol\":4330:4353  suspiciousUser[_sender] */\n      0x00\n        /* \"contracts/Projects/Wallet.sol\":4345:4352  _sender */\n      dup4\n        /* \"contracts/Projects/Wallet.sol\":4330:4353  suspiciousUser[_sender] */\n      0xffffffffffffffffffffffffffffffffffffffff\n      and\n      0xffffffffffffffffffffffffffffffffffffffff\n      and\n      dup2\n      mstore\n      0x20\n      add\n      swap1\n      dup2\n      mstore\n      0x20\n      add\n      0x00\n      keccak256\n      0x00\n        /* \"contracts/Projects/Wallet.sol\":4330:4358  suspiciousUser[_sender] += 1 */\n      dup3\n      dup3\n      sload\n      tag_100\n      swap2\n      swap1\n      tag_101\n      jump\t// in\n    tag_100:\n      swap3\n      pop\n      pop\n      dup2\n      swap1\n      sstore\n      pop\n        /* \"contracts/Projects/Wallet.sol\":4268:4365  function suspiciousActivity(address _sender) public {... */\n      pop\n      jump\t// out\n        /* \"contracts/Projects/Wallet.sol\":345:361  bool public stop */\n    tag_34:\n      0x03\n      0x00\n      swap1\n      sload\n      swap1\n      0x0100\n      exp\n      swap1\n      div\n      0xff\n      and\n      dup2\n      jump\t// out\n        /* \"contracts/Projects/Wallet.sol\":250:289  Transaction[] public transactionHistory */\n    tag_41:\n      0x00\n      dup2\n      dup2\n      sload\n      dup2\n      lt\n      tag_102\n      jumpi\n      0x00\n      dup1\n      revert\n    tag_102:\n      swap1\n      0x00\n      mstore\n      keccak256(0x00, 0x20)\n      swap1\n      0x04\n      mul\n      add\n      0x00\n      swap2\n      pop\n      swap1\n      pop\n      dup1\n      0x00\n      add\n      0x00\n      swap1\n      sload\n      swap1\n      0x0100\n      exp\n      swap1\n      div\n      0xffffffffffffffffffffffffffffffffffffffff\n      and\n      swap1\n      dup1\n      0x01\n      add\n      0x00\n      swap1\n      sload\n      swap1\n      0x0100\n      exp\n      swap1\n      div\n      0xffffffffffffffffffffffffffffffffffffffff\n      and\n      swap1\n      dup1\n      0x02\n      add\n      sload\n      swap1\n      dup1\n      0x03\n      add\n      sload\n      swap1\n      pop\n      dup5\n      jump\t// out\n        /* \"contracts/Projects/Wallet.sol\":1721:2281  function transferToUserViaContract(address payable _to, uint256 _weiAmount)... */\n    tag_48:\n        /* \"contracts/Projects/Wallet.sol\":654:659  owner */\n      0x01\n      0x00\n      swap1\n      sload\n      swap1\n      0x0100\n      exp\n      swap1\n      div\n      0xffffffffffffffffffffffffffffffffffffffff\n      and\n        /* \"contracts/Projects/Wallet.sol\":640:659  msg.sender == owner */\n      0xffffffffffffffffffffffffffffffffffffffff\n      and\n        /* \"contracts/Projects/Wallet.sol\":640:650  msg.sender */\n      caller\n        /* \"contracts/Projects/Wallet.sol\":640:659  msg.sender == owner */\n      0xffffffffffffffffffffffffffffffffffffffff\n      and\n      eq\n        /* \"contracts/Projects/Wallet.sol\":632:685  require(msg.sender == owner, \"You don't have access\") */\n      tag_105\n      jumpi\n      mload(0x40)\n      0x08c379a000000000000000000000000000000000000000000000000000000000\n      dup2\n      mstore\n      0x04\n      add\n      tag_106\n      swap1\n      tag_107\n      jump\t// in\n    tag_106:\n      mload(0x40)\n      dup1\n      swap2\n      sub\n      swap1\n      revert\n    tag_105:\n        /* \"contracts/Projects/Wallet.sol\":1879:1889  _weiAmount */\n      dup1\n        /* \"contracts/Projects/Wallet.sol\":1854:1875  address(this).balance */\n      selfbalance\n        /* \"contracts/Projects/Wallet.sol\":1854:1889  address(this).balance >= _weiAmount */\n      lt\n      iszero\n        /* \"contracts/Projects/Wallet.sol\":1846:1914  require(address(this).balance >= _weiAmount, \"Insufficient Balance\") */\n      tag_109\n      jumpi\n      mload(0x40)\n      0x08c379a000000000000000000000000000000000000000000000000000000000\n      dup2\n      mstore\n      0x04\n      add\n      tag_110\n      swap1\n      tag_111\n      jump\t// in\n    tag_110:\n      mload(0x40)\n      dup1\n      swap2\n      sub\n      swap1\n      revert\n    tag_109:\n        /* \"contracts/Projects/Wallet.sol\":1947:1948  0 */\n      0x00\n        /* \"contracts/Projects/Wallet.sol\":1932:1949  _to != address(0) */\n      0xffffffffffffffffffffffffffffffffffffffff\n      and\n        /* \"contracts/Projects/Wallet.sol\":1932:1935  _to */\n      dup3\n        /* \"contracts/Projects/Wallet.sol\":1932:1949  _to != address(0) */\n      0xffffffffffffffffffffffffffffffffffffffff\n      and\n      sub\n        /* \"contracts/Projects/Wallet.sol\":1924:1977  require(_to != address(0), \"Adress format incorrect\") */\n      tag_112\n      jumpi\n      mload(0x40)\n      0x08c379a000000000000000000000000000000000000000000000000000000000\n      dup2\n      mstore\n      0x04\n      add\n      tag_113\n      swap1\n      tag_114\n      jump\t// in\n    tag_113:\n      mload(0x40)\n      dup1\n      swap2\n      sub\n      swap1\n      revert\n    tag_112:\n        /* \"contracts/Projects/Wallet.sol\":1987:1990  _to */\n      dup2\n        /* \"contracts/Projects/Wallet.sol\":1987:1999  _to.transfer */\n      0xffffffffffffffffffffffffffffffffffffffff\n      and\n        /* \"contracts/Projects/Wallet.sol\":1987:2011  _to.transfer(_weiAmount) */\n      0x08fc\n        /* \"contracts/Projects/Wallet.sol\":2000:2010  _weiAmount */\n      dup3\n        /* \"contracts/Projects/Wallet.sol\":1987:2011  _to.transfer(_weiAmount) */\n      swap1\n      dup2\n      iszero\n      mul\n      swap1\n      mload(0x40)\n      0x00\n      mload(0x40)\n      dup1\n      dup4\n      sub\n      dup2\n      dup6\n      dup9\n      dup9\n      call\n      swap4\n      pop\n      pop\n      pop\n      pop\n      iszero\n      dup1\n      iszero\n      tag_116\n      jumpi\n      returndatasize\n      0x00\n      dup1\n      returndatacopy\n      revert(0x00, returndatasize)\n    tag_116:\n      pop\n        /* \"contracts/Projects/Wallet.sol\":2021:2039  transactionHistory */\n      0x00\n        /* \"contracts/Projects/Wallet.sol\":2058:2224  Transaction({... */\n      mload(0x40)\n      dup1\n      0x80\n      add\n      0x40\n      mstore\n      dup1\n        /* \"contracts/Projects/Wallet.sol\":2094:2104  msg.sender */\n      caller\n        /* \"contracts/Projects/Wallet.sol\":2058:2224  Transaction({... */\n      0xffffffffffffffffffffffffffffffffffffffff\n      and\n      dup2\n      mstore\n      0x20\n      add\n        /* \"contracts/Projects/Wallet.sol\":2126:2129  _to */\n      dup5\n        /* \"contracts/Projects/Wallet.sol\":2058:2224  Transaction({... */\n      0xffffffffffffffffffffffffffffffffffffffff\n      and\n      dup2\n      mstore\n      0x20\n      add\n        /* \"contracts/Projects/Wallet.sol\":2158:2173  block.timestamp */\n      timestamp\n        /* \"contracts/Projects/Wallet.sol\":2058:2224  Transaction({... */\n      dup2\n      mstore\n      0x20\n      add\n        /* \"contracts/Projects/Wallet.sol\":2199:2209  _weiAmount */\n      dup4\n        /* \"contracts/Projects/Wallet.sol\":2058:2224  Transaction({... */\n      dup2\n      mstore\n      pop\n        /* \"contracts/Projects/Wallet.sol\":2021:2234  transactionHistory.push(... */\n      swap1\n      dup1\n      0x01\n      dup2\n      sload\n      add\n      dup1\n      dup3\n      sstore\n      dup1\n      swap2\n      pop\n      pop\n      0x01\n      swap1\n      sub\n      swap1\n      0x00\n      mstore\n      keccak256(0x00, 0x20)\n      swap1\n      0x04\n      mul\n      add\n      0x00\n      swap1\n      swap2\n      swap1\n      swap2\n      swap1\n      swap2\n      pop\n      0x00\n      dup3\n      add\n      mload\n      dup2\n      0x00\n      add\n      exp(0x0100, 0x00)\n      dup2\n      sload\n      dup2\n      0xffffffffffffffffffffffffffffffffffffffff\n      mul\n      not\n      and\n      swap1\n      dup4\n      0xffffffffffffffffffffffffffffffffffffffff\n      and\n      mul\n      or\n      swap1\n      sstore\n      pop\n      0x20\n      dup3\n      add\n      mload\n      dup2\n      0x01\n      add\n      exp(0x0100, 0x00)\n      dup2\n      sload\n      dup2\n      0xffffffffffffffffffffffffffffffffffffffff\n      mul\n      not\n      and\n      swap1\n      dup4\n      0xffffffffffffffffffffffffffffffffffffffff\n      and\n      mul\n      or\n      swap1\n      sstore\n      pop\n      0x40\n      dup3\n      add\n      mload\n      dup2\n      0x02\n      add\n      sstore\n      0x60\n      dup3\n      add\n      mload\n      dup2\n      0x03\n      add\n      sstore\n      pop\n      pop\n        /* \"contracts/Projects/Wallet.sol\":2249:2274  Transfer(_to, _weiAmount) */\n      0x69ca02dd4edd7bf0a4abb9ed3b7af3f14778db5d61921c7dc7cd545266326de2\n        /* \"contracts/Projects/Wallet.sol\":2258:2261  _to */\n      dup3\n        /* \"contracts/Projects/Wallet.sol\":2263:2273  _weiAmount */\n      dup3\n        /* \"contracts/Projects/Wallet.sol\":2249:2274  Transfer(_to, _weiAmount) */\n      mload(0x40)\n      tag_118\n      swap3\n      swap2\n      swap1\n      tag_119\n      jump\t// in\n    tag_118:\n      mload(0x40)\n      dup1\n      swap2\n      sub\n      swap1\n      log1\n        /* \"contracts/Projects/Wallet.sol\":1721:2281  function transferToUserViaContract(address payable _to, uint256 _weiAmount)... */\n      pop\n      pop\n      jump\t// out\n        /* \"contracts/Projects/Wallet.sol\":3844:3945  function getOwnerBalanceInWei() external view returns (uint256) {... */\n    tag_51:\n        /* \"contracts/Projects/Wallet.sol\":3899:3906  uint256 */\n      0x00\n        /* \"contracts/Projects/Wallet.sol\":3925:3930  owner */\n      0x01\n      0x00\n      swap1\n      sload\n      swap1\n      0x0100\n      exp\n      swap1\n      div\n      0xffffffffffffffffffffffffffffffffffffffff\n      and\n        /* \"contracts/Projects/Wallet.sol\":3925:3938  owner.balance */\n      0xffffffffffffffffffffffffffffffffffffffff\n      and\n      balance\n        /* \"contracts/Projects/Wallet.sol\":3918:3938  return owner.balance */\n      swap1\n      pop\n        /* \"contracts/Projects/Wallet.sol\":3844:3945  function getOwnerBalanceInWei() external view returns (uint256) {... */\n      swap1\n      jump\t// out\n        /* \"contracts/Projects/Wallet.sol\":2872:3348  function transferToUserViaMsgValue(address _to) external payable {... */\n    tag_57:\n        /* \"contracts/Projects/Wallet.sol\":2980:2989  msg.value */\n      callvalue\n        /* \"contracts/Projects/Wallet.sol\":2955:2976  address(this).balance */\n      selfbalance\n        /* \"contracts/Projects/Wallet.sol\":2955:2989  address(this).balance >= msg.value */\n      lt\n      iszero\n        /* \"contracts/Projects/Wallet.sol\":2947:3014  require(address(this).balance >= msg.value, \"Insufficient Balance\") */\n      tag_122\n      jumpi\n      mload(0x40)\n      0x08c379a000000000000000000000000000000000000000000000000000000000\n      dup2\n      mstore\n      0x04\n      add\n      tag_123\n      swap1\n      tag_111\n      jump\t// in\n    tag_123:\n      mload(0x40)\n      dup1\n      swap2\n      sub\n      swap1\n      revert\n    tag_122:\n        /* \"contracts/Projects/Wallet.sol\":3047:3048  0 */\n      0x00\n        /* \"contracts/Projects/Wallet.sol\":3032:3049  _to != address(0) */\n      0xffffffffffffffffffffffffffffffffffffffff\n      and\n        /* \"contracts/Projects/Wallet.sol\":3032:3035  _to */\n      dup2\n        /* \"contracts/Projects/Wallet.sol\":3032:3049  _to != address(0) */\n      0xffffffffffffffffffffffffffffffffffffffff\n      and\n      sub\n        /* \"contracts/Projects/Wallet.sol\":3024:3077  require(_to != address(0), \"Adress format incorrect\") */\n      tag_124\n      jumpi\n      mload(0x40)\n      0x08c379a000000000000000000000000000000000000000000000000000000000\n      dup2\n      mstore\n      0x04\n      add\n      tag_125\n      swap1\n      tag_114\n      jump\t// in\n    tag_125:\n      mload(0x40)\n      dup1\n      swap2\n      sub\n      swap1\n      revert\n    tag_124:\n        /* \"contracts/Projects/Wallet.sol\":3095:3098  _to */\n      dup1\n        /* \"contracts/Projects/Wallet.sol\":3087:3108  payable(_to).transfer */\n      0xffffffffffffffffffffffffffffffffffffffff\n      and\n        /* \"contracts/Projects/Wallet.sol\":3087:3119  payable(_to).transfer(msg.value) */\n      0x08fc\n        /* \"contracts/Projects/Wallet.sol\":3109:3118  msg.value */\n      callvalue\n        /* \"contracts/Projects/Wallet.sol\":3087:3119  payable(_to).transfer(msg.value) */\n      swap1\n      dup2\n      iszero\n      mul\n      swap1\n      mload(0x40)\n      0x00\n      mload(0x40)\n      dup1\n      dup4\n      sub\n      dup2\n      dup6\n      dup9\n      dup9\n      call\n      swap4\n      pop\n      pop\n      pop\n      pop\n      iszero\n      dup1\n      iszero\n      tag_127\n      jumpi\n      returndatasize\n      0x00\n      dup1\n      returndatacopy\n      revert(0x00, returndatasize)\n    tag_127:\n      pop\n        /* \"contracts/Projects/Wallet.sol\":3129:3147  transactionHistory */\n      0x00\n        /* \"contracts/Projects/Wallet.sol\":3166:3331  Transaction({... */\n      mload(0x40)\n      dup1\n      0x80\n      add\n      0x40\n      mstore\n      dup1\n        /* \"contracts/Projects/Wallet.sol\":3202:3212  msg.sender */\n      caller\n        /* \"contracts/Projects/Wallet.sol\":3166:3331  Transaction({... */\n      0xffffffffffffffffffffffffffffffffffffffff\n      and\n      dup2\n      mstore\n      0x20\n      add\n        /* \"contracts/Projects/Wallet.sol\":3234:3237  _to */\n      dup4\n        /* \"contracts/Projects/Wallet.sol\":3166:3331  Transaction({... */\n      0xffffffffffffffffffffffffffffffffffffffff\n      and\n      dup2\n      mstore\n      0x20\n      add\n        /* \"contracts/Projects/Wallet.sol\":3266:3281  block.timestamp */\n      timestamp\n        /* \"contracts/Projects/Wallet.sol\":3166:3331  Transaction({... */\n      dup2\n      mstore\n      0x20\n      add\n        /* \"contracts/Projects/Wallet.sol\":3307:3316  msg.value */\n      callvalue\n        /* \"contracts/Projects/Wallet.sol\":3166:3331  Transaction({... */\n      dup2\n      mstore\n      pop\n        /* \"contracts/Projects/Wallet.sol\":3129:3341  transactionHistory.push(... */\n      swap1\n      dup1\n      0x01\n      dup2\n      sload\n      add\n      dup1\n      dup3\n      sstore\n      dup1\n      swap2\n      pop\n      pop\n      0x01\n      swap1\n      sub\n      swap1\n      0x00\n      mstore\n      keccak256(0x00, 0x20)\n      swap1\n      0x04\n      mul\n      add\n      0x00\n      swap1\n      swap2\n      swap1\n      swap2\n      swap1\n      swap2\n      pop\n      0x00\n      dup3\n      add\n      mload\n      dup2\n      0x00\n      add\n      exp(0x0100, 0x00)\n      dup2\n      sload\n      dup2\n      0xffffffffffffffffffffffffffffffffffffffff\n      mul\n      not\n      and\n      swap1\n      dup4\n      0xffffffffffffffffffffffffffffffffffffffff\n      and\n      mul\n      or\n      swap1\n      sstore\n      pop\n      0x20\n      dup3\n      add\n      mload\n      dup2\n      0x01\n      add\n      exp(0x0100, 0x00)\n      dup2\n      sload\n      dup2\n      0xffffffffffffffffffffffffffffffffffffffff\n      mul\n      not\n      and\n      swap1\n      dup4\n      0xffffffffffffffffffffffffffffffffffffffff\n      and\n      mul\n      or\n      swap1\n      sstore\n      pop\n      0x40\n      dup3\n      add\n      mload\n      dup2\n      0x02\n      add\n      sstore\n      0x60\n      dup3\n      add\n      mload\n      dup2\n      0x03\n      add\n      sstore\n      pop\n      pop\n        /* \"contracts/Projects/Wallet.sol\":2872:3348  function transferToUserViaMsgValue(address _to) external payable {... */\n      pop\n      jump\t// out\n        /* \"contracts/Projects/Wallet.sol\":4598:4757  function emergencyWithdrawl() external {... */\n    tag_60:\n        /* \"contracts/Projects/Wallet.sol\":4663:4667  true */\n      0x01\n        /* \"contracts/Projects/Wallet.sol\":4655:4667  stop == true */\n      iszero\n      iszero\n        /* \"contracts/Projects/Wallet.sol\":4655:4659  stop */\n      0x03\n      0x00\n      swap1\n      sload\n      swap1\n      0x0100\n      exp\n      swap1\n      div\n      0xff\n      and\n        /* \"contracts/Projects/Wallet.sol\":4655:4667  stop == true */\n      iszero\n      iszero\n      eq\n        /* \"contracts/Projects/Wallet.sol\":4647:4694  require(stop == true, \"Emergency not declared\") */\n      tag_130\n      jumpi\n      mload(0x40)\n      0x08c379a000000000000000000000000000000000000000000000000000000000\n      dup2\n      mstore\n      0x04\n      add\n      tag_131\n      swap1\n      tag_132\n      jump\t// in\n    tag_131:\n      mload(0x40)\n      dup1\n      swap2\n      sub\n      swap1\n      revert\n    tag_130:\n        /* \"contracts/Projects/Wallet.sol\":4712:4717  owner */\n      0x01\n      0x00\n      swap1\n      sload\n      swap1\n      0x0100\n      exp\n      swap1\n      div\n      0xffffffffffffffffffffffffffffffffffffffff\n      and\n        /* \"contracts/Projects/Wallet.sol\":4704:4727  payable(owner).transfer */\n      0xffffffffffffffffffffffffffffffffffffffff\n      and\n        /* \"contracts/Projects/Wallet.sol\":4704:4750  payable(owner).transfer(address(this).balance) */\n      0x08fc\n        /* \"contracts/Projects/Wallet.sol\":4728:4749  address(this).balance */\n      selfbalance\n        /* \"contracts/Projects/Wallet.sol\":4704:4750  payable(owner).transfer(address(this).balance) */\n      swap1\n      dup2\n      iszero\n      mul\n      swap1\n      mload(0x40)\n      0x00\n      mload(0x40)\n      dup1\n      dup4\n      sub\n      dup2\n      dup6\n      dup9\n      dup9\n      call\n      swap4\n      pop\n      pop\n      pop\n      pop\n      iszero\n      dup1\n      iszero\n      tag_134\n      jumpi\n      returndatasize\n      0x00\n      dup1\n      returndatacopy\n      revert(0x00, returndatasize)\n    tag_134:\n      pop\n        /* \"contracts/Projects/Wallet.sol\":4598:4757  function emergencyWithdrawl() external {... */\n      jump\t// out\n        /* \"contracts/Projects/Wallet.sol\":296:316  address public owner */\n    tag_63:\n      0x01\n      0x00\n      swap1\n      sload\n      swap1\n      0x0100\n      exp\n      swap1\n      div\n      0xffffffffffffffffffffffffffffffffffffffff\n      and\n      dup2\n      jump\t// out\n        /* \"contracts/Projects/Wallet.sol\":1054:1124  function toggleStop() external onlyOwner {... */\n    tag_68:\n        /* \"contracts/Projects/Wallet.sol\":654:659  owner */\n      0x01\n      0x00\n      swap1\n      sload\n      swap1\n      0x0100\n      exp\n      swap1\n      div\n      0xffffffffffffffffffffffffffffffffffffffff\n      and\n        /* \"contracts/Projects/Wallet.sol\":640:659  msg.sender == owner */\n      0xffffffffffffffffffffffffffffffffffffffff\n      and\n        /* \"contracts/Projects/Wallet.sol\":640:650  msg.sender */\n      caller\n        /* \"contracts/Projects/Wallet.sol\":640:659  msg.sender == owner */\n      0xffffffffffffffffffffffffffffffffffffffff\n      and\n      eq\n        /* \"contracts/Projects/Wallet.sol\":632:685  require(msg.sender == owner, \"You don't have access\") */\n      tag_136\n      jumpi\n      mload(0x40)\n      0x08c379a000000000000000000000000000000000000000000000000000000000\n      dup2\n      mstore\n      0x04\n      add\n      tag_137\n      swap1\n      tag_107\n      jump\t// in\n    tag_137:\n      mload(0x40)\n      dup1\n      swap2\n      sub\n      swap1\n      revert\n    tag_136:\n        /* \"contracts/Projects/Wallet.sol\":1113:1117  stop */\n      0x03\n      0x00\n      swap1\n      sload\n      swap1\n      0x0100\n      exp\n      swap1\n      div\n      0xff\n      and\n        /* \"contracts/Projects/Wallet.sol\":1112:1117  !stop */\n      iszero\n        /* \"contracts/Projects/Wallet.sol\":1105:1109  stop */\n      0x03\n      0x00\n        /* \"contracts/Projects/Wallet.sol\":1105:1117  stop = !stop */\n      0x0100\n      exp\n      dup2\n      sload\n      dup2\n      0xff\n      mul\n      not\n      and\n      swap1\n      dup4\n      iszero\n      iszero\n      mul\n      or\n      swap1\n      sstore\n      pop\n        /* \"contracts/Projects/Wallet.sol\":1054:1124  function toggleStop() external onlyOwner {... */\n      jump\t// out\n        /* \"contracts/Projects/Wallet.sol\":2287:2715  function withdrawFromContract(uint256 _weiAmount) external onlyOwner {... */\n    tag_72:\n        /* \"contracts/Projects/Wallet.sol\":654:659  owner */\n      0x01\n      0x00\n      swap1\n      sload\n      swap1\n      0x0100\n      exp\n      swap1\n      div\n      0xffffffffffffffffffffffffffffffffffffffff\n      and\n        /* \"contracts/Projects/Wallet.sol\":640:659  msg.sender == owner */\n      0xffffffffffffffffffffffffffffffffffffffff\n      and\n        /* \"contracts/Projects/Wallet.sol\":640:650  msg.sender */\n      caller\n        /* \"contracts/Projects/Wallet.sol\":640:659  msg.sender == owner */\n      0xffffffffffffffffffffffffffffffffffffffff\n      and\n      eq\n        /* \"contracts/Projects/Wallet.sol\":632:685  require(msg.sender == owner, \"You don't have access\") */\n      tag_140\n      jumpi\n      mload(0x40)\n      0x08c379a000000000000000000000000000000000000000000000000000000000\n      dup2\n      mstore\n      0x04\n      add\n      tag_141\n      swap1\n      tag_107\n      jump\t// in\n    tag_141:\n      mload(0x40)\n      dup1\n      swap2\n      sub\n      swap1\n      revert\n    tag_140:\n        /* \"contracts/Projects/Wallet.sol\":2399:2409  _weiAmount */\n      dup1\n        /* \"contracts/Projects/Wallet.sol\":2374:2395  address(this).balance */\n      selfbalance\n        /* \"contracts/Projects/Wallet.sol\":2374:2409  address(this).balance >= _weiAmount */\n      lt\n      iszero\n        /* \"contracts/Projects/Wallet.sol\":2366:2435  require(address(this).balance >= _weiAmount, \"Insuffficient balance\") */\n      tag_143\n      jumpi\n      mload(0x40)\n      0x08c379a000000000000000000000000000000000000000000000000000000000\n      dup2\n      mstore\n      0x04\n      add\n      tag_144\n      swap1\n      tag_145\n      jump\t// in\n    tag_144:\n      mload(0x40)\n      dup1\n      swap2\n      sub\n      swap1\n      revert\n    tag_143:\n        /* \"contracts/Projects/Wallet.sol\":2453:2458  owner */\n      0x01\n      0x00\n      swap1\n      sload\n      swap1\n      0x0100\n      exp\n      swap1\n      div\n      0xffffffffffffffffffffffffffffffffffffffff\n      and\n        /* \"contracts/Projects/Wallet.sol\":2445:2468  payable(owner).transfer */\n      0xffffffffffffffffffffffffffffffffffffffff\n      and\n        /* \"contracts/Projects/Wallet.sol\":2445:2480  payable(owner).transfer(_weiAmount) */\n      0x08fc\n        /* \"contracts/Projects/Wallet.sol\":2469:2479  _weiAmount */\n      dup3\n        /* \"contracts/Projects/Wallet.sol\":2445:2480  payable(owner).transfer(_weiAmount) */\n      swap1\n      dup2\n      iszero\n      mul\n      swap1\n      mload(0x40)\n      0x00\n      mload(0x40)\n      dup1\n      dup4\n      sub\n      dup2\n      dup6\n      dup9\n      dup9\n      call\n      swap4\n      pop\n      pop\n      pop\n      pop\n      iszero\n      dup1\n      iszero\n      tag_147\n      jumpi\n      returndatasize\n      0x00\n      dup1\n      returndatacopy\n      revert(0x00, returndatasize)\n    tag_147:\n      pop\n        /* \"contracts/Projects/Wallet.sol\":2490:2508  transactionHistory */\n      0x00\n        /* \"contracts/Projects/Wallet.sol\":2527:2698  Transaction({... */\n      mload(0x40)\n      dup1\n      0x80\n      add\n      0x40\n      mstore\n      dup1\n        /* \"contracts/Projects/Wallet.sol\":2571:2575  this */\n      address\n        /* \"contracts/Projects/Wallet.sol\":2527:2698  Transaction({... */\n      0xffffffffffffffffffffffffffffffffffffffff\n      and\n      dup2\n      mstore\n      0x20\n      add\n        /* \"contracts/Projects/Wallet.sol\":2598:2603  owner */\n      0x01\n      0x00\n      swap1\n      sload\n      swap1\n      0x0100\n      exp\n      swap1\n      div\n      0xffffffffffffffffffffffffffffffffffffffff\n      and\n        /* \"contracts/Projects/Wallet.sol\":2527:2698  Transaction({... */\n      0xffffffffffffffffffffffffffffffffffffffff\n      and\n      dup2\n      mstore\n      0x20\n      add\n        /* \"contracts/Projects/Wallet.sol\":2632:2647  block.timestamp */\n      timestamp\n        /* \"contracts/Projects/Wallet.sol\":2527:2698  Transaction({... */\n      dup2\n      mstore\n      0x20\n      add\n        /* \"contracts/Projects/Wallet.sol\":2673:2683  _weiAmount */\n      dup4\n        /* \"contracts/Projects/Wallet.sol\":2527:2698  Transaction({... */\n      dup2\n      mstore\n      pop\n        /* \"contracts/Projects/Wallet.sol\":2490:2708  transactionHistory.push(... */\n      swap1\n      dup1\n      0x01\n      dup2\n      sload\n      add\n      dup1\n      dup3\n      sstore\n      dup1\n      swap2\n      pop\n      pop\n      0x01\n      swap1\n      sub\n      swap1\n      0x00\n      mstore\n      keccak256(0x00, 0x20)\n      swap1\n      0x04\n      mul\n      add\n      0x00\n      swap1\n      swap2\n      swap1\n      swap2\n      swap1\n      swap2\n      pop\n      0x00\n      dup3\n      add\n      mload\n      dup2\n      0x00\n      add\n      exp(0x0100, 0x00)\n      dup2\n      sload\n      dup2\n      0xffffffffffffffffffffffffffffffffffffffff\n      mul\n      not\n      and\n      swap1\n      dup4\n      0xffffffffffffffffffffffffffffffffffffffff\n      and\n      mul\n      or\n      swap1\n      sstore\n      pop\n      0x20\n      dup3\n      add\n      mload\n      dup2\n      0x01\n      add\n      exp(0x0100, 0x00)\n      dup2\n      sload\n      dup2\n      0xffffffffffffffffffffffffffffffffffffffff\n      mul\n      not\n      and\n      swap1\n      dup4\n      0xffffffffffffffffffffffffffffffffffffffff\n      and\n      mul\n      or\n      swap1\n      sstore\n      pop\n      0x40\n      dup3\n      add\n      mload\n      dup2\n      0x02\n      add\n      sstore\n      0x60\n      dup3\n      add\n      mload\n      dup2\n      0x03\n      add\n      sstore\n      pop\n      pop\n        /* \"contracts/Projects/Wallet.sol\":2287:2715  function withdrawFromContract(uint256 _weiAmount) external onlyOwner {... */\n      pop\n      jump\t// out\n        /* \"contracts/Projects/Wallet.sol\":4444:4592  function getTransactionHistory()... */\n    tag_75:\n        /* \"contracts/Projects/Wallet.sol\":4524:4544  Transaction[] memory */\n      0x60\n        /* \"contracts/Projects/Wallet.sol\":4567:4585  transactionHistory */\n      0x00\n        /* \"contracts/Projects/Wallet.sol\":4560:4585  return transactionHistory */\n      dup1\n      sload\n      dup1\n      0x20\n      mul\n      0x20\n      add\n      mload(0x40)\n      swap1\n      dup2\n      add\n      0x40\n      mstore\n      dup1\n      swap3\n      swap2\n      swap1\n      dup2\n      dup2\n      mstore\n      0x20\n      add\n      0x00\n      swap1\n    tag_150:\n      dup3\n      dup3\n      lt\n      iszero\n      tag_151\n      jumpi\n      dup4\n      dup3\n      swap1\n      0x00\n      mstore\n      keccak256(0x00, 0x20)\n      swap1\n      0x04\n      mul\n      add\n      mload(0x40)\n      dup1\n      0x80\n      add\n      0x40\n      mstore\n      swap1\n      dup2\n      0x00\n      dup3\n      add\n      0x00\n      swap1\n      sload\n      swap1\n      0x0100\n      exp\n      swap1\n      div\n      0xffffffffffffffffffffffffffffffffffffffff\n      and\n      0xffffffffffffffffffffffffffffffffffffffff\n      and\n      0xffffffffffffffffffffffffffffffffffffffff\n      and\n      dup2\n      mstore\n      0x20\n      add\n      0x01\n      dup3\n      add\n      0x00\n      swap1\n      sload\n      swap1\n      0x0100\n      exp\n      swap1\n      div\n      0xffffffffffffffffffffffffffffffffffffffff\n      and\n      0xffffffffffffffffffffffffffffffffffffffff\n      and\n      0xffffffffffffffffffffffffffffffffffffffff\n      and\n      dup2\n      mstore\n      0x20\n      add\n      0x02\n      dup3\n      add\n      sload\n      dup2\n      mstore\n      0x20\n      add\n      0x03\n      dup3\n      add\n      sload\n      dup2\n      mstore\n      pop\n      pop\n      dup2\n      mstore\n      0x20\n      add\n      swap1\n      0x01\n      add\n      swap1\n      jump(tag_150)\n    tag_151:\n      pop\n      pop\n      pop\n      pop\n      swap1\n      pop\n        /* \"contracts/Projects/Wallet.sol\":4444:4592  function getTransactionHistory()... */\n      swap1\n      jump\t// out\n        /* \"contracts/Projects/Wallet.sol\":2721:2833  function getContractBalanceInWei() external view returns (uint256) {... */\n    tag_80:\n        /* \"contracts/Projects/Wallet.sol\":2779:2786  uint256 */\n      0x00\n        /* \"contracts/Projects/Wallet.sol\":2805:2826  address(this).balance */\n      selfbalance\n        /* \"contracts/Projects/Wallet.sol\":2798:2826  return address(this).balance */\n      swap1\n      pop\n        /* \"contracts/Projects/Wallet.sol\":2721:2833  function getContractBalanceInWei() external view returns (uint256) {... */\n      swap1\n      jump\t// out\n        /* \"contracts/Projects/Wallet.sol\":322:339  string public str */\n    tag_84:\n      0x02\n      dup1\n      sload\n      tag_154\n      swap1\n      tag_155\n      jump\t// in\n    tag_154:\n      dup1\n      0x1f\n      add\n      0x20\n      dup1\n      swap2\n      div\n      mul\n      0x20\n      add\n      mload(0x40)\n      swap1\n      dup2\n      add\n      0x40\n      mstore\n      dup1\n      swap3\n      swap2\n      swap1\n      dup2\n      dup2\n      mstore\n      0x20\n      add\n      dup3\n      dup1\n      sload\n      tag_156\n      swap1\n      tag_155\n      jump\t// in\n    tag_156:\n      dup1\n      iszero\n      tag_157\n      jumpi\n      dup1\n      0x1f\n      lt\n      tag_158\n      jumpi\n      0x0100\n      dup1\n      dup4\n      sload\n      div\n      mul\n      dup4\n      mstore\n      swap2\n      0x20\n      add\n      swap2\n      jump(tag_157)\n    tag_158:\n      dup3\n      add\n      swap2\n      swap1\n      0x00\n      mstore\n      keccak256(0x00, 0x20)\n      swap1\n    tag_159:\n      dup2\n      sload\n      dup2\n      mstore\n      swap1\n      0x01\n      add\n      swap1\n      0x20\n      add\n      dup1\n      dup4\n      gt\n      tag_159\n      jumpi\n      dup3\n      swap1\n      sub\n      0x1f\n      and\n      dup3\n      add\n      swap2\n    tag_157:\n      pop\n      pop\n      pop\n      pop\n      pop\n      dup2\n      jump\t// out\n        /* \"contracts/Projects/Wallet.sol\":3392:3838  function receiveFromUser() external payable {... */\n    tag_91:\n        /* \"contracts/Projects/Wallet.sol\":3466:3467  0 */\n      0x00\n        /* \"contracts/Projects/Wallet.sol\":3454:3463  msg.value */\n      callvalue\n        /* \"contracts/Projects/Wallet.sol\":3454:3467  msg.value > 0 */\n      gt\n        /* \"contracts/Projects/Wallet.sol\":3446:3507  require(msg.value > 0, \"Wei Value must be greater than zero\") */\n      tag_161\n      jumpi\n      mload(0x40)\n      0x08c379a000000000000000000000000000000000000000000000000000000000\n      dup2\n      mstore\n      0x04\n      add\n      tag_162\n      swap1\n      tag_163\n      jump\t// in\n    tag_162:\n      mload(0x40)\n      dup1\n      swap2\n      sub\n      swap1\n      revert\n    tag_161:\n        /* \"contracts/Projects/Wallet.sol\":3525:3530  owner */\n      0x01\n      0x00\n      swap1\n      sload\n      swap1\n      0x0100\n      exp\n      swap1\n      div\n      0xffffffffffffffffffffffffffffffffffffffff\n      and\n        /* \"contracts/Projects/Wallet.sol\":3517:3540  payable(owner).transfer */\n      0xffffffffffffffffffffffffffffffffffffffff\n      and\n        /* \"contracts/Projects/Wallet.sol\":3517:3551  payable(owner).transfer(msg.value) */\n      0x08fc\n        /* \"contracts/Projects/Wallet.sol\":3541:3550  msg.value */\n      callvalue\n        /* \"contracts/Projects/Wallet.sol\":3517:3551  payable(owner).transfer(msg.value) */\n      swap1\n      dup2\n      iszero\n      mul\n      swap1\n      mload(0x40)\n      0x00\n      mload(0x40)\n      dup1\n      dup4\n      sub\n      dup2\n      dup6\n      dup9\n      dup9\n      call\n      swap4\n      pop\n      pop\n      pop\n      pop\n      iszero\n      dup1\n      iszero\n      tag_165\n      jumpi\n      returndatasize\n      0x00\n      dup1\n      returndatacopy\n      revert(0x00, returndatasize)\n    tag_165:\n      pop\n        /* \"contracts/Projects/Wallet.sol\":3566:3607  ReceiveUser(msg.sender, owner, msg.value) */\n      0x6bff45ea56524a93993203a4991ca550597cbc6392508dd91678a3cc936c5577\n        /* \"contracts/Projects/Wallet.sol\":3578:3588  msg.sender */\n      caller\n        /* \"contracts/Projects/Wallet.sol\":3590:3595  owner */\n      0x01\n      0x00\n      swap1\n      sload\n      swap1\n      0x0100\n      exp\n      swap1\n      div\n      0xffffffffffffffffffffffffffffffffffffffff\n      and\n        /* \"contracts/Projects/Wallet.sol\":3597:3606  msg.value */\n      callvalue\n        /* \"contracts/Projects/Wallet.sol\":3566:3607  ReceiveUser(msg.sender, owner, msg.value) */\n      mload(0x40)\n      tag_166\n      swap4\n      swap3\n      swap2\n      swap1\n      tag_167\n      jump\t// in\n    tag_166:\n      mload(0x40)\n      dup1\n      swap2\n      sub\n      swap1\n      log1\n        /* \"contracts/Projects/Wallet.sol\":3617:3635  transactionHistory */\n      0x00\n        /* \"contracts/Projects/Wallet.sol\":3654:3821  Transaction({... */\n      mload(0x40)\n      dup1\n      0x80\n      add\n      0x40\n      mstore\n      dup1\n        /* \"contracts/Projects/Wallet.sol\":3690:3700  msg.sender */\n      caller\n        /* \"contracts/Projects/Wallet.sol\":3654:3821  Transaction({... */\n      0xffffffffffffffffffffffffffffffffffffffff\n      and\n      dup2\n      mstore\n      0x20\n      add\n        /* \"contracts/Projects/Wallet.sol\":3722:3727  owner */\n      0x01\n      0x00\n      swap1\n      sload\n      swap1\n      0x0100\n      exp\n      swap1\n      div\n      0xffffffffffffffffffffffffffffffffffffffff\n      and\n        /* \"contracts/Projects/Wallet.sol\":3654:3821  Transaction({... */\n      0xffffffffffffffffffffffffffffffffffffffff\n      and\n      dup2\n      mstore\n      0x20\n      add\n        /* \"contracts/Projects/Wallet.sol\":3756:3771  block.timestamp */\n      timestamp\n        /* \"contracts/Projects/Wallet.sol\":3654:3821  Transaction({... */\n      dup2\n      mstore\n      0x20\n      add\n        /* \"contracts/Projects/Wallet.sol\":3797:3806  msg.value */\n      callvalue\n        /* \"contracts/Projects/Wallet.sol\":3654:3821  Transaction({... */\n      dup2\n      mstore\n      pop\n        /* \"contracts/Projects/Wallet.sol\":3617:3831  transactionHistory.push(... */\n      swap1\n      dup1\n      0x01\n      dup2\n      sload\n      add\n      dup1\n      dup3\n      sstore\n      dup1\n      swap2\n      pop\n      pop\n      0x01\n      swap1\n      sub\n      swap1\n      0x00\n      mstore\n      keccak256(0x00, 0x20)\n      swap1\n      0x04\n      mul\n      add\n      0x00\n      swap1\n      swap2\n      swap1\n      swap2\n      swap1\n      swap2\n      pop\n      0x00\n      dup3\n      add\n      mload\n      dup2\n      0x00\n      add\n      exp(0x0100, 0x00)\n      dup2\n      sload\n      dup2\n      0xffffffffffffffffffffffffffffffffffffffff\n      mul\n      not\n      and\n      swap1\n      dup4\n      0xffffffffffffffffffffffffffffffffffffffff\n      and\n      mul\n      or\n      swap1\n      sstore\n      pop\n      0x20\n      dup3\n      add\n      mload\n      dup2\n      0x01\n      add\n      exp(0x0100, 0x00)\n      dup2\n      sload\n      dup2\n      0xffffffffffffffffffffffffffffffffffffffff\n      mul\n      not\n      and\n      swap1\n      dup4\n      0xffffffffffffffffffffffffffffffffffffffff\n      and\n      mul\n      or\n      swap1\n      sstore\n      pop\n      0x40\n      dup3\n      add\n      mload\n      dup2\n      0x02\n      add\n      sstore\n      0x60\n      dup3\n      add\n      mload\n      dup2\n      0x03\n      add\n      sstore\n      pop\n      pop\n        /* \"contracts/Projects/Wallet.sol\":3392:3838  function receiveFromUser() external payable {... */\n      jump\t// out\n        /* \"contracts/Projects/Wallet.sol\":1281:1715  function transferToContract(uint256 _startTime)... */\n    tag_94:\n        /* \"contracts/Projects/Wallet.sol\":1388:1398  msg.sender */\n      caller\n        /* \"contracts/Projects/Wallet.sol\":858:859  5 */\n      0x05\n        /* \"contracts/Projects/Wallet.sol\":832:846  suspiciousUser */\n      0x04\n        /* \"contracts/Projects/Wallet.sol\":832:855  suspiciousUser[_sender] */\n      0x00\n        /* \"contracts/Projects/Wallet.sol\":847:854  _sender */\n      dup4\n        /* \"contracts/Projects/Wallet.sol\":832:855  suspiciousUser[_sender] */\n      0xffffffffffffffffffffffffffffffffffffffff\n      and\n      0xffffffffffffffffffffffffffffffffffffffff\n      and\n      dup2\n      mstore\n      0x20\n      add\n      swap1\n      dup2\n      mstore\n      0x20\n      add\n      0x00\n      keccak256\n      sload\n        /* \"contracts/Projects/Wallet.sol\":832:859  suspiciousUser[_sender] < 5 */\n      lt\n        /* \"contracts/Projects/Wallet.sol\":811:921  require(... */\n      tag_170\n      jumpi\n      mload(0x40)\n      0x08c379a000000000000000000000000000000000000000000000000000000000\n      dup2\n      mstore\n      0x04\n      add\n      tag_171\n      swap1\n      tag_172\n      jump\t// in\n    tag_171:\n      mload(0x40)\n      dup1\n      swap2\n      sub\n      swap1\n      revert\n    tag_170:\n        /* \"contracts/Projects/Wallet.sol\":1440:1450  _startTime */\n      dup2\n        /* \"contracts/Projects/Wallet.sol\":1422:1437  block.timestamp */\n      timestamp\n        /* \"contracts/Projects/Wallet.sol\":1422:1450  block.timestamp > _startTime */\n      gt\n        /* \"contracts/Projects/Wallet.sol\":1414:1476  require(block.timestamp > _startTime, \"send after start time\") */\n      tag_174\n      jumpi\n      mload(0x40)\n      0x08c379a000000000000000000000000000000000000000000000000000000000\n      dup2\n      mstore\n      0x04\n      add\n      tag_175\n      swap1\n      tag_176\n      jump\t// in\n    tag_175:\n      mload(0x40)\n      dup1\n      swap2\n      sub\n      swap1\n      revert\n    tag_174:\n        /* \"contracts/Projects/Wallet.sol\":1486:1504  transactionHistory */\n      0x00\n        /* \"contracts/Projects/Wallet.sol\":1523:1698  Transaction({... */\n      mload(0x40)\n      dup1\n      0x80\n      add\n      0x40\n      mstore\n      dup1\n        /* \"contracts/Projects/Wallet.sol\":1559:1569  msg.sender */\n      caller\n        /* \"contracts/Projects/Wallet.sol\":1523:1698  Transaction({... */\n      0xffffffffffffffffffffffffffffffffffffffff\n      and\n      dup2\n      mstore\n      0x20\n      add\n        /* \"contracts/Projects/Wallet.sol\":1599:1603  this */\n      address\n        /* \"contracts/Projects/Wallet.sol\":1523:1698  Transaction({... */\n      0xffffffffffffffffffffffffffffffffffffffff\n      and\n      dup2\n      mstore\n      0x20\n      add\n        /* \"contracts/Projects/Wallet.sol\":1633:1648  block.timestamp */\n      timestamp\n        /* \"contracts/Projects/Wallet.sol\":1523:1698  Transaction({... */\n      dup2\n      mstore\n      0x20\n      add\n        /* \"contracts/Projects/Wallet.sol\":1674:1683  msg.value */\n      callvalue\n        /* \"contracts/Projects/Wallet.sol\":1523:1698  Transaction({... */\n      dup2\n      mstore\n      pop\n        /* \"contracts/Projects/Wallet.sol\":1486:1708  transactionHistory.push(... */\n      swap1\n      dup1\n      0x01\n      dup2\n      sload\n      add\n      dup1\n      dup3\n      sstore\n      dup1\n      swap2\n      pop\n      pop\n      0x01\n      swap1\n      sub\n      swap1\n      0x00\n      mstore\n      keccak256(0x00, 0x20)\n      swap1\n      0x04\n      mul\n      add\n      0x00\n      swap1\n      swap2\n      swap1\n      swap2\n      swap1\n      swap2\n      pop\n      0x00\n      dup3\n      add\n      mload\n      dup2\n      0x00\n      add\n      exp(0x0100, 0x00)\n      dup2\n      sload\n      dup2\n      0xffffffffffffffffffffffffffffffffffffffff\n      mul\n      not\n      and\n      swap1\n      dup4\n      0xffffffffffffffffffffffffffffffffffffffff\n      and\n      mul\n      or\n      swap1\n      sstore\n      pop\n      0x20\n      dup3\n      add\n      mload\n      dup2\n      0x01\n      add\n      exp(0x0100, 0x00)\n      dup2\n      sload\n      dup2\n      0xffffffffffffffffffffffffffffffffffffffff\n      mul\n      not\n      and\n      swap1\n      dup4\n      0xffffffffffffffffffffffffffffffffffffffff\n      and\n      mul\n      or\n      swap1\n      sstore\n      pop\n      0x40\n      dup3\n      add\n      mload\n      dup2\n      0x02\n      add\n      sstore\n      0x60\n      dup3\n      add\n      mload\n      dup2\n      0x03\n      add\n      sstore\n      pop\n      pop\n        /* \"contracts/Projects/Wallet.sol\":1281:1715  function transferToContract(uint256 _startTime)... */\n      pop\n      pop\n      jump\t// out\n        /* \"contracts/Projects/Wallet.sol\":1130:1238  function changOwner(address newOwner) public onlyOwner isEmergencyDeclared {... */\n    tag_98:\n        /* \"contracts/Projects/Wallet.sol\":654:659  owner */\n      0x01\n      0x00\n      swap1\n      sload\n      swap1\n      0x0100\n      exp\n      swap1\n      div\n      0xffffffffffffffffffffffffffffffffffffffff\n      and\n        /* \"contracts/Projects/Wallet.sol\":640:659  msg.sender == owner */\n      0xffffffffffffffffffffffffffffffffffffffff\n      and\n        /* \"contracts/Projects/Wallet.sol\":640:650  msg.sender */\n      caller\n        /* \"contracts/Projects/Wallet.sol\":640:659  msg.sender == owner */\n      0xffffffffffffffffffffffffffffffffffffffff\n      and\n      eq\n        /* \"contracts/Projects/Wallet.sol\":632:685  require(msg.sender == owner, \"You don't have access\") */\n      tag_179\n      jumpi\n      mload(0x40)\n      0x08c379a000000000000000000000000000000000000000000000000000000000\n      dup2\n      mstore\n      0x04\n      add\n      tag_180\n      swap1\n      tag_107\n      jump\t// in\n    tag_180:\n      mload(0x40)\n      dup1\n      swap2\n      sub\n      swap1\n      revert\n    tag_179:\n        /* \"contracts/Projects/Wallet.sol\":1002:1007  false */\n      0x00\n        /* \"contracts/Projects/Wallet.sol\":994:1007  stop == false */\n      iszero\n      iszero\n        /* \"contracts/Projects/Wallet.sol\":994:998  stop */\n      0x03\n      0x00\n      swap1\n      sload\n      swap1\n      0x0100\n      exp\n      swap1\n      div\n      0xff\n      and\n        /* \"contracts/Projects/Wallet.sol\":994:1007  stop == false */\n      iszero\n      iszero\n      eq\n        /* \"contracts/Projects/Wallet.sol\":986:1030  require(stop == false, \"Emergency declared\") */\n      tag_182\n      jumpi\n      mload(0x40)\n      0x08c379a000000000000000000000000000000000000000000000000000000000\n      dup2\n      mstore\n      0x04\n      add\n      tag_183\n      swap1\n      tag_184\n      jump\t// in\n    tag_183:\n      mload(0x40)\n      dup1\n      swap2\n      sub\n      swap1\n      revert\n    tag_182:\n        /* \"contracts/Projects/Wallet.sol\":1223:1231  newOwner */\n      dup1\n        /* \"contracts/Projects/Wallet.sol\":1215:1220  owner */\n      0x01\n      0x00\n        /* \"contracts/Projects/Wallet.sol\":1215:1231  owner = newOwner */\n      0x0100\n      exp\n      dup2\n      sload\n      dup2\n      0xffffffffffffffffffffffffffffffffffffffff\n      mul\n      not\n      and\n      swap1\n      dup4\n      0xffffffffffffffffffffffffffffffffffffffff\n      and\n      mul\n      or\n      swap1\n      sstore\n      pop\n        /* \"contracts/Projects/Wallet.sol\":1130:1238  function changOwner(address newOwner) public onlyOwner isEmergencyDeclared {... */\n      pop\n      jump\t// out\n        /* \"#utility.yul\":7:133   */\n    tag_186:\n        /* \"#utility.yul\":44:51   */\n      0x00\n        /* \"#utility.yul\":84:126   */\n      0xffffffffffffffffffffffffffffffffffffffff\n        /* \"#utility.yul\":77:82   */\n      dup3\n        /* \"#utility.yul\":73:127   */\n      and\n        /* \"#utility.yul\":62:127   */\n      swap1\n      pop\n        /* \"#utility.yul\":7:133   */\n      swap2\n      swap1\n      pop\n      jump\t// out\n        /* \"#utility.yul\":139:235   */\n    tag_187:\n        /* \"#utility.yul\":176:183   */\n      0x00\n        /* \"#utility.yul\":205:229   */\n      tag_245\n        /* \"#utility.yul\":223:228   */\n      dup3\n        /* \"#utility.yul\":205:229   */\n      tag_186\n      jump\t// in\n    tag_245:\n        /* \"#utility.yul\":194:229   */\n      swap1\n      pop\n        /* \"#utility.yul\":139:235   */\n      swap2\n      swap1\n      pop\n      jump\t// out\n        /* \"#utility.yul\":241:359   */\n    tag_188:\n        /* \"#utility.yul\":328:352   */\n      tag_247\n        /* \"#utility.yul\":346:351   */\n      dup2\n        /* \"#utility.yul\":328:352   */\n      tag_187\n      jump\t// in\n    tag_247:\n        /* \"#utility.yul\":323:326   */\n      dup3\n        /* \"#utility.yul\":316:353   */\n      mstore\n        /* \"#utility.yul\":241:359   */\n      pop\n      pop\n      jump\t// out\n        /* \"#utility.yul\":365:442   */\n    tag_189:\n        /* \"#utility.yul\":402:409   */\n      0x00\n        /* \"#utility.yul\":431:436   */\n      dup2\n        /* \"#utility.yul\":420:436   */\n      swap1\n      pop\n        /* \"#utility.yul\":365:442   */\n      swap2\n      swap1\n      pop\n      jump\t// out\n        /* \"#utility.yul\":448:566   */\n    tag_190:\n        /* \"#utility.yul\":535:559   */\n      tag_250\n        /* \"#utility.yul\":553:558   */\n      dup2\n        /* \"#utility.yul\":535:559   */\n      tag_189\n      jump\t// in\n    tag_250:\n        /* \"#utility.yul\":530:533   */\n      dup3\n        /* \"#utility.yul\":523:560   */\n      mstore\n        /* \"#utility.yul\":448:566   */\n      pop\n      pop\n      jump\t// out\n        /* \"#utility.yul\":572:904   */\n    tag_26:\n        /* \"#utility.yul\":693:697   */\n      0x00\n        /* \"#utility.yul\":731:733   */\n      0x40\n        /* \"#utility.yul\":720:729   */\n      dup3\n        /* \"#utility.yul\":716:734   */\n      add\n        /* \"#utility.yul\":708:734   */\n      swap1\n      pop\n        /* \"#utility.yul\":744:815   */\n      tag_252\n        /* \"#utility.yul\":812:813   */\n      0x00\n        /* \"#utility.yul\":801:810   */\n      dup4\n        /* \"#utility.yul\":797:814   */\n      add\n        /* \"#utility.yul\":788:794   */\n      dup6\n        /* \"#utility.yul\":744:815   */\n      tag_188\n      jump\t// in\n    tag_252:\n        /* \"#utility.yul\":825:897   */\n      tag_253\n        /* \"#utility.yul\":893:895   */\n      0x20\n        /* \"#utility.yul\":882:891   */\n      dup4\n        /* \"#utility.yul\":878:896   */\n      add\n        /* \"#utility.yul\":869:875   */\n      dup5\n        /* \"#utility.yul\":825:897   */\n      tag_190\n      jump\t// in\n    tag_253:\n        /* \"#utility.yul\":572:904   */\n      swap4\n      swap3\n      pop\n      pop\n      pop\n      jump\t// out\n        /* \"#utility.yul\":910:1000   */\n    tag_191:\n        /* \"#utility.yul\":944:951   */\n      0x00\n        /* \"#utility.yul\":987:992   */\n      dup2\n        /* \"#utility.yul\":980:993   */\n      iszero\n        /* \"#utility.yul\":973:994   */\n      iszero\n        /* \"#utility.yul\":962:994   */\n      swap1\n      pop\n        /* \"#utility.yul\":910:1000   */\n      swap2\n      swap1\n      pop\n      jump\t// out\n        /* \"#utility.yul\":1006:1115   */\n    tag_192:\n        /* \"#utility.yul\":1087:1108   */\n      tag_256\n        /* \"#utility.yul\":1102:1107   */\n      dup2\n        /* \"#utility.yul\":1087:1108   */\n      tag_191\n      jump\t// in\n    tag_256:\n        /* \"#utility.yul\":1082:1085   */\n      dup3\n        /* \"#utility.yul\":1075:1109   */\n      mstore\n        /* \"#utility.yul\":1006:1115   */\n      pop\n      pop\n      jump\t// out\n        /* \"#utility.yul\":1121:1331   */\n    tag_36:\n        /* \"#utility.yul\":1208:1212   */\n      0x00\n        /* \"#utility.yul\":1246:1248   */\n      0x20\n        /* \"#utility.yul\":1235:1244   */\n      dup3\n        /* \"#utility.yul\":1231:1249   */\n      add\n        /* \"#utility.yul\":1223:1249   */\n      swap1\n      pop\n        /* \"#utility.yul\":1259:1324   */\n      tag_258\n        /* \"#utility.yul\":1321:1322   */\n      0x00\n        /* \"#utility.yul\":1310:1319   */\n      dup4\n        /* \"#utility.yul\":1306:1323   */\n      add\n        /* \"#utility.yul\":1297:1303   */\n      dup5\n        /* \"#utility.yul\":1259:1324   */\n      tag_192\n      jump\t// in\n    tag_258:\n        /* \"#utility.yul\":1121:1331   */\n      swap3\n      swap2\n      pop\n      pop\n      jump\t// out\n        /* \"#utility.yul\":1418:1535   */\n    tag_194:\n        /* \"#utility.yul\":1527:1528   */\n      0x00\n        /* \"#utility.yul\":1524:1525   */\n      dup1\n        /* \"#utility.yul\":1517:1529   */\n      revert\n        /* \"#utility.yul\":1664:1786   */\n    tag_196:\n        /* \"#utility.yul\":1737:1761   */\n      tag_263\n        /* \"#utility.yul\":1755:1760   */\n      dup2\n        /* \"#utility.yul\":1737:1761   */\n      tag_189\n      jump\t// in\n    tag_263:\n        /* \"#utility.yul\":1730:1735   */\n      dup2\n        /* \"#utility.yul\":1727:1762   */\n      eq\n        /* \"#utility.yul\":1717:1780   */\n      tag_264\n      jumpi\n        /* \"#utility.yul\":1776:1777   */\n      0x00\n        /* \"#utility.yul\":1773:1774   */\n      dup1\n        /* \"#utility.yul\":1766:1778   */\n      revert\n        /* \"#utility.yul\":1717:1780   */\n    tag_264:\n        /* \"#utility.yul\":1664:1786   */\n      pop\n      jump\t// out\n        /* \"#utility.yul\":1792:1931   */\n    tag_197:\n        /* \"#utility.yul\":1838:1843   */\n      0x00\n        /* \"#utility.yul\":1876:1882   */\n      dup2\n        /* \"#utility.yul\":1863:1883   */\n      calldataload\n        /* \"#utility.yul\":1854:1883   */\n      swap1\n      pop\n        /* \"#utility.yul\":1892:1925   */\n      tag_266\n        /* \"#utility.yul\":1919:1924   */\n      dup2\n        /* \"#utility.yul\":1892:1925   */\n      tag_196\n      jump\t// in\n    tag_266:\n        /* \"#utility.yul\":1792:1931   */\n      swap3\n      swap2\n      pop\n      pop\n      jump\t// out\n        /* \"#utility.yul\":1937:2266   */\n    tag_40:\n        /* \"#utility.yul\":1996:2002   */\n      0x00\n        /* \"#utility.yul\":2045:2047   */\n      0x20\n        /* \"#utility.yul\":2033:2042   */\n      dup3\n        /* \"#utility.yul\":2024:2031   */\n      dup5\n        /* \"#utility.yul\":2020:2043   */\n      sub\n        /* \"#utility.yul\":2016:2048   */\n      slt\n        /* \"#utility.yul\":2013:2132   */\n      iszero\n      tag_268\n      jumpi\n        /* \"#utility.yul\":2051:2130   */\n      tag_269\n      tag_194\n      jump\t// in\n    tag_269:\n        /* \"#utility.yul\":2013:2132   */\n    tag_268:\n        /* \"#utility.yul\":2171:2172   */\n      0x00\n        /* \"#utility.yul\":2196:2249   */\n      tag_270\n        /* \"#utility.yul\":2241:2248   */\n      dup5\n        /* \"#utility.yul\":2232:2238   */\n      dup3\n        /* \"#utility.yul\":2221:2230   */\n      dup6\n        /* \"#utility.yul\":2217:2239   */\n      add\n        /* \"#utility.yul\":2196:2249   */\n      tag_197\n      jump\t// in\n    tag_270:\n        /* \"#utility.yul\":2186:2249   */\n      swap2\n      pop\n        /* \"#utility.yul\":2142:2259   */\n      pop\n        /* \"#utility.yul\":1937:2266   */\n      swap3\n      swap2\n      pop\n      pop\n      jump\t// out\n        /* \"#utility.yul\":2272:2825   */\n    tag_43:\n        /* \"#utility.yul\":2449:2453   */\n      0x00\n        /* \"#utility.yul\":2487:2490   */\n      0x80\n        /* \"#utility.yul\":2476:2485   */\n      dup3\n        /* \"#utility.yul\":2472:2491   */\n      add\n        /* \"#utility.yul\":2464:2491   */\n      swap1\n      pop\n        /* \"#utility.yul\":2501:2572   */\n      tag_272\n        /* \"#utility.yul\":2569:2570   */\n      0x00\n        /* \"#utility.yul\":2558:2567   */\n      dup4\n        /* \"#utility.yul\":2554:2571   */\n      add\n        /* \"#utility.yul\":2545:2551   */\n      dup8\n        /* \"#utility.yul\":2501:2572   */\n      tag_188\n      jump\t// in\n    tag_272:\n        /* \"#utility.yul\":2582:2654   */\n      tag_273\n        /* \"#utility.yul\":2650:2652   */\n      0x20\n        /* \"#utility.yul\":2639:2648   */\n      dup4\n        /* \"#utility.yul\":2635:2653   */\n      add\n        /* \"#utility.yul\":2626:2632   */\n      dup7\n        /* \"#utility.yul\":2582:2654   */\n      tag_188\n      jump\t// in\n    tag_273:\n        /* \"#utility.yul\":2664:2736   */\n      tag_274\n        /* \"#utility.yul\":2732:2734   */\n      0x40\n        /* \"#utility.yul\":2721:2730   */\n      dup4\n        /* \"#utility.yul\":2717:2735   */\n      add\n        /* \"#utility.yul\":2708:2714   */\n      dup6\n        /* \"#utility.yul\":2664:2736   */\n      tag_190\n      jump\t// in\n    tag_274:\n        /* \"#utility.yul\":2746:2818   */\n      tag_275\n        /* \"#utility.yul\":2814:2816   */\n      0x60\n        /* \"#utility.yul\":2803:2812   */\n      dup4\n        /* \"#utility.yul\":2799:2817   */\n      add\n        /* \"#utility.yul\":2790:2796   */\n      dup5\n        /* \"#utility.yul\":2746:2818   */\n      tag_190\n      jump\t// in\n    tag_275:\n        /* \"#utility.yul\":2272:2825   */\n      swap6\n      swap5\n      pop\n      pop\n      pop\n      pop\n      pop\n      jump\t// out\n        /* \"#utility.yul\":2831:2935   */\n    tag_198:\n        /* \"#utility.yul\":2876:2883   */\n      0x00\n        /* \"#utility.yul\":2905:2929   */\n      tag_277\n        /* \"#utility.yul\":2923:2928   */\n      dup3\n        /* \"#utility.yul\":2905:2929   */\n      tag_186\n      jump\t// in\n    tag_277:\n        /* \"#utility.yul\":2894:2929   */\n      swap1\n      pop\n        /* \"#utility.yul\":2831:2935   */\n      swap2\n      swap1\n      pop\n      jump\t// out\n        /* \"#utility.yul\":2941:3079   */\n    tag_199:\n        /* \"#utility.yul\":3022:3054   */\n      tag_279\n        /* \"#utility.yul\":3048:3053   */\n      dup2\n        /* \"#utility.yul\":3022:3054   */\n      tag_198\n      jump\t// in\n    tag_279:\n        /* \"#utility.yul\":3015:3020   */\n      dup2\n        /* \"#utility.yul\":3012:3055   */\n      eq\n        /* \"#utility.yul\":3002:3073   */\n      tag_280\n      jumpi\n        /* \"#utility.yul\":3069:3070   */\n      0x00\n        /* \"#utility.yul\":3066:3067   */\n      dup1\n        /* \"#utility.yul\":3059:3071   */\n      revert\n        /* \"#utility.yul\":3002:3073   */\n    tag_280:\n        /* \"#utility.yul\":2941:3079   */\n      pop\n      jump\t// out\n        /* \"#utility.yul\":3085:3240   */\n    tag_200:\n        /* \"#utility.yul\":3139:3144   */\n      0x00\n        /* \"#utility.yul\":3177:3183   */\n      dup2\n        /* \"#utility.yul\":3164:3184   */\n      calldataload\n        /* \"#utility.yul\":3155:3184   */\n      swap1\n      pop\n        /* \"#utility.yul\":3193:3234   */\n      tag_282\n        /* \"#utility.yul\":3228:3233   */\n      dup2\n        /* \"#utility.yul\":3193:3234   */\n      tag_199\n      jump\t// in\n    tag_282:\n        /* \"#utility.yul\":3085:3240   */\n      swap3\n      swap2\n      pop\n      pop\n      jump\t// out\n        /* \"#utility.yul\":3246:3736   */\n    tag_47:\n        /* \"#utility.yul\":3322:3328   */\n      0x00\n        /* \"#utility.yul\":3330:3336   */\n      dup1\n        /* \"#utility.yul\":3379:3381   */\n      0x40\n        /* \"#utility.yul\":3367:3376   */\n      dup4\n        /* \"#utility.yul\":3358:3365   */\n      dup6\n        /* \"#utility.yul\":3354:3377   */\n      sub\n        /* \"#utility.yul\":3350:3382   */\n      slt\n        /* \"#utility.yul\":3347:3466   */\n      iszero\n      tag_284\n      jumpi\n        /* \"#utility.yul\":3385:3464   */\n      tag_285\n      tag_194\n      jump\t// in\n    tag_285:\n        /* \"#utility.yul\":3347:3466   */\n    tag_284:\n        /* \"#utility.yul\":3505:3506   */\n      0x00\n        /* \"#utility.yul\":3530:3591   */\n      tag_286\n        /* \"#utility.yul\":3583:3590   */\n      dup6\n        /* \"#utility.yul\":3574:3580   */\n      dup3\n        /* \"#utility.yul\":3563:3572   */\n      dup7\n        /* \"#utility.yul\":3559:3581   */\n      add\n        /* \"#utility.yul\":3530:3591   */\n      tag_200\n      jump\t// in\n    tag_286:\n        /* \"#utility.yul\":3520:3591   */\n      swap3\n      pop\n        /* \"#utility.yul\":3476:3601   */\n      pop\n        /* \"#utility.yul\":3640:3642   */\n      0x20\n        /* \"#utility.yul\":3666:3719   */\n      tag_287\n        /* \"#utility.yul\":3711:3718   */\n      dup6\n        /* \"#utility.yul\":3702:3708   */\n      dup3\n        /* \"#utility.yul\":3691:3700   */\n      dup7\n        /* \"#utility.yul\":3687:3709   */\n      add\n        /* \"#utility.yul\":3666:3719   */\n      tag_197\n      jump\t// in\n    tag_287:\n        /* \"#utility.yul\":3656:3719   */\n      swap2\n      pop\n        /* \"#utility.yul\":3611:3729   */\n      pop\n        /* \"#utility.yul\":3246:3736   */\n      swap3\n      pop\n      swap3\n      swap1\n      pop\n      jump\t// out\n        /* \"#utility.yul\":3742:3964   */\n    tag_53:\n        /* \"#utility.yul\":3835:3839   */\n      0x00\n        /* \"#utility.yul\":3873:3875   */\n      0x20\n        /* \"#utility.yul\":3862:3871   */\n      dup3\n        /* \"#utility.yul\":3858:3876   */\n      add\n        /* \"#utility.yul\":3850:3876   */\n      swap1\n      pop\n        /* \"#utility.yul\":3886:3957   */\n      tag_289\n        /* \"#utility.yul\":3954:3955   */\n      0x00\n        /* \"#utility.yul\":3943:3952   */\n      dup4\n        /* \"#utility.yul\":3939:3956   */\n      add\n        /* \"#utility.yul\":3930:3936   */\n      dup5\n        /* \"#utility.yul\":3886:3957   */\n      tag_190\n      jump\t// in\n    tag_289:\n        /* \"#utility.yul\":3742:3964   */\n      swap3\n      swap2\n      pop\n      pop\n      jump\t// out\n        /* \"#utility.yul\":3970:4092   */\n    tag_201:\n        /* \"#utility.yul\":4043:4067   */\n      tag_291\n        /* \"#utility.yul\":4061:4066   */\n      dup2\n        /* \"#utility.yul\":4043:4067   */\n      tag_187\n      jump\t// in\n    tag_291:\n        /* \"#utility.yul\":4036:4041   */\n      dup2\n        /* \"#utility.yul\":4033:4068   */\n      eq\n        /* \"#utility.yul\":4023:4086   */\n      tag_292\n      jumpi\n        /* \"#utility.yul\":4082:4083   */\n      0x00\n        /* \"#utility.yul\":4079:4080   */\n      dup1\n        /* \"#utility.yul\":4072:4084   */\n      revert\n        /* \"#utility.yul\":4023:4086   */\n    tag_292:\n        /* \"#utility.yul\":3970:4092   */\n      pop\n      jump\t// out\n        /* \"#utility.yul\":4098:4237   */\n    tag_202:\n        /* \"#utility.yul\":4144:4149   */\n      0x00\n        /* \"#utility.yul\":4182:4188   */\n      dup2\n        /* \"#utility.yul\":4169:4189   */\n      calldataload\n        /* \"#utility.yul\":4160:4189   */\n      swap1\n      pop\n        /* \"#utility.yul\":4198:4231   */\n      tag_294\n        /* \"#utility.yul\":4225:4230   */\n      dup2\n        /* \"#utility.yul\":4198:4231   */\n      tag_201\n      jump\t// in\n    tag_294:\n        /* \"#utility.yul\":4098:4237   */\n      swap3\n      swap2\n      pop\n      pop\n      jump\t// out\n        /* \"#utility.yul\":4243:4572   */\n    tag_56:\n        /* \"#utility.yul\":4302:4308   */\n      0x00\n        /* \"#utility.yul\":4351:4353   */\n      0x20\n        /* \"#utility.yul\":4339:4348   */\n      dup3\n        /* \"#utility.yul\":4330:4337   */\n      dup5\n        /* \"#utility.yul\":4326:4349   */\n      sub\n        /* \"#utility.yul\":4322:4354   */\n      slt\n        /* \"#utility.yul\":4319:4438   */\n      iszero\n      tag_296\n      jumpi\n        /* \"#utility.yul\":4357:4436   */\n      tag_297\n      tag_194\n      jump\t// in\n    tag_297:\n        /* \"#utility.yul\":4319:4438   */\n    tag_296:\n        /* \"#utility.yul\":4477:4478   */\n      0x00\n        /* \"#utility.yul\":4502:4555   */\n      tag_298\n        /* \"#utility.yul\":4547:4554   */\n      dup5\n        /* \"#utility.yul\":4538:4544   */\n      dup3\n        /* \"#utility.yul\":4527:4536   */\n      dup6\n        /* \"#utility.yul\":4523:4545   */\n      add\n        /* \"#utility.yul\":4502:4555   */\n      tag_202\n      jump\t// in\n    tag_298:\n        /* \"#utility.yul\":4492:4555   */\n      swap2\n      pop\n        /* \"#utility.yul\":4448:4565   */\n      pop\n        /* \"#utility.yul\":4243:4572   */\n      swap3\n      swap2\n      pop\n      pop\n      jump\t// out\n        /* \"#utility.yul\":4578:4800   */\n    tag_65:\n        /* \"#utility.yul\":4671:4675   */\n      0x00\n        /* \"#utility.yul\":4709:4711   */\n      0x20\n        /* \"#utility.yul\":4698:4707   */\n      dup3\n        /* \"#utility.yul\":4694:4712   */\n      add\n        /* \"#utility.yul\":4686:4712   */\n      swap1\n      pop\n        /* \"#utility.yul\":4722:4793   */\n      tag_300\n        /* \"#utility.yul\":4790:4791   */\n      0x00\n        /* \"#utility.yul\":4779:4788   */\n      dup4\n        /* \"#utility.yul\":4775:4792   */\n      add\n        /* \"#utility.yul\":4766:4772   */\n      dup5\n        /* \"#utility.yul\":4722:4793   */\n      tag_188\n      jump\t// in\n    tag_300:\n        /* \"#utility.yul\":4578:4800   */\n      swap3\n      swap2\n      pop\n      pop\n      jump\t// out\n        /* \"#utility.yul\":4806:4947   */\n    tag_203:\n        /* \"#utility.yul\":4900:4906   */\n      0x00\n        /* \"#utility.yul\":4934:4939   */\n      dup2\n        /* \"#utility.yul\":4928:4940   */\n      mload\n        /* \"#utility.yul\":4918:4940   */\n      swap1\n      pop\n        /* \"#utility.yul\":4806:4947   */\n      swap2\n      swap1\n      pop\n      jump\t// out\n        /* \"#utility.yul\":4953:5164   */\n    tag_204:\n        /* \"#utility.yul\":5079:5090   */\n      0x00\n        /* \"#utility.yul\":5113:5119   */\n      dup3\n        /* \"#utility.yul\":5108:5111   */\n      dup3\n        /* \"#utility.yul\":5101:5120   */\n      mstore\n        /* \"#utility.yul\":5153:5157   */\n      0x20\n        /* \"#utility.yul\":5148:5151   */\n      dup3\n        /* \"#utility.yul\":5144:5158   */\n      add\n        /* \"#utility.yul\":5129:5158   */\n      swap1\n      pop\n        /* \"#utility.yul\":4953:5164   */\n      swap3\n      swap2\n      pop\n      pop\n      jump\t// out\n        /* \"#utility.yul\":5170:5329   */\n    tag_205:\n        /* \"#utility.yul\":5264:5268   */\n      0x00\n        /* \"#utility.yul\":5287:5290   */\n      dup2\n        /* \"#utility.yul\":5279:5290   */\n      swap1\n      pop\n        /* \"#utility.yul\":5317:5321   */\n      0x20\n        /* \"#utility.yul\":5312:5315   */\n      dup3\n        /* \"#utility.yul\":5308:5322   */\n      add\n        /* \"#utility.yul\":5300:5322   */\n      swap1\n      pop\n        /* \"#utility.yul\":5170:5329   */\n      swap2\n      swap1\n      pop\n      jump\t// out\n        /* \"#utility.yul\":5335:5443   */\n    tag_206:\n        /* \"#utility.yul\":5412:5436   */\n      tag_305\n        /* \"#utility.yul\":5430:5435   */\n      dup2\n        /* \"#utility.yul\":5412:5436   */\n      tag_187\n      jump\t// in\n    tag_305:\n        /* \"#utility.yul\":5407:5410   */\n      dup3\n        /* \"#utility.yul\":5400:5437   */\n      mstore\n        /* \"#utility.yul\":5335:5443   */\n      pop\n      pop\n      jump\t// out\n        /* \"#utility.yul\":5449:5557   */\n    tag_207:\n        /* \"#utility.yul\":5526:5550   */\n      tag_307\n        /* \"#utility.yul\":5544:5549   */\n      dup2\n        /* \"#utility.yul\":5526:5550   */\n      tag_189\n      jump\t// in\n    tag_307:\n        /* \"#utility.yul\":5521:5524   */\n      dup3\n        /* \"#utility.yul\":5514:5551   */\n      mstore\n        /* \"#utility.yul\":5449:5557   */\n      pop\n      pop\n      jump\t// out\n        /* \"#utility.yul\":5637:6491   */\n    tag_208:\n        /* \"#utility.yul\":5778:5782   */\n      0x80\n        /* \"#utility.yul\":5773:5776   */\n      dup3\n        /* \"#utility.yul\":5769:5783   */\n      add\n        /* \"#utility.yul\":5865:5869   */\n      0x00\n        /* \"#utility.yul\":5858:5863   */\n      dup3\n        /* \"#utility.yul\":5854:5870   */\n      add\n        /* \"#utility.yul\":5848:5871   */\n      mload\n        /* \"#utility.yul\":5884:5947   */\n      tag_309\n        /* \"#utility.yul\":5941:5945   */\n      0x00\n        /* \"#utility.yul\":5936:5939   */\n      dup6\n        /* \"#utility.yul\":5932:5946   */\n      add\n        /* \"#utility.yul\":5918:5930   */\n      dup3\n        /* \"#utility.yul\":5884:5947   */\n      tag_206\n      jump\t// in\n    tag_309:\n        /* \"#utility.yul\":5793:5957   */\n      pop\n        /* \"#utility.yul\":6037:6041   */\n      0x20\n        /* \"#utility.yul\":6030:6035   */\n      dup3\n        /* \"#utility.yul\":6026:6042   */\n      add\n        /* \"#utility.yul\":6020:6043   */\n      mload\n        /* \"#utility.yul\":6056:6119   */\n      tag_310\n        /* \"#utility.yul\":6113:6117   */\n      0x20\n        /* \"#utility.yul\":6108:6111   */\n      dup6\n        /* \"#utility.yul\":6104:6118   */\n      add\n        /* \"#utility.yul\":6090:6102   */\n      dup3\n        /* \"#utility.yul\":6056:6119   */\n      tag_206\n      jump\t// in\n    tag_310:\n        /* \"#utility.yul\":5967:6129   */\n      pop\n        /* \"#utility.yul\":6216:6220   */\n      0x40\n        /* \"#utility.yul\":6209:6214   */\n      dup3\n        /* \"#utility.yul\":6205:6221   */\n      add\n        /* \"#utility.yul\":6199:6222   */\n      mload\n        /* \"#utility.yul\":6235:6298   */\n      tag_311\n        /* \"#utility.yul\":6292:6296   */\n      0x40\n        /* \"#utility.yul\":6287:6290   */\n      dup6\n        /* \"#utility.yul\":6283:6297   */\n      add\n        /* \"#utility.yul\":6269:6281   */\n      dup3\n        /* \"#utility.yul\":6235:6298   */\n      tag_207\n      jump\t// in\n    tag_311:\n        /* \"#utility.yul\":6139:6308   */\n      pop\n        /* \"#utility.yul\":6392:6396   */\n      0x60\n        /* \"#utility.yul\":6385:6390   */\n      dup3\n        /* \"#utility.yul\":6381:6397   */\n      add\n        /* \"#utility.yul\":6375:6398   */\n      mload\n        /* \"#utility.yul\":6411:6474   */\n      tag_312\n        /* \"#utility.yul\":6468:6472   */\n      0x60\n        /* \"#utility.yul\":6463:6466   */\n      dup6\n        /* \"#utility.yul\":6459:6473   */\n      add\n        /* \"#utility.yul\":6445:6457   */\n      dup3\n        /* \"#utility.yul\":6411:6474   */\n      tag_207\n      jump\t// in\n    tag_312:\n        /* \"#utility.yul\":6318:6484   */\n      pop\n        /* \"#utility.yul\":5747:6491   */\n      pop\n        /* \"#utility.yul\":5637:6491   */\n      pop\n      pop\n      jump\t// out\n        /* \"#utility.yul\":6497:6784   */\n    tag_209:\n        /* \"#utility.yul\":6620:6630   */\n      0x00\n        /* \"#utility.yul\":6641:6741   */\n      tag_314\n        /* \"#utility.yul\":6737:6740   */\n      dup4\n        /* \"#utility.yul\":6729:6735   */\n      dup4\n        /* \"#utility.yul\":6641:6741   */\n      tag_208\n      jump\t// in\n    tag_314:\n        /* \"#utility.yul\":6773:6777   */\n      0x80\n        /* \"#utility.yul\":6768:6771   */\n      dup4\n        /* \"#utility.yul\":6764:6778   */\n      add\n        /* \"#utility.yul\":6750:6778   */\n      swap1\n      pop\n        /* \"#utility.yul\":6497:6784   */\n      swap3\n      swap2\n      pop\n      pop\n      jump\t// out\n        /* \"#utility.yul\":6790:6930   */\n    tag_210:\n        /* \"#utility.yul\":6887:6891   */\n      0x00\n        /* \"#utility.yul\":6919:6923   */\n      0x20\n        /* \"#utility.yul\":6914:6917   */\n      dup3\n        /* \"#utility.yul\":6910:6924   */\n      add\n        /* \"#utility.yul\":6902:6924   */\n      swap1\n      pop\n        /* \"#utility.yul\":6790:6930   */\n      swap2\n      swap1\n      pop\n      jump\t// out\n        /* \"#utility.yul\":7014:7962   */\n    tag_211:\n        /* \"#utility.yul\":7187:7190   */\n      0x00\n        /* \"#utility.yul\":7216:7297   */\n      tag_317\n        /* \"#utility.yul\":7291:7296   */\n      dup3\n        /* \"#utility.yul\":7216:7297   */\n      tag_203\n      jump\t// in\n    tag_317:\n        /* \"#utility.yul\":7313:7426   */\n      tag_318\n        /* \"#utility.yul\":7419:7425   */\n      dup2\n        /* \"#utility.yul\":7414:7417   */\n      dup6\n        /* \"#utility.yul\":7313:7426   */\n      tag_204\n      jump\t// in\n    tag_318:\n        /* \"#utility.yul\":7306:7426   */\n      swap4\n      pop\n        /* \"#utility.yul\":7450:7533   */\n      tag_319\n        /* \"#utility.yul\":7527:7532   */\n      dup4\n        /* \"#utility.yul\":7450:7533   */\n      tag_205\n      jump\t// in\n    tag_319:\n        /* \"#utility.yul\":7556:7563   */\n      dup1\n        /* \"#utility.yul\":7587:7588   */\n      0x00\n        /* \"#utility.yul\":7572:7937   */\n    tag_320:\n        /* \"#utility.yul\":7597:7603   */\n      dup4\n        /* \"#utility.yul\":7594:7595   */\n      dup2\n        /* \"#utility.yul\":7591:7604   */\n      lt\n        /* \"#utility.yul\":7572:7937   */\n      iszero\n      tag_322\n      jumpi\n        /* \"#utility.yul\":7673:7679   */\n      dup2\n        /* \"#utility.yul\":7667:7680   */\n      mload\n        /* \"#utility.yul\":7700:7817   */\n      tag_323\n        /* \"#utility.yul\":7813:7816   */\n      dup9\n        /* \"#utility.yul\":7798:7811   */\n      dup3\n        /* \"#utility.yul\":7700:7817   */\n      tag_209\n      jump\t// in\n    tag_323:\n        /* \"#utility.yul\":7693:7817   */\n      swap8\n      pop\n        /* \"#utility.yul\":7840:7927   */\n      tag_324\n        /* \"#utility.yul\":7920:7926   */\n      dup4\n        /* \"#utility.yul\":7840:7927   */\n      tag_210\n      jump\t// in\n    tag_324:\n        /* \"#utility.yul\":7830:7927   */\n      swap3\n      pop\n        /* \"#utility.yul\":7632:7937   */\n      pop\n        /* \"#utility.yul\":7619:7620   */\n      0x01\n        /* \"#utility.yul\":7616:7617   */\n      dup2\n        /* \"#utility.yul\":7612:7621   */\n      add\n        /* \"#utility.yul\":7607:7621   */\n      swap1\n      pop\n        /* \"#utility.yul\":7572:7937   */\n      jump(tag_320)\n    tag_322:\n        /* \"#utility.yul\":7576:7590   */\n      pop\n        /* \"#utility.yul\":7953:7956   */\n      dup6\n        /* \"#utility.yul\":7946:7956   */\n      swap4\n      pop\n        /* \"#utility.yul\":7192:7962   */\n      pop\n      pop\n      pop\n        /* \"#utility.yul\":7014:7962   */\n      swap3\n      swap2\n      pop\n      pop\n      jump\t// out\n        /* \"#utility.yul\":7968:8449   */\n    tag_77:\n        /* \"#utility.yul\":8165:8169   */\n      0x00\n        /* \"#utility.yul\":8203:8205   */\n      0x20\n        /* \"#utility.yul\":8192:8201   */\n      dup3\n        /* \"#utility.yul\":8188:8206   */\n      add\n        /* \"#utility.yul\":8180:8206   */\n      swap1\n      pop\n        /* \"#utility.yul\":8252:8261   */\n      dup2\n        /* \"#utility.yul\":8246:8250   */\n      dup2\n        /* \"#utility.yul\":8242:8262   */\n      sub\n        /* \"#utility.yul\":8238:8239   */\n      0x00\n        /* \"#utility.yul\":8227:8236   */\n      dup4\n        /* \"#utility.yul\":8223:8240   */\n      add\n        /* \"#utility.yul\":8216:8263   */\n      mstore\n        /* \"#utility.yul\":8280:8442   */\n      tag_326\n        /* \"#utility.yul\":8437:8441   */\n      dup2\n        /* \"#utility.yul\":8428:8434   */\n      dup5\n        /* \"#utility.yul\":8280:8442   */\n      tag_211\n      jump\t// in\n    tag_326:\n        /* \"#utility.yul\":8272:8442   */\n      swap1\n      pop\n        /* \"#utility.yul\":7968:8449   */\n      swap3\n      swap2\n      pop\n      pop\n      jump\t// out\n        /* \"#utility.yul\":8455:8554   */\n    tag_212:\n        /* \"#utility.yul\":8507:8513   */\n      0x00\n        /* \"#utility.yul\":8541:8546   */\n      dup2\n        /* \"#utility.yul\":8535:8547   */\n      mload\n        /* \"#utility.yul\":8525:8547   */\n      swap1\n      pop\n        /* \"#utility.yul\":8455:8554   */\n      swap2\n      swap1\n      pop\n      jump\t// out\n        /* \"#utility.yul\":8560:8729   */\n    tag_213:\n        /* \"#utility.yul\":8644:8655   */\n      0x00\n        /* \"#utility.yul\":8678:8684   */\n      dup3\n        /* \"#utility.yul\":8673:8676   */\n      dup3\n        /* \"#utility.yul\":8666:8685   */\n      mstore\n        /* \"#utility.yul\":8718:8722   */\n      0x20\n        /* \"#utility.yul\":8713:8716   */\n      dup3\n        /* \"#utility.yul\":8709:8723   */\n      add\n        /* \"#utility.yul\":8694:8723   */\n      swap1\n      pop\n        /* \"#utility.yul\":8560:8729   */\n      swap3\n      swap2\n      pop\n      pop\n      jump\t// out\n        /* \"#utility.yul\":8735:8874   */\n    tag_214:\n        /* \"#utility.yul\":8824:8830   */\n      dup3\n        /* \"#utility.yul\":8819:8822   */\n      dup2\n        /* \"#utility.yul\":8814:8817   */\n      dup4\n        /* \"#utility.yul\":8808:8831   */\n      mcopy\n        /* \"#utility.yul\":8865:8866   */\n      0x00\n        /* \"#utility.yul\":8856:8862   */\n      dup4\n        /* \"#utility.yul\":8851:8854   */\n      dup4\n        /* \"#utility.yul\":8847:8863   */\n      add\n        /* \"#utility.yul\":8840:8867   */\n      mstore\n        /* \"#utility.yul\":8735:8874   */\n      pop\n      pop\n      pop\n      jump\t// out\n        /* \"#utility.yul\":8880:8982   */\n    tag_215:\n        /* \"#utility.yul\":8921:8927   */\n      0x00\n        /* \"#utility.yul\":8972:8974   */\n      0x1f\n        /* \"#utility.yul\":8968:8975   */\n      not\n        /* \"#utility.yul\":8963:8965   */\n      0x1f\n        /* \"#utility.yul\":8956:8961   */\n      dup4\n        /* \"#utility.yul\":8952:8966   */\n      add\n        /* \"#utility.yul\":8948:8976   */\n      and\n        /* \"#utility.yul\":8938:8976   */\n      swap1\n      pop\n        /* \"#utility.yul\":8880:8982   */\n      swap2\n      swap1\n      pop\n      jump\t// out\n        /* \"#utility.yul\":8988:9365   */\n    tag_216:\n        /* \"#utility.yul\":9076:9079   */\n      0x00\n        /* \"#utility.yul\":9104:9143   */\n      tag_332\n        /* \"#utility.yul\":9137:9142   */\n      dup3\n        /* \"#utility.yul\":9104:9143   */\n      tag_212\n      jump\t// in\n    tag_332:\n        /* \"#utility.yul\":9159:9230   */\n      tag_333\n        /* \"#utility.yul\":9223:9229   */\n      dup2\n        /* \"#utility.yul\":9218:9221   */\n      dup6\n        /* \"#utility.yul\":9159:9230   */\n      tag_213\n      jump\t// in\n    tag_333:\n        /* \"#utility.yul\":9152:9230   */\n      swap4\n      pop\n        /* \"#utility.yul\":9239:9304   */\n      tag_334\n        /* \"#utility.yul\":9297:9303   */\n      dup2\n        /* \"#utility.yul\":9292:9295   */\n      dup6\n        /* \"#utility.yul\":9285:9289   */\n      0x20\n        /* \"#utility.yul\":9278:9283   */\n      dup7\n        /* \"#utility.yul\":9274:9290   */\n      add\n        /* \"#utility.yul\":9239:9304   */\n      tag_214\n      jump\t// in\n    tag_334:\n        /* \"#utility.yul\":9329:9358   */\n      tag_335\n        /* \"#utility.yul\":9351:9357   */\n      dup2\n        /* \"#utility.yul\":9329:9358   */\n      tag_215\n      jump\t// in\n    tag_335:\n        /* \"#utility.yul\":9324:9327   */\n      dup5\n        /* \"#utility.yul\":9320:9359   */\n      add\n        /* \"#utility.yul\":9313:9359   */\n      swap2\n      pop\n        /* \"#utility.yul\":9080:9365   */\n      pop\n        /* \"#utility.yul\":8988:9365   */\n      swap3\n      swap2\n      pop\n      pop\n      jump\t// out\n        /* \"#utility.yul\":9371:9684   */\n    tag_86:\n        /* \"#utility.yul\":9484:9488   */\n      0x00\n        /* \"#utility.yul\":9522:9524   */\n      0x20\n        /* \"#utility.yul\":9511:9520   */\n      dup3\n        /* \"#utility.yul\":9507:9525   */\n      add\n        /* \"#utility.yul\":9499:9525   */\n      swap1\n      pop\n        /* \"#utility.yul\":9571:9580   */\n      dup2\n        /* \"#utility.yul\":9565:9569   */\n      dup2\n        /* \"#utility.yul\":9561:9581   */\n      sub\n        /* \"#utility.yul\":9557:9558   */\n      0x00\n        /* \"#utility.yul\":9546:9555   */\n      dup4\n        /* \"#utility.yul\":9542:9559   */\n      add\n        /* \"#utility.yul\":9535:9582   */\n      mstore\n        /* \"#utility.yul\":9599:9677   */\n      tag_337\n        /* \"#utility.yul\":9672:9676   */\n      dup2\n        /* \"#utility.yul\":9663:9669   */\n      dup5\n        /* \"#utility.yul\":9599:9677   */\n      tag_216\n      jump\t// in\n    tag_337:\n        /* \"#utility.yul\":9591:9677   */\n      swap1\n      pop\n        /* \"#utility.yul\":9371:9684   */\n      swap3\n      swap2\n      pop\n      pop\n      jump\t// out\n        /* \"#utility.yul\":9690:9870   */\n    tag_217:\n        /* \"#utility.yul\":9738:9815   */\n      0x4e487b7100000000000000000000000000000000000000000000000000000000\n        /* \"#utility.yul\":9735:9736   */\n      0x00\n        /* \"#utility.yul\":9728:9816   */\n      mstore\n        /* \"#utility.yul\":9835:9839   */\n      0x11\n        /* \"#utility.yul\":9832:9833   */\n      0x04\n        /* \"#utility.yul\":9825:9840   */\n      mstore\n        /* \"#utility.yul\":9859:9863   */\n      0x24\n        /* \"#utility.yul\":9856:9857   */\n      0x00\n        /* \"#utility.yul\":9849:9864   */\n      revert\n        /* \"#utility.yul\":9876:10067   */\n    tag_101:\n        /* \"#utility.yul\":9916:9919   */\n      0x00\n        /* \"#utility.yul\":9935:9955   */\n      tag_340\n        /* \"#utility.yul\":9953:9954   */\n      dup3\n        /* \"#utility.yul\":9935:9955   */\n      tag_189\n      jump\t// in\n    tag_340:\n        /* \"#utility.yul\":9930:9955   */\n      swap2\n      pop\n        /* \"#utility.yul\":9969:9989   */\n      tag_341\n        /* \"#utility.yul\":9987:9988   */\n      dup4\n        /* \"#utility.yul\":9969:9989   */\n      tag_189\n      jump\t// in\n    tag_341:\n        /* \"#utility.yul\":9964:9989   */\n      swap3\n      pop\n        /* \"#utility.yul\":10012:10013   */\n      dup3\n        /* \"#utility.yul\":10009:10010   */\n      dup3\n        /* \"#utility.yul\":10005:10014   */\n      add\n        /* \"#utility.yul\":9998:10014   */\n      swap1\n      pop\n        /* \"#utility.yul\":10033:10036   */\n      dup1\n        /* \"#utility.yul\":10030:10031   */\n      dup3\n        /* \"#utility.yul\":10027:10037   */\n      gt\n        /* \"#utility.yul\":10024:10060   */\n      iszero\n      tag_342\n      jumpi\n        /* \"#utility.yul\":10040:10058   */\n      tag_343\n      tag_217\n      jump\t// in\n    tag_343:\n        /* \"#utility.yul\":10024:10060   */\n    tag_342:\n        /* \"#utility.yul\":9876:10067   */\n      swap3\n      swap2\n      pop\n      pop\n      jump\t// out\n        /* \"#utility.yul\":10073:10244   */\n    tag_218:\n        /* \"#utility.yul\":10213:10236   */\n      0x596f7520646f6e27742068617665206163636573730000000000000000000000\n        /* \"#utility.yul\":10209:10210   */\n      0x00\n        /* \"#utility.yul\":10201:10207   */\n      dup3\n        /* \"#utility.yul\":10197:10211   */\n      add\n        /* \"#utility.yul\":10190:10237   */\n      mstore\n        /* \"#utility.yul\":10073:10244   */\n      pop\n      jump\t// out\n        /* \"#utility.yul\":10250:10616   */\n    tag_219:\n        /* \"#utility.yul\":10392:10395   */\n      0x00\n        /* \"#utility.yul\":10413:10480   */\n      tag_346\n        /* \"#utility.yul\":10477:10479   */\n      0x15\n        /* \"#utility.yul\":10472:10475   */\n      dup4\n        /* \"#utility.yul\":10413:10480   */\n      tag_213\n      jump\t// in\n    tag_346:\n        /* \"#utility.yul\":10406:10480   */\n      swap2\n      pop\n        /* \"#utility.yul\":10489:10582   */\n      tag_347\n        /* \"#utility.yul\":10578:10581   */\n      dup3\n        /* \"#utility.yul\":10489:10582   */\n      tag_218\n      jump\t// in\n    tag_347:\n        /* \"#utility.yul\":10607:10609   */\n      0x20\n        /* \"#utility.yul\":10602:10605   */\n      dup3\n        /* \"#utility.yul\":10598:10610   */\n      add\n        /* \"#utility.yul\":10591:10610   */\n      swap1\n      pop\n        /* \"#utility.yul\":10250:10616   */\n      swap2\n      swap1\n      pop\n      jump\t// out\n        /* \"#utility.yul\":10622:11041   */\n    tag_107:\n        /* \"#utility.yul\":10788:10792   */\n      0x00\n        /* \"#utility.yul\":10826:10828   */\n      0x20\n        /* \"#utility.yul\":10815:10824   */\n      dup3\n        /* \"#utility.yul\":10811:10829   */\n      add\n        /* \"#utility.yul\":10803:10829   */\n      swap1\n      pop\n        /* \"#utility.yul\":10875:10884   */\n      dup2\n        /* \"#utility.yul\":10869:10873   */\n      dup2\n        /* \"#utility.yul\":10865:10885   */\n      sub\n        /* \"#utility.yul\":10861:10862   */\n      0x00\n        /* \"#utility.yul\":10850:10859   */\n      dup4\n        /* \"#utility.yul\":10846:10863   */\n      add\n        /* \"#utility.yul\":10839:10886   */\n      mstore\n        /* \"#utility.yul\":10903:11034   */\n      tag_349\n        /* \"#utility.yul\":11029:11033   */\n      dup2\n        /* \"#utility.yul\":10903:11034   */\n      tag_219\n      jump\t// in\n    tag_349:\n        /* \"#utility.yul\":10895:11034   */\n      swap1\n      pop\n        /* \"#utility.yul\":10622:11041   */\n      swap2\n      swap1\n      pop\n      jump\t// out\n        /* \"#utility.yul\":11047:11217   */\n    tag_220:\n        /* \"#utility.yul\":11187:11209   */\n      0x496e73756666696369656e742042616c616e6365000000000000000000000000\n        /* \"#utility.yul\":11183:11184   */\n      0x00\n        /* \"#utility.yul\":11175:11181   */\n      dup3\n        /* \"#utility.yul\":11171:11185   */\n      add\n        /* \"#utility.yul\":11164:11210   */\n      mstore\n        /* \"#utility.yul\":11047:11217   */\n      pop\n      jump\t// out\n        /* \"#utility.yul\":11223:11589   */\n    tag_221:\n        /* \"#utility.yul\":11365:11368   */\n      0x00\n        /* \"#utility.yul\":11386:11453   */\n      tag_352\n        /* \"#utility.yul\":11450:11452   */\n      0x14\n        /* \"#utility.yul\":11445:11448   */\n      dup4\n        /* \"#utility.yul\":11386:11453   */\n      tag_213\n      jump\t// in\n    tag_352:\n        /* \"#utility.yul\":11379:11453   */\n      swap2\n      pop\n        /* \"#utility.yul\":11462:11555   */\n      tag_353\n        /* \"#utility.yul\":11551:11554   */\n      dup3\n        /* \"#utility.yul\":11462:11555   */\n      tag_220\n      jump\t// in\n    tag_353:\n        /* \"#utility.yul\":11580:11582   */\n      0x20\n        /* \"#utility.yul\":11575:11578   */\n      dup3\n        /* \"#utility.yul\":11571:11583   */\n      add\n        /* \"#utility.yul\":11564:11583   */\n      swap1\n      pop\n        /* \"#utility.yul\":11223:11589   */\n      swap2\n      swap1\n      pop\n      jump\t// out\n        /* \"#utility.yul\":11595:12014   */\n    tag_111:\n        /* \"#utility.yul\":11761:11765   */\n      0x00\n        /* \"#utility.yul\":11799:11801   */\n      0x20\n        /* \"#utility.yul\":11788:11797   */\n      dup3\n        /* \"#utility.yul\":11784:11802   */\n      add\n        /* \"#utility.yul\":11776:11802   */\n      swap1\n      pop\n        /* \"#utility.yul\":11848:11857   */\n      dup2\n        /* \"#utility.yul\":11842:11846   */\n      dup2\n        /* \"#utility.yul\":11838:11858   */\n      sub\n        /* \"#utility.yul\":11834:11835   */\n      0x00\n        /* \"#utility.yul\":11823:11832   */\n      dup4\n        /* \"#utility.yul\":11819:11836   */\n      add\n        /* \"#utility.yul\":11812:11859   */\n      mstore\n        /* \"#utility.yul\":11876:12007   */\n      tag_355\n        /* \"#utility.yul\":12002:12006   */\n      dup2\n        /* \"#utility.yul\":11876:12007   */\n      tag_221\n      jump\t// in\n    tag_355:\n        /* \"#utility.yul\":11868:12007   */\n      swap1\n      pop\n        /* \"#utility.yul\":11595:12014   */\n      swap2\n      swap1\n      pop\n      jump\t// out\n        /* \"#utility.yul\":12020:12193   */\n    tag_222:\n        /* \"#utility.yul\":12160:12185   */\n      0x41647265737320666f726d617420696e636f7272656374000000000000000000\n        /* \"#utility.yul\":12156:12157   */\n      0x00\n        /* \"#utility.yul\":12148:12154   */\n      dup3\n        /* \"#utility.yul\":12144:12158   */\n      add\n        /* \"#utility.yul\":12137:12186   */\n      mstore\n        /* \"#utility.yul\":12020:12193   */\n      pop\n      jump\t// out\n        /* \"#utility.yul\":12199:12565   */\n    tag_223:\n        /* \"#utility.yul\":12341:12344   */\n      0x00\n        /* \"#utility.yul\":12362:12429   */\n      tag_358\n        /* \"#utility.yul\":12426:12428   */\n      0x17\n        /* \"#utility.yul\":12421:12424   */\n      dup4\n        /* \"#utility.yul\":12362:12429   */\n      tag_213\n      jump\t// in\n    tag_358:\n        /* \"#utility.yul\":12355:12429   */\n      swap2\n      pop\n        /* \"#utility.yul\":12438:12531   */\n      tag_359\n        /* \"#utility.yul\":12527:12530   */\n      dup3\n        /* \"#utility.yul\":12438:12531   */\n      tag_222\n      jump\t// in\n    tag_359:\n        /* \"#utility.yul\":12556:12558   */\n      0x20\n        /* \"#utility.yul\":12551:12554   */\n      dup3\n        /* \"#utility.yul\":12547:12559   */\n      add\n        /* \"#utility.yul\":12540:12559   */\n      swap1\n      pop\n        /* \"#utility.yul\":12199:12565   */\n      swap2\n      swap1\n      pop\n      jump\t// out\n        /* \"#utility.yul\":12571:12990   */\n    tag_114:\n        /* \"#utility.yul\":12737:12741   */\n      0x00\n        /* \"#utility.yul\":12775:12777   */\n      0x20\n        /* \"#utility.yul\":12764:12773   */\n      dup3\n        /* \"#utility.yul\":12760:12778   */\n      add\n        /* \"#utility.yul\":12752:12778   */\n      swap1\n      pop\n        /* \"#utility.yul\":12824:12833   */\n      dup2\n        /* \"#utility.yul\":12818:12822   */\n      dup2\n        /* \"#utility.yul\":12814:12834   */\n      sub\n        /* \"#utility.yul\":12810:12811   */\n      0x00\n        /* \"#utility.yul\":12799:12808   */\n      dup4\n        /* \"#utility.yul\":12795:12812   */\n      add\n        /* \"#utility.yul\":12788:12835   */\n      mstore\n        /* \"#utility.yul\":12852:12983   */\n      tag_361\n        /* \"#utility.yul\":12978:12982   */\n      dup2\n        /* \"#utility.yul\":12852:12983   */\n      tag_223\n      jump\t// in\n    tag_361:\n        /* \"#utility.yul\":12844:12983   */\n      swap1\n      pop\n        /* \"#utility.yul\":12571:12990   */\n      swap2\n      swap1\n      pop\n      jump\t// out\n        /* \"#utility.yul\":12996:13056   */\n    tag_224:\n        /* \"#utility.yul\":13024:13027   */\n      0x00\n        /* \"#utility.yul\":13045:13050   */\n      dup2\n        /* \"#utility.yul\":13038:13050   */\n      swap1\n      pop\n        /* \"#utility.yul\":12996:13056   */\n      swap2\n      swap1\n      pop\n      jump\t// out\n        /* \"#utility.yul\":13062:13204   */\n    tag_225:\n        /* \"#utility.yul\":13112:13121   */\n      0x00\n        /* \"#utility.yul\":13145:13198   */\n      tag_364\n        /* \"#utility.yul\":13163:13197   */\n      tag_365\n        /* \"#utility.yul\":13172:13196   */\n      tag_366\n        /* \"#utility.yul\":13190:13195   */\n      dup5\n        /* \"#utility.yul\":13172:13196   */\n      tag_186\n      jump\t// in\n    tag_366:\n        /* \"#utility.yul\":13163:13197   */\n      tag_224\n      jump\t// in\n    tag_365:\n        /* \"#utility.yul\":13145:13198   */\n      tag_186\n      jump\t// in\n    tag_364:\n        /* \"#utility.yul\":13132:13198   */\n      swap1\n      pop\n        /* \"#utility.yul\":13062:13204   */\n      swap2\n      swap1\n      pop\n      jump\t// out\n        /* \"#utility.yul\":13210:13336   */\n    tag_226:\n        /* \"#utility.yul\":13260:13269   */\n      0x00\n        /* \"#utility.yul\":13293:13330   */\n      tag_368\n        /* \"#utility.yul\":13324:13329   */\n      dup3\n        /* \"#utility.yul\":13293:13330   */\n      tag_225\n      jump\t// in\n    tag_368:\n        /* \"#utility.yul\":13280:13330   */\n      swap1\n      pop\n        /* \"#utility.yul\":13210:13336   */\n      swap2\n      swap1\n      pop\n      jump\t// out\n        /* \"#utility.yul\":13342:13476   */\n    tag_227:\n        /* \"#utility.yul\":13400:13409   */\n      0x00\n        /* \"#utility.yul\":13433:13470   */\n      tag_370\n        /* \"#utility.yul\":13464:13469   */\n      dup3\n        /* \"#utility.yul\":13433:13470   */\n      tag_226\n      jump\t// in\n    tag_370:\n        /* \"#utility.yul\":13420:13470   */\n      swap1\n      pop\n        /* \"#utility.yul\":13342:13476   */\n      swap2\n      swap1\n      pop\n      jump\t// out\n        /* \"#utility.yul\":13482:13629   */\n    tag_228:\n        /* \"#utility.yul\":13577:13622   */\n      tag_372\n        /* \"#utility.yul\":13616:13621   */\n      dup2\n        /* \"#utility.yul\":13577:13622   */\n      tag_227\n      jump\t// in\n    tag_372:\n        /* \"#utility.yul\":13572:13575   */\n      dup3\n        /* \"#utility.yul\":13565:13623   */\n      mstore\n        /* \"#utility.yul\":13482:13629   */\n      pop\n      pop\n      jump\t// out\n        /* \"#utility.yul\":13635:13983   */\n    tag_119:\n        /* \"#utility.yul\":13764:13768   */\n      0x00\n        /* \"#utility.yul\":13802:13804   */\n      0x40\n        /* \"#utility.yul\":13791:13800   */\n      dup3\n        /* \"#utility.yul\":13787:13805   */\n      add\n        /* \"#utility.yul\":13779:13805   */\n      swap1\n      pop\n        /* \"#utility.yul\":13815:13894   */\n      tag_374\n        /* \"#utility.yul\":13891:13892   */\n      0x00\n        /* \"#utility.yul\":13880:13889   */\n      dup4\n        /* \"#utility.yul\":13876:13893   */\n      add\n        /* \"#utility.yul\":13867:13873   */\n      dup6\n        /* \"#utility.yul\":13815:13894   */\n      tag_228\n      jump\t// in\n    tag_374:\n        /* \"#utility.yul\":13904:13976   */\n      tag_375\n        /* \"#utility.yul\":13972:13974   */\n      0x20\n        /* \"#utility.yul\":13961:13970   */\n      dup4\n        /* \"#utility.yul\":13957:13975   */\n      add\n        /* \"#utility.yul\":13948:13954   */\n      dup5\n        /* \"#utility.yul\":13904:13976   */\n      tag_190\n      jump\t// in\n    tag_375:\n        /* \"#utility.yul\":13635:13983   */\n      swap4\n      swap3\n      pop\n      pop\n      pop\n      jump\t// out\n        /* \"#utility.yul\":13989:14161   */\n    tag_229:\n        /* \"#utility.yul\":14129:14153   */\n      0x456d657267656e6379206e6f74206465636c6172656400000000000000000000\n        /* \"#utility.yul\":14125:14126   */\n      0x00\n        /* \"#utility.yul\":14117:14123   */\n      dup3\n        /* \"#utility.yul\":14113:14127   */\n      add\n        /* \"#utility.yul\":14106:14154   */\n      mstore\n        /* \"#utility.yul\":13989:14161   */\n      pop\n      jump\t// out\n        /* \"#utility.yul\":14167:14533   */\n    tag_230:\n        /* \"#utility.yul\":14309:14312   */\n      0x00\n        /* \"#utility.yul\":14330:14397   */\n      tag_378\n        /* \"#utility.yul\":14394:14396   */\n      0x16\n        /* \"#utility.yul\":14389:14392   */\n      dup4\n        /* \"#utility.yul\":14330:14397   */\n      tag_213\n      jump\t// in\n    tag_378:\n        /* \"#utility.yul\":14323:14397   */\n      swap2\n      pop\n        /* \"#utility.yul\":14406:14499   */\n      tag_379\n        /* \"#utility.yul\":14495:14498   */\n      dup3\n        /* \"#utility.yul\":14406:14499   */\n      tag_229\n      jump\t// in\n    tag_379:\n        /* \"#utility.yul\":14524:14526   */\n      0x20\n        /* \"#utility.yul\":14519:14522   */\n      dup3\n        /* \"#utility.yul\":14515:14527   */\n      add\n        /* \"#utility.yul\":14508:14527   */\n      swap1\n      pop\n        /* \"#utility.yul\":14167:14533   */\n      swap2\n      swap1\n      pop\n      jump\t// out\n        /* \"#utility.yul\":14539:14958   */\n    tag_132:\n        /* \"#utility.yul\":14705:14709   */\n      0x00\n        /* \"#utility.yul\":14743:14745   */\n      0x20\n        /* \"#utility.yul\":14732:14741   */\n      dup3\n        /* \"#utility.yul\":14728:14746   */\n      add\n        /* \"#utility.yul\":14720:14746   */\n      swap1\n      pop\n        /* \"#utility.yul\":14792:14801   */\n      dup2\n        /* \"#utility.yul\":14786:14790   */\n      dup2\n        /* \"#utility.yul\":14782:14802   */\n      sub\n        /* \"#utility.yul\":14778:14779   */\n      0x00\n        /* \"#utility.yul\":14767:14776   */\n      dup4\n        /* \"#utility.yul\":14763:14780   */\n      add\n        /* \"#utility.yul\":14756:14803   */\n      mstore\n        /* \"#utility.yul\":14820:14951   */\n      tag_381\n        /* \"#utility.yul\":14946:14950   */\n      dup2\n        /* \"#utility.yul\":14820:14951   */\n      tag_230\n      jump\t// in\n    tag_381:\n        /* \"#utility.yul\":14812:14951   */\n      swap1\n      pop\n        /* \"#utility.yul\":14539:14958   */\n      swap2\n      swap1\n      pop\n      jump\t// out\n        /* \"#utility.yul\":14964:15135   */\n    tag_231:\n        /* \"#utility.yul\":15104:15127   */\n      0x496e7375666666696369656e742062616c616e63650000000000000000000000\n        /* \"#utility.yul\":15100:15101   */\n      0x00\n        /* \"#utility.yul\":15092:15098   */\n      dup3\n        /* \"#utility.yul\":15088:15102   */\n      add\n        /* \"#utility.yul\":15081:15128   */\n      mstore\n        /* \"#utility.yul\":14964:15135   */\n      pop\n      jump\t// out\n        /* \"#utility.yul\":15141:15507   */\n    tag_232:\n        /* \"#utility.yul\":15283:15286   */\n      0x00\n        /* \"#utility.yul\":15304:15371   */\n      tag_384\n        /* \"#utility.yul\":15368:15370   */\n      0x15\n        /* \"#utility.yul\":15363:15366   */\n      dup4\n        /* \"#utility.yul\":15304:15371   */\n      tag_213\n      jump\t// in\n    tag_384:\n        /* \"#utility.yul\":15297:15371   */\n      swap2\n      pop\n        /* \"#utility.yul\":15380:15473   */\n      tag_385\n        /* \"#utility.yul\":15469:15472   */\n      dup3\n        /* \"#utility.yul\":15380:15473   */\n      tag_231\n      jump\t// in\n    tag_385:\n        /* \"#utility.yul\":15498:15500   */\n      0x20\n        /* \"#utility.yul\":15493:15496   */\n      dup3\n        /* \"#utility.yul\":15489:15501   */\n      add\n        /* \"#utility.yul\":15482:15501   */\n      swap1\n      pop\n        /* \"#utility.yul\":15141:15507   */\n      swap2\n      swap1\n      pop\n      jump\t// out\n        /* \"#utility.yul\":15513:15932   */\n    tag_145:\n        /* \"#utility.yul\":15679:15683   */\n      0x00\n        /* \"#utility.yul\":15717:15719   */\n      0x20\n        /* \"#utility.yul\":15706:15715   */\n      dup3\n        /* \"#utility.yul\":15702:15720   */\n      add\n        /* \"#utility.yul\":15694:15720   */\n      swap1\n      pop\n        /* \"#utility.yul\":15766:15775   */\n      dup2\n        /* \"#utility.yul\":15760:15764   */\n      dup2\n        /* \"#utility.yul\":15756:15776   */\n      sub\n        /* \"#utility.yul\":15752:15753   */\n      0x00\n        /* \"#utility.yul\":15741:15750   */\n      dup4\n        /* \"#utility.yul\":15737:15754   */\n      add\n        /* \"#utility.yul\":15730:15777   */\n      mstore\n        /* \"#utility.yul\":15794:15925   */\n      tag_387\n        /* \"#utility.yul\":15920:15924   */\n      dup2\n        /* \"#utility.yul\":15794:15925   */\n      tag_232\n      jump\t// in\n    tag_387:\n        /* \"#utility.yul\":15786:15925   */\n      swap1\n      pop\n        /* \"#utility.yul\":15513:15932   */\n      swap2\n      swap1\n      pop\n      jump\t// out\n        /* \"#utility.yul\":15938:16118   */\n    tag_233:\n        /* \"#utility.yul\":15986:16063   */\n      0x4e487b7100000000000000000000000000000000000000000000000000000000\n        /* \"#utility.yul\":15983:15984   */\n      0x00\n        /* \"#utility.yul\":15976:16064   */\n      mstore\n        /* \"#utility.yul\":16083:16087   */\n      0x22\n        /* \"#utility.yul\":16080:16081   */\n      0x04\n        /* \"#utility.yul\":16073:16088   */\n      mstore\n        /* \"#utility.yul\":16107:16111   */\n      0x24\n        /* \"#utility.yul\":16104:16105   */\n      0x00\n        /* \"#utility.yul\":16097:16112   */\n      revert\n        /* \"#utility.yul\":16124:16444   */\n    tag_155:\n        /* \"#utility.yul\":16168:16174   */\n      0x00\n        /* \"#utility.yul\":16205:16206   */\n      0x02\n        /* \"#utility.yul\":16199:16203   */\n      dup3\n        /* \"#utility.yul\":16195:16207   */\n      div\n        /* \"#utility.yul\":16185:16207   */\n      swap1\n      pop\n        /* \"#utility.yul\":16252:16253   */\n      0x01\n        /* \"#utility.yul\":16246:16250   */\n      dup3\n        /* \"#utility.yul\":16242:16254   */\n      and\n        /* \"#utility.yul\":16273:16291   */\n      dup1\n        /* \"#utility.yul\":16263:16344   */\n      tag_390\n      jumpi\n        /* \"#utility.yul\":16329:16333   */\n      0x7f\n        /* \"#utility.yul\":16321:16327   */\n      dup3\n        /* \"#utility.yul\":16317:16334   */\n      and\n        /* \"#utility.yul\":16307:16334   */\n      swap2\n      pop\n        /* \"#utility.yul\":16263:16344   */\n    tag_390:\n        /* \"#utility.yul\":16391:16393   */\n      0x20\n        /* \"#utility.yul\":16383:16389   */\n      dup3\n        /* \"#utility.yul\":16380:16394   */\n      lt\n        /* \"#utility.yul\":16360:16378   */\n      dup2\n        /* \"#utility.yul\":16357:16395   */\n      sub\n        /* \"#utility.yul\":16354:16438   */\n      tag_391\n      jumpi\n        /* \"#utility.yul\":16410:16428   */\n      tag_392\n      tag_233\n      jump\t// in\n    tag_392:\n        /* \"#utility.yul\":16354:16438   */\n    tag_391:\n        /* \"#utility.yul\":16175:16444   */\n      pop\n        /* \"#utility.yul\":16124:16444   */\n      swap2\n      swap1\n      pop\n      jump\t// out\n        /* \"#utility.yul\":16450:16672   */\n    tag_234:\n        /* \"#utility.yul\":16590:16624   */\n      0x5765692056616c7565206d7573742062652067726561746572207468616e207a\n        /* \"#utility.yul\":16586:16587   */\n      0x00\n        /* \"#utility.yul\":16578:16584   */\n      dup3\n        /* \"#utility.yul\":16574:16588   */\n      add\n        /* \"#utility.yul\":16567:16625   */\n      mstore\n        /* \"#utility.yul\":16659:16664   */\n      0x65726f0000000000000000000000000000000000000000000000000000000000\n        /* \"#utility.yul\":16654:16656   */\n      0x20\n        /* \"#utility.yul\":16646:16652   */\n      dup3\n        /* \"#utility.yul\":16642:16657   */\n      add\n        /* \"#utility.yul\":16635:16665   */\n      mstore\n        /* \"#utility.yul\":16450:16672   */\n      pop\n      jump\t// out\n        /* \"#utility.yul\":16678:17044   */\n    tag_235:\n        /* \"#utility.yul\":16820:16823   */\n      0x00\n        /* \"#utility.yul\":16841:16908   */\n      tag_395\n        /* \"#utility.yul\":16905:16907   */\n      0x23\n        /* \"#utility.yul\":16900:16903   */\n      dup4\n        /* \"#utility.yul\":16841:16908   */\n      tag_213\n      jump\t// in\n    tag_395:\n        /* \"#utility.yul\":16834:16908   */\n      swap2\n      pop\n        /* \"#utility.yul\":16917:17010   */\n      tag_396\n        /* \"#utility.yul\":17006:17009   */\n      dup3\n        /* \"#utility.yul\":16917:17010   */\n      tag_234\n      jump\t// in\n    tag_396:\n        /* \"#utility.yul\":17035:17037   */\n      0x40\n        /* \"#utility.yul\":17030:17033   */\n      dup3\n        /* \"#utility.yul\":17026:17038   */\n      add\n        /* \"#utility.yul\":17019:17038   */\n      swap1\n      pop\n        /* \"#utility.yul\":16678:17044   */\n      swap2\n      swap1\n      pop\n      jump\t// out\n        /* \"#utility.yul\":17050:17469   */\n    tag_163:\n        /* \"#utility.yul\":17216:17220   */\n      0x00\n        /* \"#utility.yul\":17254:17256   */\n      0x20\n        /* \"#utility.yul\":17243:17252   */\n      dup3\n        /* \"#utility.yul\":17239:17257   */\n      add\n        /* \"#utility.yul\":17231:17257   */\n      swap1\n      pop\n        /* \"#utility.yul\":17303:17312   */\n      dup2\n        /* \"#utility.yul\":17297:17301   */\n      dup2\n        /* \"#utility.yul\":17293:17313   */\n      sub\n        /* \"#utility.yul\":17289:17290   */\n      0x00\n        /* \"#utility.yul\":17278:17287   */\n      dup4\n        /* \"#utility.yul\":17274:17291   */\n      add\n        /* \"#utility.yul\":17267:17314   */\n      mstore\n        /* \"#utility.yul\":17331:17462   */\n      tag_398\n        /* \"#utility.yul\":17457:17461   */\n      dup2\n        /* \"#utility.yul\":17331:17462   */\n      tag_235\n      jump\t// in\n    tag_398:\n        /* \"#utility.yul\":17323:17462   */\n      swap1\n      pop\n        /* \"#utility.yul\":17050:17469   */\n      swap2\n      swap1\n      pop\n      jump\t// out\n        /* \"#utility.yul\":17475:17917   */\n    tag_167:\n        /* \"#utility.yul\":17624:17628   */\n      0x00\n        /* \"#utility.yul\":17662:17664   */\n      0x60\n        /* \"#utility.yul\":17651:17660   */\n      dup3\n        /* \"#utility.yul\":17647:17665   */\n      add\n        /* \"#utility.yul\":17639:17665   */\n      swap1\n      pop\n        /* \"#utility.yul\":17675:17746   */\n      tag_400\n        /* \"#utility.yul\":17743:17744   */\n      0x00\n        /* \"#utility.yul\":17732:17741   */\n      dup4\n        /* \"#utility.yul\":17728:17745   */\n      add\n        /* \"#utility.yul\":17719:17725   */\n      dup7\n        /* \"#utility.yul\":17675:17746   */\n      tag_188\n      jump\t// in\n    tag_400:\n        /* \"#utility.yul\":17756:17828   */\n      tag_401\n        /* \"#utility.yul\":17824:17826   */\n      0x20\n        /* \"#utility.yul\":17813:17822   */\n      dup4\n        /* \"#utility.yul\":17809:17827   */\n      add\n        /* \"#utility.yul\":17800:17806   */\n      dup6\n        /* \"#utility.yul\":17756:17828   */\n      tag_188\n      jump\t// in\n    tag_401:\n        /* \"#utility.yul\":17838:17910   */\n      tag_402\n        /* \"#utility.yul\":17906:17908   */\n      0x40\n        /* \"#utility.yul\":17895:17904   */\n      dup4\n        /* \"#utility.yul\":17891:17909   */\n      add\n        /* \"#utility.yul\":17882:17888   */\n      dup5\n        /* \"#utility.yul\":17838:17910   */\n      tag_190\n      jump\t// in\n    tag_402:\n        /* \"#utility.yul\":17475:17917   */\n      swap5\n      swap4\n      pop\n      pop\n      pop\n      pop\n      jump\t// out\n        /* \"#utility.yul\":17923:18146   */\n    tag_236:\n        /* \"#utility.yul\":18063:18097   */\n      0x416374697669747920666f756e6420737573706963696f75732c20547279206c\n        /* \"#utility.yul\":18059:18060   */\n      0x00\n        /* \"#utility.yul\":18051:18057   */\n      dup3\n        /* \"#utility.yul\":18047:18061   */\n      add\n        /* \"#utility.yul\":18040:18098   */\n      mstore\n        /* \"#utility.yul\":18132:18138   */\n      0x6174657200000000000000000000000000000000000000000000000000000000\n        /* \"#utility.yul\":18127:18129   */\n      0x20\n        /* \"#utility.yul\":18119:18125   */\n      dup3\n        /* \"#utility.yul\":18115:18130   */\n      add\n        /* \"#utility.yul\":18108:18139   */\n      mstore\n        /* \"#utility.yul\":17923:18146   */\n      pop\n      jump\t// out\n        /* \"#utility.yul\":18152:18518   */\n    tag_237:\n        /* \"#utility.yul\":18294:18297   */\n      0x00\n        /* \"#utility.yul\":18315:18382   */\n      tag_405\n        /* \"#utility.yul\":18379:18381   */\n      0x24\n        /* \"#utility.yul\":18374:18377   */\n      dup4\n        /* \"#utility.yul\":18315:18382   */\n      tag_213\n      jump\t// in\n    tag_405:\n        /* \"#utility.yul\":18308:18382   */\n      swap2\n      pop\n        /* \"#utility.yul\":18391:18484   */\n      tag_406\n        /* \"#utility.yul\":18480:18483   */\n      dup3\n        /* \"#utility.yul\":18391:18484   */\n      tag_236\n      jump\t// in\n    tag_406:\n        /* \"#utility.yul\":18509:18511   */\n      0x40\n        /* \"#utility.yul\":18504:18507   */\n      dup3\n        /* \"#utility.yul\":18500:18512   */\n      add\n        /* \"#utility.yul\":18493:18512   */\n      swap1\n      pop\n        /* \"#utility.yul\":18152:18518   */\n      swap2\n      swap1\n      pop\n      jump\t// out\n        /* \"#utility.yul\":18524:18943   */\n    tag_172:\n        /* \"#utility.yul\":18690:18694   */\n      0x00\n        /* \"#utility.yul\":18728:18730   */\n      0x20\n        /* \"#utility.yul\":18717:18726   */\n      dup3\n        /* \"#utility.yul\":18713:18731   */\n      add\n        /* \"#utility.yul\":18705:18731   */\n      swap1\n      pop\n        /* \"#utility.yul\":18777:18786   */\n      dup2\n        /* \"#utility.yul\":18771:18775   */\n      dup2\n        /* \"#utility.yul\":18767:18787   */\n      sub\n        /* \"#utility.yul\":18763:18764   */\n      0x00\n        /* \"#utility.yul\":18752:18761   */\n      dup4\n        /* \"#utility.yul\":18748:18765   */\n      add\n        /* \"#utility.yul\":18741:18788   */\n      mstore\n        /* \"#utility.yul\":18805:18936   */\n      tag_408\n        /* \"#utility.yul\":18931:18935   */\n      dup2\n        /* \"#utility.yul\":18805:18936   */\n      tag_237\n      jump\t// in\n    tag_408:\n        /* \"#utility.yul\":18797:18936   */\n      swap1\n      pop\n        /* \"#utility.yul\":18524:18943   */\n      swap2\n      swap1\n      pop\n      jump\t// out\n        /* \"#utility.yul\":18949:19120   */\n    tag_238:\n        /* \"#utility.yul\":19089:19112   */\n      0x73656e642061667465722073746172742074696d650000000000000000000000\n        /* \"#utility.yul\":19085:19086   */\n      0x00\n        /* \"#utility.yul\":19077:19083   */\n      dup3\n        /* \"#utility.yul\":19073:19087   */\n      add\n        /* \"#utility.yul\":19066:19113   */\n      mstore\n        /* \"#utility.yul\":18949:19120   */\n      pop\n      jump\t// out\n        /* \"#utility.yul\":19126:19492   */\n    tag_239:\n        /* \"#utility.yul\":19268:19271   */\n      0x00\n        /* \"#utility.yul\":19289:19356   */\n      tag_411\n        /* \"#utility.yul\":19353:19355   */\n      0x15\n        /* \"#utility.yul\":19348:19351   */\n      dup4\n        /* \"#utility.yul\":19289:19356   */\n      tag_213\n      jump\t// in\n    tag_411:\n        /* \"#utility.yul\":19282:19356   */\n      swap2\n      pop\n        /* \"#utility.yul\":19365:19458   */\n      tag_412\n        /* \"#utility.yul\":19454:19457   */\n      dup3\n        /* \"#utility.yul\":19365:19458   */\n      tag_238\n      jump\t// in\n    tag_412:\n        /* \"#utility.yul\":19483:19485   */\n      0x20\n        /* \"#utility.yul\":19478:19481   */\n      dup3\n        /* \"#utility.yul\":19474:19486   */\n      add\n        /* \"#utility.yul\":19467:19486   */\n      swap1\n      pop\n        /* \"#utility.yul\":19126:19492   */\n      swap2\n      swap1\n      pop\n      jump\t// out\n        /* \"#utility.yul\":19498:19917   */\n    tag_176:\n        /* \"#utility.yul\":19664:19668   */\n      0x00\n        /* \"#utility.yul\":19702:19704   */\n      0x20\n        /* \"#utility.yul\":19691:19700   */\n      dup3\n        /* \"#utility.yul\":19687:19705   */\n      add\n        /* \"#utility.yul\":19679:19705   */\n      swap1\n      pop\n        /* \"#utility.yul\":19751:19760   */\n      dup2\n        /* \"#utility.yul\":19745:19749   */\n      dup2\n        /* \"#utility.yul\":19741:19761   */\n      sub\n        /* \"#utility.yul\":19737:19738   */\n      0x00\n        /* \"#utility.yul\":19726:19735   */\n      dup4\n        /* \"#utility.yul\":19722:19739   */\n      add\n        /* \"#utility.yul\":19715:19762   */\n      mstore\n        /* \"#utility.yul\":19779:19910   */\n      tag_414\n        /* \"#utility.yul\":19905:19909   */\n      dup2\n        /* \"#utility.yul\":19779:19910   */\n      tag_239\n      jump\t// in\n    tag_414:\n        /* \"#utility.yul\":19771:19910   */\n      swap1\n      pop\n        /* \"#utility.yul\":19498:19917   */\n      swap2\n      swap1\n      pop\n      jump\t// out\n        /* \"#utility.yul\":19923:20091   */\n    tag_240:\n        /* \"#utility.yul\":20063:20083   */\n      0x456d657267656e6379206465636c617265640000000000000000000000000000\n        /* \"#utility.yul\":20059:20060   */\n      0x00\n        /* \"#utility.yul\":20051:20057   */\n      dup3\n        /* \"#utility.yul\":20047:20061   */\n      add\n        /* \"#utility.yul\":20040:20084   */\n      mstore\n        /* \"#utility.yul\":19923:20091   */\n      pop\n      jump\t// out\n        /* \"#utility.yul\":20097:20463   */\n    tag_241:\n        /* \"#utility.yul\":20239:20242   */\n      0x00\n        /* \"#utility.yul\":20260:20327   */\n      tag_417\n        /* \"#utility.yul\":20324:20326   */\n      0x12\n        /* \"#utility.yul\":20319:20322   */\n      dup4\n        /* \"#utility.yul\":20260:20327   */\n      tag_213\n      jump\t// in\n    tag_417:\n        /* \"#utility.yul\":20253:20327   */\n      swap2\n      pop\n        /* \"#utility.yul\":20336:20429   */\n      tag_418\n        /* \"#utility.yul\":20425:20428   */\n      dup3\n        /* \"#utility.yul\":20336:20429   */\n      tag_240\n      jump\t// in\n    tag_418:\n        /* \"#utility.yul\":20454:20456   */\n      0x20\n        /* \"#utility.yul\":20449:20452   */\n      dup3\n        /* \"#utility.yul\":20445:20457   */\n      add\n        /* \"#utility.yul\":20438:20457   */\n      swap1\n      pop\n        /* \"#utility.yul\":20097:20463   */\n      swap2\n      swap1\n      pop\n      jump\t// out\n        /* \"#utility.yul\":20469:20888   */\n    tag_184:\n        /* \"#utility.yul\":20635:20639   */\n      0x00\n        /* \"#utility.yul\":20673:20675   */\n      0x20\n        /* \"#utility.yul\":20662:20671   */\n      dup3\n        /* \"#utility.yul\":20658:20676   */\n      add\n        /* \"#utility.yul\":20650:20676   */\n      swap1\n      pop\n        /* \"#utility.yul\":20722:20731   */\n      dup2\n        /* \"#utility.yul\":20716:20720   */\n      dup2\n        /* \"#utility.yul\":20712:20732   */\n      sub\n        /* \"#utility.yul\":20708:20709   */\n      0x00\n        /* \"#utility.yul\":20697:20706   */\n      dup4\n        /* \"#utility.yul\":20693:20710   */\n      add\n        /* \"#utility.yul\":20686:20733   */\n      mstore\n        /* \"#utility.yul\":20750:20881   */\n      tag_420\n        /* \"#utility.yul\":20876:20880   */\n      dup2\n        /* \"#utility.yul\":20750:20881   */\n      tag_241\n      jump\t// in\n    tag_420:\n        /* \"#utility.yul\":20742:20881   */\n      swap1\n      pop\n        /* \"#utility.yul\":20469:20888   */\n      swap2\n      swap1\n      pop\n      jump\t// out\n\n    auxdata: 0xa26469706673582212206e5b8b5451916cd5e1ee2c18148fc39a9c2c42a4a9120dc5650d1ad8f0104ad564736f6c634300081a0033\n}\n",
				"bytecode": {
					"linkReferences": {},
					"object": "6080604052348015600e575f80fd5b503360015f6101000a81548173ffffffffffffffffffffffffffffffffffffffff021916908373ffffffffffffffffffffffffffffffffffffffff160217905550611f4e8061005c5f395ff3fe6080604052600436106100f6575f3560e01c8063aeae547d11610089578063cf87f05211610058578063cf87f05214610434578063d2b539481461045c578063d555d47314610466578063eb2d9fd3146104825761024a565b8063aeae547d1461038e578063b76d4fc3146103b6578063bfa698de146103e0578063c15bae841461040a5761024a565b80636f3f42ac116100c55780636f3f42ac1461031c5780637935e5a3146103385780638da5cb5b1461034e5780639a70eef1146103785761024a565b806307da68f514610261578063243e7a871461028b57806347cdcc1f146102ca578063547fbe8e146102f25761024a565b3661024a575f60405180608001604052803373ffffffffffffffffffffffffffffffffffffffff1681526020013073ffffffffffffffffffffffffffffffffffffffff16815260200142815260200134815250908060018154018082558091505060019003905f5260205f2090600402015f909190919091505f820151815f015f6101000a81548173ffffffffffffffffffffffffffffffffffffffff021916908373ffffffffffffffffffffffffffffffffffffffff1602179055506020820151816001015f6101000a81548173ffffffffffffffffffffffffffffffffffffffff021916908373ffffffffffffffffffffffffffffffffffffffff160217905550604082015181600201556060820151816003015550507fd6717f327e0cb88b4a97a7f67a453e9258252c34937ccbdd86de7cb840e7def333346040516102409291906115f1565b60405180910390a1005b348015610255575f80fd5b5061025f336104aa565b005b34801561026c575f80fd5b50610275610501565b6040516102829190611632565b60405180910390f35b348015610296575f80fd5b506102b160048036038101906102ac9190611679565b610513565b6040516102c194939291906116a4565b60405180910390f35b3480156102d5575f80fd5b506102f060048036038101906102eb9190611722565b61058b565b005b3480156102fd575f80fd5b50610306610860565b6040516103139190611760565b60405180910390f35b610336600480360381019061033191906117a3565b61089f565b005b348015610343575f80fd5b5061034c610aab565b005b348015610359575f80fd5b50610362610b67565b60405161036f91906117ce565b60405180910390f35b348015610383575f80fd5b5061038c610b8c565b005b348015610399575f80fd5b506103b460048036038101906103af9190611679565b610c45565b005b3480156103c1575f80fd5b506103ca610eb4565b6040516103d79190611900565b60405180910390f35b3480156103eb575f80fd5b506103f4610fcc565b6040516104019190611760565b60405180910390f35b348015610415575f80fd5b5061041e610fd3565b60405161042b9190611990565b60405180910390f35b34801561043f575f80fd5b5061045a600480360381019061045591906117a3565b6104aa565b005b61046461105f565b005b610480600480360381019061047b9190611679565b611299565b005b34801561048d575f80fd5b506104a860048036038101906104a391906117a3565b611474565b005b600160045f8373ffffffffffffffffffffffffffffffffffffffff1673ffffffffffffffffffffffffffffffffffffffff1681526020019081526020015f205f8282546104f791906119dd565b9250508190555050565b60035f9054906101000a900460ff1681565b5f8181548110610521575f80fd5b905f5260205f2090600402015f91509050805f015f9054906101000a900473ffffffffffffffffffffffffffffffffffffffff1690806001015f9054906101000a900473ffffffffffffffffffffffffffffffffffffffff16908060020154908060030154905084565b60015f9054906101000a900473ffffffffffffffffffffffffffffffffffffffff1673ffffffffffffffffffffffffffffffffffffffff163373ffffffffffffffffffffffffffffffffffffffff161461061a576040517f08c379a000000000000000000000000000000000000000000000000000000000815260040161061190611a5a565b60405180910390fd5b8047101561065d576040517f08c379a000000000000000000000000000000000000000000000000000000000815260040161065490611ac2565b60405180910390fd5b5f73ffffffffffffffffffffffffffffffffffffffff168273ffffffffffffffffffffffffffffffffffffffff16036106cb576040517f08c379a00000000000000000000000000000000000000000000000000000000081526004016106c290611b2a565b60405180910390fd5b8173ffffffffffffffffffffffffffffffffffffffff166108fc8290811502906040515f60405180830381858888f1935050505015801561070e573d5f803e3d5ffd5b505f60405180608001604052803373ffffffffffffffffffffffffffffffffffffffff1681526020018473ffffffffffffffffffffffffffffffffffffffff16815260200142815260200183815250908060018154018082558091505060019003905f5260205f2090600402015f909190919091505f820151815f015f6101000a81548173ffffffffffffffffffffffffffffffffffffffff021916908373ffffffffffffffffffffffffffffffffffffffff1602179055506020820151816001015f6101000a81548173ffffffffffffffffffffffffffffffffffffffff021916908373ffffffffffffffffffffffffffffffffffffffff160217905550604082015181600201556060820151816003015550507f69ca02dd4edd7bf0a4abb9ed3b7af3f14778db5d61921c7dc7cd545266326de28282604051610854929190611ba3565b60405180910390a15050565b5f60015f9054906101000a900473ffffffffffffffffffffffffffffffffffffffff1673ffffffffffffffffffffffffffffffffffffffff1631905090565b344710156108e2576040517f08c379a00000000000000000000000000000000000000000000000000000000081526004016108d990611ac2565b60405180910390fd5b5f73ffffffffffffffffffffffffffffffffffffffff168173ffffffffffffffffffffffffffffffffffffffff1603610950576040517f08c379a000000000000000000000000000000000000000000000000000000000815260040161094790611b2a565b60405180910390fd5b8073ffffffffffffffffffffffffffffffffffffffff166108fc3490811502906040515f60405180830381858888f19350505050158015610993573d5f803e3d5ffd5b505f60405180608001604052803373ffffffffffffffffffffffffffffffffffffffff1681526020018373ffffffffffffffffffffffffffffffffffffffff16815260200142815260200134815250908060018154018082558091505060019003905f5260205f2090600402015f909190919091505f820151815f015f6101000a81548173ffffffffffffffffffffffffffffffffffffffff021916908373ffffffffffffffffffffffffffffffffffffffff1602179055506020820151816001015f6101000a81548173ffffffffffffffffffffffffffffffffffffffff021916908373ffffffffffffffffffffffffffffffffffffffff1602179055506040820151816002015560608201518160030155505050565b6001151560035f9054906101000a900460ff16151514610b00576040517f08c379a0000000000000000000000000000000000000000000000000000000008152600401610af790611c14565b60405180910390fd5b60015f9054906101000a900473ffffffffffffffffffffffffffffffffffffffff1673ffffffffffffffffffffffffffffffffffffffff166108fc4790811502906040515f60405180830381858888f19350505050158015610b64573d5f803e3d5ffd5b50565b60015f9054906101000a900473ffffffffffffffffffffffffffffffffffffffff1681565b60015f9054906101000a900473ffffffffffffffffffffffffffffffffffffffff1673ffffffffffffffffffffffffffffffffffffffff163373ffffffffffffffffffffffffffffffffffffffff1614610c1b576040517f08c379a0000000000000000000000000000000000000000000000000000000008152600401610c1290611a5a565b60405180910390fd5b60035f9054906101000a900460ff161560035f6101000a81548160ff021916908315150217905550565b60015f9054906101000a900473ffffffffffffffffffffffffffffffffffffffff1673ffffffffffffffffffffffffffffffffffffffff163373ffffffffffffffffffffffffffffffffffffffff1614610cd4576040517f08c379a0000000000000000000000000000000000000000000000000000000008152600401610ccb90611a5a565b60405180910390fd5b80471015610d17576040517f08c379a0000000000000000000000000000000000000000000000000000000008152600401610d0e90611c7c565b60405180910390fd5b60015f9054906101000a900473ffffffffffffffffffffffffffffffffffffffff1673ffffffffffffffffffffffffffffffffffffffff166108fc8290811502906040515f60405180830381858888f19350505050158015610d7b573d5f803e3d5ffd5b505f60405180608001604052803073ffffffffffffffffffffffffffffffffffffffff16815260200160015f9054906101000a900473ffffffffffffffffffffffffffffffffffffffff1673ffffffffffffffffffffffffffffffffffffffff16815260200142815260200183815250908060018154018082558091505060019003905f5260205f2090600402015f909190919091505f820151815f015f6101000a81548173ffffffffffffffffffffffffffffffffffffffff021916908373ffffffffffffffffffffffffffffffffffffffff1602179055506020820151816001015f6101000a81548173ffffffffffffffffffffffffffffffffffffffff021916908373ffffffffffffffffffffffffffffffffffffffff1602179055506040820151816002015560608201518160030155505050565b60605f805480602002602001604051908101604052809291908181526020015f905b82821015610fc3578382905f5260205f2090600402016040518060800160405290815f82015f9054906101000a900473ffffffffffffffffffffffffffffffffffffffff1673ffffffffffffffffffffffffffffffffffffffff1673ffffffffffffffffffffffffffffffffffffffff168152602001600182015f9054906101000a900473ffffffffffffffffffffffffffffffffffffffff1673ffffffffffffffffffffffffffffffffffffffff1673ffffffffffffffffffffffffffffffffffffffff1681526020016002820154815260200160038201548152505081526020019060010190610ed6565b50505050905090565b5f47905090565b60028054610fe090611cc7565b80601f016020809104026020016040519081016040528092919081815260200182805461100c90611cc7565b80156110575780601f1061102e57610100808354040283529160200191611057565b820191905f5260205f20905b81548152906001019060200180831161103a57829003601f168201915b505050505081565b5f34116110a1576040517f08c379a000000000000000000000000000000000000000000000000000000000815260040161109890611d67565b60405180910390fd5b60015f9054906101000a900473ffffffffffffffffffffffffffffffffffffffff1673ffffffffffffffffffffffffffffffffffffffff166108fc3490811502906040515f60405180830381858888f19350505050158015611105573d5f803e3d5ffd5b507f6bff45ea56524a93993203a4991ca550597cbc6392508dd91678a3cc936c55773360015f9054906101000a900473ffffffffffffffffffffffffffffffffffffffff163460405161115a93929190611d85565b60405180910390a15f60405180608001604052803373ffffffffffffffffffffffffffffffffffffffff16815260200160015f9054906101000a900473ffffffffffffffffffffffffffffffffffffffff1673ffffffffffffffffffffffffffffffffffffffff16815260200142815260200134815250908060018154018082558091505060019003905f5260205f2090600402015f909190919091505f820151815f015f6101000a81548173ffffffffffffffffffffffffffffffffffffffff021916908373ffffffffffffffffffffffffffffffffffffffff1602179055506020820151816001015f6101000a81548173ffffffffffffffffffffffffffffffffffffffff021916908373ffffffffffffffffffffffffffffffffffffffff16021790555060408201518160020155606082015181600301555050565b33600560045f8373ffffffffffffffffffffffffffffffffffffffff1673ffffffffffffffffffffffffffffffffffffffff1681526020019081526020015f20541061131a576040517f08c379a000000000000000000000000000000000000000000000000000000000815260040161131190611e2a565b60405180910390fd5b81421161135c576040517f08c379a000000000000000000000000000000000000000000000000000000000815260040161135390611e92565b60405180910390fd5b5f60405180608001604052803373ffffffffffffffffffffffffffffffffffffffff1681526020013073ffffffffffffffffffffffffffffffffffffffff16815260200142815260200134815250908060018154018082558091505060019003905f5260205f2090600402015f909190919091505f820151815f015f6101000a81548173ffffffffffffffffffffffffffffffffffffffff021916908373ffffffffffffffffffffffffffffffffffffffff1602179055506020820151816001015f6101000a81548173ffffffffffffffffffffffffffffffffffffffff021916908373ffffffffffffffffffffffffffffffffffffffff160217905550604082015181600201556060820151816003015550505050565b60015f9054906101000a900473ffffffffffffffffffffffffffffffffffffffff1673ffffffffffffffffffffffffffffffffffffffff163373ffffffffffffffffffffffffffffffffffffffff1614611503576040517f08c379a00000000000000000000000000000000000000000000000000000000081526004016114fa90611a5a565b60405180910390fd5b5f151560035f9054906101000a900460ff16151514611557576040517f08c379a000000000000000000000000000000000000000000000000000000000815260040161154e90611efa565b60405180910390fd5b8060015f6101000a81548173ffffffffffffffffffffffffffffffffffffffff021916908373ffffffffffffffffffffffffffffffffffffffff16021790555050565b5f73ffffffffffffffffffffffffffffffffffffffff82169050919050565b5f6115c38261159a565b9050919050565b6115d3816115b9565b82525050565b5f819050919050565b6115eb816115d9565b82525050565b5f6040820190506116045f8301856115ca565b61161160208301846115e2565b9392505050565b5f8115159050919050565b61162c81611618565b82525050565b5f6020820190506116455f830184611623565b92915050565b5f80fd5b611658816115d9565b8114611662575f80fd5b50565b5f813590506116738161164f565b92915050565b5f6020828403121561168e5761168d61164b565b5b5f61169b84828501611665565b91505092915050565b5f6080820190506116b75f8301876115ca565b6116c460208301866115ca565b6116d160408301856115e2565b6116de60608301846115e2565b95945050505050565b5f6116f18261159a565b9050919050565b611701816116e7565b811461170b575f80fd5b50565b5f8135905061171c816116f8565b92915050565b5f80604083850312156117385761173761164b565b5b5f6117458582860161170e565b925050602061175685828601611665565b9150509250929050565b5f6020820190506117735f8301846115e2565b92915050565b611782816115b9565b811461178c575f80fd5b50565b5f8135905061179d81611779565b92915050565b5f602082840312156117b8576117b761164b565b5b5f6117c58482850161178f565b91505092915050565b5f6020820190506117e15f8301846115ca565b92915050565b5f81519050919050565b5f82825260208201905092915050565b5f819050602082019050919050565b611819816115b9565b82525050565b611828816115d9565b82525050565b608082015f8201516118425f850182611810565b5060208201516118556020850182611810565b506040820151611868604085018261181f565b50606082015161187b606085018261181f565b50505050565b5f61188c838361182e565b60808301905092915050565b5f602082019050919050565b5f6118ae826117e7565b6118b881856117f1565b93506118c383611801565b805f5b838110156118f35781516118da8882611881565b97506118e583611898565b9250506001810190506118c6565b5085935050505092915050565b5f6020820190508181035f83015261191881846118a4565b905092915050565b5f81519050919050565b5f82825260208201905092915050565b8281835e5f83830152505050565b5f601f19601f8301169050919050565b5f61196282611920565b61196c818561192a565b935061197c81856020860161193a565b61198581611948565b840191505092915050565b5f6020820190508181035f8301526119a88184611958565b905092915050565b7f4e487b71000000000000000000000000000000000000000000000000000000005f52601160045260245ffd5b5f6119e7826115d9565b91506119f2836115d9565b9250828201905080821115611a0a57611a096119b0565b5b92915050565b7f596f7520646f6e277420686176652061636365737300000000000000000000005f82015250565b5f611a4460158361192a565b9150611a4f82611a10565b602082019050919050565b5f6020820190508181035f830152611a7181611a38565b9050919050565b7f496e73756666696369656e742042616c616e63650000000000000000000000005f82015250565b5f611aac60148361192a565b9150611ab782611a78565b602082019050919050565b5f6020820190508181035f830152611ad981611aa0565b9050919050565b7f41647265737320666f726d617420696e636f72726563740000000000000000005f82015250565b5f611b1460178361192a565b9150611b1f82611ae0565b602082019050919050565b5f6020820190508181035f830152611b4181611b08565b9050919050565b5f819050919050565b5f611b6b611b66611b618461159a565b611b48565b61159a565b9050919050565b5f611b7c82611b51565b9050919050565b5f611b8d82611b72565b9050919050565b611b9d81611b83565b82525050565b5f604082019050611bb65f830185611b94565b611bc360208301846115e2565b9392505050565b7f456d657267656e6379206e6f74206465636c61726564000000000000000000005f82015250565b5f611bfe60168361192a565b9150611c0982611bca565b602082019050919050565b5f6020820190508181035f830152611c2b81611bf2565b9050919050565b7f496e7375666666696369656e742062616c616e636500000000000000000000005f82015250565b5f611c6660158361192a565b9150611c7182611c32565b602082019050919050565b5f6020820190508181035f830152611c9381611c5a565b9050919050565b7f4e487b71000000000000000000000000000000000000000000000000000000005f52602260045260245ffd5b5f6002820490506001821680611cde57607f821691505b602082108103611cf157611cf0611c9a565b5b50919050565b7f5765692056616c7565206d7573742062652067726561746572207468616e207a5f8201527f65726f0000000000000000000000000000000000000000000000000000000000602082015250565b5f611d5160238361192a565b9150611d5c82611cf7565b604082019050919050565b5f6020820190508181035f830152611d7e81611d45565b9050919050565b5f606082019050611d985f8301866115ca565b611da560208301856115ca565b611db260408301846115e2565b949350505050565b7f416374697669747920666f756e6420737573706963696f75732c20547279206c5f8201527f6174657200000000000000000000000000000000000000000000000000000000602082015250565b5f611e1460248361192a565b9150611e1f82611dba565b604082019050919050565b5f6020820190508181035f830152611e4181611e08565b9050919050565b7f73656e642061667465722073746172742074696d6500000000000000000000005f82015250565b5f611e7c60158361192a565b9150611e8782611e48565b602082019050919050565b5f6020820190508181035f830152611ea981611e70565b9050919050565b7f456d657267656e6379206465636c6172656400000000000000000000000000005f82015250565b5f611ee460128361192a565b9150611eef82611eb0565b602082019050919050565b5f6020820190508181035f830152611f1181611ed8565b905091905056fea26469706673582212206e5b8b5451916cd5e1ee2c18148fc39a9c2c42a4a9120dc5650d1ad8f0104ad564736f6c634300081a0033",
					"opcodes": "PUSH1 0x80 PUSH1 0x40 MSTORE CALLVALUE DUP1 ISZERO PUSH1 0xE JUMPI PUSH0 DUP1 REVERT JUMPDEST POP CALLER PUSH1 0x1 PUSH0 PUSH2 0x100 EXP DUP2 SLOAD DUP2 PUSH20 0xFFFFFFFFFFFFFFFFFFFFFFFFFFFFFFFFFFFFFFFF MUL NOT AND SWAP1 DUP4 PUSH20 0xFFFFFFFFFFFFFFFFFFFFFFFFFFFFFFFFFFFFFFFF AND MUL OR SWAP1 SSTORE POP PUSH2 0x1F4E DUP1 PUSH2 0x5C PUSH0 CODECOPY PUSH0 RETURN INVALID PUSH1 0x80 PUSH1 0x40 MSTORE PUSH1 0x4 CALLDATASIZE LT PUSH2 0xF6 JUMPI PUSH0 CALLDATALOAD PUSH1 0xE0 SHR DUP1 PUSH4 0xAEAE547D GT PUSH2 0x89 JUMPI DUP1 PUSH4 0xCF87F052 GT PUSH2 0x58 JUMPI DUP1 PUSH4 0xCF87F052 EQ PUSH2 0x434 JUMPI DUP1 PUSH4 0xD2B53948 EQ PUSH2 0x45C JUMPI DUP1 PUSH4 0xD555D473 EQ PUSH2 0x466 JUMPI DUP1 PUSH4 0xEB2D9FD3 EQ PUSH2 0x482 JUMPI PUSH2 0x24A JUMP JUMPDEST DUP1 PUSH4 0xAEAE547D EQ PUSH2 0x38E JUMPI DUP1 PUSH4 0xB76D4FC3 EQ PUSH2 0x3B6 JUMPI DUP1 PUSH4 0xBFA698DE EQ PUSH2 0x3E0 JUMPI DUP1 PUSH4 0xC15BAE84 EQ PUSH2 0x40A JUMPI PUSH2 0x24A JUMP JUMPDEST DUP1 PUSH4 0x6F3F42AC GT PUSH2 0xC5 JUMPI DUP1 PUSH4 0x6F3F42AC EQ PUSH2 0x31C JUMPI DUP1 PUSH4 0x7935E5A3 EQ PUSH2 0x338 JUMPI DUP1 PUSH4 0x8DA5CB5B EQ PUSH2 0x34E JUMPI DUP1 PUSH4 0x9A70EEF1 EQ PUSH2 0x378 JUMPI PUSH2 0x24A JUMP JUMPDEST DUP1 PUSH4 0x7DA68F5 EQ PUSH2 0x261 JUMPI DUP1 PUSH4 0x243E7A87 EQ PUSH2 0x28B JUMPI DUP1 PUSH4 0x47CDCC1F EQ PUSH2 0x2CA JUMPI DUP1 PUSH4 0x547FBE8E EQ PUSH2 0x2F2 JUMPI PUSH2 0x24A JUMP JUMPDEST CALLDATASIZE PUSH2 0x24A JUMPI PUSH0 PUSH1 0x40 MLOAD DUP1 PUSH1 0x80 ADD PUSH1 0x40 MSTORE DUP1 CALLER PUSH20 0xFFFFFFFFFFFFFFFFFFFFFFFFFFFFFFFFFFFFFFFF AND DUP2 MSTORE PUSH1 0x20 ADD ADDRESS PUSH20 0xFFFFFFFFFFFFFFFFFFFFFFFFFFFFFFFFFFFFFFFF AND DUP2 MSTORE PUSH1 0x20 ADD TIMESTAMP DUP2 MSTORE PUSH1 0x20 ADD CALLVALUE DUP2 MSTORE POP SWAP1 DUP1 PUSH1 0x1 DUP2 SLOAD ADD DUP1 DUP3 SSTORE DUP1 SWAP2 POP POP PUSH1 0x1 SWAP1 SUB SWAP1 PUSH0 MSTORE PUSH1 0x20 PUSH0 KECCAK256 SWAP1 PUSH1 0x4 MUL ADD PUSH0 SWAP1 SWAP2 SWAP1 SWAP2 SWAP1 SWAP2 POP PUSH0 DUP3 ADD MLOAD DUP2 PUSH0 ADD PUSH0 PUSH2 0x100 EXP DUP2 SLOAD DUP2 PUSH20 0xFFFFFFFFFFFFFFFFFFFFFFFFFFFFFFFFFFFFFFFF MUL NOT AND SWAP1 DUP4 PUSH20 0xFFFFFFFFFFFFFFFFFFFFFFFFFFFFFFFFFFFFFFFF AND MUL OR SWAP1 SSTORE POP PUSH1 0x20 DUP3 ADD MLOAD DUP2 PUSH1 0x1 ADD PUSH0 PUSH2 0x100 EXP DUP2 SLOAD DUP2 PUSH20 0xFFFFFFFFFFFFFFFFFFFFFFFFFFFFFFFFFFFFFFFF MUL NOT AND SWAP1 DUP4 PUSH20 0xFFFFFFFFFFFFFFFFFFFFFFFFFFFFFFFFFFFFFFFF AND MUL OR SWAP1 SSTORE POP PUSH1 0x40 DUP3 ADD MLOAD DUP2 PUSH1 0x2 ADD SSTORE PUSH1 0x60 DUP3 ADD MLOAD DUP2 PUSH1 0x3 ADD SSTORE POP POP PUSH32 0xD6717F327E0CB88B4A97A7F67A453E9258252C34937CCBDD86DE7CB840E7DEF3 CALLER CALLVALUE PUSH1 0x40 MLOAD PUSH2 0x240 SWAP3 SWAP2 SWAP1 PUSH2 0x15F1 JUMP JUMPDEST PUSH1 0x40 MLOAD DUP1 SWAP2 SUB SWAP1 LOG1 STOP JUMPDEST CALLVALUE DUP1 ISZERO PUSH2 0x255 JUMPI PUSH0 DUP1 REVERT JUMPDEST POP PUSH2 0x25F CALLER PUSH2 0x4AA JUMP JUMPDEST STOP JUMPDEST CALLVALUE DUP1 ISZERO PUSH2 0x26C JUMPI PUSH0 DUP1 REVERT JUMPDEST POP PUSH2 0x275 PUSH2 0x501 JUMP JUMPDEST PUSH1 0x40 MLOAD PUSH2 0x282 SWAP2 SWAP1 PUSH2 0x1632 JUMP JUMPDEST PUSH1 0x40 MLOAD DUP1 SWAP2 SUB SWAP1 RETURN JUMPDEST CALLVALUE DUP1 ISZERO PUSH2 0x296 JUMPI PUSH0 DUP1 REVERT JUMPDEST POP PUSH2 0x2B1 PUSH1 0x4 DUP1 CALLDATASIZE SUB DUP2 ADD SWAP1 PUSH2 0x2AC SWAP2 SWAP1 PUSH2 0x1679 JUMP JUMPDEST PUSH2 0x513 JUMP JUMPDEST PUSH1 0x40 MLOAD PUSH2 0x2C1 SWAP5 SWAP4 SWAP3 SWAP2 SWAP1 PUSH2 0x16A4 JUMP JUMPDEST PUSH1 0x40 MLOAD DUP1 SWAP2 SUB SWAP1 RETURN JUMPDEST CALLVALUE DUP1 ISZERO PUSH2 0x2D5 JUMPI PUSH0 DUP1 REVERT JUMPDEST POP PUSH2 0x2F0 PUSH1 0x4 DUP1 CALLDATASIZE SUB DUP2 ADD SWAP1 PUSH2 0x2EB SWAP2 SWAP1 PUSH2 0x1722 JUMP JUMPDEST PUSH2 0x58B JUMP JUMPDEST STOP JUMPDEST CALLVALUE DUP1 ISZERO PUSH2 0x2FD JUMPI PUSH0 DUP1 REVERT JUMPDEST POP PUSH2 0x306 PUSH2 0x860 JUMP JUMPDEST PUSH1 0x40 MLOAD PUSH2 0x313 SWAP2 SWAP1 PUSH2 0x1760 JUMP JUMPDEST PUSH1 0x40 MLOAD DUP1 SWAP2 SUB SWAP1 RETURN JUMPDEST PUSH2 0x336 PUSH1 0x4 DUP1 CALLDATASIZE SUB DUP2 ADD SWAP1 PUSH2 0x331 SWAP2 SWAP1 PUSH2 0x17A3 JUMP JUMPDEST PUSH2 0x89F JUMP JUMPDEST STOP JUMPDEST CALLVALUE DUP1 ISZERO PUSH2 0x343 JUMPI PUSH0 DUP1 REVERT JUMPDEST POP PUSH2 0x34C PUSH2 0xAAB JUMP JUMPDEST STOP JUMPDEST CALLVALUE DUP1 ISZERO PUSH2 0x359 JUMPI PUSH0 DUP1 REVERT JUMPDEST POP PUSH2 0x362 PUSH2 0xB67 JUMP JUMPDEST PUSH1 0x40 MLOAD PUSH2 0x36F SWAP2 SWAP1 PUSH2 0x17CE JUMP JUMPDEST PUSH1 0x40 MLOAD DUP1 SWAP2 SUB SWAP1 RETURN JUMPDEST CALLVALUE DUP1 ISZERO PUSH2 0x383 JUMPI PUSH0 DUP1 REVERT JUMPDEST POP PUSH2 0x38C PUSH2 0xB8C JUMP JUMPDEST STOP JUMPDEST CALLVALUE DUP1 ISZERO PUSH2 0x399 JUMPI PUSH0 DUP1 REVERT JUMPDEST POP PUSH2 0x3B4 PUSH1 0x4 DUP1 CALLDATASIZE SUB DUP2 ADD SWAP1 PUSH2 0x3AF SWAP2 SWAP1 PUSH2 0x1679 JUMP JUMPDEST PUSH2 0xC45 JUMP JUMPDEST STOP JUMPDEST CALLVALUE DUP1 ISZERO PUSH2 0x3C1 JUMPI PUSH0 DUP1 REVERT JUMPDEST POP PUSH2 0x3CA PUSH2 0xEB4 JUMP JUMPDEST PUSH1 0x40 MLOAD PUSH2 0x3D7 SWAP2 SWAP1 PUSH2 0x1900 JUMP JUMPDEST PUSH1 0x40 MLOAD DUP1 SWAP2 SUB SWAP1 RETURN JUMPDEST CALLVALUE DUP1 ISZERO PUSH2 0x3EB JUMPI PUSH0 DUP1 REVERT JUMPDEST POP PUSH2 0x3F4 PUSH2 0xFCC JUMP JUMPDEST PUSH1 0x40 MLOAD PUSH2 0x401 SWAP2 SWAP1 PUSH2 0x1760 JUMP JUMPDEST PUSH1 0x40 MLOAD DUP1 SWAP2 SUB SWAP1 RETURN JUMPDEST CALLVALUE DUP1 ISZERO PUSH2 0x415 JUMPI PUSH0 DUP1 REVERT JUMPDEST POP PUSH2 0x41E PUSH2 0xFD3 JUMP JUMPDEST PUSH1 0x40 MLOAD PUSH2 0x42B SWAP2 SWAP1 PUSH2 0x1990 JUMP JUMPDEST PUSH1 0x40 MLOAD DUP1 SWAP2 SUB SWAP1 RETURN JUMPDEST CALLVALUE DUP1 ISZERO PUSH2 0x43F JUMPI PUSH0 DUP1 REVERT JUMPDEST POP PUSH2 0x45A PUSH1 0x4 DUP1 CALLDATASIZE SUB DUP2 ADD SWAP1 PUSH2 0x455 SWAP2 SWAP1 PUSH2 0x17A3 JUMP JUMPDEST PUSH2 0x4AA JUMP JUMPDEST STOP JUMPDEST PUSH2 0x464 PUSH2 0x105F JUMP JUMPDEST STOP JUMPDEST PUSH2 0x480 PUSH1 0x4 DUP1 CALLDATASIZE SUB DUP2 ADD SWAP1 PUSH2 0x47B SWAP2 SWAP1 PUSH2 0x1679 JUMP JUMPDEST PUSH2 0x1299 JUMP JUMPDEST STOP JUMPDEST CALLVALUE DUP1 ISZERO PUSH2 0x48D JUMPI PUSH0 DUP1 REVERT JUMPDEST POP PUSH2 0x4A8 PUSH1 0x4 DUP1 CALLDATASIZE SUB DUP2 ADD SWAP1 PUSH2 0x4A3 SWAP2 SWAP1 PUSH2 0x17A3 JUMP JUMPDEST PUSH2 0x1474 JUMP JUMPDEST STOP JUMPDEST PUSH1 0x1 PUSH1 0x4 PUSH0 DUP4 PUSH20 0xFFFFFFFFFFFFFFFFFFFFFFFFFFFFFFFFFFFFFFFF AND PUSH20 0xFFFFFFFFFFFFFFFFFFFFFFFFFFFFFFFFFFFFFFFF AND DUP2 MSTORE PUSH1 0x20 ADD SWAP1 DUP2 MSTORE PUSH1 0x20 ADD PUSH0 KECCAK256 PUSH0 DUP3 DUP3 SLOAD PUSH2 0x4F7 SWAP2 SWAP1 PUSH2 0x19DD JUMP JUMPDEST SWAP3 POP POP DUP2 SWAP1 SSTORE POP POP JUMP JUMPDEST PUSH1 0x3 PUSH0 SWAP1 SLOAD SWAP1 PUSH2 0x100 EXP SWAP1 DIV PUSH1 0xFF AND DUP2 JUMP JUMPDEST PUSH0 DUP2 DUP2 SLOAD DUP2 LT PUSH2 0x521 JUMPI PUSH0 DUP1 REVERT JUMPDEST SWAP1 PUSH0 MSTORE PUSH1 0x20 PUSH0 KECCAK256 SWAP1 PUSH1 0x4 MUL ADD PUSH0 SWAP2 POP SWAP1 POP DUP1 PUSH0 ADD PUSH0 SWAP1 SLOAD SWAP1 PUSH2 0x100 EXP SWAP1 DIV PUSH20 0xFFFFFFFFFFFFFFFFFFFFFFFFFFFFFFFFFFFFFFFF AND SWAP1 DUP1 PUSH1 0x1 ADD PUSH0 SWAP1 SLOAD SWAP1 PUSH2 0x100 EXP SWAP1 DIV PUSH20 0xFFFFFFFFFFFFFFFFFFFFFFFFFFFFFFFFFFFFFFFF AND SWAP1 DUP1 PUSH1 0x2 ADD SLOAD SWAP1 DUP1 PUSH1 0x3 ADD SLOAD SWAP1 POP DUP5 JUMP JUMPDEST PUSH1 0x1 PUSH0 SWAP1 SLOAD SWAP1 PUSH2 0x100 EXP SWAP1 DIV PUSH20 0xFFFFFFFFFFFFFFFFFFFFFFFFFFFFFFFFFFFFFFFF AND PUSH20 0xFFFFFFFFFFFFFFFFFFFFFFFFFFFFFFFFFFFFFFFF AND CALLER PUSH20 0xFFFFFFFFFFFFFFFFFFFFFFFFFFFFFFFFFFFFFFFF AND EQ PUSH2 0x61A JUMPI PUSH1 0x40 MLOAD PUSH32 0x8C379A000000000000000000000000000000000000000000000000000000000 DUP2 MSTORE PUSH1 0x4 ADD PUSH2 0x611 SWAP1 PUSH2 0x1A5A JUMP JUMPDEST PUSH1 0x40 MLOAD DUP1 SWAP2 SUB SWAP1 REVERT JUMPDEST DUP1 SELFBALANCE LT ISZERO PUSH2 0x65D JUMPI PUSH1 0x40 MLOAD PUSH32 0x8C379A000000000000000000000000000000000000000000000000000000000 DUP2 MSTORE PUSH1 0x4 ADD PUSH2 0x654 SWAP1 PUSH2 0x1AC2 JUMP JUMPDEST PUSH1 0x40 MLOAD DUP1 SWAP2 SUB SWAP1 REVERT JUMPDEST PUSH0 PUSH20 0xFFFFFFFFFFFFFFFFFFFFFFFFFFFFFFFFFFFFFFFF AND DUP3 PUSH20 0xFFFFFFFFFFFFFFFFFFFFFFFFFFFFFFFFFFFFFFFF AND SUB PUSH2 0x6CB JUMPI PUSH1 0x40 MLOAD PUSH32 0x8C379A000000000000000000000000000000000000000000000000000000000 DUP2 MSTORE PUSH1 0x4 ADD PUSH2 0x6C2 SWAP1 PUSH2 0x1B2A JUMP JUMPDEST PUSH1 0x40 MLOAD DUP1 SWAP2 SUB SWAP1 REVERT JUMPDEST DUP2 PUSH20 0xFFFFFFFFFFFFFFFFFFFFFFFFFFFFFFFFFFFFFFFF AND PUSH2 0x8FC DUP3 SWAP1 DUP2 ISZERO MUL SWAP1 PUSH1 0x40 MLOAD PUSH0 PUSH1 0x40 MLOAD DUP1 DUP4 SUB DUP2 DUP6 DUP9 DUP9 CALL SWAP4 POP POP POP POP ISZERO DUP1 ISZERO PUSH2 0x70E JUMPI RETURNDATASIZE PUSH0 DUP1 RETURNDATACOPY RETURNDATASIZE PUSH0 REVERT JUMPDEST POP PUSH0 PUSH1 0x40 MLOAD DUP1 PUSH1 0x80 ADD PUSH1 0x40 MSTORE DUP1 CALLER PUSH20 0xFFFFFFFFFFFFFFFFFFFFFFFFFFFFFFFFFFFFFFFF AND DUP2 MSTORE PUSH1 0x20 ADD DUP5 PUSH20 0xFFFFFFFFFFFFFFFFFFFFFFFFFFFFFFFFFFFFFFFF AND DUP2 MSTORE PUSH1 0x20 ADD TIMESTAMP DUP2 MSTORE PUSH1 0x20 ADD DUP4 DUP2 MSTORE POP SWAP1 DUP1 PUSH1 0x1 DUP2 SLOAD ADD DUP1 DUP3 SSTORE DUP1 SWAP2 POP POP PUSH1 0x1 SWAP1 SUB SWAP1 PUSH0 MSTORE PUSH1 0x20 PUSH0 KECCAK256 SWAP1 PUSH1 0x4 MUL ADD PUSH0 SWAP1 SWAP2 SWAP1 SWAP2 SWAP1 SWAP2 POP PUSH0 DUP3 ADD MLOAD DUP2 PUSH0 ADD PUSH0 PUSH2 0x100 EXP DUP2 SLOAD DUP2 PUSH20 0xFFFFFFFFFFFFFFFFFFFFFFFFFFFFFFFFFFFFFFFF MUL NOT AND SWAP1 DUP4 PUSH20 0xFFFFFFFFFFFFFFFFFFFFFFFFFFFFFFFFFFFFFFFF AND MUL OR SWAP1 SSTORE POP PUSH1 0x20 DUP3 ADD MLOAD DUP2 PUSH1 0x1 ADD PUSH0 PUSH2 0x100 EXP DUP2 SLOAD DUP2 PUSH20 0xFFFFFFFFFFFFFFFFFFFFFFFFFFFFFFFFFFFFFFFF MUL NOT AND SWAP1 DUP4 PUSH20 0xFFFFFFFFFFFFFFFFFFFFFFFFFFFFFFFFFFFFFFFF AND MUL OR SWAP1 SSTORE POP PUSH1 0x40 DUP3 ADD MLOAD DUP2 PUSH1 0x2 ADD SSTORE PUSH1 0x60 DUP3 ADD MLOAD DUP2 PUSH1 0x3 ADD SSTORE POP POP PUSH32 0x69CA02DD4EDD7BF0A4ABB9ED3B7AF3F14778DB5D61921C7DC7CD545266326DE2 DUP3 DUP3 PUSH1 0x40 MLOAD PUSH2 0x854 SWAP3 SWAP2 SWAP1 PUSH2 0x1BA3 JUMP JUMPDEST PUSH1 0x40 MLOAD DUP1 SWAP2 SUB SWAP1 LOG1 POP POP JUMP JUMPDEST PUSH0 PUSH1 0x1 PUSH0 SWAP1 SLOAD SWAP1 PUSH2 0x100 EXP SWAP1 DIV PUSH20 0xFFFFFFFFFFFFFFFFFFFFFFFFFFFFFFFFFFFFFFFF AND PUSH20 0xFFFFFFFFFFFFFFFFFFFFFFFFFFFFFFFFFFFFFFFF AND BALANCE SWAP1 POP SWAP1 JUMP JUMPDEST CALLVALUE SELFBALANCE LT ISZERO PUSH2 0x8E2 JUMPI PUSH1 0x40 MLOAD PUSH32 0x8C379A000000000000000000000000000000000000000000000000000000000 DUP2 MSTORE PUSH1 0x4 ADD PUSH2 0x8D9 SWAP1 PUSH2 0x1AC2 JUMP JUMPDEST PUSH1 0x40 MLOAD DUP1 SWAP2 SUB SWAP1 REVERT JUMPDEST PUSH0 PUSH20 0xFFFFFFFFFFFFFFFFFFFFFFFFFFFFFFFFFFFFFFFF AND DUP2 PUSH20 0xFFFFFFFFFFFFFFFFFFFFFFFFFFFFFFFFFFFFFFFF AND SUB PUSH2 0x950 JUMPI PUSH1 0x40 MLOAD PUSH32 0x8C379A000000000000000000000000000000000000000000000000000000000 DUP2 MSTORE PUSH1 0x4 ADD PUSH2 0x947 SWAP1 PUSH2 0x1B2A JUMP JUMPDEST PUSH1 0x40 MLOAD DUP1 SWAP2 SUB SWAP1 REVERT JUMPDEST DUP1 PUSH20 0xFFFFFFFFFFFFFFFFFFFFFFFFFFFFFFFFFFFFFFFF AND PUSH2 0x8FC CALLVALUE SWAP1 DUP2 ISZERO MUL SWAP1 PUSH1 0x40 MLOAD PUSH0 PUSH1 0x40 MLOAD DUP1 DUP4 SUB DUP2 DUP6 DUP9 DUP9 CALL SWAP4 POP POP POP POP ISZERO DUP1 ISZERO PUSH2 0x993 JUMPI RETURNDATASIZE PUSH0 DUP1 RETURNDATACOPY RETURNDATASIZE PUSH0 REVERT JUMPDEST POP PUSH0 PUSH1 0x40 MLOAD DUP1 PUSH1 0x80 ADD PUSH1 0x40 MSTORE DUP1 CALLER PUSH20 0xFFFFFFFFFFFFFFFFFFFFFFFFFFFFFFFFFFFFFFFF AND DUP2 MSTORE PUSH1 0x20 ADD DUP4 PUSH20 0xFFFFFFFFFFFFFFFFFFFFFFFFFFFFFFFFFFFFFFFF AND DUP2 MSTORE PUSH1 0x20 ADD TIMESTAMP DUP2 MSTORE PUSH1 0x20 ADD CALLVALUE DUP2 MSTORE POP SWAP1 DUP1 PUSH1 0x1 DUP2 SLOAD ADD DUP1 DUP3 SSTORE DUP1 SWAP2 POP POP PUSH1 0x1 SWAP1 SUB SWAP1 PUSH0 MSTORE PUSH1 0x20 PUSH0 KECCAK256 SWAP1 PUSH1 0x4 MUL ADD PUSH0 SWAP1 SWAP2 SWAP1 SWAP2 SWAP1 SWAP2 POP PUSH0 DUP3 ADD MLOAD DUP2 PUSH0 ADD PUSH0 PUSH2 0x100 EXP DUP2 SLOAD DUP2 PUSH20 0xFFFFFFFFFFFFFFFFFFFFFFFFFFFFFFFFFFFFFFFF MUL NOT AND SWAP1 DUP4 PUSH20 0xFFFFFFFFFFFFFFFFFFFFFFFFFFFFFFFFFFFFFFFF AND MUL OR SWAP1 SSTORE POP PUSH1 0x20 DUP3 ADD MLOAD DUP2 PUSH1 0x1 ADD PUSH0 PUSH2 0x100 EXP DUP2 SLOAD DUP2 PUSH20 0xFFFFFFFFFFFFFFFFFFFFFFFFFFFFFFFFFFFFFFFF MUL NOT AND SWAP1 DUP4 PUSH20 0xFFFFFFFFFFFFFFFFFFFFFFFFFFFFFFFFFFFFFFFF AND MUL OR SWAP1 SSTORE POP PUSH1 0x40 DUP3 ADD MLOAD DUP2 PUSH1 0x2 ADD SSTORE PUSH1 0x60 DUP3 ADD MLOAD DUP2 PUSH1 0x3 ADD SSTORE POP POP POP JUMP JUMPDEST PUSH1 0x1 ISZERO ISZERO PUSH1 0x3 PUSH0 SWAP1 SLOAD SWAP1 PUSH2 0x100 EXP SWAP1 DIV PUSH1 0xFF AND ISZERO ISZERO EQ PUSH2 0xB00 JUMPI PUSH1 0x40 MLOAD PUSH32 0x8C379A000000000000000000000000000000000000000000000000000000000 DUP2 MSTORE PUSH1 0x4 ADD PUSH2 0xAF7 SWAP1 PUSH2 0x1C14 JUMP JUMPDEST PUSH1 0x40 MLOAD DUP1 SWAP2 SUB SWAP1 REVERT JUMPDEST PUSH1 0x1 PUSH0 SWAP1 SLOAD SWAP1 PUSH2 0x100 EXP SWAP1 DIV PUSH20 0xFFFFFFFFFFFFFFFFFFFFFFFFFFFFFFFFFFFFFFFF AND PUSH20 0xFFFFFFFFFFFFFFFFFFFFFFFFFFFFFFFFFFFFFFFF AND PUSH2 0x8FC SELFBALANCE SWAP1 DUP2 ISZERO MUL SWAP1 PUSH1 0x40 MLOAD PUSH0 PUSH1 0x40 MLOAD DUP1 DUP4 SUB DUP2 DUP6 DUP9 DUP9 CALL SWAP4 POP POP POP POP ISZERO DUP1 ISZERO PUSH2 0xB64 JUMPI RETURNDATASIZE PUSH0 DUP1 RETURNDATACOPY RETURNDATASIZE PUSH0 REVERT JUMPDEST POP JUMP JUMPDEST PUSH1 0x1 PUSH0 SWAP1 SLOAD SWAP1 PUSH2 0x100 EXP SWAP1 DIV PUSH20 0xFFFFFFFFFFFFFFFFFFFFFFFFFFFFFFFFFFFFFFFF AND DUP2 JUMP JUMPDEST PUSH1 0x1 PUSH0 SWAP1 SLOAD SWAP1 PUSH2 0x100 EXP SWAP1 DIV PUSH20 0xFFFFFFFFFFFFFFFFFFFFFFFFFFFFFFFFFFFFFFFF AND PUSH20 0xFFFFFFFFFFFFFFFFFFFFFFFFFFFFFFFFFFFFFFFF AND CALLER PUSH20 0xFFFFFFFFFFFFFFFFFFFFFFFFFFFFFFFFFFFFFFFF AND EQ PUSH2 0xC1B JUMPI PUSH1 0x40 MLOAD PUSH32 0x8C379A000000000000000000000000000000000000000000000000000000000 DUP2 MSTORE PUSH1 0x4 ADD PUSH2 0xC12 SWAP1 PUSH2 0x1A5A JUMP JUMPDEST PUSH1 0x40 MLOAD DUP1 SWAP2 SUB SWAP1 REVERT JUMPDEST PUSH1 0x3 PUSH0 SWAP1 SLOAD SWAP1 PUSH2 0x100 EXP SWAP1 DIV PUSH1 0xFF AND ISZERO PUSH1 0x3 PUSH0 PUSH2 0x100 EXP DUP2 SLOAD DUP2 PUSH1 0xFF MUL NOT AND SWAP1 DUP4 ISZERO ISZERO MUL OR SWAP1 SSTORE POP JUMP JUMPDEST PUSH1 0x1 PUSH0 SWAP1 SLOAD SWAP1 PUSH2 0x100 EXP SWAP1 DIV PUSH20 0xFFFFFFFFFFFFFFFFFFFFFFFFFFFFFFFFFFFFFFFF AND PUSH20 0xFFFFFFFFFFFFFFFFFFFFFFFFFFFFFFFFFFFFFFFF AND CALLER PUSH20 0xFFFFFFFFFFFFFFFFFFFFFFFFFFFFFFFFFFFFFFFF AND EQ PUSH2 0xCD4 JUMPI PUSH1 0x40 MLOAD PUSH32 0x8C379A000000000000000000000000000000000000000000000000000000000 DUP2 MSTORE PUSH1 0x4 ADD PUSH2 0xCCB SWAP1 PUSH2 0x1A5A JUMP JUMPDEST PUSH1 0x40 MLOAD DUP1 SWAP2 SUB SWAP1 REVERT JUMPDEST DUP1 SELFBALANCE LT ISZERO PUSH2 0xD17 JUMPI PUSH1 0x40 MLOAD PUSH32 0x8C379A000000000000000000000000000000000000000000000000000000000 DUP2 MSTORE PUSH1 0x4 ADD PUSH2 0xD0E SWAP1 PUSH2 0x1C7C JUMP JUMPDEST PUSH1 0x40 MLOAD DUP1 SWAP2 SUB SWAP1 REVERT JUMPDEST PUSH1 0x1 PUSH0 SWAP1 SLOAD SWAP1 PUSH2 0x100 EXP SWAP1 DIV PUSH20 0xFFFFFFFFFFFFFFFFFFFFFFFFFFFFFFFFFFFFFFFF AND PUSH20 0xFFFFFFFFFFFFFFFFFFFFFFFFFFFFFFFFFFFFFFFF AND PUSH2 0x8FC DUP3 SWAP1 DUP2 ISZERO MUL SWAP1 PUSH1 0x40 MLOAD PUSH0 PUSH1 0x40 MLOAD DUP1 DUP4 SUB DUP2 DUP6 DUP9 DUP9 CALL SWAP4 POP POP POP POP ISZERO DUP1 ISZERO PUSH2 0xD7B JUMPI RETURNDATASIZE PUSH0 DUP1 RETURNDATACOPY RETURNDATASIZE PUSH0 REVERT JUMPDEST POP PUSH0 PUSH1 0x40 MLOAD DUP1 PUSH1 0x80 ADD PUSH1 0x40 MSTORE DUP1 ADDRESS PUSH20 0xFFFFFFFFFFFFFFFFFFFFFFFFFFFFFFFFFFFFFFFF AND DUP2 MSTORE PUSH1 0x20 ADD PUSH1 0x1 PUSH0 SWAP1 SLOAD SWAP1 PUSH2 0x100 EXP SWAP1 DIV PUSH20 0xFFFFFFFFFFFFFFFFFFFFFFFFFFFFFFFFFFFFFFFF AND PUSH20 0xFFFFFFFFFFFFFFFFFFFFFFFFFFFFFFFFFFFFFFFF AND DUP2 MSTORE PUSH1 0x20 ADD TIMESTAMP DUP2 MSTORE PUSH1 0x20 ADD DUP4 DUP2 MSTORE POP SWAP1 DUP1 PUSH1 0x1 DUP2 SLOAD ADD DUP1 DUP3 SSTORE DUP1 SWAP2 POP POP PUSH1 0x1 SWAP1 SUB SWAP1 PUSH0 MSTORE PUSH1 0x20 PUSH0 KECCAK256 SWAP1 PUSH1 0x4 MUL ADD PUSH0 SWAP1 SWAP2 SWAP1 SWAP2 SWAP1 SWAP2 POP PUSH0 DUP3 ADD MLOAD DUP2 PUSH0 ADD PUSH0 PUSH2 0x100 EXP DUP2 SLOAD DUP2 PUSH20 0xFFFFFFFFFFFFFFFFFFFFFFFFFFFFFFFFFFFFFFFF MUL NOT AND SWAP1 DUP4 PUSH20 0xFFFFFFFFFFFFFFFFFFFFFFFFFFFFFFFFFFFFFFFF AND MUL OR SWAP1 SSTORE POP PUSH1 0x20 DUP3 ADD MLOAD DUP2 PUSH1 0x1 ADD PUSH0 PUSH2 0x100 EXP DUP2 SLOAD DUP2 PUSH20 0xFFFFFFFFFFFFFFFFFFFFFFFFFFFFFFFFFFFFFFFF MUL NOT AND SWAP1 DUP4 PUSH20 0xFFFFFFFFFFFFFFFFFFFFFFFFFFFFFFFFFFFFFFFF AND MUL OR SWAP1 SSTORE POP PUSH1 0x40 DUP3 ADD MLOAD DUP2 PUSH1 0x2 ADD SSTORE PUSH1 0x60 DUP3 ADD MLOAD DUP2 PUSH1 0x3 ADD SSTORE POP POP POP JUMP JUMPDEST PUSH1 0x60 PUSH0 DUP1 SLOAD DUP1 PUSH1 0x20 MUL PUSH1 0x20 ADD PUSH1 0x40 MLOAD SWAP1 DUP2 ADD PUSH1 0x40 MSTORE DUP1 SWAP3 SWAP2 SWAP1 DUP2 DUP2 MSTORE PUSH1 0x20 ADD PUSH0 SWAP1 JUMPDEST DUP3 DUP3 LT ISZERO PUSH2 0xFC3 JUMPI DUP4 DUP3 SWAP1 PUSH0 MSTORE PUSH1 0x20 PUSH0 KECCAK256 SWAP1 PUSH1 0x4 MUL ADD PUSH1 0x40 MLOAD DUP1 PUSH1 0x80 ADD PUSH1 0x40 MSTORE SWAP1 DUP2 PUSH0 DUP3 ADD PUSH0 SWAP1 SLOAD SWAP1 PUSH2 0x100 EXP SWAP1 DIV PUSH20 0xFFFFFFFFFFFFFFFFFFFFFFFFFFFFFFFFFFFFFFFF AND PUSH20 0xFFFFFFFFFFFFFFFFFFFFFFFFFFFFFFFFFFFFFFFF AND PUSH20 0xFFFFFFFFFFFFFFFFFFFFFFFFFFFFFFFFFFFFFFFF AND DUP2 MSTORE PUSH1 0x20 ADD PUSH1 0x1 DUP3 ADD PUSH0 SWAP1 SLOAD SWAP1 PUSH2 0x100 EXP SWAP1 DIV PUSH20 0xFFFFFFFFFFFFFFFFFFFFFFFFFFFFFFFFFFFFFFFF AND PUSH20 0xFFFFFFFFFFFFFFFFFFFFFFFFFFFFFFFFFFFFFFFF AND PUSH20 0xFFFFFFFFFFFFFFFFFFFFFFFFFFFFFFFFFFFFFFFF AND DUP2 MSTORE PUSH1 0x20 ADD PUSH1 0x2 DUP3 ADD SLOAD DUP2 MSTORE PUSH1 0x20 ADD PUSH1 0x3 DUP3 ADD SLOAD DUP2 MSTORE POP POP DUP2 MSTORE PUSH1 0x20 ADD SWAP1 PUSH1 0x1 ADD SWAP1 PUSH2 0xED6 JUMP JUMPDEST POP POP POP POP SWAP1 POP SWAP1 JUMP JUMPDEST PUSH0 SELFBALANCE SWAP1 POP SWAP1 JUMP JUMPDEST PUSH1 0x2 DUP1 SLOAD PUSH2 0xFE0 SWAP1 PUSH2 0x1CC7 JUMP JUMPDEST DUP1 PUSH1 0x1F ADD PUSH1 0x20 DUP1 SWAP2 DIV MUL PUSH1 0x20 ADD PUSH1 0x40 MLOAD SWAP1 DUP2 ADD PUSH1 0x40 MSTORE DUP1 SWAP3 SWAP2 SWAP1 DUP2 DUP2 MSTORE PUSH1 0x20 ADD DUP3 DUP1 SLOAD PUSH2 0x100C SWAP1 PUSH2 0x1CC7 JUMP JUMPDEST DUP1 ISZERO PUSH2 0x1057 JUMPI DUP1 PUSH1 0x1F LT PUSH2 0x102E JUMPI PUSH2 0x100 DUP1 DUP4 SLOAD DIV MUL DUP4 MSTORE SWAP2 PUSH1 0x20 ADD SWAP2 PUSH2 0x1057 JUMP JUMPDEST DUP3 ADD SWAP2 SWAP1 PUSH0 MSTORE PUSH1 0x20 PUSH0 KECCAK256 SWAP1 JUMPDEST DUP2 SLOAD DUP2 MSTORE SWAP1 PUSH1 0x1 ADD SWAP1 PUSH1 0x20 ADD DUP1 DUP4 GT PUSH2 0x103A JUMPI DUP3 SWAP1 SUB PUSH1 0x1F AND DUP3 ADD SWAP2 JUMPDEST POP POP POP POP POP DUP2 JUMP JUMPDEST PUSH0 CALLVALUE GT PUSH2 0x10A1 JUMPI PUSH1 0x40 MLOAD PUSH32 0x8C379A000000000000000000000000000000000000000000000000000000000 DUP2 MSTORE PUSH1 0x4 ADD PUSH2 0x1098 SWAP1 PUSH2 0x1D67 JUMP JUMPDEST PUSH1 0x40 MLOAD DUP1 SWAP2 SUB SWAP1 REVERT JUMPDEST PUSH1 0x1 PUSH0 SWAP1 SLOAD SWAP1 PUSH2 0x100 EXP SWAP1 DIV PUSH20 0xFFFFFFFFFFFFFFFFFFFFFFFFFFFFFFFFFFFFFFFF AND PUSH20 0xFFFFFFFFFFFFFFFFFFFFFFFFFFFFFFFFFFFFFFFF AND PUSH2 0x8FC CALLVALUE SWAP1 DUP2 ISZERO MUL SWAP1 PUSH1 0x40 MLOAD PUSH0 PUSH1 0x40 MLOAD DUP1 DUP4 SUB DUP2 DUP6 DUP9 DUP9 CALL SWAP4 POP POP POP POP ISZERO DUP1 ISZERO PUSH2 0x1105 JUMPI RETURNDATASIZE PUSH0 DUP1 RETURNDATACOPY RETURNDATASIZE PUSH0 REVERT JUMPDEST POP PUSH32 0x6BFF45EA56524A93993203A4991CA550597CBC6392508DD91678A3CC936C5577 CALLER PUSH1 0x1 PUSH0 SWAP1 SLOAD SWAP1 PUSH2 0x100 EXP SWAP1 DIV PUSH20 0xFFFFFFFFFFFFFFFFFFFFFFFFFFFFFFFFFFFFFFFF AND CALLVALUE PUSH1 0x40 MLOAD PUSH2 0x115A SWAP4 SWAP3 SWAP2 SWAP1 PUSH2 0x1D85 JUMP JUMPDEST PUSH1 0x40 MLOAD DUP1 SWAP2 SUB SWAP1 LOG1 PUSH0 PUSH1 0x40 MLOAD DUP1 PUSH1 0x80 ADD PUSH1 0x40 MSTORE DUP1 CALLER PUSH20 0xFFFFFFFFFFFFFFFFFFFFFFFFFFFFFFFFFFFFFFFF AND DUP2 MSTORE PUSH1 0x20 ADD PUSH1 0x1 PUSH0 SWAP1 SLOAD SWAP1 PUSH2 0x100 EXP SWAP1 DIV PUSH20 0xFFFFFFFFFFFFFFFFFFFFFFFFFFFFFFFFFFFFFFFF AND PUSH20 0xFFFFFFFFFFFFFFFFFFFFFFFFFFFFFFFFFFFFFFFF AND DUP2 MSTORE PUSH1 0x20 ADD TIMESTAMP DUP2 MSTORE PUSH1 0x20 ADD CALLVALUE DUP2 MSTORE POP SWAP1 DUP1 PUSH1 0x1 DUP2 SLOAD ADD DUP1 DUP3 SSTORE DUP1 SWAP2 POP POP PUSH1 0x1 SWAP1 SUB SWAP1 PUSH0 MSTORE PUSH1 0x20 PUSH0 KECCAK256 SWAP1 PUSH1 0x4 MUL ADD PUSH0 SWAP1 SWAP2 SWAP1 SWAP2 SWAP1 SWAP2 POP PUSH0 DUP3 ADD MLOAD DUP2 PUSH0 ADD PUSH0 PUSH2 0x100 EXP DUP2 SLOAD DUP2 PUSH20 0xFFFFFFFFFFFFFFFFFFFFFFFFFFFFFFFFFFFFFFFF MUL NOT AND SWAP1 DUP4 PUSH20 0xFFFFFFFFFFFFFFFFFFFFFFFFFFFFFFFFFFFFFFFF AND MUL OR SWAP1 SSTORE POP PUSH1 0x20 DUP3 ADD MLOAD DUP2 PUSH1 0x1 ADD PUSH0 PUSH2 0x100 EXP DUP2 SLOAD DUP2 PUSH20 0xFFFFFFFFFFFFFFFFFFFFFFFFFFFFFFFFFFFFFFFF MUL NOT AND SWAP1 DUP4 PUSH20 0xFFFFFFFFFFFFFFFFFFFFFFFFFFFFFFFFFFFFFFFF AND MUL OR SWAP1 SSTORE POP PUSH1 0x40 DUP3 ADD MLOAD DUP2 PUSH1 0x2 ADD SSTORE PUSH1 0x60 DUP3 ADD MLOAD DUP2 PUSH1 0x3 ADD SSTORE POP POP JUMP JUMPDEST CALLER PUSH1 0x5 PUSH1 0x4 PUSH0 DUP4 PUSH20 0xFFFFFFFFFFFFFFFFFFFFFFFFFFFFFFFFFFFFFFFF AND PUSH20 0xFFFFFFFFFFFFFFFFFFFFFFFFFFFFFFFFFFFFFFFF AND DUP2 MSTORE PUSH1 0x20 ADD SWAP1 DUP2 MSTORE PUSH1 0x20 ADD PUSH0 KECCAK256 SLOAD LT PUSH2 0x131A JUMPI PUSH1 0x40 MLOAD PUSH32 0x8C379A000000000000000000000000000000000000000000000000000000000 DUP2 MSTORE PUSH1 0x4 ADD PUSH2 0x1311 SWAP1 PUSH2 0x1E2A JUMP JUMPDEST PUSH1 0x40 MLOAD DUP1 SWAP2 SUB SWAP1 REVERT JUMPDEST DUP2 TIMESTAMP GT PUSH2 0x135C JUMPI PUSH1 0x40 MLOAD PUSH32 0x8C379A000000000000000000000000000000000000000000000000000000000 DUP2 MSTORE PUSH1 0x4 ADD PUSH2 0x1353 SWAP1 PUSH2 0x1E92 JUMP JUMPDEST PUSH1 0x40 MLOAD DUP1 SWAP2 SUB SWAP1 REVERT JUMPDEST PUSH0 PUSH1 0x40 MLOAD DUP1 PUSH1 0x80 ADD PUSH1 0x40 MSTORE DUP1 CALLER PUSH20 0xFFFFFFFFFFFFFFFFFFFFFFFFFFFFFFFFFFFFFFFF AND DUP2 MSTORE PUSH1 0x20 ADD ADDRESS PUSH20 0xFFFFFFFFFFFFFFFFFFFFFFFFFFFFFFFFFFFFFFFF AND DUP2 MSTORE PUSH1 0x20 ADD TIMESTAMP DUP2 MSTORE PUSH1 0x20 ADD CALLVALUE DUP2 MSTORE POP SWAP1 DUP1 PUSH1 0x1 DUP2 SLOAD ADD DUP1 DUP3 SSTORE DUP1 SWAP2 POP POP PUSH1 0x1 SWAP1 SUB SWAP1 PUSH0 MSTORE PUSH1 0x20 PUSH0 KECCAK256 SWAP1 PUSH1 0x4 MUL ADD PUSH0 SWAP1 SWAP2 SWAP1 SWAP2 SWAP1 SWAP2 POP PUSH0 DUP3 ADD MLOAD DUP2 PUSH0 ADD PUSH0 PUSH2 0x100 EXP DUP2 SLOAD DUP2 PUSH20 0xFFFFFFFFFFFFFFFFFFFFFFFFFFFFFFFFFFFFFFFF MUL NOT AND SWAP1 DUP4 PUSH20 0xFFFFFFFFFFFFFFFFFFFFFFFFFFFFFFFFFFFFFFFF AND MUL OR SWAP1 SSTORE POP PUSH1 0x20 DUP3 ADD MLOAD DUP2 PUSH1 0x1 ADD PUSH0 PUSH2 0x100 EXP DUP2 SLOAD DUP2 PUSH20 0xFFFFFFFFFFFFFFFFFFFFFFFFFFFFFFFFFFFFFFFF MUL NOT AND SWAP1 DUP4 PUSH20 0xFFFFFFFFFFFFFFFFFFFFFFFFFFFFFFFFFFFFFFFF AND MUL OR SWAP1 SSTORE POP PUSH1 0x40 DUP3 ADD MLOAD DUP2 PUSH1 0x2 ADD SSTORE PUSH1 0x60 DUP3 ADD MLOAD DUP2 PUSH1 0x3 ADD SSTORE POP POP POP POP JUMP JUMPDEST PUSH1 0x1 PUSH0 SWAP1 SLOAD SWAP1 PUSH2 0x100 EXP SWAP1 DIV PUSH20 0xFFFFFFFFFFFFFFFFFFFFFFFFFFFFFFFFFFFFFFFF AND PUSH20 0xFFFFFFFFFFFFFFFFFFFFFFFFFFFFFFFFFFFFFFFF AND CALLER PUSH20 0xFFFFFFFFFFFFFFFFFFFFFFFFFFFFFFFFFFFFFFFF AND EQ PUSH2 0x1503 JUMPI PUSH1 0x40 MLOAD PUSH32 0x8C379A000000000000000000000000000000000000000000000000000000000 DUP2 MSTORE PUSH1 0x4 ADD PUSH2 0x14FA SWAP1 PUSH2 0x1A5A JUMP JUMPDEST PUSH1 0x40 MLOAD DUP1 SWAP2 SUB SWAP1 REVERT JUMPDEST PUSH0 ISZERO ISZERO PUSH1 0x3 PUSH0 SWAP1 SLOAD SWAP1 PUSH2 0x100 EXP SWAP1 DIV PUSH1 0xFF AND ISZERO ISZERO EQ PUSH2 0x1557 JUMPI PUSH1 0x40 MLOAD PUSH32 0x8C379A000000000000000000000000000000000000000000000000000000000 DUP2 MSTORE PUSH1 0x4 ADD PUSH2 0x154E SWAP1 PUSH2 0x1EFA JUMP JUMPDEST PUSH1 0x40 MLOAD DUP1 SWAP2 SUB SWAP1 REVERT JUMPDEST DUP1 PUSH1 0x1 PUSH0 PUSH2 0x100 EXP DUP2 SLOAD DUP2 PUSH20 0xFFFFFFFFFFFFFFFFFFFFFFFFFFFFFFFFFFFFFFFF MUL NOT AND SWAP1 DUP4 PUSH20 0xFFFFFFFFFFFFFFFFFFFFFFFFFFFFFFFFFFFFFFFF AND MUL OR SWAP1 SSTORE POP POP JUMP JUMPDEST PUSH0 PUSH20 0xFFFFFFFFFFFFFFFFFFFFFFFFFFFFFFFFFFFFFFFF DUP3 AND SWAP1 POP SWAP2 SWAP1 POP JUMP JUMPDEST PUSH0 PUSH2 0x15C3 DUP3 PUSH2 0x159A JUMP JUMPDEST SWAP1 POP SWAP2 SWAP1 POP JUMP JUMPDEST PUSH2 0x15D3 DUP2 PUSH2 0x15B9 JUMP JUMPDEST DUP3 MSTORE POP POP JUMP JUMPDEST PUSH0 DUP2 SWAP1 POP SWAP2 SWAP1 POP JUMP JUMPDEST PUSH2 0x15EB DUP2 PUSH2 0x15D9 JUMP JUMPDEST DUP3 MSTORE POP POP JUMP JUMPDEST PUSH0 PUSH1 0x40 DUP3 ADD SWAP1 POP PUSH2 0x1604 PUSH0 DUP4 ADD DUP6 PUSH2 0x15CA JUMP JUMPDEST PUSH2 0x1611 PUSH1 0x20 DUP4 ADD DUP5 PUSH2 0x15E2 JUMP JUMPDEST SWAP4 SWAP3 POP POP POP JUMP JUMPDEST PUSH0 DUP2 ISZERO ISZERO SWAP1 POP SWAP2 SWAP1 POP JUMP JUMPDEST PUSH2 0x162C DUP2 PUSH2 0x1618 JUMP JUMPDEST DUP3 MSTORE POP POP JUMP JUMPDEST PUSH0 PUSH1 0x20 DUP3 ADD SWAP1 POP PUSH2 0x1645 PUSH0 DUP4 ADD DUP5 PUSH2 0x1623 JUMP JUMPDEST SWAP3 SWAP2 POP POP JUMP JUMPDEST PUSH0 DUP1 REVERT JUMPDEST PUSH2 0x1658 DUP2 PUSH2 0x15D9 JUMP JUMPDEST DUP2 EQ PUSH2 0x1662 JUMPI PUSH0 DUP1 REVERT JUMPDEST POP JUMP JUMPDEST PUSH0 DUP2 CALLDATALOAD SWAP1 POP PUSH2 0x1673 DUP2 PUSH2 0x164F JUMP JUMPDEST SWAP3 SWAP2 POP POP JUMP JUMPDEST PUSH0 PUSH1 0x20 DUP3 DUP5 SUB SLT ISZERO PUSH2 0x168E JUMPI PUSH2 0x168D PUSH2 0x164B JUMP JUMPDEST JUMPDEST PUSH0 PUSH2 0x169B DUP5 DUP3 DUP6 ADD PUSH2 0x1665 JUMP JUMPDEST SWAP2 POP POP SWAP3 SWAP2 POP POP JUMP JUMPDEST PUSH0 PUSH1 0x80 DUP3 ADD SWAP1 POP PUSH2 0x16B7 PUSH0 DUP4 ADD DUP8 PUSH2 0x15CA JUMP JUMPDEST PUSH2 0x16C4 PUSH1 0x20 DUP4 ADD DUP7 PUSH2 0x15CA JUMP JUMPDEST PUSH2 0x16D1 PUSH1 0x40 DUP4 ADD DUP6 PUSH2 0x15E2 JUMP JUMPDEST PUSH2 0x16DE PUSH1 0x60 DUP4 ADD DUP5 PUSH2 0x15E2 JUMP JUMPDEST SWAP6 SWAP5 POP POP POP POP POP JUMP JUMPDEST PUSH0 PUSH2 0x16F1 DUP3 PUSH2 0x159A JUMP JUMPDEST SWAP1 POP SWAP2 SWAP1 POP JUMP JUMPDEST PUSH2 0x1701 DUP2 PUSH2 0x16E7 JUMP JUMPDEST DUP2 EQ PUSH2 0x170B JUMPI PUSH0 DUP1 REVERT JUMPDEST POP JUMP JUMPDEST PUSH0 DUP2 CALLDATALOAD SWAP1 POP PUSH2 0x171C DUP2 PUSH2 0x16F8 JUMP JUMPDEST SWAP3 SWAP2 POP POP JUMP JUMPDEST PUSH0 DUP1 PUSH1 0x40 DUP4 DUP6 SUB SLT ISZERO PUSH2 0x1738 JUMPI PUSH2 0x1737 PUSH2 0x164B JUMP JUMPDEST JUMPDEST PUSH0 PUSH2 0x1745 DUP6 DUP3 DUP7 ADD PUSH2 0x170E JUMP JUMPDEST SWAP3 POP POP PUSH1 0x20 PUSH2 0x1756 DUP6 DUP3 DUP7 ADD PUSH2 0x1665 JUMP JUMPDEST SWAP2 POP POP SWAP3 POP SWAP3 SWAP1 POP JUMP JUMPDEST PUSH0 PUSH1 0x20 DUP3 ADD SWAP1 POP PUSH2 0x1773 PUSH0 DUP4 ADD DUP5 PUSH2 0x15E2 JUMP JUMPDEST SWAP3 SWAP2 POP POP JUMP JUMPDEST PUSH2 0x1782 DUP2 PUSH2 0x15B9 JUMP JUMPDEST DUP2 EQ PUSH2 0x178C JUMPI PUSH0 DUP1 REVERT JUMPDEST POP JUMP JUMPDEST PUSH0 DUP2 CALLDATALOAD SWAP1 POP PUSH2 0x179D DUP2 PUSH2 0x1779 JUMP JUMPDEST SWAP3 SWAP2 POP POP JUMP JUMPDEST PUSH0 PUSH1 0x20 DUP3 DUP5 SUB SLT ISZERO PUSH2 0x17B8 JUMPI PUSH2 0x17B7 PUSH2 0x164B JUMP JUMPDEST JUMPDEST PUSH0 PUSH2 0x17C5 DUP5 DUP3 DUP6 ADD PUSH2 0x178F JUMP JUMPDEST SWAP2 POP POP SWAP3 SWAP2 POP POP JUMP JUMPDEST PUSH0 PUSH1 0x20 DUP3 ADD SWAP1 POP PUSH2 0x17E1 PUSH0 DUP4 ADD DUP5 PUSH2 0x15CA JUMP JUMPDEST SWAP3 SWAP2 POP POP JUMP JUMPDEST PUSH0 DUP2 MLOAD SWAP1 POP SWAP2 SWAP1 POP JUMP JUMPDEST PUSH0 DUP3 DUP3 MSTORE PUSH1 0x20 DUP3 ADD SWAP1 POP SWAP3 SWAP2 POP POP JUMP JUMPDEST PUSH0 DUP2 SWAP1 POP PUSH1 0x20 DUP3 ADD SWAP1 POP SWAP2 SWAP1 POP JUMP JUMPDEST PUSH2 0x1819 DUP2 PUSH2 0x15B9 JUMP JUMPDEST DUP3 MSTORE POP POP JUMP JUMPDEST PUSH2 0x1828 DUP2 PUSH2 0x15D9 JUMP JUMPDEST DUP3 MSTORE POP POP JUMP JUMPDEST PUSH1 0x80 DUP3 ADD PUSH0 DUP3 ADD MLOAD PUSH2 0x1842 PUSH0 DUP6 ADD DUP3 PUSH2 0x1810 JUMP JUMPDEST POP PUSH1 0x20 DUP3 ADD MLOAD PUSH2 0x1855 PUSH1 0x20 DUP6 ADD DUP3 PUSH2 0x1810 JUMP JUMPDEST POP PUSH1 0x40 DUP3 ADD MLOAD PUSH2 0x1868 PUSH1 0x40 DUP6 ADD DUP3 PUSH2 0x181F JUMP JUMPDEST POP PUSH1 0x60 DUP3 ADD MLOAD PUSH2 0x187B PUSH1 0x60 DUP6 ADD DUP3 PUSH2 0x181F JUMP JUMPDEST POP POP POP POP JUMP JUMPDEST PUSH0 PUSH2 0x188C DUP4 DUP4 PUSH2 0x182E JUMP JUMPDEST PUSH1 0x80 DUP4 ADD SWAP1 POP SWAP3 SWAP2 POP POP JUMP JUMPDEST PUSH0 PUSH1 0x20 DUP3 ADD SWAP1 POP SWAP2 SWAP1 POP JUMP JUMPDEST PUSH0 PUSH2 0x18AE DUP3 PUSH2 0x17E7 JUMP JUMPDEST PUSH2 0x18B8 DUP2 DUP6 PUSH2 0x17F1 JUMP JUMPDEST SWAP4 POP PUSH2 0x18C3 DUP4 PUSH2 0x1801 JUMP JUMPDEST DUP1 PUSH0 JUMPDEST DUP4 DUP2 LT ISZERO PUSH2 0x18F3 JUMPI DUP2 MLOAD PUSH2 0x18DA DUP9 DUP3 PUSH2 0x1881 JUMP JUMPDEST SWAP8 POP PUSH2 0x18E5 DUP4 PUSH2 0x1898 JUMP JUMPDEST SWAP3 POP POP PUSH1 0x1 DUP2 ADD SWAP1 POP PUSH2 0x18C6 JUMP JUMPDEST POP DUP6 SWAP4 POP POP POP POP SWAP3 SWAP2 POP POP JUMP JUMPDEST PUSH0 PUSH1 0x20 DUP3 ADD SWAP1 POP DUP2 DUP2 SUB PUSH0 DUP4 ADD MSTORE PUSH2 0x1918 DUP2 DUP5 PUSH2 0x18A4 JUMP JUMPDEST SWAP1 POP SWAP3 SWAP2 POP POP JUMP JUMPDEST PUSH0 DUP2 MLOAD SWAP1 POP SWAP2 SWAP1 POP JUMP JUMPDEST PUSH0 DUP3 DUP3 MSTORE PUSH1 0x20 DUP3 ADD SWAP1 POP SWAP3 SWAP2 POP POP JUMP JUMPDEST DUP3 DUP2 DUP4 MCOPY PUSH0 DUP4 DUP4 ADD MSTORE POP POP POP JUMP JUMPDEST PUSH0 PUSH1 0x1F NOT PUSH1 0x1F DUP4 ADD AND SWAP1 POP SWAP2 SWAP1 POP JUMP JUMPDEST PUSH0 PUSH2 0x1962 DUP3 PUSH2 0x1920 JUMP JUMPDEST PUSH2 0x196C DUP2 DUP6 PUSH2 0x192A JUMP JUMPDEST SWAP4 POP PUSH2 0x197C DUP2 DUP6 PUSH1 0x20 DUP7 ADD PUSH2 0x193A JUMP JUMPDEST PUSH2 0x1985 DUP2 PUSH2 0x1948 JUMP JUMPDEST DUP5 ADD SWAP2 POP POP SWAP3 SWAP2 POP POP JUMP JUMPDEST PUSH0 PUSH1 0x20 DUP3 ADD SWAP1 POP DUP2 DUP2 SUB PUSH0 DUP4 ADD MSTORE PUSH2 0x19A8 DUP2 DUP5 PUSH2 0x1958 JUMP JUMPDEST SWAP1 POP SWAP3 SWAP2 POP POP JUMP JUMPDEST PUSH32 0x4E487B7100000000000000000000000000000000000000000000000000000000 PUSH0 MSTORE PUSH1 0x11 PUSH1 0x4 MSTORE PUSH1 0x24 PUSH0 REVERT JUMPDEST PUSH0 PUSH2 0x19E7 DUP3 PUSH2 0x15D9 JUMP JUMPDEST SWAP2 POP PUSH2 0x19F2 DUP4 PUSH2 0x15D9 JUMP JUMPDEST SWAP3 POP DUP3 DUP3 ADD SWAP1 POP DUP1 DUP3 GT ISZERO PUSH2 0x1A0A JUMPI PUSH2 0x1A09 PUSH2 0x19B0 JUMP JUMPDEST JUMPDEST SWAP3 SWAP2 POP POP JUMP JUMPDEST PUSH32 0x596F7520646F6E27742068617665206163636573730000000000000000000000 PUSH0 DUP3 ADD MSTORE POP JUMP JUMPDEST PUSH0 PUSH2 0x1A44 PUSH1 0x15 DUP4 PUSH2 0x192A JUMP JUMPDEST SWAP2 POP PUSH2 0x1A4F DUP3 PUSH2 0x1A10 JUMP JUMPDEST PUSH1 0x20 DUP3 ADD SWAP1 POP SWAP2 SWAP1 POP JUMP JUMPDEST PUSH0 PUSH1 0x20 DUP3 ADD SWAP1 POP DUP2 DUP2 SUB PUSH0 DUP4 ADD MSTORE PUSH2 0x1A71 DUP2 PUSH2 0x1A38 JUMP JUMPDEST SWAP1 POP SWAP2 SWAP1 POP JUMP JUMPDEST PUSH32 0x496E73756666696369656E742042616C616E6365000000000000000000000000 PUSH0 DUP3 ADD MSTORE POP JUMP JUMPDEST PUSH0 PUSH2 0x1AAC PUSH1 0x14 DUP4 PUSH2 0x192A JUMP JUMPDEST SWAP2 POP PUSH2 0x1AB7 DUP3 PUSH2 0x1A78 JUMP JUMPDEST PUSH1 0x20 DUP3 ADD SWAP1 POP SWAP2 SWAP1 POP JUMP JUMPDEST PUSH0 PUSH1 0x20 DUP3 ADD SWAP1 POP DUP2 DUP2 SUB PUSH0 DUP4 ADD MSTORE PUSH2 0x1AD9 DUP2 PUSH2 0x1AA0 JUMP JUMPDEST SWAP1 POP SWAP2 SWAP1 POP JUMP JUMPDEST PUSH32 0x41647265737320666F726D617420696E636F7272656374000000000000000000 PUSH0 DUP3 ADD MSTORE POP JUMP JUMPDEST PUSH0 PUSH2 0x1B14 PUSH1 0x17 DUP4 PUSH2 0x192A JUMP JUMPDEST SWAP2 POP PUSH2 0x1B1F DUP3 PUSH2 0x1AE0 JUMP JUMPDEST PUSH1 0x20 DUP3 ADD SWAP1 POP SWAP2 SWAP1 POP JUMP JUMPDEST PUSH0 PUSH1 0x20 DUP3 ADD SWAP1 POP DUP2 DUP2 SUB PUSH0 DUP4 ADD MSTORE PUSH2 0x1B41 DUP2 PUSH2 0x1B08 JUMP JUMPDEST SWAP1 POP SWAP2 SWAP1 POP JUMP JUMPDEST PUSH0 DUP2 SWAP1 POP SWAP2 SWAP1 POP JUMP JUMPDEST PUSH0 PUSH2 0x1B6B PUSH2 0x1B66 PUSH2 0x1B61 DUP5 PUSH2 0x159A JUMP JUMPDEST PUSH2 0x1B48 JUMP JUMPDEST PUSH2 0x159A JUMP JUMPDEST SWAP1 POP SWAP2 SWAP1 POP JUMP JUMPDEST PUSH0 PUSH2 0x1B7C DUP3 PUSH2 0x1B51 JUMP JUMPDEST SWAP1 POP SWAP2 SWAP1 POP JUMP JUMPDEST PUSH0 PUSH2 0x1B8D DUP3 PUSH2 0x1B72 JUMP JUMPDEST SWAP1 POP SWAP2 SWAP1 POP JUMP JUMPDEST PUSH2 0x1B9D DUP2 PUSH2 0x1B83 JUMP JUMPDEST DUP3 MSTORE POP POP JUMP JUMPDEST PUSH0 PUSH1 0x40 DUP3 ADD SWAP1 POP PUSH2 0x1BB6 PUSH0 DUP4 ADD DUP6 PUSH2 0x1B94 JUMP JUMPDEST PUSH2 0x1BC3 PUSH1 0x20 DUP4 ADD DUP5 PUSH2 0x15E2 JUMP JUMPDEST SWAP4 SWAP3 POP POP POP JUMP JUMPDEST PUSH32 0x456D657267656E6379206E6F74206465636C6172656400000000000000000000 PUSH0 DUP3 ADD MSTORE POP JUMP JUMPDEST PUSH0 PUSH2 0x1BFE PUSH1 0x16 DUP4 PUSH2 0x192A JUMP JUMPDEST SWAP2 POP PUSH2 0x1C09 DUP3 PUSH2 0x1BCA JUMP JUMPDEST PUSH1 0x20 DUP3 ADD SWAP1 POP SWAP2 SWAP1 POP JUMP JUMPDEST PUSH0 PUSH1 0x20 DUP3 ADD SWAP1 POP DUP2 DUP2 SUB PUSH0 DUP4 ADD MSTORE PUSH2 0x1C2B DUP2 PUSH2 0x1BF2 JUMP JUMPDEST SWAP1 POP SWAP2 SWAP1 POP JUMP JUMPDEST PUSH32 0x496E7375666666696369656E742062616C616E63650000000000000000000000 PUSH0 DUP3 ADD MSTORE POP JUMP JUMPDEST PUSH0 PUSH2 0x1C66 PUSH1 0x15 DUP4 PUSH2 0x192A JUMP JUMPDEST SWAP2 POP PUSH2 0x1C71 DUP3 PUSH2 0x1C32 JUMP JUMPDEST PUSH1 0x20 DUP3 ADD SWAP1 POP SWAP2 SWAP1 POP JUMP JUMPDEST PUSH0 PUSH1 0x20 DUP3 ADD SWAP1 POP DUP2 DUP2 SUB PUSH0 DUP4 ADD MSTORE PUSH2 0x1C93 DUP2 PUSH2 0x1C5A JUMP JUMPDEST SWAP1 POP SWAP2 SWAP1 POP JUMP JUMPDEST PUSH32 0x4E487B7100000000000000000000000000000000000000000000000000000000 PUSH0 MSTORE PUSH1 0x22 PUSH1 0x4 MSTORE PUSH1 0x24 PUSH0 REVERT JUMPDEST PUSH0 PUSH1 0x2 DUP3 DIV SWAP1 POP PUSH1 0x1 DUP3 AND DUP1 PUSH2 0x1CDE JUMPI PUSH1 0x7F DUP3 AND SWAP2 POP JUMPDEST PUSH1 0x20 DUP3 LT DUP2 SUB PUSH2 0x1CF1 JUMPI PUSH2 0x1CF0 PUSH2 0x1C9A JUMP JUMPDEST JUMPDEST POP SWAP2 SWAP1 POP JUMP JUMPDEST PUSH32 0x5765692056616C7565206D7573742062652067726561746572207468616E207A PUSH0 DUP3 ADD MSTORE PUSH32 0x65726F0000000000000000000000000000000000000000000000000000000000 PUSH1 0x20 DUP3 ADD MSTORE POP JUMP JUMPDEST PUSH0 PUSH2 0x1D51 PUSH1 0x23 DUP4 PUSH2 0x192A JUMP JUMPDEST SWAP2 POP PUSH2 0x1D5C DUP3 PUSH2 0x1CF7 JUMP JUMPDEST PUSH1 0x40 DUP3 ADD SWAP1 POP SWAP2 SWAP1 POP JUMP JUMPDEST PUSH0 PUSH1 0x20 DUP3 ADD SWAP1 POP DUP2 DUP2 SUB PUSH0 DUP4 ADD MSTORE PUSH2 0x1D7E DUP2 PUSH2 0x1D45 JUMP JUMPDEST SWAP1 POP SWAP2 SWAP1 POP JUMP JUMPDEST PUSH0 PUSH1 0x60 DUP3 ADD SWAP1 POP PUSH2 0x1D98 PUSH0 DUP4 ADD DUP7 PUSH2 0x15CA JUMP JUMPDEST PUSH2 0x1DA5 PUSH1 0x20 DUP4 ADD DUP6 PUSH2 0x15CA JUMP JUMPDEST PUSH2 0x1DB2 PUSH1 0x40 DUP4 ADD DUP5 PUSH2 0x15E2 JUMP JUMPDEST SWAP5 SWAP4 POP POP POP POP JUMP JUMPDEST PUSH32 0x416374697669747920666F756E6420737573706963696F75732C20547279206C PUSH0 DUP3 ADD MSTORE PUSH32 0x6174657200000000000000000000000000000000000000000000000000000000 PUSH1 0x20 DUP3 ADD MSTORE POP JUMP JUMPDEST PUSH0 PUSH2 0x1E14 PUSH1 0x24 DUP4 PUSH2 0x192A JUMP JUMPDEST SWAP2 POP PUSH2 0x1E1F DUP3 PUSH2 0x1DBA JUMP JUMPDEST PUSH1 0x40 DUP3 ADD SWAP1 POP SWAP2 SWAP1 POP JUMP JUMPDEST PUSH0 PUSH1 0x20 DUP3 ADD SWAP1 POP DUP2 DUP2 SUB PUSH0 DUP4 ADD MSTORE PUSH2 0x1E41 DUP2 PUSH2 0x1E08 JUMP JUMPDEST SWAP1 POP SWAP2 SWAP1 POP JUMP JUMPDEST PUSH32 0x73656E642061667465722073746172742074696D650000000000000000000000 PUSH0 DUP3 ADD MSTORE POP JUMP JUMPDEST PUSH0 PUSH2 0x1E7C PUSH1 0x15 DUP4 PUSH2 0x192A JUMP JUMPDEST SWAP2 POP PUSH2 0x1E87 DUP3 PUSH2 0x1E48 JUMP JUMPDEST PUSH1 0x20 DUP3 ADD SWAP1 POP SWAP2 SWAP1 POP JUMP JUMPDEST PUSH0 PUSH1 0x20 DUP3 ADD SWAP1 POP DUP2 DUP2 SUB PUSH0 DUP4 ADD MSTORE PUSH2 0x1EA9 DUP2 PUSH2 0x1E70 JUMP JUMPDEST SWAP1 POP SWAP2 SWAP1 POP JUMP JUMPDEST PUSH32 0x456D657267656E6379206465636C617265640000000000000000000000000000 PUSH0 DUP3 ADD MSTORE POP JUMP JUMPDEST PUSH0 PUSH2 0x1EE4 PUSH1 0x12 DUP4 PUSH2 0x192A JUMP JUMPDEST SWAP2 POP PUSH2 0x1EEF DUP3 PUSH2 0x1EB0 JUMP JUMPDEST PUSH1 0x20 DUP3 ADD SWAP1 POP SWAP2 SWAP1 POP JUMP JUMPDEST PUSH0 PUSH1 0x20 DUP3 ADD SWAP1 POP DUP2 DUP2 SUB PUSH0 DUP4 ADD MSTORE PUSH2 0x1F11 DUP2 PUSH2 0x1ED8 JUMP JUMPDEST SWAP1 POP SWAP2 SWAP1 POP JUMP INVALID LOG2 PUSH5 0x6970667358 0x22 SLT KECCAK256 PUSH15 0x5B8B5451916CD5E1EE2C18148FC39A SWAP13 0x2C TIMESTAMP LOG4 0xA9 SLT 0xD 0xC5 PUSH6 0xD1AD8F0104A 0xD5 PUSH5 0x736F6C6343 STOP ADDMOD BYTE STOP CALLER "
				},
				"gasEstimates": {
					"creation": {
						"codeDepositCost": "1602800",
						"executionCost": "25943",
						"totalCost": "1628743"
					},
					"external": {
						"": "infinite",
						"changOwner(address)": "29141",
						"emergencyWithdrawl()": "infinite",
						"getContractBalanceInWei()": "401",
						"getOwnerBalanceInWei()": "5163",
						"getTransactionHistory()": "infinite",
						"owner()": "2575",
						"receiveFromUser()": "infinite",
						"stop()": "2490",
						"str()": "infinite",
						"suspiciousActivity(address)": "infinite",
						"toggleStop()": "28805",
						"transactionHistory(uint256)": "infinite",
						"transferToContract(uint256)": "119916",
						"transferToUserViaContract(address,uint256)": "infinite",
						"transferToUserViaMsgValue(address)": "infinite",
						"withdrawFromContract(uint256)": "infinite"
					}
				},
				"methodIdentifiers": {
					"changOwner(address)": "eb2d9fd3",
					"emergencyWithdrawl()": "7935e5a3",
					"getContractBalanceInWei()": "bfa698de",
					"getOwnerBalanceInWei()": "547fbe8e",
					"getTransactionHistory()": "b76d4fc3",
					"owner()": "8da5cb5b",
					"receiveFromUser()": "d2b53948",
					"stop()": "07da68f5",
					"str()": "c15bae84",
					"suspiciousActivity(address)": "cf87f052",
					"toggleStop()": "9a70eef1",
					"transactionHistory(uint256)": "243e7a87",
					"transferToContract(uint256)": "d555d473",
					"transferToUserViaContract(address,uint256)": "47cdcc1f",
					"transferToUserViaMsgValue(address)": "6f3f42ac",
					"withdrawFromContract(uint256)": "aeae547d"
				}
			},
			"storageLayout": {
				"storage": [
					{
						"astId": 14,
						"contract": "contracts/Projects/Wallet.sol:SimpleWallet",
						"label": "transactionHistory",
						"offset": 0,
						"slot": "0",
						"type": "t_array(t_struct(Transaction)10_storage)dyn_storage"
					},
					{
						"astId": 16,
						"contract": "contracts/Projects/Wallet.sol:SimpleWallet",
						"label": "owner",
						"offset": 0,
						"slot": "1",
						"type": "t_address"
					},
					{
						"astId": 18,
						"contract": "contracts/Projects/Wallet.sol:SimpleWallet",
						"label": "str",
						"offset": 0,
						"slot": "2",
						"type": "t_string_storage"
					},
					{
						"astId": 20,
						"contract": "contracts/Projects/Wallet.sol:SimpleWallet",
						"label": "stop",
						"offset": 0,
						"slot": "3",
						"type": "t_bool"
					},
					{
						"astId": 65,
						"contract": "contracts/Projects/Wallet.sol:SimpleWallet",
						"label": "suspiciousUser",
						"offset": 0,
						"slot": "4",
						"type": "t_mapping(t_address,t_uint256)"
					}
				],
				"types": {
					"t_address": {
						"encoding": "inplace",
						"label": "address",
						"numberOfBytes": "20"
					},
					"t_array(t_struct(Transaction)10_storage)dyn_storage": {
						"base": "t_struct(Transaction)10_storage",
						"encoding": "dynamic_array",
						"label": "struct SimpleWallet.Transaction[]",
						"numberOfBytes": "32"
					},
					"t_bool": {
						"encoding": "inplace",
						"label": "bool",
						"numberOfBytes": "1"
					},
					"t_mapping(t_address,t_uint256)": {
						"encoding": "mapping",
						"key": "t_address",
						"label": "mapping(address => uint256)",
						"numberOfBytes": "32",
						"value": "t_uint256"
					},
					"t_string_storage": {
						"encoding": "bytes",
						"label": "string",
						"numberOfBytes": "32"
					},
					"t_struct(Transaction)10_storage": {
						"encoding": "inplace",
						"label": "struct SimpleWallet.Transaction",
						"members": [
							{
								"astId": 3,
								"contract": "contracts/Projects/Wallet.sol:SimpleWallet",
								"label": "from",
								"offset": 0,
								"slot": "0",
								"type": "t_address"
							},
							{
								"astId": 5,
								"contract": "contracts/Projects/Wallet.sol:SimpleWallet",
								"label": "to",
								"offset": 0,
								"slot": "1",
								"type": "t_address"
							},
							{
								"astId": 7,
								"contract": "contracts/Projects/Wallet.sol:SimpleWallet",
								"label": "timestamp",
								"offset": 0,
								"slot": "2",
								"type": "t_uint256"
							},
							{
								"astId": 9,
								"contract": "contracts/Projects/Wallet.sol:SimpleWallet",
								"label": "amount",
								"offset": 0,
								"slot": "3",
								"type": "t_uint256"
							}
						],
						"numberOfBytes": "128"
					},
					"t_uint256": {
						"encoding": "inplace",
						"label": "uint256",
						"numberOfBytes": "32"
					}
				}
			},
			"userdoc": {
				"kind": "user",
				"methods": {
					"transferToContract(uint256)": {
						"notice": "Contract related functions*"
					},
					"transferToUserViaMsgValue(address)": {
						"notice": "User related functions*"
					}
				},
				"version": 1
			}
		}
	}
}